{
  "contractName": "Awardee",
  "abi": [
    {
      "inputs": [
        {
          "internalType": "string",
          "name": "_email",
          "type": "string"
        },
        {
          "internalType": "string",
          "name": "_name",
          "type": "string"
        }
      ],
      "stateMutability": "nonpayable",
      "type": "constructor"
    },
    {
      "inputs": [
        {
          "internalType": "uint256",
          "name": "",
          "type": "uint256"
        }
      ],
      "name": "accessRights",
      "outputs": [
        {
          "internalType": "address",
          "name": "",
          "type": "address"
        }
      ],
      "stateMutability": "view",
      "type": "function"
    },
    {
      "inputs": [
        {
          "internalType": "uint256",
          "name": "",
          "type": "uint256"
        }
      ],
      "name": "certificates",
      "outputs": [
        {
          "internalType": "contract Certificate",
          "name": "certificate",
          "type": "address"
        },
        {
          "internalType": "uint256",
          "name": "tokenID",
          "type": "uint256"
        }
      ],
      "stateMutability": "view",
      "type": "function"
    },
    {
      "inputs": [],
      "name": "email",
      "outputs": [
        {
          "internalType": "string",
          "name": "",
          "type": "string"
        }
      ],
      "stateMutability": "view",
      "type": "function"
    },
    {
      "inputs": [],
      "name": "name",
      "outputs": [
        {
          "internalType": "string",
          "name": "",
          "type": "string"
        }
      ],
      "stateMutability": "view",
      "type": "function"
    },
    {
      "inputs": [],
      "name": "privacy",
      "outputs": [
        {
          "internalType": "bool",
          "name": "",
          "type": "bool"
        }
      ],
      "stateMutability": "view",
      "type": "function"
    },
    {
      "inputs": [],
      "name": "walletAddress",
      "outputs": [
        {
          "internalType": "address",
          "name": "",
          "type": "address"
        }
      ],
      "stateMutability": "view",
      "type": "function"
    },
    {
      "inputs": [
        {
          "internalType": "uint256",
          "name": "",
          "type": "uint256"
        }
      ],
      "name": "workExperiences",
      "outputs": [
        {
          "internalType": "contract WorkExperience",
          "name": "",
          "type": "address"
        }
      ],
      "stateMutability": "view",
      "type": "function"
    },
    {
      "inputs": [
        {
          "internalType": "address",
          "name": "_walletAddress",
          "type": "address"
        }
      ],
      "name": "setWalletAddress",
      "outputs": [],
      "stateMutability": "nonpayable",
      "type": "function"
    },
    {
      "inputs": [
        {
          "internalType": "address",
          "name": "certificateAddress",
          "type": "address"
        },
        {
          "internalType": "uint256",
          "name": "tokenID",
          "type": "uint256"
        }
      ],
      "name": "addCertificate",
      "outputs": [],
      "stateMutability": "nonpayable",
      "type": "function"
    },
    {
      "inputs": [],
      "name": "getCertificates",
      "outputs": [
        {
          "components": [
            {
              "internalType": "contract Certificate",
              "name": "certificate",
              "type": "address"
            },
            {
              "internalType": "uint256",
              "name": "tokenID",
              "type": "uint256"
            }
          ],
          "internalType": "struct Awardee.CertificateToken[]",
          "name": "",
          "type": "tuple[]"
        }
      ],
      "stateMutability": "view",
      "type": "function"
    },
    {
      "inputs": [
        {
          "internalType": "address",
          "name": "workExperienceAddress",
          "type": "address"
        }
      ],
      "name": "addWorkExperience",
      "outputs": [],
      "stateMutability": "nonpayable",
      "type": "function"
    }
  ],
  "bytecode": "0x608060405234801561001057600080fd5b5060405161083538038061083583398101604081905261002f916101b9565b815161004290600090602085019061005e565b50805161005690600190602084019061005e565b505050610257565b82805461006a9061021c565b90600052602060002090601f01602090048101928261008c57600085556100d2565b82601f106100a557805160ff19168380011785556100d2565b828001600101855582156100d2579182015b828111156100d25782518255916020019190600101906100b7565b506100de9291506100e2565b5090565b5b808211156100de57600081556001016100e3565b634e487b7160e01b600052604160045260246000fd5b600082601f83011261011e57600080fd5b81516001600160401b0380821115610138576101386100f7565b604051601f8301601f19908116603f01168101908282118183101715610160576101606100f7565b8160405283815260209250868385880101111561017c57600080fd5b600091505b8382101561019e5785820183015181830184015290820190610181565b838211156101af5760008385830101525b9695505050505050565b600080604083850312156101cc57600080fd5b82516001600160401b03808211156101e357600080fd5b6101ef8683870161010d565b9350602085015191508082111561020557600080fd5b506102128582860161010d565b9150509250929050565b600181811c9082168061023057607f821691505b6020821081141561025157634e487b7160e01b600052602260045260246000fd5b50919050565b6105cf806102666000396000f3fe608060405234801561001057600080fd5b50600436106100995760003560e01c806306fdde031461009e5780631f5ddb4f146100bc57806323678505146100d15780634bdbd39a14610133578063573668db14610150578063663b3e221461017b5780636ad5b3ea146101ad57806374f752e5146101c0578063820e93f5146101d3578063ac1a386a146101db578063d422f0221461020b575b600080fd5b6100a66102ae565b6040516100b39190610430565b60405180910390f35b6100c461033c565b6040516100b39190610485565b6101316100df3660046104f9565b600480546001810182556000919091527f8a35acfbc15ff81a39ae7d344fd709f28e8600b4aa8c65c6b64bfe7fe36bd19b0180546001600160a01b0319166001600160a01b0392909216919091179055565b005b6006546101409060ff1681565b60405190151581526020016100b3565b61016361015e36600461051b565b6103b1565b6040516001600160a01b0390911681526020016100b3565b61018e61018936600461051b565b6103db565b604080516001600160a01b0390931683526020830191909152016100b3565b600254610163906001600160a01b031681565b6101636101ce36600461051b565b610413565b6100a6610423565b6101316101e93660046104f9565b600280546001600160a01b0319166001600160a01b0392909216919091179055565b610131610219366004610534565b604080518082019091526001600160a01b039283168152602081019182526003805460018101825560009190915290517fc2575a0e9e593c00f959f8c92f12db2869c3395a3b0502d05e2516446f71f85b600290920291820180546001600160a01b0319169190941617909255517fc2575a0e9e593c00f959f8c92f12db2869c3395a3b0502d05e2516446f71f85c90910155565b600180546102bb9061055e565b80601f01602080910402602001604051908101604052809291908181526020018280546102e79061055e565b80156103345780601f1061030957610100808354040283529160200191610334565b820191906000526020600020905b81548152906001019060200180831161031757829003601f168201915b505050505081565b60606003805480602002602001604051908101604052809291908181526020016000905b828210156103a8576000848152602090819020604080518082019091526002850290910180546001600160a01b03168252600190810154828401529083529092019101610360565b50505050905090565b600581815481106103c157600080fd5b6000918252602090912001546001600160a01b0316905081565b600381815481106103eb57600080fd5b6000918252602090912060029091020180546001909101546001600160a01b03909116915082565b600481815481106103c157600080fd5b600080546102bb9061055e565b600060208083528351808285015260005b8181101561045d57858101830151858201604001528201610441565b8181111561046f576000604083870101525b50601f01601f1916929092016040019392505050565b602080825282518282018190526000919060409081850190868401855b828110156104d057815180516001600160a01b031685528601518685015292840192908501906001016104a2565b5091979650505050505050565b80356001600160a01b03811681146104f457600080fd5b919050565b60006020828403121561050b57600080fd5b610514826104dd565b9392505050565b60006020828403121561052d57600080fd5b5035919050565b6000806040838503121561054757600080fd5b610550836104dd565b946020939093013593505050565b600181811c9082168061057257607f821691505b6020821081141561059357634e487b7160e01b600052602260045260246000fd5b5091905056fea26469706673582212206c3435f6f1edf530a31b3b2c7b987a04a61d6dfa2ce7923ed8792b691edf42e364736f6c634300080c0033",
  "immutableReferences": {},
  "source": "// SPDX-License-Identifier: UNLICENSED\r\npragma solidity ^0.8.0;\r\n\r\nimport './Certificate.sol';\r\nimport './WorkExperience.sol';\r\n\r\ncontract Awardee {\r\n    string public email;\r\n    string public name;\r\n    address public walletAddress;\r\n    CertificateToken[] public certificates;\r\n    WorkExperience[] public workExperiences;\r\n    address[] public accessRights;\r\n    bool public privacy;\r\n\r\n    struct CertificateToken{\r\n        Certificate certificate;\r\n        uint256 tokenID;\r\n    }\r\n\r\n    constructor(string memory _email, string memory _name) {\r\n        email = _email;\r\n        name = _name;\r\n    }\r\n\r\n    function setWalletAddress(\r\n        address _walletAddress\r\n    ) public {\r\n        // (require) wallet address to be address(0)\r\n        walletAddress = _walletAddress;\r\n    }\r\n\r\n    function addCertificate(\r\n        address certificateAddress,\r\n        uint256 tokenID\r\n    ) public {\r\n        CertificateToken memory certificateToken = CertificateToken({\r\n            certificate: Certificate(certificateAddress),\r\n            tokenID: tokenID\r\n        });\r\n        certificates.push(certificateToken);\r\n    }\r\n\r\n    function getCertificates() public view returns (CertificateToken[] memory){\r\n        return certificates;\r\n    }\r\n\r\n    function addWorkExperience(\r\n        address workExperienceAddress\r\n    ) public {\r\n        workExperiences.push(WorkExperience(workExperienceAddress));\r\n    }\r\n\r\n}",
  "sourcePath": "C:\\Users\\MHA\\desktop\\credibly-fe\\ethereum\\contracts\\Awardee.sol",
  "compiler": {
    "name": "solc",
    "version": "0.8.12+commit.f00d7308.Emscripten.clang"
  },
  "schemaVersion": "3.4.6",
  "updatedAt": "2022-03-24T15:57:39.218Z",
  "devdoc": {
    "kind": "dev",
    "methods": {},
    "version": 1
  },
  "userdoc": {
    "kind": "user",
    "methods": {},
    "version": 1
  }
}