{
  "contractName": "Awardee",
  "abi": [
    {
      "inputs": [
        {
          "internalType": "string",
          "name": "email",
          "type": "string"
        }
      ],
      "stateMutability": "nonpayable",
      "type": "constructor"
    },
    {
      "inputs": [
        {
          "internalType": "uint256",
          "name": "",
          "type": "uint256"
        }
      ],
      "name": "accessRights",
      "outputs": [
        {
          "internalType": "address",
          "name": "",
          "type": "address"
        }
      ],
      "stateMutability": "view",
      "type": "function"
    },
    {
      "inputs": [
        {
          "internalType": "uint256",
          "name": "",
          "type": "uint256"
        }
      ],
      "name": "certificates",
      "outputs": [
        {
          "internalType": "contract Certificate",
          "name": "certificate",
          "type": "address"
        },
        {
          "internalType": "uint256",
          "name": "tokenID",
          "type": "uint256"
        }
      ],
      "stateMutability": "view",
      "type": "function"
    },
    {
      "inputs": [],
      "name": "email",
      "outputs": [
        {
          "internalType": "string",
          "name": "",
          "type": "string"
        }
      ],
      "stateMutability": "view",
      "type": "function"
    },
    {
      "inputs": [],
      "name": "privacy",
      "outputs": [
        {
          "internalType": "bool",
          "name": "",
          "type": "bool"
        }
      ],
      "stateMutability": "view",
      "type": "function"
    },
    {
      "inputs": [],
      "name": "walletAddress",
      "outputs": [
        {
          "internalType": "address",
          "name": "",
          "type": "address"
        }
      ],
      "stateMutability": "view",
      "type": "function"
    },
    {
      "inputs": [
        {
          "internalType": "address",
          "name": "walletAddress",
          "type": "address"
        }
      ],
      "name": "setWalletAddress",
      "outputs": [],
      "stateMutability": "nonpayable",
      "type": "function"
    },
    {
      "inputs": [
        {
          "internalType": "address",
          "name": "certificateAddress",
          "type": "address"
        },
        {
          "internalType": "uint256",
          "name": "tokenID",
          "type": "uint256"
        }
      ],
      "name": "addCertificate",
      "outputs": [],
      "stateMutability": "nonpayable",
      "type": "function"
    },
    {
      "inputs": [],
      "name": "getCertificates",
      "outputs": [
        {
          "components": [
            {
              "internalType": "contract Certificate",
              "name": "certificate",
              "type": "address"
            },
            {
              "internalType": "uint256",
              "name": "tokenID",
              "type": "uint256"
            }
          ],
          "internalType": "struct Awardee.CertificateToken[]",
          "name": "",
          "type": "tuple[]"
        }
      ],
      "stateMutability": "view",
      "type": "function"
    }
  ],
  "bytecode": "0x608060405234801561001057600080fd5b5060405161061e38038061061e83398101604081905261002f9161004b565b5061011a565b634e487b7160e01b600052604160045260246000fd5b6000602080838503121561005e57600080fd5b82516001600160401b038082111561007557600080fd5b818501915085601f83011261008957600080fd5b81518181111561009b5761009b610035565b604051601f8201601f19908116603f011681019083821181831017156100c3576100c3610035565b8160405282815288868487010111156100db57600080fd5b600093505b828410156100fd57848401860151818501870152928501926100e0565b8284111561010e5760008684830101525b98975050505050505050565b6104f5806101296000396000f3fe608060405234801561001057600080fd5b50600436106100785760003560e01c80631f5ddb4f1461007d5780634bdbd39a1461009b578063573668db146100b8578063663b3e22146100e35780636ad5b3ea14610115578063820e93f514610128578063ac1a386a1461013d578063d422f02214610150575b600080fd5b6100856101f1565b6040516100929190610356565b60405180910390f35b6004546100a89060ff1681565b6040519015158152602001610092565b6100cb6100c63660046103ae565b610266565b6040516001600160a01b039091168152602001610092565b6100f66100f13660046103ae565b610290565b604080516001600160a01b039093168352602083019190915201610092565b6001546100cb906001600160a01b031681565b6101306102c8565b60405161009291906103c7565b61014e61014b366004610438565b50565b005b61014e61015e36600461045a565b604080518082019091526001600160a01b0392831681526020810191825260028054600181018255600082905291517f405787fa12a823e0f2b7631cc41b3ba8828b3321ca811111fa75cd3aa3bb5ace9290910291820180546001600160a01b0319169190941617909255517f405787fa12a823e0f2b7631cc41b3ba8828b3321ca811111fa75cd3aa3bb5acf90910155565b60606002805480602002602001604051908101604052809291908181526020016000905b8282101561025d576000848152602090819020604080518082019091526002850290910180546001600160a01b03168252600190810154828401529083529092019101610215565b50505050905090565b6003818154811061027657600080fd5b6000918252602090912001546001600160a01b0316905081565b600281815481106102a057600080fd5b6000918252602090912060029091020180546001909101546001600160a01b03909116915082565b600080546102d590610484565b80601f016020809104026020016040519081016040528092919081815260200182805461030190610484565b801561034e5780601f106103235761010080835404028352916020019161034e565b820191906000526020600020905b81548152906001019060200180831161033157829003601f168201915b505050505081565b602080825282518282018190526000919060409081850190868401855b828110156103a157815180516001600160a01b03168552860151868501529284019290850190600101610373565b5091979650505050505050565b6000602082840312156103c057600080fd5b5035919050565b600060208083528351808285015260005b818110156103f4578581018301518582016040015282016103d8565b81811115610406576000604083870101525b50601f01601f1916929092016040019392505050565b80356001600160a01b038116811461043357600080fd5b919050565b60006020828403121561044a57600080fd5b6104538261041c565b9392505050565b6000806040838503121561046d57600080fd5b6104768361041c565b946020939093013593505050565b600181811c9082168061049857607f821691505b602082108114156104b957634e487b7160e01b600052602260045260246000fd5b5091905056fea2646970667358221220e82c7e3f4eb2a41bab515af22801c510786555d0b3aa83eda7024bee98d69ad864736f6c634300080c0033",
  "immutableReferences": {},
  "source": "// SPDX-License-Identifier: UNLICENSED\r\npragma solidity ^0.8.0;\r\n\r\nimport './Certificate.sol';\r\n\r\ncontract Awardee {\r\n    string public email;\r\n    address public walletAddress;\r\n    CertificateToken[] public certificates;\r\n    // WorkExperienceToken[] public workExperiences;\r\n    address[] public accessRights;\r\n    bool public privacy;\r\n\r\n    // struct workExperienceToken{\r\n    //     WorkExperiences workExperience;\r\n    //     uint256 tokenID;\r\n    // }\r\n\r\n    struct CertificateToken{\r\n        Certificate certificate;\r\n        uint256 tokenID;\r\n    }\r\n\r\n    constructor(string memory email) {\r\n        email = email;\r\n    }\r\n\r\n    function setWalletAddress(\r\n        address walletAddress\r\n    ) public {\r\n        // (require) wallet address to be address(0)\r\n        walletAddress = walletAddress;\r\n    }\r\n\r\n    function addCertificate(\r\n        address certificateAddress,\r\n        uint256 tokenID\r\n    ) public {\r\n        CertificateToken memory certificateToken = CertificateToken({\r\n            certificate: Certificate(certificateAddress),\r\n            tokenID: tokenID\r\n        });\r\n        certificates.push(certificateToken);\r\n    }\r\n\r\n    function getCertificates() public view returns (CertificateToken[] memory){\r\n        return certificates;\r\n    }\r\n\r\n}",
  "sourcePath": "C:\\Users\\MHA\\desktop\\credibly-fe\\ethereum\\contracts\\Awardee.sol",
  "compiler": {
    "name": "solc",
    "version": "0.8.12+commit.f00d7308.Emscripten.clang"
  },
  "schemaVersion": "3.4.6",
  "updatedAt": "2022-03-22T05:50:32.508Z",
  "devdoc": {
    "kind": "dev",
    "methods": {},
    "version": 1
  },
  "userdoc": {
    "kind": "user",
    "methods": {},
    "version": 1
  }
}