{
  "contractName": "Awardee",
  "abi": [
    {
      "inputs": [
        {
          "internalType": "string",
          "name": "_email",
          "type": "string"
        },
        {
          "internalType": "string",
          "name": "_name",
          "type": "string"
        }
      ],
      "stateMutability": "nonpayable",
      "type": "constructor"
    },
    {
      "inputs": [],
      "name": "email",
      "outputs": [
        {
          "internalType": "string",
          "name": "",
          "type": "string"
        }
      ],
      "stateMutability": "view",
      "type": "function"
    },
    {
      "inputs": [],
      "name": "linkedWalletAddress",
      "outputs": [
        {
          "internalType": "bool",
          "name": "",
          "type": "bool"
        }
      ],
      "stateMutability": "view",
      "type": "function"
    },
    {
      "inputs": [],
      "name": "name",
      "outputs": [
        {
          "internalType": "string",
          "name": "",
          "type": "string"
        }
      ],
      "stateMutability": "view",
      "type": "function"
    },
    {
      "inputs": [
        {
          "internalType": "string",
          "name": "newEmail",
          "type": "string"
        }
      ],
      "name": "updateEmail",
      "outputs": [],
      "stateMutability": "nonpayable",
      "type": "function"
    },
    {
      "inputs": [
        {
          "internalType": "bool",
          "name": "visible",
          "type": "bool"
        }
      ],
      "name": "setVisibility",
      "outputs": [],
      "stateMutability": "nonpayable",
      "type": "function"
    },
    {
      "inputs": [
        {
          "internalType": "address",
          "name": "user",
          "type": "address"
        }
      ],
      "name": "addAccessRights",
      "outputs": [],
      "stateMutability": "nonpayable",
      "type": "function"
    },
    {
      "inputs": [
        {
          "internalType": "address",
          "name": "user",
          "type": "address"
        }
      ],
      "name": "removeAccessRights",
      "outputs": [],
      "stateMutability": "nonpayable",
      "type": "function"
    },
    {
      "inputs": [
        {
          "internalType": "address",
          "name": "_walletAddress",
          "type": "address"
        }
      ],
      "name": "setWalletAddress",
      "outputs": [],
      "stateMutability": "nonpayable",
      "type": "function"
    },
    {
      "inputs": [
        {
          "internalType": "address",
          "name": "certificateAddress",
          "type": "address"
        },
        {
          "internalType": "uint256",
          "name": "tokenId",
          "type": "uint256"
        }
      ],
      "name": "addCertificate",
      "outputs": [],
      "stateMutability": "nonpayable",
      "type": "function"
    },
    {
      "inputs": [],
      "name": "getCertificates",
      "outputs": [
        {
          "components": [
            {
              "internalType": "contract Certificate",
              "name": "certificate",
              "type": "address"
            },
            {
              "internalType": "uint256",
              "name": "tokenId",
              "type": "uint256"
            }
          ],
          "internalType": "struct Awardee.CertificateToken[]",
          "name": "",
          "type": "tuple[]"
        }
      ],
      "stateMutability": "view",
      "type": "function"
    },
    {
      "inputs": [
        {
          "internalType": "address",
          "name": "workExperienceAddress",
          "type": "address"
        }
      ],
      "name": "addWorkExperience",
      "outputs": [],
      "stateMutability": "nonpayable",
      "type": "function"
    },
    {
      "inputs": [],
      "name": "getWorkExperiences",
      "outputs": [
        {
          "internalType": "contract WorkExperience[]",
          "name": "",
          "type": "address[]"
        }
      ],
      "stateMutability": "view",
      "type": "function"
    }
  ],
  "bytecode": "0x60806040523480156200001157600080fd5b5060405162000c4d38038062000c4d8339810160408190526200003491620001ea565b81516200004990600090602085019062000077565b5080516200005f90600190602084019062000077565b50506005805461ff0019166101001790555062000291565b828054620000859062000254565b90600052602060002090601f016020900481019282620000a95760008555620000f4565b82601f10620000c457805160ff1916838001178555620000f4565b82800160010185558215620000f4579182015b82811115620000f4578251825591602001919060010190620000d7565b506200010292915062000106565b5090565b5b8082111562000102576000815560010162000107565b634e487b7160e01b600052604160045260246000fd5b600082601f8301126200014557600080fd5b81516001600160401b03808211156200016257620001626200011d565b604051601f8301601f19908116603f011681019082821181831017156200018d576200018d6200011d565b81604052838152602092508683858801011115620001aa57600080fd5b600091505b83821015620001ce5785820183015181830184015290820190620001af565b83821115620001e05760008385830101525b9695505050505050565b60008060408385031215620001fe57600080fd5b82516001600160401b03808211156200021657600080fd5b620002248683870162000133565b935060208501519150808211156200023b57600080fd5b506200024a8582860162000133565b9150509250929050565b600181811c908216806200026957607f821691505b602082108114156200028b57634e487b7160e01b600052602260045260246000fd5b50919050565b6109ac80620002a16000396000f3fe608060405234801561001057600080fd5b50600436106100a45760003560e01c806306fdde03146100a95780631f5ddb4f146100c757806323678505146100dc57806328c30c071461013e57806370b2afa61461015157806377f134c11461016e578063820e93f514610181578063ac1a386a14610189578063cf445b861461019c578063d422f022146101af578063f06099af14610252578063ffad62ca14610265575b600080fd5b6100b161027a565b6040516100be91906106c5565b60405180910390f35b6100cf610308565b6040516100be919061071a565b61013c6100ea36600461078e565b600480546001810182556000919091527f8a35acfbc15ff81a39ae7d344fd709f28e8600b4aa8c65c6b64bfe7fe36bd19b0180546001600160a01b0319166001600160a01b0392909216919091179055565b005b61013c61014c3660046107b0565b6103f3565b60055461015e9060ff1681565b60405190151581526020016100be565b61013c61017c36600461078e565b610437565b6100b1610482565b61013c61019736600461078e565b61048f565b61013c6101aa36600461078e565b6104ce565b61013c6101bd3660046107d2565b604080518082019091526001600160a01b039283168152602081019182526003805460018101825560009190915290517fc2575a0e9e593c00f959f8c92f12db2869c3395a3b0502d05e2516446f71f85b600290920291820180546001600160a01b0319169190941617909255517fc2575a0e9e593c00f959f8c92f12db2869c3395a3b0502d05e2516446f71f85c90910155565b61013c610260366004610812565b61051c565b61026d61055d565b6040516100be91906108c2565b600180546102879061090f565b80601f01602080910402602001604051908101604052809291908181526020018280546102b39061090f565b80156103005780601f106102d557610100808354040283529160200191610300565b820191906000526020600020905b8154815290600101906020018083116102e357829003601f168201915b505050505081565b60055460609060ff16156103805760055460ff6101009091041615156001148061033c57506002546001600160a01b031632145b8061035b57503260009081526006602052604090205460ff1615156001145b6103805760405162461bcd60e51b81526004016103779061094a565b60405180910390fd5b6003805480602002602001604051908101604052809291908181526020016000905b828210156103ea576000848152602090819020604080518082019091526002850290910180546001600160a01b031682526001908101548284015290835290920191016103a2565b50505050905090565b6002546001600160a01b0316321461041d5760405162461bcd60e51b81526004016103779061094a565b600580549115156101000261ff0019909216919091179055565b6002546001600160a01b031632146104615760405162461bcd60e51b81526004016103779061094a565b6001600160a01b03166000908152600660205260409020805460ff19169055565b600080546102879061090f565b60055460ff161561049f57600080fd5b600280546001600160a01b0319166001600160a01b03929092169190911790556005805460ff19166001179055565b6002546001600160a01b031632146104f85760405162461bcd60e51b81526004016103779061094a565b6001600160a01b03166000908152600660205260409020805460ff19166001179055565b6002546001600160a01b031632146105465760405162461bcd60e51b81526004016103779061094a565b805161055990600090602084019061062c565b5050565b60055460609060ff16156105cc5760055460ff6101009091041615156001148061059157506002546001600160a01b031632145b806105b057503260009081526006602052604090205460ff1615156001145b6105cc5760405162461bcd60e51b81526004016103779061094a565b600480548060200260200160405190810160405280929190818152602001828054801561062257602002820191906000526020600020905b81546001600160a01b03168152600190910190602001808311610604575b5050505050905090565b8280546106389061090f565b90600052602060002090601f01602090048101928261065a57600085556106a0565b82601f1061067357805160ff19168380011785556106a0565b828001600101855582156106a0579182015b828111156106a0578251825591602001919060010190610685565b506106ac9291506106b0565b5090565b5b808211156106ac57600081556001016106b1565b600060208083528351808285015260005b818110156106f2578581018301518582016040015282016106d6565b81811115610704576000604083870101525b50601f01601f1916929092016040019392505050565b602080825282518282018190526000919060409081850190868401855b8281101561076557815180516001600160a01b03168552860151868501529284019290850190600101610737565b5091979650505050505050565b80356001600160a01b038116811461078957600080fd5b919050565b6000602082840312156107a057600080fd5b6107a982610772565b9392505050565b6000602082840312156107c257600080fd5b813580151581146107a957600080fd5b600080604083850312156107e557600080fd5b6107ee83610772565b946020939093013593505050565b634e487b7160e01b600052604160045260246000fd5b60006020828403121561082457600080fd5b81356001600160401b038082111561083b57600080fd5b818401915084601f83011261084f57600080fd5b813581811115610861576108616107fc565b604051601f8201601f19908116603f01168101908382118183101715610889576108896107fc565b816040528281528760208487010111156108a257600080fd5b826020860160208301376000928101602001929092525095945050505050565b6020808252825182820181905260009190848201906040850190845b818110156109035783516001600160a01b0316835292840192918401916001016108de565b50909695505050505050565b600181811c9082168061092357607f821691505b6020821081141561094457634e487b7160e01b600052602260045260246000fd5b50919050565b6020808252601290820152712ab730baba3437b934b9b2b2103ab9b2b91760711b60408201526060019056fea2646970667358221220939736cba5a185b1fd67a09196d7915f75cccce1b564a28a1fd6aa5c77f2dcd164736f6c634300080c0033",
  "immutableReferences": {},
  "source": "// SPDX-License-Identifier: UNLICENSED\r\npragma solidity ^0.8.0;\r\n\r\nimport './Certificate.sol';\r\nimport './WorkExperience.sol';\r\n\r\ncontract Awardee {\r\n    string public email;\r\n    string public name;\r\n    address walletAddress;\r\n    CertificateToken[] certificates;\r\n    WorkExperience[] workExperiences;\r\n    bool public linkedWalletAddress;\r\n    bool publicVisibility;\r\n    mapping (address => bool) accessRights;\r\n\r\n    struct CertificateToken{\r\n        Certificate certificate;\r\n        uint256 tokenId;\r\n    }\r\n\r\n    modifier privacySettings {\r\n        if (linkedWalletAddress) {\r\n            require (publicVisibility == true || tx.origin == walletAddress || accessRights[tx.origin] == true, \"Unauthorised user.\");\r\n        }\r\n        _;\r\n    }\r\n\r\n    modifier onlyOwner {\r\n        require(tx.origin == walletAddress, \"Unauthorised user.\");\r\n        _;\r\n    }\r\n\r\n    constructor(string memory _email, string memory _name) {\r\n        email = _email;\r\n        name = _name;\r\n        publicVisibility = true;\r\n    }\r\n\r\n    function updateEmail(string memory newEmail) public onlyOwner {\r\n        email = newEmail;\r\n    }\r\n\r\n    function setVisibility(bool visible) public onlyOwner {\r\n        publicVisibility = visible;\r\n    }\r\n\r\n    function addAccessRights(address user) public onlyOwner {\r\n        accessRights[user] = true;\r\n    }\r\n\r\n    function removeAccessRights(address user) public onlyOwner {\r\n        accessRights[user] = false;\r\n    }\r\n\r\n    function setWalletAddress(\r\n        address _walletAddress\r\n    ) public {\r\n        require(linkedWalletAddress == false);\r\n        walletAddress = _walletAddress;\r\n        linkedWalletAddress = true;\r\n    }\r\n\r\n     function addCertificate(\r\n        address certificateAddress,\r\n        uint256 tokenId\r\n    ) public {\r\n        CertificateToken memory certificateToken = CertificateToken({\r\n            certificate: Certificate(certificateAddress),\r\n            tokenId: tokenId\r\n        });\r\n        certificates.push(certificateToken);\r\n    }\r\n\r\n    function getCertificates() public view privacySettings returns (CertificateToken[] memory){\r\n        return certificates;\r\n    }\r\n\r\n    function addWorkExperience(\r\n        address workExperienceAddress\r\n    ) public {\r\n        workExperiences.push(WorkExperience(workExperienceAddress));\r\n    }\r\n\r\n    function getWorkExperiences() public view privacySettings returns (WorkExperience[] memory){\r\n        return workExperiences;\r\n    }\r\n\r\n}\r\n\r\n",
  "sourcePath": "C:\\Users\\MHA\\Desktop\\credibly-fe\\ethereum\\contracts\\Awardee.sol",
  "compiler": {
    "name": "solc",
    "version": "0.8.12+commit.f00d7308.Emscripten.clang"
  },
  "schemaVersion": "3.4.6",
  "updatedAt": "2022-04-06T06:42:24.843Z",
  "devdoc": {
    "kind": "dev",
    "methods": {},
    "version": 1
  },
  "userdoc": {
    "kind": "user",
    "methods": {},
    "version": 1
  }
}