{
  "contractName": "Awardee",
  "abi": [
    {
      "inputs": [
        {
          "internalType": "string",
          "name": "_email",
          "type": "string"
        },
        {
          "internalType": "string",
          "name": "_name",
          "type": "string"
        }
      ],
      "stateMutability": "nonpayable",
      "type": "constructor"
    },
    {
      "inputs": [
        {
          "internalType": "address",
          "name": "",
          "type": "address"
        }
      ],
      "name": "accessRights",
      "outputs": [
        {
          "internalType": "bool",
          "name": "",
          "type": "bool"
        }
      ],
      "stateMutability": "view",
      "type": "function"
    },
    {
      "inputs": [
        {
          "internalType": "uint256",
          "name": "",
          "type": "uint256"
        }
      ],
      "name": "certificates",
      "outputs": [
        {
          "internalType": "contract Certificate",
          "name": "certificate",
          "type": "address"
        },
        {
          "internalType": "uint256",
          "name": "tokenID",
          "type": "uint256"
        }
      ],
      "stateMutability": "view",
      "type": "function"
    },
    {
      "inputs": [],
      "name": "email",
      "outputs": [
        {
          "internalType": "string",
          "name": "",
          "type": "string"
        }
      ],
      "stateMutability": "view",
      "type": "function"
    },
    {
      "inputs": [],
      "name": "linkedWalletAddress",
      "outputs": [
        {
          "internalType": "bool",
          "name": "",
          "type": "bool"
        }
      ],
      "stateMutability": "view",
      "type": "function"
    },
    {
      "inputs": [],
      "name": "name",
      "outputs": [
        {
          "internalType": "string",
          "name": "",
          "type": "string"
        }
      ],
      "stateMutability": "view",
      "type": "function"
    },
    {
      "inputs": [],
      "name": "walletAddress",
      "outputs": [
        {
          "internalType": "address",
          "name": "",
          "type": "address"
        }
      ],
      "stateMutability": "view",
      "type": "function"
    },
    {
      "inputs": [
        {
          "internalType": "uint256",
          "name": "",
          "type": "uint256"
        }
      ],
      "name": "workExperiences",
      "outputs": [
        {
          "internalType": "contract WorkExperience",
          "name": "",
          "type": "address"
        }
      ],
      "stateMutability": "view",
      "type": "function"
    },
    {
      "inputs": [
        {
          "internalType": "address",
          "name": "user",
          "type": "address"
        }
      ],
      "name": "addAccessRights",
      "outputs": [],
      "stateMutability": "nonpayable",
      "type": "function"
    },
    {
      "inputs": [
        {
          "internalType": "address",
          "name": "user",
          "type": "address"
        }
      ],
      "name": "removeAccessRights",
      "outputs": [],
      "stateMutability": "nonpayable",
      "type": "function"
    },
    {
      "inputs": [
        {
          "internalType": "address",
          "name": "_walletAddress",
          "type": "address"
        }
      ],
      "name": "setWalletAddress",
      "outputs": [],
      "stateMutability": "nonpayable",
      "type": "function"
    },
    {
      "inputs": [
        {
          "internalType": "address",
          "name": "certificateAddress",
          "type": "address"
        },
        {
          "internalType": "uint256",
          "name": "tokenID",
          "type": "uint256"
        }
      ],
      "name": "addCertificate",
      "outputs": [],
      "stateMutability": "nonpayable",
      "type": "function"
    },
    {
      "inputs": [],
      "name": "getCertificates",
      "outputs": [
        {
          "components": [
            {
              "internalType": "contract Certificate",
              "name": "certificate",
              "type": "address"
            },
            {
              "internalType": "uint256",
              "name": "tokenID",
              "type": "uint256"
            }
          ],
          "internalType": "struct Awardee.CertificateToken[]",
          "name": "",
          "type": "tuple[]"
        }
      ],
      "stateMutability": "view",
      "type": "function"
    },
    {
      "inputs": [
        {
          "internalType": "address",
          "name": "workExperienceAddress",
          "type": "address"
        }
      ],
      "name": "addWorkExperience",
      "outputs": [],
      "stateMutability": "nonpayable",
      "type": "function"
    },
    {
      "inputs": [],
      "name": "getWorkExperiences",
      "outputs": [
        {
          "internalType": "contract WorkExperience[]",
          "name": "",
          "type": "address[]"
        }
      ],
      "stateMutability": "view",
      "type": "function"
    }
  ],
  "bytecode": "0x60806040523480156200001157600080fd5b5060405162000b0738038062000b078339810160408190526200003491620001db565b81516200004990600090602085019062000068565b5080516200005f90600190602084019062000068565b50505062000282565b828054620000769062000245565b90600052602060002090601f0160209004810192826200009a5760008555620000e5565b82601f10620000b557805160ff1916838001178555620000e5565b82800160010185558215620000e5579182015b82811115620000e5578251825591602001919060010190620000c8565b50620000f3929150620000f7565b5090565b5b80821115620000f35760008155600101620000f8565b634e487b7160e01b600052604160045260246000fd5b600082601f8301126200013657600080fd5b81516001600160401b03808211156200015357620001536200010e565b604051601f8301601f19908116603f011681019082821181831017156200017e576200017e6200010e565b816040528381526020925086838588010111156200019b57600080fd5b600091505b83821015620001bf5785820183015181830184015290820190620001a0565b83821115620001d15760008385830101525b9695505050505050565b60008060408385031215620001ef57600080fd5b82516001600160401b03808211156200020757600080fd5b620002158683870162000124565b935060208501519150808211156200022c57600080fd5b506200023b8582860162000124565b9150509250929050565b600181811c908216806200025a57607f821691505b602082108114156200027c57634e487b7160e01b600052602260045260246000fd5b50919050565b61087580620002926000396000f3fe608060405234801561001057600080fd5b50600436106100ba5760003560e01c806306fdde03146100bf578063073469b0146100dd5780631f5ddb4f146101105780632367850514610125578063663b3e22146101875780636ad5b3ea146101b957806370b2afa6146101e457806374f752e5146101f157806377f134c114610204578063820e93f514610217578063ac1a386a1461021f578063cf445b8614610232578063d422f02214610245578063ffad62ca146102e8575b600080fd5b6100c76102fd565b6040516100d4919061065d565b60405180910390f35b6101006100eb3660046106ce565b60056020526000908152604090205460ff1681565b60405190151581526020016100d4565b61011861038b565b6040516100d491906106f0565b6101856101333660046106ce565b600480546001810182556000919091527f8a35acfbc15ff81a39ae7d344fd709f28e8600b4aa8c65c6b64bfe7fe36bd19b0180546001600160a01b0319166001600160a01b0392909216919091179055565b005b61019a610195366004610748565b61045f565b604080516001600160a01b0390931683526020830191909152016100d4565b6002546101cc906001600160a01b031681565b6040516001600160a01b0390911681526020016100d4565b6006546101009060ff1681565b6101cc6101ff366004610748565b610497565b6101856102123660046106ce565b6104c1565b6100c761050c565b61018561022d3660046106ce565b610519565b6101856102403660046106ce565b610558565b610185610253366004610761565b604080518082019091526001600160a01b039283168152602081019182526003805460018101825560009190915290517fc2575a0e9e593c00f959f8c92f12db2869c3395a3b0502d05e2516446f71f85b600290920291820180546001600160a01b0319169190941617909255517fc2575a0e9e593c00f959f8c92f12db2869c3395a3b0502d05e2516446f71f85c90910155565b6102f06105a6565b6040516100d4919061078b565b6001805461030a906107d8565b80601f0160208091040260200160405190810160405280929190818152602001828054610336906107d8565b80156103835780601f1061035857610100808354040283529160200191610383565b820191906000526020600020905b81548152906001019060200180831161036657829003601f168201915b505050505081565b60065460609060ff161561045c576002546001600160a01b03163314806103c657503360009081526005602052604090205460ff1615156001145b6103eb5760405162461bcd60e51b81526004016103e290610813565b60405180910390fd5b6003805480602002602001604051908101604052809291908181526020016000905b82821015610455576000848152602090819020604080518082019091526002850290910180546001600160a01b0316825260019081015482840152908352909201910161040d565b5050505090505b90565b6003818154811061046f57600080fd5b6000918252602090912060029091020180546001909101546001600160a01b03909116915082565b600481815481106104a757600080fd5b6000918252602090912001546001600160a01b0316905081565b6002546001600160a01b031633146104eb5760405162461bcd60e51b81526004016103e290610813565b6001600160a01b03166000908152600560205260409020805460ff19169055565b6000805461030a906107d8565b60065460ff161561052957600080fd5b600280546001600160a01b0319166001600160a01b03929092169190911790556006805460ff19166001179055565b6002546001600160a01b031633146105825760405162461bcd60e51b81526004016103e290610813565b6001600160a01b03166000908152600560205260409020805460ff19166001179055565b60065460609060ff161561045c576002546001600160a01b03163314806105e157503360009081526005602052604090205460ff1615156001145b6105fd5760405162461bcd60e51b81526004016103e290610813565b600480548060200260200160405190810160405280929190818152602001828054801561065357602002820191906000526020600020905b81546001600160a01b03168152600190910190602001808311610635575b5050505050905090565b600060208083528351808285015260005b8181101561068a5785810183015185820160400152820161066e565b8181111561069c576000604083870101525b50601f01601f1916929092016040019392505050565b80356001600160a01b03811681146106c957600080fd5b919050565b6000602082840312156106e057600080fd5b6106e9826106b2565b9392505050565b602080825282518282018190526000919060409081850190868401855b8281101561073b57815180516001600160a01b0316855286015186850152928401929085019060010161070d565b5091979650505050505050565b60006020828403121561075a57600080fd5b5035919050565b6000806040838503121561077457600080fd5b61077d836106b2565b946020939093013593505050565b6020808252825182820181905260009190848201906040850190845b818110156107cc5783516001600160a01b0316835292840192918401916001016107a7565b50909695505050505050565b600181811c908216806107ec57607f821691505b6020821081141561080d57634e487b7160e01b600052602260045260246000fd5b50919050565b6020808252601290820152712ab730baba3437b934b9b2b2103ab9b2b91760711b60408201526060019056fea2646970667358221220d9ec1a95db4ef1f391b0837b3e9d8bf39b2041906a6e33753c32c2ff51b5353964736f6c634300080c0033",
  "immutableReferences": {},
  "source": "// SPDX-License-Identifier: UNLICENSED\r\npragma solidity ^0.8.0;\r\n\r\nimport './Certificate.sol';\r\nimport './WorkExperience.sol';\r\n\r\ncontract Awardee {\r\n    string public email;\r\n    string public name;\r\n    address public walletAddress;\r\n    CertificateToken[] public certificates;\r\n    WorkExperience[] public workExperiences;\r\n    mapping (address => bool) public accessRights;\r\n    bool public linkedWalletAddress;\r\n\r\n    struct CertificateToken{\r\n        Certificate certificate;\r\n        uint256 tokenID;\r\n    }\r\n\r\n    modifier privacySettings {\r\n        if (linkedWalletAddress) {\r\n            require (msg.sender == walletAddress || accessRights[msg.sender] == true, \"Unauthorised user.\");\r\n            _;\r\n        }\r\n    }\r\n\r\n    modifier onlyOwner {\r\n        require(msg.sender == walletAddress, \"Unauthorised user.\");\r\n        _;\r\n    }\r\n\r\n    constructor(string memory _email, string memory _name) {\r\n        email = _email;\r\n        name = _name;\r\n    }\r\n\r\n    function addAccessRights(address user) public onlyOwner {\r\n        accessRights[user] = true;\r\n    }\r\n\r\n    function removeAccessRights(address user) public onlyOwner {\r\n        accessRights[user] = false;\r\n    }\r\n\r\n    function setWalletAddress(\r\n        address _walletAddress\r\n    ) public {\r\n        require(linkedWalletAddress == false);\r\n        walletAddress = _walletAddress;\r\n        linkedWalletAddress = true;\r\n    }\r\n\r\n    function addCertificate(\r\n        address certificateAddress,\r\n        uint256 tokenID\r\n    ) public {\r\n        CertificateToken memory certificateToken = CertificateToken({\r\n            certificate: Certificate(certificateAddress),\r\n            tokenID: tokenID\r\n        });\r\n        certificates.push(certificateToken);\r\n    }\r\n\r\n    function getCertificates() public view privacySettings returns (CertificateToken[] memory){\r\n        return certificates;\r\n    }\r\n\r\n    function addWorkExperience(\r\n        address workExperienceAddress\r\n    ) public {\r\n        workExperiences.push(WorkExperience(workExperienceAddress));\r\n    }\r\n\r\n    function getWorkExperiences() public view privacySettings returns (WorkExperience[] memory){\r\n        return workExperiences;\r\n    }\r\n\r\n}",
  "sourcePath": "C:\\Users\\MHA\\desktop\\credibly-fe\\ethereum\\contracts\\Awardee.sol",
  "compiler": {
    "name": "solc",
    "version": "0.8.12+commit.f00d7308.Emscripten.clang"
  },
  "schemaVersion": "3.4.6",
  "updatedAt": "2022-03-24T16:18:58.230Z",
  "devdoc": {
    "kind": "dev",
    "methods": {},
    "version": 1
  },
  "userdoc": {
    "kind": "user",
    "methods": {},
    "version": 1
  }
}