{
  "contractName": "Awardee",
  "abi": [
    {
      "inputs": [
        {
          "internalType": "string",
          "name": "_email",
          "type": "string"
        },
        {
          "internalType": "string",
          "name": "_name",
          "type": "string"
        }
      ],
      "stateMutability": "nonpayable",
      "type": "constructor"
    },
    {
      "inputs": [
        {
          "internalType": "address",
          "name": "",
          "type": "address"
        }
      ],
      "name": "accessRights",
      "outputs": [
        {
          "internalType": "bool",
          "name": "",
          "type": "bool"
        }
      ],
      "stateMutability": "view",
      "type": "function"
    },
    {
      "inputs": [],
      "name": "email",
      "outputs": [
        {
          "internalType": "string",
          "name": "",
          "type": "string"
        }
      ],
      "stateMutability": "view",
      "type": "function"
    },
    {
      "inputs": [],
      "name": "linkedWalletAddress",
      "outputs": [
        {
          "internalType": "bool",
          "name": "",
          "type": "bool"
        }
      ],
      "stateMutability": "view",
      "type": "function"
    },
    {
      "inputs": [],
      "name": "name",
      "outputs": [
        {
          "internalType": "string",
          "name": "",
          "type": "string"
        }
      ],
      "stateMutability": "view",
      "type": "function"
    },
    {
      "inputs": [],
      "name": "walletAddress",
      "outputs": [
        {
          "internalType": "address",
          "name": "",
          "type": "address"
        }
      ],
      "stateMutability": "view",
      "type": "function"
    },
    {
      "inputs": [
        {
          "internalType": "string",
          "name": "newEmail",
          "type": "string"
        }
      ],
      "name": "updateEmail",
      "outputs": [],
      "stateMutability": "nonpayable",
      "type": "function"
    },
    {
      "inputs": [
        {
          "internalType": "bool",
          "name": "visible",
          "type": "bool"
        }
      ],
      "name": "setVisibility",
      "outputs": [],
      "stateMutability": "nonpayable",
      "type": "function"
    },
    {
      "inputs": [
        {
          "internalType": "address",
          "name": "user",
          "type": "address"
        }
      ],
      "name": "addAccessRights",
      "outputs": [],
      "stateMutability": "nonpayable",
      "type": "function"
    },
    {
      "inputs": [
        {
          "internalType": "address",
          "name": "user",
          "type": "address"
        }
      ],
      "name": "removeAccessRights",
      "outputs": [],
      "stateMutability": "nonpayable",
      "type": "function"
    },
    {
      "inputs": [
        {
          "internalType": "address",
          "name": "_walletAddress",
          "type": "address"
        }
      ],
      "name": "setWalletAddress",
      "outputs": [],
      "stateMutability": "nonpayable",
      "type": "function"
    },
    {
      "inputs": [
        {
          "internalType": "address",
          "name": "certificateAddress",
          "type": "address"
        },
        {
          "internalType": "uint256",
          "name": "tokenId",
          "type": "uint256"
        }
      ],
      "name": "addCertificate",
      "outputs": [],
      "stateMutability": "nonpayable",
      "type": "function"
    },
    {
      "inputs": [],
      "name": "getCertificates",
      "outputs": [
        {
          "components": [
            {
              "internalType": "contract Certificate",
              "name": "certificate",
              "type": "address"
            },
            {
              "internalType": "uint256",
              "name": "tokenId",
              "type": "uint256"
            }
          ],
          "internalType": "struct Awardee.CertificateToken[]",
          "name": "",
          "type": "tuple[]"
        }
      ],
      "stateMutability": "view",
      "type": "function"
    },
    {
      "inputs": [
        {
          "internalType": "address",
          "name": "workExperienceAddress",
          "type": "address"
        }
      ],
      "name": "addWorkExperience",
      "outputs": [],
      "stateMutability": "nonpayable",
      "type": "function"
    },
    {
      "inputs": [],
      "name": "getWorkExperiences",
      "outputs": [
        {
          "internalType": "contract WorkExperience[]",
          "name": "",
          "type": "address[]"
        }
      ],
      "stateMutability": "view",
      "type": "function"
    }
  ],
  "bytecode": "0x60806040523480156200001157600080fd5b5060405162000cb138038062000cb18339810160408190526200003491620001ea565b81516200004990600090602085019062000077565b5080516200005f90600190602084019062000077565b50506005805461ff0019166101001790555062000291565b828054620000859062000254565b90600052602060002090601f016020900481019282620000a95760008555620000f4565b82601f10620000c457805160ff1916838001178555620000f4565b82800160010185558215620000f4579182015b82811115620000f4578251825591602001919060010190620000d7565b506200010292915062000106565b5090565b5b8082111562000102576000815560010162000107565b634e487b7160e01b600052604160045260246000fd5b600082601f8301126200014557600080fd5b81516001600160401b03808211156200016257620001626200011d565b604051601f8301601f19908116603f011681019082821181831017156200018d576200018d6200011d565b81604052838152602092508683858801011115620001aa57600080fd5b600091505b83821015620001ce5785820183015181830184015290820190620001af565b83821115620001e05760008385830101525b9695505050505050565b60008060408385031215620001fe57600080fd5b82516001600160401b03808211156200021657600080fd5b620002248683870162000133565b935060208501519150808211156200023b57600080fd5b506200024a8582860162000133565b9150509250929050565b600181811c908216806200026957607f821691505b602082108114156200028b57634e487b7160e01b600052602260045260246000fd5b50919050565b610a1080620002a16000396000f3fe608060405234801561001057600080fd5b50600436106100ba5760003560e01c806306fdde03146100bf578063073469b0146100dd5780631f5ddb4f14610110578063236785051461012557806328c30c07146101875780636ad5b3ea1461019a57806370b2afa6146101c557806377f134c1146101d2578063820e93f5146101e5578063ac1a386a146101ed578063cf445b8614610200578063d422f02214610213578063f06099af146102b6578063ffad62ca146102c9575b600080fd5b6100c76102de565b6040516100d49190610729565b60405180910390f35b6101006100eb36600461079a565b60066020526000908152604090205460ff1681565b60405190151581526020016100d4565b61011861036c565b6040516100d491906107bc565b61018561013336600461079a565b600480546001810182556000919091527f8a35acfbc15ff81a39ae7d344fd709f28e8600b4aa8c65c6b64bfe7fe36bd19b0180546001600160a01b0319166001600160a01b0392909216919091179055565b005b610185610195366004610814565b610457565b6002546101ad906001600160a01b031681565b6040516001600160a01b0390911681526020016100d4565b6005546101009060ff1681565b6101856101e036600461079a565b61049b565b6100c76104e6565b6101856101fb36600461079a565b6104f3565b61018561020e36600461079a565b610532565b610185610221366004610836565b604080518082019091526001600160a01b039283168152602081019182526003805460018101825560009190915290517fc2575a0e9e593c00f959f8c92f12db2869c3395a3b0502d05e2516446f71f85b600290920291820180546001600160a01b0319169190941617909255517fc2575a0e9e593c00f959f8c92f12db2869c3395a3b0502d05e2516446f71f85c90910155565b6101856102c4366004610876565b610580565b6102d16105c1565b6040516100d49190610926565b600180546102eb90610973565b80601f016020809104026020016040519081016040528092919081815260200182805461031790610973565b80156103645780601f1061033957610100808354040283529160200191610364565b820191906000526020600020905b81548152906001019060200180831161034757829003601f168201915b505050505081565b60055460609060ff16156103e45760055460ff610100909104161515600114806103a057506002546001600160a01b031632145b806103bf57503260009081526006602052604090205460ff1615156001145b6103e45760405162461bcd60e51b81526004016103db906109ae565b60405180910390fd5b6003805480602002602001604051908101604052809291908181526020016000905b8282101561044e576000848152602090819020604080518082019091526002850290910180546001600160a01b03168252600190810154828401529083529092019101610406565b50505050905090565b6002546001600160a01b031632146104815760405162461bcd60e51b81526004016103db906109ae565b600580549115156101000261ff0019909216919091179055565b6002546001600160a01b031632146104c55760405162461bcd60e51b81526004016103db906109ae565b6001600160a01b03166000908152600660205260409020805460ff19169055565b600080546102eb90610973565b60055460ff161561050357600080fd5b600280546001600160a01b0319166001600160a01b03929092169190911790556005805460ff19166001179055565b6002546001600160a01b0316321461055c5760405162461bcd60e51b81526004016103db906109ae565b6001600160a01b03166000908152600660205260409020805460ff19166001179055565b6002546001600160a01b031632146105aa5760405162461bcd60e51b81526004016103db906109ae565b80516105bd906000906020840190610690565b5050565b60055460609060ff16156106305760055460ff610100909104161515600114806105f557506002546001600160a01b031632145b8061061457503260009081526006602052604090205460ff1615156001145b6106305760405162461bcd60e51b81526004016103db906109ae565b600480548060200260200160405190810160405280929190818152602001828054801561068657602002820191906000526020600020905b81546001600160a01b03168152600190910190602001808311610668575b5050505050905090565b82805461069c90610973565b90600052602060002090601f0160209004810192826106be5760008555610704565b82601f106106d757805160ff1916838001178555610704565b82800160010185558215610704579182015b828111156107045782518255916020019190600101906106e9565b50610710929150610714565b5090565b5b808211156107105760008155600101610715565b600060208083528351808285015260005b818110156107565785810183015185820160400152820161073a565b81811115610768576000604083870101525b50601f01601f1916929092016040019392505050565b80356001600160a01b038116811461079557600080fd5b919050565b6000602082840312156107ac57600080fd5b6107b58261077e565b9392505050565b602080825282518282018190526000919060409081850190868401855b8281101561080757815180516001600160a01b031685528601518685015292840192908501906001016107d9565b5091979650505050505050565b60006020828403121561082657600080fd5b813580151581146107b557600080fd5b6000806040838503121561084957600080fd5b6108528361077e565b946020939093013593505050565b634e487b7160e01b600052604160045260246000fd5b60006020828403121561088857600080fd5b81356001600160401b038082111561089f57600080fd5b818401915084601f8301126108b357600080fd5b8135818111156108c5576108c5610860565b604051601f8201601f19908116603f011681019083821181831017156108ed576108ed610860565b8160405282815287602084870101111561090657600080fd5b826020860160208301376000928101602001929092525095945050505050565b6020808252825182820181905260009190848201906040850190845b818110156109675783516001600160a01b031683529284019291840191600101610942565b50909695505050505050565b600181811c9082168061098757607f821691505b602082108114156109a857634e487b7160e01b600052602260045260246000fd5b50919050565b6020808252601290820152712ab730baba3437b934b9b2b2103ab9b2b91760711b60408201526060019056fea264697066735822122020f9d5951a1ba7ddd1d72f62157b856ae3024b11ca28ae2ddc48d538bf22f83864736f6c634300080c0033",
  "immutableReferences": {},
  "source": "// SPDX-License-Identifier: UNLICENSED\r\npragma solidity ^0.8.0;\r\n\r\nimport './Certificate.sol';\r\nimport './WorkExperience.sol';\r\n\r\ncontract Awardee {\r\n    string public email;\r\n    string public name;\r\n    address public walletAddress;\r\n    CertificateToken[] certificates;\r\n    WorkExperience[] workExperiences;\r\n    bool public linkedWalletAddress;\r\n    bool publicVisibility;\r\n    mapping (address => bool) public accessRights;\r\n\r\n    struct CertificateToken{\r\n        Certificate certificate;\r\n        uint256 tokenId;\r\n    }\r\n\r\n    modifier privacySettings {\r\n        if (linkedWalletAddress) {\r\n            require (publicVisibility == true || tx.origin == walletAddress || accessRights[tx.origin] == true, \"Unauthorised user.\");\r\n        }\r\n        _;\r\n    }\r\n\r\n    modifier onlyOwner {\r\n        require(tx.origin == walletAddress, \"Unauthorised user.\");\r\n        _;\r\n    }\r\n\r\n    constructor(string memory _email, string memory _name) {\r\n        email = _email;\r\n        name = _name;\r\n        publicVisibility = true;\r\n    }\r\n\r\n    function updateEmail(string memory newEmail) public onlyOwner {\r\n        email = newEmail;\r\n    }\r\n\r\n    function setVisibility(bool visible) public onlyOwner {\r\n        publicVisibility = visible;\r\n    }\r\n\r\n    function addAccessRights(address user) public onlyOwner {\r\n        accessRights[user] = true;\r\n    }\r\n\r\n    function removeAccessRights(address user) public onlyOwner {\r\n        accessRights[user] = false;\r\n    }\r\n\r\n    function setWalletAddress(\r\n        address _walletAddress\r\n    ) public {\r\n        require(linkedWalletAddress == false);\r\n        walletAddress = _walletAddress;\r\n        linkedWalletAddress = true;\r\n    }\r\n\r\n     function addCertificate(\r\n        address certificateAddress,\r\n        uint256 tokenId\r\n    ) public {\r\n        CertificateToken memory certificateToken = CertificateToken({\r\n            certificate: Certificate(certificateAddress),\r\n            tokenId: tokenId\r\n        });\r\n        certificates.push(certificateToken);\r\n    }\r\n\r\n    function getCertificates() public view privacySettings returns (CertificateToken[] memory){\r\n        return certificates;\r\n    }\r\n\r\n    function addWorkExperience(\r\n        address workExperienceAddress\r\n    ) public {\r\n        workExperiences.push(WorkExperience(workExperienceAddress));\r\n    }\r\n\r\n    function getWorkExperiences() public view privacySettings returns (WorkExperience[] memory){\r\n        return workExperiences;\r\n    }\r\n\r\n}\r\n\r\n",
  "sourcePath": "D:\\modules\\credibly-fe\\ethereum\\contracts\\Awardee.sol",
  "compiler": {
    "name": "solc",
    "version": "0.8.12+commit.f00d7308.Emscripten.clang"
  },
  "schemaVersion": "3.4.4",
  "updatedAt": "2022-03-28T15:39:08.695Z",
  "devdoc": {
    "kind": "dev",
    "methods": {},
    "version": 1
  },
  "userdoc": {
    "kind": "user",
    "methods": {},
    "version": 1
  }
}