{
  "contractName": "Awardee",
  "abi": [
    {
      "inputs": [
        {
          "internalType": "string",
          "name": "email",
          "type": "string"
        },
        {
          "internalType": "address",
          "name": "walletAddress",
          "type": "address"
        }
      ],
      "stateMutability": "nonpayable",
      "type": "constructor"
    },
    {
      "inputs": [
        {
          "internalType": "uint256",
          "name": "",
          "type": "uint256"
        }
      ],
      "name": "accessRights",
      "outputs": [
        {
          "internalType": "address",
          "name": "",
          "type": "address"
        }
      ],
      "stateMutability": "view",
      "type": "function"
    },
    {
      "inputs": [
        {
          "internalType": "uint256",
          "name": "",
          "type": "uint256"
        }
      ],
      "name": "certificates",
      "outputs": [
        {
          "internalType": "contract Certificate",
          "name": "certificate",
          "type": "address"
        },
        {
          "internalType": "uint256",
          "name": "tokenID",
          "type": "uint256"
        }
      ],
      "stateMutability": "view",
      "type": "function"
    },
    {
      "inputs": [],
      "name": "email",
      "outputs": [
        {
          "internalType": "string",
          "name": "",
          "type": "string"
        }
      ],
      "stateMutability": "view",
      "type": "function"
    },
    {
      "inputs": [],
      "name": "privacy",
      "outputs": [
        {
          "internalType": "bool",
          "name": "",
          "type": "bool"
        }
      ],
      "stateMutability": "view",
      "type": "function"
    },
    {
      "inputs": [],
      "name": "walletAddress",
      "outputs": [
        {
          "internalType": "address",
          "name": "",
          "type": "address"
        }
      ],
      "stateMutability": "view",
      "type": "function"
    },
    {
      "inputs": [
        {
          "internalType": "address",
          "name": "certificateAddress",
          "type": "address"
        },
        {
          "internalType": "uint256",
          "name": "tokenID",
          "type": "uint256"
        }
      ],
      "name": "addCertificate",
      "outputs": [],
      "stateMutability": "nonpayable",
      "type": "function"
    },
    {
      "inputs": [],
      "name": "getCertificates",
      "outputs": [
        {
          "components": [
            {
              "internalType": "contract Certificate",
              "name": "certificate",
              "type": "address"
            },
            {
              "internalType": "uint256",
              "name": "tokenID",
              "type": "uint256"
            }
          ],
          "internalType": "struct Awardee.CertificateToken[]",
          "name": "",
          "type": "tuple[]"
        }
      ],
      "stateMutability": "view",
      "type": "function"
    }
  ],
  "bytecode": "0x608060405234801561001057600080fd5b5060405161060238038061060283398101604081905261002f91610068565b505061014a565b634e487b7160e01b600052604160045260246000fd5b80516001600160a01b038116811461006357600080fd5b919050565b6000806040838503121561007b57600080fd5b82516001600160401b038082111561009257600080fd5b818501915085601f8301126100a657600080fd5b8151818111156100b8576100b8610036565b604051601f8201601f19908116603f011681019083821181831017156100e0576100e0610036565b816040528281526020935088848487010111156100fc57600080fd5b600091505b8282101561011e5784820184015181830185015290830190610101565b8282111561012f5760008484830101525b955061013f91505085820161004c565b925050509250929050565b6104a9806101596000396000f3fe608060405234801561001057600080fd5b506004361061006d5760003560e01c80631f5ddb4f146100725780634bdbd39a14610090578063573668db146100ad578063663b3e22146100d85780636ad5b3ea1461010a578063820e93f51461011d578063d422f02214610132575b600080fd5b61007a6101d5565b604051610087919061033a565b60405180910390f35b60045461009d9060ff1681565b6040519015158152602001610087565b6100c06100bb366004610392565b61024a565b6040516001600160a01b039091168152602001610087565b6100eb6100e6366004610392565b610274565b604080516001600160a01b039093168352602083019190915201610087565b6001546100c0906001600160a01b031681565b6101256102ac565b60405161008791906103ab565b6101d3610140366004610400565b604080518082019091526001600160a01b0392831681526020810191825260028054600181018255600082905291517f405787fa12a823e0f2b7631cc41b3ba8828b3321ca811111fa75cd3aa3bb5ace9290910291820180546001600160a01b0319169190941617909255517f405787fa12a823e0f2b7631cc41b3ba8828b3321ca811111fa75cd3aa3bb5acf90910155565b005b60606002805480602002602001604051908101604052809291908181526020016000905b82821015610241576000848152602090819020604080518082019091526002850290910180546001600160a01b031682526001908101548284015290835290920191016101f9565b50505050905090565b6003818154811061025a57600080fd5b6000918252602090912001546001600160a01b0316905081565b6002818154811061028457600080fd5b6000918252602090912060029091020180546001909101546001600160a01b03909116915082565b600080546102b990610438565b80601f01602080910402602001604051908101604052809291908181526020018280546102e590610438565b80156103325780601f1061030757610100808354040283529160200191610332565b820191906000526020600020905b81548152906001019060200180831161031557829003601f168201915b505050505081565b602080825282518282018190526000919060409081850190868401855b8281101561038557815180516001600160a01b03168552860151868501529284019290850190600101610357565b5091979650505050505050565b6000602082840312156103a457600080fd5b5035919050565b600060208083528351808285015260005b818110156103d8578581018301518582016040015282016103bc565b818111156103ea576000604083870101525b50601f01601f1916929092016040019392505050565b6000806040838503121561041357600080fd5b82356001600160a01b038116811461042a57600080fd5b946020939093013593505050565b600181811c9082168061044c57607f821691505b6020821081141561046d57634e487b7160e01b600052602260045260246000fd5b5091905056fea2646970667358221220e2d286450b362d3228d139d5992559b279900e7dd5f2d3ac1736ce5708d6a37164736f6c634300080c0033",
  "immutableReferences": {},
  "source": "// SPDX-License-Identifier: UNLICENSED\r\npragma solidity ^0.8.0;\r\n\r\nimport './Certificate.sol';\r\n\r\ncontract Awardee {\r\n    string public email;\r\n    address public walletAddress;\r\n    CertificateToken[] public certificates;\r\n    address[] public accessRights;\r\n    bool public privacy;\r\n\r\n    struct CertificateToken{\r\n        Certificate certificate;\r\n        uint256 tokenID;\r\n    }\r\n\r\n    constructor(string memory email, address walletAddress) {\r\n        email = email;\r\n        walletAddress = walletAddress;\r\n    }\r\n\r\n    function addCertificate(\r\n        address certificateAddress,\r\n        uint256 tokenID\r\n    ) public {\r\n        CertificateToken memory certificateToken = CertificateToken({\r\n            certificate: Certificate(certificateAddress),\r\n            tokenID: tokenID\r\n        });\r\n        certificates.push(certificateToken);\r\n    }\r\n\r\n    function getCertificates() public view returns (CertificateToken[] memory){\r\n        return certificates;\r\n    }\r\n\r\n    // function getWalletAddress() view returns (address) {\r\n    //     return walletAddress;\r\n    // }\r\n\r\n\r\n}",
  "sourcePath": "C:\\Users\\MHA\\desktop\\credibly-fe\\ethereum\\contracts\\Awardee.sol",
  "compiler": {
    "name": "solc",
    "version": "0.8.12+commit.f00d7308.Emscripten.clang"
  },
  "schemaVersion": "3.4.6",
  "updatedAt": "2022-03-20T11:17:31.616Z",
  "devdoc": {
    "kind": "dev",
    "methods": {},
    "version": 1
  },
  "userdoc": {
    "kind": "user",
    "methods": {},
    "version": 1
  }
}