{
  "contractName": "Awardee",
  "abi": [
    {
      "inputs": [
        {
          "internalType": "string",
          "name": "email",
          "type": "string"
        },
        {
          "internalType": "address",
          "name": "walletAddress",
          "type": "address"
        }
      ],
      "stateMutability": "nonpayable",
      "type": "constructor"
    },
    {
      "inputs": [
        {
          "internalType": "uint256",
          "name": "",
          "type": "uint256"
        }
      ],
      "name": "accessRights",
      "outputs": [
        {
          "internalType": "address",
          "name": "",
          "type": "address"
        }
      ],
      "stateMutability": "view",
      "type": "function"
    },
    {
      "inputs": [
        {
          "internalType": "uint256",
          "name": "",
          "type": "uint256"
        }
      ],
      "name": "certificates",
      "outputs": [
        {
          "internalType": "contract Certificate",
          "name": "certificate",
          "type": "address"
        },
        {
          "internalType": "uint256",
          "name": "tokenID",
          "type": "uint256"
        }
      ],
      "stateMutability": "view",
      "type": "function"
    },
    {
      "inputs": [],
      "name": "email",
      "outputs": [
        {
          "internalType": "string",
          "name": "",
          "type": "string"
        }
      ],
      "stateMutability": "view",
      "type": "function"
    },
    {
      "inputs": [],
      "name": "privacy",
      "outputs": [
        {
          "internalType": "bool",
          "name": "",
          "type": "bool"
        }
      ],
      "stateMutability": "view",
      "type": "function"
    },
    {
      "inputs": [],
      "name": "walletAddress",
      "outputs": [
        {
          "internalType": "address",
          "name": "",
          "type": "address"
        }
      ],
      "stateMutability": "view",
      "type": "function"
    },
    {
      "inputs": [
        {
          "internalType": "address",
          "name": "certificateAddress",
          "type": "address"
        },
        {
          "internalType": "uint256",
          "name": "tokenID",
          "type": "uint256"
        }
      ],
      "name": "addCertificate",
      "outputs": [],
      "stateMutability": "nonpayable",
      "type": "function"
    },
    {
      "inputs": [],
      "name": "getCertificates",
      "outputs": [
        {
          "components": [
            {
              "internalType": "contract Certificate",
              "name": "certificate",
              "type": "address"
            },
            {
              "internalType": "uint256",
              "name": "tokenID",
              "type": "uint256"
            }
          ],
          "internalType": "struct Awardee.CertificateToken[]",
          "name": "",
          "type": "tuple[]"
        }
      ],
      "stateMutability": "view",
      "type": "function"
    }
  ],
  "bytecode": "0x60806040523480156200001157600080fd5b5060405162000b6738038062000b67833981810160405281019062000037919062000241565b5050620002a7565b6000604051905090565b600080fd5b600080fd5b600080fd5b600080fd5b6000601f19601f8301169050919050565b7f4e487b7100000000000000000000000000000000000000000000000000000000600052604160045260246000fd5b620000a8826200005d565b810181811067ffffffffffffffff82111715620000ca57620000c96200006e565b5b80604052505050565b6000620000df6200003f565b9050620000ed82826200009d565b919050565b600067ffffffffffffffff82111562000110576200010f6200006e565b5b6200011b826200005d565b9050602081019050919050565b60005b83811015620001485780820151818401526020810190506200012b565b8381111562000158576000848401525b50505050565b6000620001756200016f84620000f2565b620000d3565b90508281526020810184848401111562000194576200019362000058565b5b620001a184828562000128565b509392505050565b600082601f830112620001c157620001c062000053565b5b8151620001d38482602086016200015e565b91505092915050565b600073ffffffffffffffffffffffffffffffffffffffff82169050919050565b60006200020982620001dc565b9050919050565b6200021b81620001fc565b81146200022757600080fd5b50565b6000815190506200023b8162000210565b92915050565b600080604083850312156200025b576200025a62000049565b5b600083015167ffffffffffffffff8111156200027c576200027b6200004e565b5b6200028a85828601620001a9565b92505060206200029d858286016200022a565b9150509250929050565b6108b080620002b76000396000f3fe608060405234801561001057600080fd5b506004361061007d5760003560e01c8063663b3e221161005b578063663b3e22146100ee5780636ad5b3ea1461011f578063820e93f51461013d578063d422f0221461015b5761007d565b80631f5ddb4f146100825780634bdbd39a146100a0578063573668db146100be575b600080fd5b61008a610177565b60405161009791906105b9565b60405180910390f35b6100a8610236565b6040516100b591906105f6565b60405180910390f35b6100d860048036038101906100d39190610642565b610249565b6040516100e59190610690565b60405180910390f35b61010860048036038101906101039190610642565b610288565b6040516101169291906106c9565b60405180910390f35b6101276102dc565b6040516101349190610690565b60405180910390f35b610145610302565b604051610152919061078b565b60405180910390f35b610175600480360381019061017091906107d9565b610390565b005b60606002805480602002602001604051908101604052809291908181526020016000905b8282101561022d57838290600052602060002090600202016040518060400160405290816000820160009054906101000a900473ffffffffffffffffffffffffffffffffffffffff1673ffffffffffffffffffffffffffffffffffffffff1673ffffffffffffffffffffffffffffffffffffffff1681526020016001820154815250508152602001906001019061019b565b50505050905090565b600460009054906101000a900460ff1681565b6003818154811061025957600080fd5b906000526020600020016000915054906101000a900473ffffffffffffffffffffffffffffffffffffffff1681565b6002818154811061029857600080fd5b90600052602060002090600202016000915090508060000160009054906101000a900473ffffffffffffffffffffffffffffffffffffffff16908060010154905082565b600160009054906101000a900473ffffffffffffffffffffffffffffffffffffffff1681565b6000805461030f90610848565b80601f016020809104026020016040519081016040528092919081815260200182805461033b90610848565b80156103885780601f1061035d57610100808354040283529160200191610388565b820191906000526020600020905b81548152906001019060200180831161036b57829003601f168201915b505050505081565b600060405180604001604052808473ffffffffffffffffffffffffffffffffffffffff168152602001838152509050600281908060018154018082558091505060019003906000526020600020906002020160009091909190915060008201518160000160006101000a81548173ffffffffffffffffffffffffffffffffffffffff021916908373ffffffffffffffffffffffffffffffffffffffff160217905550602082015181600101555050505050565b600081519050919050565b600082825260208201905092915050565b6000819050602082019050919050565b600073ffffffffffffffffffffffffffffffffffffffff82169050919050565b6000819050919050565b60006104b46104af6104aa8461046f565b61048f565b61046f565b9050919050565b60006104c682610499565b9050919050565b60006104d8826104bb565b9050919050565b6104e8816104cd565b82525050565b6000819050919050565b610501816104ee565b82525050565b60408201600082015161051d60008501826104df565b50602082015161053060208501826104f8565b50505050565b60006105428383610507565b60408301905092915050565b6000602082019050919050565b600061056682610443565b610570818561044e565b935061057b8361045f565b8060005b838110156105ac5781516105938882610536565b975061059e8361054e565b92505060018101905061057f565b5085935050505092915050565b600060208201905081810360008301526105d3818461055b565b905092915050565b60008115159050919050565b6105f0816105db565b82525050565b600060208201905061060b60008301846105e7565b92915050565b600080fd5b61061f816104ee565b811461062a57600080fd5b50565b60008135905061063c81610616565b92915050565b60006020828403121561065857610657610611565b5b60006106668482850161062d565b91505092915050565b600061067a8261046f565b9050919050565b61068a8161066f565b82525050565b60006020820190506106a56000830184610681565b92915050565b6106b4816104cd565b82525050565b6106c3816104ee565b82525050565b60006040820190506106de60008301856106ab565b6106eb60208301846106ba565b9392505050565b600081519050919050565b600082825260208201905092915050565b60005b8381101561072c578082015181840152602081019050610711565b8381111561073b576000848401525b50505050565b6000601f19601f8301169050919050565b600061075d826106f2565b61076781856106fd565b935061077781856020860161070e565b61078081610741565b840191505092915050565b600060208201905081810360008301526107a58184610752565b905092915050565b6107b68161066f565b81146107c157600080fd5b50565b6000813590506107d3816107ad565b92915050565b600080604083850312156107f0576107ef610611565b5b60006107fe858286016107c4565b925050602061080f8582860161062d565b9150509250929050565b7f4e487b7100000000000000000000000000000000000000000000000000000000600052602260045260246000fd5b6000600282049050600182168061086057607f821691505b6020821081141561087457610873610819565b5b5091905056fea2646970667358221220e07e40d1b4b84cdc9e71c1d8350cca81a2915086a220411714ee833db44a46d864736f6c634300080c0033",
  "immutableReferences": {},
  "source": "// SPDX-License-Identifier: UNLICENSED\r\npragma solidity ^0.8.0;\r\n\r\nimport './Certificate.sol';\r\n\r\ncontract Awardee {\r\n    string public email;\r\n    address public walletAddress;\r\n    CertificateToken[] public certificates;\r\n    address[] public accessRights;\r\n    bool public privacy;\r\n\r\n    struct CertificateToken{\r\n        Certificate certificate;\r\n        uint256 tokenID;\r\n    }\r\n\r\n    constructor(string memory email, address walletAddress) {\r\n        email = email;\r\n        walletAddress = walletAddress;\r\n    }\r\n\r\n    function addCertificate(\r\n        address certificateAddress,\r\n        uint256 tokenID\r\n    ) public {\r\n        CertificateToken memory certificateToken = CertificateToken({\r\n            certificate: Certificate(certificateAddress),\r\n            tokenID: tokenID\r\n        });\r\n        certificates.push(certificateToken);\r\n    }\r\n\r\n    function getCertificates() public view returns (CertificateToken[] memory){\r\n        return certificates;\r\n    }\r\n\r\n    // function getWalletAddress() view returns (address) {\r\n    //     return walletAddress;\r\n    // }\r\n\r\n\r\n}",
  "sourcePath": "C:\\Users\\MHA\\desktop\\credibly-fe\\ethereum\\contracts\\Awardee.sol",
  "compiler": {
    "name": "solc",
    "version": "0.8.12+commit.f00d7308.Emscripten.clang"
  },
  "schemaVersion": "3.4.6",
  "updatedAt": "2022-03-19T15:23:41.354Z",
  "devdoc": {
    "kind": "dev",
    "methods": {},
    "version": 1
  },
  "userdoc": {
    "kind": "user",
    "methods": {},
    "version": 1
  }
}