{
  "contractName": "Awardee",
  "abi": [
    {
      "inputs": [
        {
          "internalType": "string",
          "name": "_email",
          "type": "string"
        },
        {
          "internalType": "string",
          "name": "_name",
          "type": "string"
        }
      ],
      "stateMutability": "nonpayable",
      "type": "constructor"
    },
    {
      "inputs": [],
      "name": "email",
      "outputs": [
        {
          "internalType": "string",
          "name": "",
          "type": "string"
        }
      ],
      "stateMutability": "view",
      "type": "function"
    },
    {
      "inputs": [],
      "name": "linkedWalletAddress",
      "outputs": [
        {
          "internalType": "bool",
          "name": "",
          "type": "bool"
        }
      ],
      "stateMutability": "view",
      "type": "function"
    },
    {
      "inputs": [],
      "name": "name",
      "outputs": [
        {
          "internalType": "string",
          "name": "",
          "type": "string"
        }
      ],
      "stateMutability": "view",
      "type": "function"
    },
    {
      "inputs": [],
      "name": "publicVisibility",
      "outputs": [
        {
          "internalType": "bool",
          "name": "",
          "type": "bool"
        }
      ],
      "stateMutability": "view",
      "type": "function"
    },
    {
      "inputs": [],
      "name": "walletAddress",
      "outputs": [
        {
          "internalType": "address",
          "name": "",
          "type": "address"
        }
      ],
      "stateMutability": "view",
      "type": "function"
    },
    {
      "inputs": [
        {
          "internalType": "address",
          "name": "_walletAddress",
          "type": "address"
        }
      ],
      "name": "setWalletAddress",
      "outputs": [],
      "stateMutability": "nonpayable",
      "type": "function"
    },
    {
      "inputs": [
        {
          "internalType": "string",
          "name": "newEmail",
          "type": "string"
        }
      ],
      "name": "updateEmail",
      "outputs": [],
      "stateMutability": "nonpayable",
      "type": "function"
    },
    {
      "inputs": [
        {
          "internalType": "bool",
          "name": "visible",
          "type": "bool"
        }
      ],
      "name": "setVisibility",
      "outputs": [],
      "stateMutability": "nonpayable",
      "type": "function"
    },
    {
      "inputs": [
        {
          "internalType": "address",
          "name": "user",
          "type": "address"
        }
      ],
      "name": "addAccessRights",
      "outputs": [],
      "stateMutability": "nonpayable",
      "type": "function"
    },
    {
      "inputs": [
        {
          "internalType": "address",
          "name": "user",
          "type": "address"
        }
      ],
      "name": "removeAccessRights",
      "outputs": [],
      "stateMutability": "nonpayable",
      "type": "function"
    },
    {
      "inputs": [
        {
          "internalType": "address",
          "name": "certificateAddress",
          "type": "address"
        },
        {
          "internalType": "uint256",
          "name": "tokenId",
          "type": "uint256"
        }
      ],
      "name": "addCertificate",
      "outputs": [],
      "stateMutability": "nonpayable",
      "type": "function"
    },
    {
      "inputs": [
        {
          "internalType": "address",
          "name": "workExperienceAddress",
          "type": "address"
        }
      ],
      "name": "addWorkExperience",
      "outputs": [],
      "stateMutability": "nonpayable",
      "type": "function"
    },
    {
      "inputs": [],
      "name": "getCertificates",
      "outputs": [
        {
          "components": [
            {
              "internalType": "contract Certificate",
              "name": "certificate",
              "type": "address"
            },
            {
              "internalType": "uint256",
              "name": "tokenId",
              "type": "uint256"
            }
          ],
          "internalType": "struct Awardee.CertificateToken[]",
          "name": "",
          "type": "tuple[]"
        }
      ],
      "stateMutability": "view",
      "type": "function"
    },
    {
      "inputs": [],
      "name": "getWorkExperiences",
      "outputs": [
        {
          "internalType": "contract WorkExperience[]",
          "name": "",
          "type": "address[]"
        }
      ],
      "stateMutability": "view",
      "type": "function"
    },
    {
      "inputs": [],
      "name": "getApprovedAccess",
      "outputs": [
        {
          "internalType": "address[]",
          "name": "",
          "type": "address[]"
        }
      ],
      "stateMutability": "view",
      "type": "function"
    }
  ],
  "bytecode": "0x60806040523480156200001157600080fd5b5060405162000f1238038062000f128339810160408190526200003491620001ea565b81516200004990600090602085019062000077565b5080516200005f90600190602084019062000077565b50506006805461ff0019166101001790555062000291565b828054620000859062000254565b90600052602060002090601f016020900481019282620000a95760008555620000f4565b82601f10620000c457805160ff1916838001178555620000f4565b82800160010185558215620000f4579182015b82811115620000f4578251825591602001919060010190620000d7565b506200010292915062000106565b5090565b5b8082111562000102576000815560010162000107565b634e487b7160e01b600052604160045260246000fd5b600082601f8301126200014557600080fd5b81516001600160401b03808211156200016257620001626200011d565b604051601f8301601f19908116603f011681019082821181831017156200018d576200018d6200011d565b81604052838152602092508683858801011115620001aa57600080fd5b600091505b83821015620001ce5785820183015181830184015290820190620001af565b83821115620001e05760008385830101525b9695505050505050565b60008060408385031215620001fe57600080fd5b82516001600160401b03808211156200021657600080fd5b620002248683870162000133565b935060208501519150808211156200023b57600080fd5b506200024a8582860162000133565b9150509250929050565b600181811c908216806200026957607f821691505b602082108114156200028b57634e487b7160e01b600052602260045260246000fd5b50919050565b610c7180620002a16000396000f3fe608060405234801561001057600080fd5b50600436106100c55760003560e01c806306fdde03146100ca5780631f5ddb4f146100e857806323678505146100fd57806328c30c071461015f5780636ad5b3ea1461017257806370b2afa61461019d57806377f134c1146101ba578063820e93f5146101cd578063ac1a386a146101d5578063c777e565146101e8578063cf445b86146101fa578063d422f0221461020d578063dbd38ba2146102b0578063f06099af146102c5578063ffad62ca146102d8575b600080fd5b6100d26102e0565b6040516100df9190610916565b60405180910390f35b6100f061036e565b6040516100df919061096b565b61015d61010b3660046109df565b600480546001810182556000919091527f8a35acfbc15ff81a39ae7d344fd709f28e8600b4aa8c65c6b64bfe7fe36bd19b0180546001600160a01b0319166001600160a01b0392909216919091179055565b005b61015d61016d366004610a01565b610459565b600254610185906001600160a01b031681565b6040516001600160a01b0390911681526020016100df565b6006546101aa9060ff1681565b60405190151581526020016100df565b61015d6101c83660046109df565b61049d565b6100d2610615565b61015d6101e33660046109df565b610622565b6006546101aa90610100900460ff1681565b61015d6102083660046109df565b610661565b61015d61021b366004610a23565b604080518082019091526001600160a01b039283168152602081019182526003805460018101825560009190915290517fc2575a0e9e593c00f959f8c92f12db2869c3395a3b0502d05e2516446f71f85b600290920291820180546001600160a01b0319169190941617909255517fc2575a0e9e593c00f959f8c92f12db2869c3395a3b0502d05e2516446f71f85c90910155565b6102b8610711565b6040516100df9190610a4d565b61015d6102d3366004610ab0565b610773565b6102b86107b0565b600180546102ed90610b60565b80601f016020809104026020016040519081016040528092919081815260200182805461031990610b60565b80156103665780601f1061033b57610100808354040283529160200191610366565b820191906000526020600020905b81548152906001019060200180831161034957829003601f168201915b505050505081565b60065460609060ff16156103e65760065460ff610100909104161515600114806103a257506002546001600160a01b031632145b806103c157503260009081526007602052604090205460ff1615156001145b6103e65760405162461bcd60e51b81526004016103dd90610b9b565b60405180910390fd5b6003805480602002602001604051908101604052809291908181526020016000905b82821015610450576000848152602090819020604080518082019091526002850290910180546001600160a01b03168252600190810154828401529083529092019101610408565b50505050905090565b6002546001600160a01b031632146104835760405162461bcd60e51b81526004016103dd90610b9b565b600680549115156101000261ff0019909216919091179055565b6002546001600160a01b031632146104c75760405162461bcd60e51b81526004016103dd90610b9b565b6001600160a01b03811660009081526007602052604090205460ff16151560011415610612576001600160a01b0381166000908152600760205260408120805460ff191690555b60055481101561061057816001600160a01b03166005828154811061053557610535610bc7565b6000918252602090912001546001600160a01b031614156105fe576005805461056090600190610bf3565b8154811061057057610570610bc7565b600091825260209091200154600580546001600160a01b03909216918390811061059c5761059c610bc7565b9060005260206000200160006101000a8154816001600160a01b0302191690836001600160a01b0316021790555060058054806105db576105db610c0a565b600082815260209020810160001990810180546001600160a01b03191690550190555b8061060881610c20565b91505061050e565b505b50565b600080546102ed90610b60565b60065460ff161561063257600080fd5b600280546001600160a01b0319166001600160a01b03929092169190911790556006805460ff19166001179055565b6002546001600160a01b0316321461068b5760405162461bcd60e51b81526004016103dd90610b9b565b6001600160a01b03811660009081526007602052604090205460ff16610612576001600160a01b03166000818152600760205260408120805460ff191660019081179091556005805491820181559091527f036b6384b5eca791c62761152d0c79bb0604c104a5fb6f4eb0703f3154bb3db00180546001600160a01b0319169091179055565b6060600580548060200260200160405190810160405280929190818152602001828054801561076957602002820191906000526020600020905b81546001600160a01b0316815260019091019060200180831161074b575b5050505050905090565b6002546001600160a01b0316321461079d5760405162461bcd60e51b81526004016103dd90610b9b565b805161061090600090602084019061087d565b60065460609060ff161561081f5760065460ff610100909104161515600114806107e457506002546001600160a01b031632145b8061080357503260009081526007602052604090205460ff1615156001145b61081f5760405162461bcd60e51b81526004016103dd90610b9b565b6004805480602002602001604051908101604052809291908181526020018280548015610769576020028201919060005260206000209081546001600160a01b0316815260019091019060200180831161074b575050505050905090565b82805461088990610b60565b90600052602060002090601f0160209004810192826108ab57600085556108f1565b82601f106108c457805160ff19168380011785556108f1565b828001600101855582156108f1579182015b828111156108f15782518255916020019190600101906108d6565b506108fd929150610901565b5090565b5b808211156108fd5760008155600101610902565b600060208083528351808285015260005b8181101561094357858101830151858201604001528201610927565b81811115610955576000604083870101525b50601f01601f1916929092016040019392505050565b602080825282518282018190526000919060409081850190868401855b828110156109b657815180516001600160a01b03168552860151868501529284019290850190600101610988565b5091979650505050505050565b80356001600160a01b03811681146109da57600080fd5b919050565b6000602082840312156109f157600080fd5b6109fa826109c3565b9392505050565b600060208284031215610a1357600080fd5b813580151581146109fa57600080fd5b60008060408385031215610a3657600080fd5b610a3f836109c3565b946020939093013593505050565b6020808252825182820181905260009190848201906040850190845b81811015610a8e5783516001600160a01b031683529284019291840191600101610a69565b50909695505050505050565b634e487b7160e01b600052604160045260246000fd5b600060208284031215610ac257600080fd5b81356001600160401b0380821115610ad957600080fd5b818401915084601f830112610aed57600080fd5b813581811115610aff57610aff610a9a565b604051601f8201601f19908116603f01168101908382118183101715610b2757610b27610a9a565b81604052828152876020848701011115610b4057600080fd5b826020860160208301376000928101602001929092525095945050505050565b600181811c90821680610b7457607f821691505b60208210811415610b9557634e487b7160e01b600052602260045260246000fd5b50919050565b6020808252601290820152712ab730baba3437b934b9b2b2103ab9b2b91760711b604082015260600190565b634e487b7160e01b600052603260045260246000fd5b634e487b7160e01b600052601160045260246000fd5b600082821015610c0557610c05610bdd565b500390565b634e487b7160e01b600052603160045260246000fd5b6000600019821415610c3457610c34610bdd565b506001019056fea2646970667358221220e516f23e2cf88d9d94955efb153ff23e03814f11f257062506ac4d883e57e15a64736f6c634300080c0033",
  "immutableReferences": {},
  "source": "// SPDX-License-Identifier: UNLICENSED\r\npragma solidity ^0.8.0;\r\n\r\nimport './Certificate.sol';\r\nimport './WorkExperience.sol';\r\n\r\ncontract Awardee {\r\n    string public email;\r\n    string public name;\r\n    address public walletAddress; // wallet address of Awardee (wallet address of the owner of this email address)\r\n    CertificateToken[] certificates; // list of Certificate Token struct instances under this Awardee instance\r\n    WorkExperience[] workExperiences; // list of Work Experience instances under this Awardee instance\r\n    address[] approvedAccess; // list of wallet address given the access rights to view the Certificates and Work Experience instances under this Awardee instance?\r\n    bool public linkedWalletAddress; // has the Awardee linked their wallet address to this Awardee instance?\r\n    bool public publicVisibility; // are the Certificates and Work Experiences publically visible?\r\n    mapping (address => bool) accessRights; // which wallet addresses are given access rights to view the Certificates and Work Experience instances under this Awardee instance?\r\n\r\n    struct CertificateToken{\r\n        Certificate certificate; // Certificate NFT\r\n        uint256 tokenId; // unique token Id of Certificate NFT\r\n    }\r\n\r\n    modifier privacySettings { // who can execute the function?\r\n        if (linkedWalletAddress) { // if the Awardee has linked their wallet address to this Awardee instance (AKA registered for an account with Credibly)\r\n            // if public visibility is set to true, anyone can execute the function\r\n            // OR wallet address of the Awardee can execute the function\r\n            // OR wallet addresses that were given access rights can execute the function\r\n            require (publicVisibility == true || tx.origin == walletAddress || accessRights[tx.origin] == true, \"Unauthorised user.\");\r\n        }\r\n        _;\r\n    }\r\n\r\n    modifier onlyOwner { // only the wallet address of the Awardee can execute the function\r\n        require(tx.origin == walletAddress, \"Unauthorised user.\");\r\n        _;\r\n    }\r\n\r\n    constructor(string memory _email, string memory _name) {\r\n        email = _email;\r\n        name = _name;\r\n        publicVisibility = true;\r\n    }\r\n\r\n    // Link Awardee Contract Instance to Wallet Address\r\n    function setWalletAddress(\r\n        address _walletAddress\r\n    ) public {\r\n        require(linkedWalletAddress == false);\r\n        walletAddress = _walletAddress;\r\n        linkedWalletAddress = true;\r\n    }\r\n\r\n    // Update Email of Awardee\r\n    function updateEmail(string memory newEmail) public onlyOwner {\r\n        email = newEmail;\r\n    }\r\n\r\n    // Set Public Visibility of Certificates and Work Experiences Contract Instances\r\n    function setVisibility(bool visible) public onlyOwner {\r\n        publicVisibility = visible;\r\n    }\r\n\r\n    // Give Access Rights to Wallet Address\r\n    function addAccessRights(address user) public onlyOwner {\r\n        if (accessRights[user] == false) {\r\n            accessRights[user] = true;\r\n            approvedAccess.push(user);\r\n        }\r\n    }\r\n\r\n    // Remove Access Rights from Wallet Address\r\n    function removeAccessRights(address user) public onlyOwner {\r\n        if (accessRights[user] == true) {\r\n            accessRights[user] = false;\r\n            for (uint i = 0; i < approvedAccess.length; i++) {\r\n                if (approvedAccess[i] == user) {\r\n                    approvedAccess[i] = approvedAccess[approvedAccess.length - 1];\r\n                    approvedAccess.pop();\r\n                }\r\n            }\r\n        }\r\n    }\r\n\r\n    // Add Certificate Contract Instances to certificates Mapping\r\n     function addCertificate(\r\n        address certificateAddress,\r\n        uint256 tokenId\r\n    ) public {\r\n        CertificateToken memory certificateToken = CertificateToken({\r\n            certificate: Certificate(certificateAddress),\r\n            tokenId: tokenId\r\n        });\r\n        certificates.push(certificateToken);\r\n    }\r\n\r\n    // Add Work Experience Contract Instances to workExperiences Mapping\r\n    function addWorkExperience(\r\n        address workExperienceAddress\r\n    ) public {\r\n        workExperiences.push(WorkExperience(workExperienceAddress));\r\n    }\r\n\r\n    // Getter Functions\r\n\r\n    function getCertificates() public view privacySettings returns (CertificateToken[] memory){\r\n        return certificates;\r\n    }\r\n\r\n    function getWorkExperiences() public view privacySettings returns (WorkExperience[] memory){\r\n        return workExperiences;\r\n    }\r\n\r\n    function getApprovedAccess() public view returns(address[] memory) {\r\n        return approvedAccess;\r\n    }\r\n\r\n}\r\n\r\n",
  "sourcePath": "D:\\Jeffs_Stuff\\School\\NUS\\Modules\\Y4_SEM2\\IS4302\\Project\\credibly-fe\\ethereum\\contracts\\Awardee.sol",
  "compiler": {
    "name": "solc",
    "version": "0.8.12+commit.f00d7308.Emscripten.clang"
  },
  "schemaVersion": "3.4.4",
  "updatedAt": "2022-04-08T06:13:22.519Z",
  "devdoc": {
    "kind": "dev",
    "methods": {},
    "version": 1
  },
  "userdoc": {
    "kind": "user",
    "methods": {},
    "version": 1
  }
}