{
  "contractName": "Awardee",
  "abi": [
    {
      "inputs": [
        {
          "internalType": "string",
          "name": "_email",
          "type": "string"
        },
        {
          "internalType": "string",
          "name": "_name",
          "type": "string"
        }
      ],
      "stateMutability": "nonpayable",
      "type": "constructor"
    },
    {
      "inputs": [
        {
          "internalType": "uint256",
          "name": "",
          "type": "uint256"
        }
      ],
      "name": "accessRights",
      "outputs": [
        {
          "internalType": "address",
          "name": "",
          "type": "address"
        }
      ],
      "stateMutability": "view",
      "type": "function"
    },
    {
      "inputs": [
        {
          "internalType": "uint256",
          "name": "",
          "type": "uint256"
        }
      ],
      "name": "certificates",
      "outputs": [
        {
          "internalType": "contract Certificate",
          "name": "certificate",
          "type": "address"
        },
        {
          "internalType": "uint256",
          "name": "tokenID",
          "type": "uint256"
        }
      ],
      "stateMutability": "view",
      "type": "function"
    },
    {
      "inputs": [],
      "name": "email",
      "outputs": [
        {
          "internalType": "string",
          "name": "",
          "type": "string"
        }
      ],
      "stateMutability": "view",
      "type": "function"
    },
    {
      "inputs": [],
      "name": "name",
      "outputs": [
        {
          "internalType": "string",
          "name": "",
          "type": "string"
        }
      ],
      "stateMutability": "view",
      "type": "function"
    },
    {
      "inputs": [],
      "name": "privacy",
      "outputs": [
        {
          "internalType": "bool",
          "name": "",
          "type": "bool"
        }
      ],
      "stateMutability": "view",
      "type": "function"
    },
    {
      "inputs": [],
      "name": "walletAddress",
      "outputs": [
        {
          "internalType": "address",
          "name": "",
          "type": "address"
        }
      ],
      "stateMutability": "view",
      "type": "function"
    },
    {
      "inputs": [
        {
          "internalType": "address",
          "name": "_walletAddress",
          "type": "address"
        }
      ],
      "name": "setWalletAddress",
      "outputs": [],
      "stateMutability": "nonpayable",
      "type": "function"
    },
    {
      "inputs": [
        {
          "internalType": "address",
          "name": "certificateAddress",
          "type": "address"
        },
        {
          "internalType": "uint256",
          "name": "tokenID",
          "type": "uint256"
        }
      ],
      "name": "addCertificate",
      "outputs": [],
      "stateMutability": "nonpayable",
      "type": "function"
    },
    {
      "inputs": [],
      "name": "getCertificates",
      "outputs": [
        {
          "components": [
            {
              "internalType": "contract Certificate",
              "name": "certificate",
              "type": "address"
            },
            {
              "internalType": "uint256",
              "name": "tokenID",
              "type": "uint256"
            }
          ],
          "internalType": "struct Awardee.CertificateToken[]",
          "name": "",
          "type": "tuple[]"
        }
      ],
      "stateMutability": "view",
      "type": "function"
    }
  ],
  "bytecode": "0x608060405234801561001057600080fd5b5060405161079c38038061079c83398101604081905261002f916101b9565b815161004290600090602085019061005e565b50805161005690600190602084019061005e565b505050610257565b82805461006a9061021c565b90600052602060002090601f01602090048101928261008c57600085556100d2565b82601f106100a557805160ff19168380011785556100d2565b828001600101855582156100d2579182015b828111156100d25782518255916020019190600101906100b7565b506100de9291506100e2565b5090565b5b808211156100de57600081556001016100e3565b634e487b7160e01b600052604160045260246000fd5b600082601f83011261011e57600080fd5b81516001600160401b0380821115610138576101386100f7565b604051601f8301601f19908116603f01168101908282118183101715610160576101606100f7565b8160405283815260209250868385880101111561017c57600080fd5b600091505b8382101561019e5785820183015181830184015290820190610181565b838211156101af5760008385830101525b9695505050505050565b600080604083850312156101cc57600080fd5b82516001600160401b03808211156101e357600080fd5b6101ef8683870161010d565b9350602085015191508082111561020557600080fd5b506102128582860161010d565b9150509250929050565b600181811c9082168061023057607f821691505b6020821081141561025157634e487b7160e01b600052602260045260246000fd5b50919050565b610536806102666000396000f3fe608060405234801561001057600080fd5b50600436106100835760003560e01c806306fdde03146100885780631f5ddb4f146100a65780634bdbd39a146100bb578063573668db146100d8578063663b3e22146101035780636ad5b3ea14610135578063820e93f514610148578063ac1a386a14610150578063d422f02214610182575b600080fd5b610090610225565b60405161009d9190610397565b60405180910390f35b6100ae6102b3565b60405161009d91906103ec565b6005546100c89060ff1681565b604051901515815260200161009d565b6100eb6100e6366004610444565b610328565b6040516001600160a01b03909116815260200161009d565b610116610111366004610444565b610352565b604080516001600160a01b03909316835260208301919091520161009d565b6002546100eb906001600160a01b031681565b61009061038a565b61018061015e366004610479565b600280546001600160a01b0319166001600160a01b0392909216919091179055565b005b61018061019036600461049b565b604080518082019091526001600160a01b039283168152602081019182526003805460018101825560009190915290517fc2575a0e9e593c00f959f8c92f12db2869c3395a3b0502d05e2516446f71f85b600290920291820180546001600160a01b0319169190941617909255517fc2575a0e9e593c00f959f8c92f12db2869c3395a3b0502d05e2516446f71f85c90910155565b60018054610232906104c5565b80601f016020809104026020016040519081016040528092919081815260200182805461025e906104c5565b80156102ab5780601f10610280576101008083540402835291602001916102ab565b820191906000526020600020905b81548152906001019060200180831161028e57829003601f168201915b505050505081565b60606003805480602002602001604051908101604052809291908181526020016000905b8282101561031f576000848152602090819020604080518082019091526002850290910180546001600160a01b031682526001908101548284015290835290920191016102d7565b50505050905090565b6004818154811061033857600080fd5b6000918252602090912001546001600160a01b0316905081565b6003818154811061036257600080fd5b6000918252602090912060029091020180546001909101546001600160a01b03909116915082565b60008054610232906104c5565b600060208083528351808285015260005b818110156103c4578581018301518582016040015282016103a8565b818111156103d6576000604083870101525b50601f01601f1916929092016040019392505050565b602080825282518282018190526000919060409081850190868401855b8281101561043757815180516001600160a01b03168552860151868501529284019290850190600101610409565b5091979650505050505050565b60006020828403121561045657600080fd5b5035919050565b80356001600160a01b038116811461047457600080fd5b919050565b60006020828403121561048b57600080fd5b6104948261045d565b9392505050565b600080604083850312156104ae57600080fd5b6104b78361045d565b946020939093013593505050565b600181811c908216806104d957607f821691505b602082108114156104fa57634e487b7160e01b600052602260045260246000fd5b5091905056fea2646970667358221220371f8aabba23fdc7e01ca53eeeb6fb0afbb482ac55e9511b34d72c9fefcd9a9764736f6c634300080c0033",
  "immutableReferences": {},
  "source": "// SPDX-License-Identifier: UNLICENSED\r\npragma solidity ^0.8.0;\r\n\r\nimport './Certificate.sol';\r\n\r\ncontract Awardee {\r\n    string public email;\r\n    string public name;\r\n    address public walletAddress;\r\n    CertificateToken[] public certificates;\r\n    // WorkExperienceToken[] public workExperiences;\r\n    address[] public accessRights;\r\n    bool public privacy;\r\n\r\n    // struct workExperienceToken{\r\n    //     WorkExperiences workExperience;\r\n    //     uint256 tokenID;\r\n    // }\r\n\r\n    struct CertificateToken{\r\n        Certificate certificate;\r\n        uint256 tokenID;\r\n    }\r\n\r\n    constructor(string memory _email, string memory _name) {\r\n        email = _email;\r\n        name = _name;\r\n    }\r\n\r\n    function setWalletAddress(\r\n        address _walletAddress\r\n    ) public {\r\n        // (require) wallet address to be address(0)\r\n        walletAddress = _walletAddress;\r\n    }\r\n\r\n    function addCertificate(\r\n        address certificateAddress,\r\n        uint256 tokenID\r\n    ) public {\r\n        CertificateToken memory certificateToken = CertificateToken({\r\n            certificate: Certificate(certificateAddress),\r\n            tokenID: tokenID\r\n        });\r\n        certificates.push(certificateToken);\r\n    }\r\n\r\n    function getCertificates() public view returns (CertificateToken[] memory){\r\n        return certificates;\r\n    }\r\n\r\n}",
  "sourcePath": "C:\\Users\\MHA\\desktop\\credibly-fe\\ethereum\\contracts\\Awardee.sol",
  "compiler": {
    "name": "solc",
    "version": "0.8.12+commit.f00d7308.Emscripten.clang"
  },
  "schemaVersion": "3.4.6",
  "updatedAt": "2022-03-22T14:03:25.766Z",
  "devdoc": {
    "kind": "dev",
    "methods": {},
    "version": 1
  },
  "userdoc": {
    "kind": "user",
    "methods": {},
    "version": 1
  }
}