{
  "contractName": "Certificate",
  "abi": [
    {
      "inputs": [
        {
          "internalType": "string",
          "name": "name",
          "type": "string"
        },
        {
          "internalType": "string",
          "name": "_certificateId",
          "type": "string"
        },
        {
          "internalType": "string",
          "name": "_description",
          "type": "string"
        },
        {
          "internalType": "string",
          "name": "_organisation",
          "type": "string"
        }
      ],
      "stateMutability": "nonpayable",
      "type": "constructor"
    },
    {
      "anonymous": false,
      "inputs": [
        {
          "indexed": true,
          "internalType": "address",
          "name": "owner",
          "type": "address"
        },
        {
          "indexed": true,
          "internalType": "address",
          "name": "approved",
          "type": "address"
        },
        {
          "indexed": true,
          "internalType": "uint256",
          "name": "tokenId",
          "type": "uint256"
        }
      ],
      "name": "Approval",
      "type": "event"
    },
    {
      "anonymous": false,
      "inputs": [
        {
          "indexed": true,
          "internalType": "address",
          "name": "owner",
          "type": "address"
        },
        {
          "indexed": true,
          "internalType": "address",
          "name": "operator",
          "type": "address"
        },
        {
          "indexed": false,
          "internalType": "bool",
          "name": "approved",
          "type": "bool"
        }
      ],
      "name": "ApprovalForAll",
      "type": "event"
    },
    {
      "anonymous": false,
      "inputs": [
        {
          "indexed": true,
          "internalType": "address",
          "name": "from",
          "type": "address"
        },
        {
          "indexed": true,
          "internalType": "address",
          "name": "to",
          "type": "address"
        },
        {
          "indexed": true,
          "internalType": "uint256",
          "name": "tokenId",
          "type": "uint256"
        }
      ],
      "name": "Transfer",
      "type": "event"
    },
    {
      "inputs": [
        {
          "internalType": "address",
          "name": "to",
          "type": "address"
        },
        {
          "internalType": "uint256",
          "name": "tokenId",
          "type": "uint256"
        }
      ],
      "name": "approve",
      "outputs": [],
      "stateMutability": "nonpayable",
      "type": "function"
    },
    {
      "inputs": [
        {
          "internalType": "address",
          "name": "owner",
          "type": "address"
        }
      ],
      "name": "balanceOf",
      "outputs": [
        {
          "internalType": "uint256",
          "name": "",
          "type": "uint256"
        }
      ],
      "stateMutability": "view",
      "type": "function"
    },
    {
      "inputs": [
        {
          "internalType": "uint256",
          "name": "tokenId",
          "type": "uint256"
        }
      ],
      "name": "getApproved",
      "outputs": [
        {
          "internalType": "address",
          "name": "",
          "type": "address"
        }
      ],
      "stateMutability": "view",
      "type": "function"
    },
    {
      "inputs": [
        {
          "internalType": "address",
          "name": "owner",
          "type": "address"
        },
        {
          "internalType": "address",
          "name": "operator",
          "type": "address"
        }
      ],
      "name": "isApprovedForAll",
      "outputs": [
        {
          "internalType": "bool",
          "name": "",
          "type": "bool"
        }
      ],
      "stateMutability": "view",
      "type": "function"
    },
    {
      "inputs": [],
      "name": "name",
      "outputs": [
        {
          "internalType": "string",
          "name": "",
          "type": "string"
        }
      ],
      "stateMutability": "view",
      "type": "function"
    },
    {
      "inputs": [
        {
          "internalType": "uint256",
          "name": "tokenId",
          "type": "uint256"
        }
      ],
      "name": "ownerOf",
      "outputs": [
        {
          "internalType": "address",
          "name": "",
          "type": "address"
        }
      ],
      "stateMutability": "view",
      "type": "function"
    },
    {
      "inputs": [
        {
          "internalType": "address",
          "name": "from",
          "type": "address"
        },
        {
          "internalType": "address",
          "name": "to",
          "type": "address"
        },
        {
          "internalType": "uint256",
          "name": "tokenId",
          "type": "uint256"
        }
      ],
      "name": "safeTransferFrom",
      "outputs": [],
      "stateMutability": "nonpayable",
      "type": "function"
    },
    {
      "inputs": [
        {
          "internalType": "address",
          "name": "from",
          "type": "address"
        },
        {
          "internalType": "address",
          "name": "to",
          "type": "address"
        },
        {
          "internalType": "uint256",
          "name": "tokenId",
          "type": "uint256"
        },
        {
          "internalType": "bytes",
          "name": "_data",
          "type": "bytes"
        }
      ],
      "name": "safeTransferFrom",
      "outputs": [],
      "stateMutability": "nonpayable",
      "type": "function"
    },
    {
      "inputs": [
        {
          "internalType": "address",
          "name": "operator",
          "type": "address"
        },
        {
          "internalType": "bool",
          "name": "approved",
          "type": "bool"
        }
      ],
      "name": "setApprovalForAll",
      "outputs": [],
      "stateMutability": "nonpayable",
      "type": "function"
    },
    {
      "inputs": [],
      "name": "symbol",
      "outputs": [
        {
          "internalType": "string",
          "name": "",
          "type": "string"
        }
      ],
      "stateMutability": "view",
      "type": "function"
    },
    {
      "inputs": [
        {
          "internalType": "uint256",
          "name": "index",
          "type": "uint256"
        }
      ],
      "name": "tokenByIndex",
      "outputs": [
        {
          "internalType": "uint256",
          "name": "",
          "type": "uint256"
        }
      ],
      "stateMutability": "view",
      "type": "function"
    },
    {
      "inputs": [
        {
          "internalType": "address",
          "name": "owner",
          "type": "address"
        },
        {
          "internalType": "uint256",
          "name": "index",
          "type": "uint256"
        }
      ],
      "name": "tokenOfOwnerByIndex",
      "outputs": [
        {
          "internalType": "uint256",
          "name": "",
          "type": "uint256"
        }
      ],
      "stateMutability": "view",
      "type": "function"
    },
    {
      "inputs": [],
      "name": "totalSupply",
      "outputs": [
        {
          "internalType": "uint256",
          "name": "",
          "type": "uint256"
        }
      ],
      "stateMutability": "view",
      "type": "function"
    },
    {
      "inputs": [
        {
          "internalType": "address",
          "name": "from",
          "type": "address"
        },
        {
          "internalType": "address",
          "name": "to",
          "type": "address"
        },
        {
          "internalType": "uint256",
          "name": "tokenId",
          "type": "uint256"
        }
      ],
      "name": "transferFrom",
      "outputs": [],
      "stateMutability": "nonpayable",
      "type": "function"
    },
    {
      "inputs": [
        {
          "internalType": "address",
          "name": "admin",
          "type": "address"
        },
        {
          "internalType": "string",
          "name": "ipfs",
          "type": "string"
        }
      ],
      "name": "create",
      "outputs": [
        {
          "internalType": "uint256",
          "name": "",
          "type": "uint256"
        }
      ],
      "stateMutability": "nonpayable",
      "type": "function"
    },
    {
      "inputs": [
        {
          "internalType": "address",
          "name": "admin",
          "type": "address"
        },
        {
          "internalType": "address",
          "name": "awardee",
          "type": "address"
        },
        {
          "internalType": "uint256",
          "name": "tokenId",
          "type": "uint256"
        }
      ],
      "name": "transferOwnership",
      "outputs": [],
      "stateMutability": "nonpayable",
      "type": "function"
    },
    {
      "inputs": [
        {
          "internalType": "uint256",
          "name": "tokenId",
          "type": "uint256"
        }
      ],
      "name": "getData",
      "outputs": [
        {
          "internalType": "string",
          "name": "",
          "type": "string"
        },
        {
          "internalType": "string",
          "name": "",
          "type": "string"
        },
        {
          "internalType": "string",
          "name": "",
          "type": "string"
        }
      ],
      "stateMutability": "view",
      "type": "function"
    },
    {
      "inputs": [
        {
          "internalType": "uint256",
          "name": "tokenId",
          "type": "uint256"
        }
      ],
      "name": "tokenURI",
      "outputs": [
        {
          "internalType": "string",
          "name": "",
          "type": "string"
        }
      ],
      "stateMutability": "view",
      "type": "function"
    },
    {
      "inputs": [
        {
          "internalType": "bytes4",
          "name": "interfaceId",
          "type": "bytes4"
        }
      ],
      "name": "supportsInterface",
      "outputs": [
        {
          "internalType": "bool",
          "name": "",
          "type": "bool"
        }
      ],
      "stateMutability": "view",
      "type": "function"
    }
  ],
  "bytecode": "0x60806040523480156200001157600080fd5b506040516200202838038062002028833981016040819052620000349162000246565b83604051806040016040528060088152602001674372656469626c7960c01b81525081600090805190602001906200006e929190620000d3565b50805162000084906001906020840190620000d3565b505083516200009c9150600c906020860190620000d3565b508151620000b290600d906020850190620000d3565b508051620000c890600e906020840190620000d3565b50505050506200033c565b828054620000e190620002ff565b90600052602060002090601f01602090048101928262000105576000855562000150565b82601f106200012057805160ff191683800117855562000150565b8280016001018555821562000150579182015b828111156200015057825182559160200191906001019062000133565b506200015e92915062000162565b5090565b5b808211156200015e576000815560010162000163565b634e487b7160e01b600052604160045260246000fd5b600082601f830112620001a157600080fd5b81516001600160401b0380821115620001be57620001be62000179565b604051601f8301601f19908116603f01168101908282118183101715620001e957620001e962000179565b816040528381526020925086838588010111156200020657600080fd5b600091505b838210156200022a57858201830151818301840152908201906200020b565b838211156200023c5760008385830101525b9695505050505050565b600080600080608085870312156200025d57600080fd5b84516001600160401b03808211156200027557600080fd5b62000283888389016200018f565b955060208701519150808211156200029a57600080fd5b620002a8888389016200018f565b94506040870151915080821115620002bf57600080fd5b620002cd888389016200018f565b93506060870151915080821115620002e457600080fd5b50620002f3878288016200018f565b91505092959194509250565b600181811c908216806200031457607f821691505b602082108114156200033657634e487b7160e01b600052602260045260246000fd5b50919050565b611cdc806200034c6000396000f3fe608060405234801561001057600080fd5b50600436106100f15760003560e01c80630178fe3f146100f657806301ffc9a71461012157806306fdde0314610144578063081812fc14610159578063095ea7b314610184578063171c00fd1461019957806318160ddd146101ac57806323b872dd146101be5780632f745c59146101d157806342842e0e146101e45780634f6ccce7146101f75780636352211e1461020a57806370a082311461021d57806395d89b4114610230578063a15ab08d14610238578063a22cb4651461024b578063b88d4fde1461025e578063c87b56dd14610271578063e985e9c514610284575b600080fd5b6101096101043660046116ef565b610297565b60405161011893929190611760565b60405180910390f35b61013461012f3660046117bc565b6103ce565b6040519015158152602001610118565b61014c6103df565b60405161011891906117d9565b61016c6101673660046116ef565b610471565b6040516001600160a01b039091168152602001610118565b610197610192366004611808565b6104fe565b005b6101976101a7366004611832565b61060f565b6009545b604051908152602001610118565b6101976101cc366004611832565b610680565b6101b06101df366004611808565b6106a6565b6101976101f2366004611832565b61073c565b6101b06102053660046116ef565b610757565b61016c6102183660046116ef565b6107ea565b6101b061022b36600461186e565b610861565b61014c6108e8565b6101b0610246366004611914565b6108f7565b610197610259366004611975565b61092e565b61019761026c3660046119b1565b61093d565b61014c61027f3660046116ef565b610975565b610134610292366004611a2c565b610980565b60608060606102a584610975565b600d600e8180546102b590611a5f565b80601f01602080910402602001604051908101604052809291908181526020018280546102e190611a5f565b801561032e5780601f106103035761010080835404028352916020019161032e565b820191906000526020600020905b81548152906001019060200180831161031157829003601f168201915b5050505050915080805461034190611a5f565b80601f016020809104026020016040519081016040528092919081815260200182805461036d90611a5f565b80156103ba5780601f1061038f576101008083540402835291602001916103ba565b820191906000526020600020905b81548152906001019060200180831161039d57829003601f168201915b505050505090509250925092509193909250565b60006103d9826109ae565b92915050565b6060600080546103ee90611a5f565b80601f016020809104026020016040519081016040528092919081815260200182805461041a90611a5f565b80156104675780601f1061043c57610100808354040283529160200191610467565b820191906000526020600020905b81548152906001019060200180831161044a57829003601f168201915b5050505050905090565b600061047c826109d3565b6104e25760405162461bcd60e51b815260206004820152602c60248201527f4552433732313a20617070726f76656420717565727920666f72206e6f6e657860448201526b34b9ba32b73a103a37b5b2b760a11b60648201526084015b60405180910390fd5b506000908152600460205260409020546001600160a01b031690565b6000610509826107ea565b9050806001600160a01b0316836001600160a01b031614156105775760405162461bcd60e51b815260206004820152602160248201527f4552433732313a20617070726f76616c20746f2063757272656e74206f776e656044820152603960f91b60648201526084016104d9565b336001600160a01b038216148061059357506105938133610980565b6106005760405162461bcd60e51b815260206004820152603860248201527f4552433732313a20617070726f76652063616c6c6572206973206e6f74206f776044820152771b995c881b9bdc88185c1c1c9bdd995908199bdc88185b1b60421b60648201526084016104d9565b61060a83836109f0565b505050565b6106198382610a5e565b6106755760405162461bcd60e51b815260206004820152602760248201527f43616c6c6572206973206e6f74206f776e6572206f66207468697320636572746044820152666966696361746560c81b60648201526084016104d9565b61060a838383610b28565b61068a3382610a5e565b6106755760405162461bcd60e51b81526004016104d990611a9a565b60006106b183610861565b82106107135760405162461bcd60e51b815260206004820152602b60248201527f455243373231456e756d657261626c653a206f776e657220696e646578206f7560448201526a74206f6620626f756e647360a81b60648201526084016104d9565b506001600160a01b03919091166000908152600760209081526040808320938352929052205490565b61060a8383836040518060200160405280600081525061093d565b600061076260095490565b82106107c55760405162461bcd60e51b815260206004820152602c60248201527f455243373231456e756d657261626c653a20676c6f62616c20696e646578206f60448201526b7574206f6620626f756e647360a01b60648201526084016104d9565b600982815481106107d8576107d8611aeb565b90600052602060002001549050919050565b6000818152600260205260408120546001600160a01b0316806103d95760405162461bcd60e51b815260206004820152602960248201527f4552433732313a206f776e657220717565727920666f72206e6f6e657869737460448201526832b73a103a37b5b2b760b91b60648201526084016104d9565b60006001600160a01b0382166108cc5760405162461bcd60e51b815260206004820152602a60248201527f4552433732313a2062616c616e636520717565727920666f7220746865207a65604482015269726f206164647265737360b01b60648201526084016104d9565b506001600160a01b031660009081526003602052604090205490565b6060600180546103ee90611a5f565b600080610903600b5490565b9050610913600b80546001019055565b61091d8482610cbd565b6109278184610de9565b9392505050565b610939338383610e74565b5050565b6109473383610a5e565b6109635760405162461bcd60e51b81526004016104d990611a9a565b61096f84848484610f3f565b50505050565b60606103d982610f72565b6001600160a01b03918216600090815260056020908152604080832093909416825291909152205460ff1690565b60006001600160e01b0319821663780e9d6360e01b14806103d957506103d9826110e1565b6000908152600260205260409020546001600160a01b0316151590565b600081815260046020526040902080546001600160a01b0319166001600160a01b0384169081179091558190610a25826107ea565b6001600160a01b03167f8c5be1e5ebec7d5bd14f71427d1e84f3dd0314c0f7b2291e5b200ac8c7c3b92560405160405180910390a45050565b6000610a69826109d3565b610aca5760405162461bcd60e51b815260206004820152602c60248201527f4552433732313a206f70657261746f7220717565727920666f72206e6f6e657860448201526b34b9ba32b73a103a37b5b2b760a11b60648201526084016104d9565b6000610ad5836107ea565b9050806001600160a01b0316846001600160a01b03161480610b105750836001600160a01b0316610b0584610471565b6001600160a01b0316145b80610b205750610b208185610980565b949350505050565b826001600160a01b0316610b3b826107ea565b6001600160a01b031614610b9f5760405162461bcd60e51b815260206004820152602560248201527f4552433732313a207472616e736665722066726f6d20696e636f72726563742060448201526437bbb732b960d91b60648201526084016104d9565b6001600160a01b038216610c015760405162461bcd60e51b8152602060048201526024808201527f4552433732313a207472616e7366657220746f20746865207a65726f206164646044820152637265737360e01b60648201526084016104d9565b610c0c838383611131565b610c176000826109f0565b6001600160a01b0383166000908152600360205260408120805460019290610c40908490611b17565b90915550506001600160a01b0382166000908152600360205260408120805460019290610c6e908490611b2e565b909155505060008181526002602052604080822080546001600160a01b0319166001600160a01b038681169182179092559151849391871691600080516020611c8783398151915291a4505050565b6001600160a01b038216610d135760405162461bcd60e51b815260206004820181905260248201527f4552433732313a206d696e7420746f20746865207a65726f206164647265737360448201526064016104d9565b610d1c816109d3565b15610d685760405162461bcd60e51b815260206004820152601c60248201527b115490cdcc8c4e881d1bdad95b88185b1c9958591e481b5a5b9d195960221b60448201526064016104d9565b610d7460008383611131565b6001600160a01b0382166000908152600360205260408120805460019290610d9d908490611b2e565b909155505060008181526002602052604080822080546001600160a01b0319166001600160a01b0386169081179091559051839290600080516020611c87833981519152908290a45050565b610df2826109d3565b610e555760405162461bcd60e51b815260206004820152602e60248201527f45524337323155524953746f726167653a2055524920736574206f66206e6f6e60448201526d32bc34b9ba32b73a103a37b5b2b760911b60648201526084016104d9565b6000828152600660209081526040909120825161060a92840190611656565b816001600160a01b0316836001600160a01b03161415610ed25760405162461bcd60e51b815260206004820152601960248201527822a9219b99189d1030b8383937bb32903a379031b0b63632b960391b60448201526064016104d9565b6001600160a01b03838116600081815260056020908152604080832094871680845294825291829020805460ff191686151590811790915591519182527f17307eab39ab6107e8899845ad3d59bd9653f200f220920489ca2b5937696c31910160405180910390a3505050565b610f4a848484610b28565b610f568484848461113c565b61096f5760405162461bcd60e51b81526004016104d990611b46565b6060610f7d826109d3565b610fe35760405162461bcd60e51b815260206004820152603160248201527f45524337323155524953746f726167653a2055524920717565727920666f72206044820152703737b732bc34b9ba32b73a103a37b5b2b760791b60648201526084016104d9565b60008281526006602052604081208054610ffc90611a5f565b80601f016020809104026020016040519081016040528092919081815260200182805461102890611a5f565b80156110755780601f1061104a57610100808354040283529160200191611075565b820191906000526020600020905b81548152906001019060200180831161105857829003601f168201915b50505050509050600061109360408051602081019091526000815290565b90508051600014156110a6575092915050565b8151156110d85780826040516020016110c0929190611b98565b60405160208183030381529060405292505050919050565b610b208461123a565b60006001600160e01b031982166380ac58cd60e01b148061111257506001600160e01b03198216635b5e139f60e01b145b806103d957506301ffc9a760e01b6001600160e01b03198316146103d9565b61060a838383611311565b60006001600160a01b0384163b1561122f57604051630a85bd0160e11b81526001600160a01b0385169063150b7a0290611180903390899088908890600401611bc7565b6020604051808303816000875af19250505080156111bb575060408051601f3d908101601f191682019092526111b891810190611bfa565b60015b611215573d8080156111e9576040519150601f19603f3d011682016040523d82523d6000602084013e6111ee565b606091505b50805161120d5760405162461bcd60e51b81526004016104d990611b46565b805181602001fd5b6001600160e01b031916630a85bd0160e11b149050610b20565b506001949350505050565b6060611245826109d3565b6112a95760405162461bcd60e51b815260206004820152602f60248201527f4552433732314d657461646174613a2055524920717565727920666f72206e6f60448201526e3732bc34b9ba32b73a103a37b5b2b760891b60648201526084016104d9565b60006112c060408051602081019091526000815290565b905060008151116112e05760405180602001604052806000815250610927565b806112ea846113c9565b6040516020016112fb929190611b98565b6040516020818303038152906040529392505050565b6001600160a01b03831661136c5761136781600980546000838152600a60205260408120829055600182018355919091527f6e1540171b6c0c960b71a7020d9f60077f6af931a8bbf590da0223dacf75c7af0155565b61138f565b816001600160a01b0316836001600160a01b03161461138f5761138f83826114c6565b6001600160a01b0382166113a65761060a81611563565b826001600160a01b0316826001600160a01b03161461060a5761060a8282611612565b6060816113ed5750506040805180820190915260018152600360fc1b602082015290565b8160005b8115611417578061140181611c17565b91506114109050600a83611c48565b91506113f1565b6000816001600160401b0381111561143157611431611889565b6040519080825280601f01601f19166020018201604052801561145b576020820181803683370190505b5090505b8415610b2057611470600183611b17565b915061147d600a86611c5c565b611488906030611b2e565b60f81b81838151811061149d5761149d611aeb565b60200101906001600160f81b031916908160001a9053506114bf600a86611c48565b945061145f565b600060016114d384610861565b6114dd9190611b17565b600083815260086020526040902054909150808214611530576001600160a01b03841660009081526007602090815260408083208584528252808320548484528184208190558352600890915290208190555b5060009182526008602090815260408084208490556001600160a01b039094168352600781528383209183525290812055565b60095460009061157590600190611b17565b6000838152600a60205260408120546009805493945090928490811061159d5761159d611aeb565b9060005260206000200154905080600983815481106115be576115be611aeb565b6000918252602080832090910192909255828152600a909152604080822084905585825281205560098054806115f6576115f6611c70565b6001900381819060005260206000200160009055905550505050565b600061161d83610861565b6001600160a01b039093166000908152600760209081526040808320868452825280832085905593825260089052919091209190915550565b82805461166290611a5f565b90600052602060002090601f01602090048101928261168457600085556116ca565b82601f1061169d57805160ff19168380011785556116ca565b828001600101855582156116ca579182015b828111156116ca5782518255916020019190600101906116af565b506116d69291506116da565b5090565b5b808211156116d657600081556001016116db565b60006020828403121561170157600080fd5b5035919050565b60005b8381101561172357818101518382015260200161170b565b8381111561096f5750506000910152565b6000815180845261174c816020860160208601611708565b601f01601f19169290920160200192915050565b6060815260006117736060830186611734565b82810360208401526117858186611734565b905082810360408401526117998185611734565b9695505050505050565b6001600160e01b0319811681146117b957600080fd5b50565b6000602082840312156117ce57600080fd5b8135610927816117a3565b6020815260006109276020830184611734565b80356001600160a01b038116811461180357600080fd5b919050565b6000806040838503121561181b57600080fd5b611824836117ec565b946020939093013593505050565b60008060006060848603121561184757600080fd5b611850846117ec565b925061185e602085016117ec565b9150604084013590509250925092565b60006020828403121561188057600080fd5b610927826117ec565b634e487b7160e01b600052604160045260246000fd5b60006001600160401b03808411156118b9576118b9611889565b604051601f8501601f19908116603f011681019082821181831017156118e1576118e1611889565b816040528093508581528686860111156118fa57600080fd5b858560208301376000602087830101525050509392505050565b6000806040838503121561192757600080fd5b611930836117ec565b915060208301356001600160401b0381111561194b57600080fd5b8301601f8101851361195c57600080fd5b61196b8582356020840161189f565b9150509250929050565b6000806040838503121561198857600080fd5b611991836117ec565b9150602083013580151581146119a657600080fd5b809150509250929050565b600080600080608085870312156119c757600080fd5b6119d0856117ec565b93506119de602086016117ec565b92506040850135915060608501356001600160401b03811115611a0057600080fd5b8501601f81018713611a1157600080fd5b611a208782356020840161189f565b91505092959194509250565b60008060408385031215611a3f57600080fd5b611a48836117ec565b9150611a56602084016117ec565b90509250929050565b600181811c90821680611a7357607f821691505b60208210811415611a9457634e487b7160e01b600052602260045260246000fd5b50919050565b60208082526031908201527f4552433732313a207472616e736665722063616c6c6572206973206e6f74206f6040820152701ddb995c881b9bdc88185c1c1c9bdd9959607a1b606082015260800190565b634e487b7160e01b600052603260045260246000fd5b634e487b7160e01b600052601160045260246000fd5b600082821015611b2957611b29611b01565b500390565b60008219821115611b4157611b41611b01565b500190565b60208082526032908201527f4552433732313a207472616e7366657220746f206e6f6e20455243373231526560408201527131b2b4bb32b91034b6b83632b6b2b73a32b960711b606082015260800190565b60008351611baa818460208801611708565b835190830190611bbe818360208801611708565b01949350505050565b6001600160a01b038581168252841660208201526040810183905260806060820181905260009061179990830184611734565b600060208284031215611c0c57600080fd5b8151610927816117a3565b6000600019821415611c2b57611c2b611b01565b5060010190565b634e487b7160e01b600052601260045260246000fd5b600082611c5757611c57611c32565b500490565b600082611c6b57611c6b611c32565b500690565b634e487b7160e01b600052603160045260246000fdfeddf252ad1be2c89b69c2b068fc378daa952ba7f163c4a11628f55a4df523b3efa26469706673582212208ce97b793d61731bf4ca81449140209da6043d0fcea42f37939e90c610cd60e164736f6c634300080c0033",
  "immutableReferences": {},
  "source": "// SPDX-License-Identifier: UNLICENSED\r\npragma solidity ^0.8.0;\r\n\r\nimport '@openzeppelin/contracts/token/ERC721/extensions/ERC721URIStorage.sol';\r\nimport '@openzeppelin/contracts/token/ERC721/extensions/ERC721Enumerable.sol';\r\nimport '@openzeppelin/contracts/utils/Counters.sol';\r\n\r\ncontract Certificate is ERC721URIStorage, ERC721Enumerable {\r\n    using Counters for Counters.Counter;\r\n    Counters.Counter private tokenIdTracker;\r\n    string certificateId;\r\n    string description;\r\n    string organisation;\r\n\r\n\r\n    constructor(string memory name, string memory _certificateId, string memory _description, string memory _organisation) ERC721(name, 'Credibly') {\r\n        certificateId = _certificateId;\r\n        description = _description;\r\n        organisation = _organisation;\r\n    }\r\n\r\n    function create(address admin, string memory ipfs) public returns (uint256) {\r\n        uint256 tokenId = tokenIdTracker.current();\r\n        tokenIdTracker.increment();\r\n        _mint(admin, tokenId);\r\n        _setTokenURI(tokenId, ipfs);\r\n        return tokenId;\r\n    }\r\n\r\n    function transferOwnership(address admin, address awardee, uint256 tokenId) public {\r\n        require( _isApprovedOrOwner(admin, tokenId), 'Caller is not owner of this certificate');\r\n        _transfer(admin, awardee, tokenId);\r\n    }\r\n\r\n    function getData(uint256 tokenId) view public returns(string memory, string memory, string memory) {\r\n        return (tokenURI(tokenId), description, organisation);\r\n    }\r\n\r\n    // overriding functions\r\n\r\n    function _burn(uint256 tokenId) internal override(ERC721, ERC721URIStorage) {\r\n        super._burn(tokenId);\r\n    }\r\n\r\n    function tokenURI(uint256 tokenId) public view override(ERC721, ERC721URIStorage) returns (string memory) {\r\n        return super.tokenURI(tokenId);\r\n    }\r\n\r\n    function _beforeTokenTransfer(address from, address to, uint256 tokenId) internal override(ERC721, ERC721Enumerable) {\r\n        super._beforeTokenTransfer(from, to, tokenId);\r\n    }\r\n\r\n    function supportsInterface(bytes4 interfaceId) public view override(ERC721, ERC721Enumerable) returns (bool) {\r\n        return super.supportsInterface(interfaceId);\r\n    }\r\n}",
  "sourcePath": "C:\\Users\\MHA\\desktop\\credibly-fe\\ethereum\\contracts\\Certificate.sol",
  "compiler": {
    "name": "solc",
    "version": "0.8.12+commit.f00d7308.Emscripten.clang"
  },
  "schemaVersion": "3.4.6",
  "updatedAt": "2022-03-20T11:17:31.637Z",
  "devdoc": {
    "kind": "dev",
    "methods": {
      "approve(address,uint256)": {
        "details": "See {IERC721-approve}."
      },
      "balanceOf(address)": {
        "details": "See {IERC721-balanceOf}."
      },
      "getApproved(uint256)": {
        "details": "See {IERC721-getApproved}."
      },
      "isApprovedForAll(address,address)": {
        "details": "See {IERC721-isApprovedForAll}."
      },
      "name()": {
        "details": "See {IERC721Metadata-name}."
      },
      "ownerOf(uint256)": {
        "details": "See {IERC721-ownerOf}."
      },
      "safeTransferFrom(address,address,uint256)": {
        "details": "See {IERC721-safeTransferFrom}."
      },
      "safeTransferFrom(address,address,uint256,bytes)": {
        "details": "See {IERC721-safeTransferFrom}."
      },
      "setApprovalForAll(address,bool)": {
        "details": "See {IERC721-setApprovalForAll}."
      },
      "symbol()": {
        "details": "See {IERC721Metadata-symbol}."
      },
      "tokenByIndex(uint256)": {
        "details": "See {IERC721Enumerable-tokenByIndex}."
      },
      "tokenOfOwnerByIndex(address,uint256)": {
        "details": "See {IERC721Enumerable-tokenOfOwnerByIndex}."
      },
      "totalSupply()": {
        "details": "See {IERC721Enumerable-totalSupply}."
      },
      "transferFrom(address,address,uint256)": {
        "details": "See {IERC721-transferFrom}."
      }
    },
    "version": 1
  },
  "userdoc": {
    "kind": "user",
    "methods": {},
    "version": 1
  }
}