{
  "contractName": "Certificate",
  "abi": [
    {
      "inputs": [
        {
          "internalType": "string",
          "name": "name",
          "type": "string"
        },
        {
          "internalType": "string",
          "name": "symbol",
          "type": "string"
        },
        {
          "internalType": "string",
          "name": "_certificateID",
          "type": "string"
        }
      ],
      "stateMutability": "nonpayable",
      "type": "constructor"
    },
    {
      "anonymous": false,
      "inputs": [
        {
          "indexed": true,
          "internalType": "address",
          "name": "owner",
          "type": "address"
        },
        {
          "indexed": true,
          "internalType": "address",
          "name": "approved",
          "type": "address"
        },
        {
          "indexed": true,
          "internalType": "uint256",
          "name": "tokenId",
          "type": "uint256"
        }
      ],
      "name": "Approval",
      "type": "event"
    },
    {
      "anonymous": false,
      "inputs": [
        {
          "indexed": true,
          "internalType": "address",
          "name": "owner",
          "type": "address"
        },
        {
          "indexed": true,
          "internalType": "address",
          "name": "operator",
          "type": "address"
        },
        {
          "indexed": false,
          "internalType": "bool",
          "name": "approved",
          "type": "bool"
        }
      ],
      "name": "ApprovalForAll",
      "type": "event"
    },
    {
      "anonymous": false,
      "inputs": [
        {
          "indexed": true,
          "internalType": "address",
          "name": "from",
          "type": "address"
        },
        {
          "indexed": true,
          "internalType": "address",
          "name": "to",
          "type": "address"
        },
        {
          "indexed": true,
          "internalType": "uint256",
          "name": "tokenId",
          "type": "uint256"
        }
      ],
      "name": "Transfer",
      "type": "event"
    },
    {
      "inputs": [
        {
          "internalType": "address",
          "name": "to",
          "type": "address"
        },
        {
          "internalType": "uint256",
          "name": "tokenId",
          "type": "uint256"
        }
      ],
      "name": "approve",
      "outputs": [],
      "stateMutability": "nonpayable",
      "type": "function"
    },
    {
      "inputs": [
        {
          "internalType": "address",
          "name": "owner",
          "type": "address"
        }
      ],
      "name": "balanceOf",
      "outputs": [
        {
          "internalType": "uint256",
          "name": "",
          "type": "uint256"
        }
      ],
      "stateMutability": "view",
      "type": "function"
    },
    {
      "inputs": [
        {
          "internalType": "uint256",
          "name": "tokenId",
          "type": "uint256"
        }
      ],
      "name": "getApproved",
      "outputs": [
        {
          "internalType": "address",
          "name": "",
          "type": "address"
        }
      ],
      "stateMutability": "view",
      "type": "function"
    },
    {
      "inputs": [
        {
          "internalType": "address",
          "name": "owner",
          "type": "address"
        },
        {
          "internalType": "address",
          "name": "operator",
          "type": "address"
        }
      ],
      "name": "isApprovedForAll",
      "outputs": [
        {
          "internalType": "bool",
          "name": "",
          "type": "bool"
        }
      ],
      "stateMutability": "view",
      "type": "function"
    },
    {
      "inputs": [],
      "name": "name",
      "outputs": [
        {
          "internalType": "string",
          "name": "",
          "type": "string"
        }
      ],
      "stateMutability": "view",
      "type": "function"
    },
    {
      "inputs": [
        {
          "internalType": "uint256",
          "name": "tokenId",
          "type": "uint256"
        }
      ],
      "name": "ownerOf",
      "outputs": [
        {
          "internalType": "address",
          "name": "",
          "type": "address"
        }
      ],
      "stateMutability": "view",
      "type": "function"
    },
    {
      "inputs": [
        {
          "internalType": "address",
          "name": "from",
          "type": "address"
        },
        {
          "internalType": "address",
          "name": "to",
          "type": "address"
        },
        {
          "internalType": "uint256",
          "name": "tokenId",
          "type": "uint256"
        }
      ],
      "name": "safeTransferFrom",
      "outputs": [],
      "stateMutability": "nonpayable",
      "type": "function"
    },
    {
      "inputs": [
        {
          "internalType": "address",
          "name": "from",
          "type": "address"
        },
        {
          "internalType": "address",
          "name": "to",
          "type": "address"
        },
        {
          "internalType": "uint256",
          "name": "tokenId",
          "type": "uint256"
        },
        {
          "internalType": "bytes",
          "name": "_data",
          "type": "bytes"
        }
      ],
      "name": "safeTransferFrom",
      "outputs": [],
      "stateMutability": "nonpayable",
      "type": "function"
    },
    {
      "inputs": [
        {
          "internalType": "address",
          "name": "operator",
          "type": "address"
        },
        {
          "internalType": "bool",
          "name": "approved",
          "type": "bool"
        }
      ],
      "name": "setApprovalForAll",
      "outputs": [],
      "stateMutability": "nonpayable",
      "type": "function"
    },
    {
      "inputs": [],
      "name": "symbol",
      "outputs": [
        {
          "internalType": "string",
          "name": "",
          "type": "string"
        }
      ],
      "stateMutability": "view",
      "type": "function"
    },
    {
      "inputs": [
        {
          "internalType": "uint256",
          "name": "index",
          "type": "uint256"
        }
      ],
      "name": "tokenByIndex",
      "outputs": [
        {
          "internalType": "uint256",
          "name": "",
          "type": "uint256"
        }
      ],
      "stateMutability": "view",
      "type": "function"
    },
    {
      "inputs": [
        {
          "internalType": "address",
          "name": "owner",
          "type": "address"
        },
        {
          "internalType": "uint256",
          "name": "index",
          "type": "uint256"
        }
      ],
      "name": "tokenOfOwnerByIndex",
      "outputs": [
        {
          "internalType": "uint256",
          "name": "",
          "type": "uint256"
        }
      ],
      "stateMutability": "view",
      "type": "function"
    },
    {
      "inputs": [],
      "name": "totalSupply",
      "outputs": [
        {
          "internalType": "uint256",
          "name": "",
          "type": "uint256"
        }
      ],
      "stateMutability": "view",
      "type": "function"
    },
    {
      "inputs": [
        {
          "internalType": "address",
          "name": "from",
          "type": "address"
        },
        {
          "internalType": "address",
          "name": "to",
          "type": "address"
        },
        {
          "internalType": "uint256",
          "name": "tokenId",
          "type": "uint256"
        }
      ],
      "name": "transferFrom",
      "outputs": [],
      "stateMutability": "nonpayable",
      "type": "function"
    },
    {
      "inputs": [
        {
          "internalType": "address",
          "name": "admin",
          "type": "address"
        },
        {
          "internalType": "string",
          "name": "certificateUrl",
          "type": "string"
        }
      ],
      "name": "create",
      "outputs": [
        {
          "internalType": "uint256",
          "name": "",
          "type": "uint256"
        }
      ],
      "stateMutability": "nonpayable",
      "type": "function"
    },
    {
      "inputs": [
        {
          "internalType": "address",
          "name": "admin",
          "type": "address"
        },
        {
          "internalType": "address",
          "name": "awardee",
          "type": "address"
        },
        {
          "internalType": "uint256",
          "name": "tokenID",
          "type": "uint256"
        }
      ],
      "name": "transferOwnership",
      "outputs": [],
      "stateMutability": "nonpayable",
      "type": "function"
    },
    {
      "inputs": [
        {
          "internalType": "uint256",
          "name": "tokenId",
          "type": "uint256"
        }
      ],
      "name": "tokenURI",
      "outputs": [
        {
          "internalType": "string",
          "name": "",
          "type": "string"
        }
      ],
      "stateMutability": "view",
      "type": "function"
    },
    {
      "inputs": [
        {
          "internalType": "bytes4",
          "name": "interfaceId",
          "type": "bytes4"
        }
      ],
      "name": "supportsInterface",
      "outputs": [
        {
          "internalType": "bool",
          "name": "",
          "type": "bool"
        }
      ],
      "stateMutability": "view",
      "type": "function"
    }
  ],
  "bytecode": "0x60806040523480156200001157600080fd5b5060405162001e1138038062001e118339810160408190526200003491620001f8565b8251839083906200004d90600090602085019062000085565b5080516200006390600190602084019062000085565b505081516200007b9150600c90602084019062000085565b50505050620002c6565b828054620000939062000289565b90600052602060002090601f016020900481019282620000b7576000855562000102565b82601f10620000d257805160ff191683800117855562000102565b8280016001018555821562000102579182015b8281111562000102578251825591602001919060010190620000e5565b506200011092915062000114565b5090565b5b8082111562000110576000815560010162000115565b634e487b7160e01b600052604160045260246000fd5b600082601f8301126200015357600080fd5b81516001600160401b03808211156200017057620001706200012b565b604051601f8301601f19908116603f011681019082821181831017156200019b576200019b6200012b565b81604052838152602092508683858801011115620001b857600080fd5b600091505b83821015620001dc5785820183015181830184015290820190620001bd565b83821115620001ee5760008385830101525b9695505050505050565b6000806000606084860312156200020e57600080fd5b83516001600160401b03808211156200022657600080fd5b620002348783880162000141565b945060208601519150808211156200024b57600080fd5b620002598783880162000141565b935060408601519150808211156200027057600080fd5b506200027f8682870162000141565b9150509250925092565b600181811c908216806200029e57607f821691505b60208210811415620002c057634e487b7160e01b600052602260045260246000fd5b50919050565b611b3b80620002d66000396000f3fe608060405234801561001057600080fd5b50600436106100e65760003560e01c806301ffc9a7146100eb57806306fdde0314610113578063081812fc14610128578063095ea7b314610153578063171c00fd1461016857806318160ddd1461017b57806323b872dd1461018d5780632f745c59146101a057806342842e0e146101b35780634f6ccce7146101c65780636352211e146101d957806370a08231146101ec57806395d89b41146101ff578063a15ab08d14610207578063a22cb4651461021a578063b88d4fde1461022d578063c87b56dd14610240578063e985e9c514610253575b600080fd5b6100fe6100f93660046115a0565b610266565b60405190151581526020015b60405180910390f35b61011b610277565b60405161010a9190611615565b61013b610136366004611628565b610309565b6040516001600160a01b03909116815260200161010a565b61016661016136600461165d565b610396565b005b610166610176366004611687565b6104a7565b6009545b60405190815260200161010a565b61016661019b366004611687565b610518565b61017f6101ae36600461165d565b61053e565b6101666101c1366004611687565b6105d4565b61017f6101d4366004611628565b6105ef565b61013b6101e7366004611628565b610682565b61017f6101fa3660046116c3565b6106f9565b61011b610780565b61017f610215366004611769565b61078f565b6101666102283660046117ca565b6107c6565b61016661023b366004611806565b6107d5565b61011b61024e366004611628565b61080d565b6100fe610261366004611881565b610818565b600061027182610846565b92915050565b606060008054610286906118b4565b80601f01602080910402602001604051908101604052809291908181526020018280546102b2906118b4565b80156102ff5780601f106102d4576101008083540402835291602001916102ff565b820191906000526020600020905b8154815290600101906020018083116102e257829003601f168201915b5050505050905090565b60006103148261086b565b61037a5760405162461bcd60e51b815260206004820152602c60248201527f4552433732313a20617070726f76656420717565727920666f72206e6f6e657860448201526b34b9ba32b73a103a37b5b2b760a11b60648201526084015b60405180910390fd5b506000908152600460205260409020546001600160a01b031690565b60006103a182610682565b9050806001600160a01b0316836001600160a01b0316141561040f5760405162461bcd60e51b815260206004820152602160248201527f4552433732313a20617070726f76616c20746f2063757272656e74206f776e656044820152603960f91b6064820152608401610371565b336001600160a01b038216148061042b575061042b8133610818565b6104985760405162461bcd60e51b815260206004820152603860248201527f4552433732313a20617070726f76652063616c6c6572206973206e6f74206f776044820152771b995c881b9bdc88185c1c1c9bdd995908199bdc88185b1b60421b6064820152608401610371565b6104a28383610888565b505050565b6104b183826108f6565b61050d5760405162461bcd60e51b815260206004820152602760248201527f43616c6c6572206973206e6f74206f776e6572206f66207468697320636572746044820152666966696361746560c81b6064820152608401610371565b6104a28383836109c0565b61052233826108f6565b61050d5760405162461bcd60e51b8152600401610371906118ef565b6000610549836106f9565b82106105ab5760405162461bcd60e51b815260206004820152602b60248201527f455243373231456e756d657261626c653a206f776e657220696e646578206f7560448201526a74206f6620626f756e647360a81b6064820152608401610371565b506001600160a01b03919091166000908152600760209081526040808320938352929052205490565b6104a2838383604051806020016040528060008152506107d5565b60006105fa60095490565b821061065d5760405162461bcd60e51b815260206004820152602c60248201527f455243373231456e756d657261626c653a20676c6f62616c20696e646578206f60448201526b7574206f6620626f756e647360a01b6064820152608401610371565b6009828154811061067057610670611940565b90600052602060002001549050919050565b6000818152600260205260408120546001600160a01b0316806102715760405162461bcd60e51b815260206004820152602960248201527f4552433732313a206f776e657220717565727920666f72206e6f6e657869737460448201526832b73a103a37b5b2b760b91b6064820152608401610371565b60006001600160a01b0382166107645760405162461bcd60e51b815260206004820152602a60248201527f4552433732313a2062616c616e636520717565727920666f7220746865207a65604482015269726f206164647265737360b01b6064820152608401610371565b506001600160a01b031660009081526003602052604090205490565b606060018054610286906118b4565b60008061079b600b5490565b90506107ab600b80546001019055565b6107b58482610b55565b6107bf8184610c81565b9392505050565b6107d1338383610d0c565b5050565b6107df33836108f6565b6107fb5760405162461bcd60e51b8152600401610371906118ef565b61080784848484610dd7565b50505050565b606061027182610e0a565b6001600160a01b03918216600090815260056020908152604080832093909416825291909152205460ff1690565b60006001600160e01b0319821663780e9d6360e01b1480610271575061027182610f79565b6000908152600260205260409020546001600160a01b0316151590565b600081815260046020526040902080546001600160a01b0319166001600160a01b03841690811790915581906108bd82610682565b6001600160a01b03167f8c5be1e5ebec7d5bd14f71427d1e84f3dd0314c0f7b2291e5b200ac8c7c3b92560405160405180910390a45050565b60006109018261086b565b6109625760405162461bcd60e51b815260206004820152602c60248201527f4552433732313a206f70657261746f7220717565727920666f72206e6f6e657860448201526b34b9ba32b73a103a37b5b2b760a11b6064820152608401610371565b600061096d83610682565b9050806001600160a01b0316846001600160a01b031614806109a85750836001600160a01b031661099d84610309565b6001600160a01b0316145b806109b857506109b88185610818565b949350505050565b826001600160a01b03166109d382610682565b6001600160a01b031614610a375760405162461bcd60e51b815260206004820152602560248201527f4552433732313a207472616e736665722066726f6d20696e636f72726563742060448201526437bbb732b960d91b6064820152608401610371565b6001600160a01b038216610a995760405162461bcd60e51b8152602060048201526024808201527f4552433732313a207472616e7366657220746f20746865207a65726f206164646044820152637265737360e01b6064820152608401610371565b610aa4838383610fc9565b610aaf600082610888565b6001600160a01b0383166000908152600360205260408120805460019290610ad890849061196c565b90915550506001600160a01b0382166000908152600360205260408120805460019290610b06908490611983565b909155505060008181526002602052604080822080546001600160a01b0319166001600160a01b038681169182179092559151849391871691600080516020611ae683398151915291a4505050565b6001600160a01b038216610bab5760405162461bcd60e51b815260206004820181905260248201527f4552433732313a206d696e7420746f20746865207a65726f20616464726573736044820152606401610371565b610bb48161086b565b15610c005760405162461bcd60e51b815260206004820152601c60248201527b115490cdcc8c4e881d1bdad95b88185b1c9958591e481b5a5b9d195960221b6044820152606401610371565b610c0c60008383610fc9565b6001600160a01b0382166000908152600360205260408120805460019290610c35908490611983565b909155505060008181526002602052604080822080546001600160a01b0319166001600160a01b0386169081179091559051839290600080516020611ae6833981519152908290a45050565b610c8a8261086b565b610ced5760405162461bcd60e51b815260206004820152602e60248201527f45524337323155524953746f726167653a2055524920736574206f66206e6f6e60448201526d32bc34b9ba32b73a103a37b5b2b760911b6064820152608401610371565b600082815260066020908152604090912082516104a2928401906114ee565b816001600160a01b0316836001600160a01b03161415610d6a5760405162461bcd60e51b815260206004820152601960248201527822a9219b99189d1030b8383937bb32903a379031b0b63632b960391b6044820152606401610371565b6001600160a01b03838116600081815260056020908152604080832094871680845294825291829020805460ff191686151590811790915591519182527f17307eab39ab6107e8899845ad3d59bd9653f200f220920489ca2b5937696c31910160405180910390a3505050565b610de28484846109c0565b610dee84848484610fd4565b6108075760405162461bcd60e51b81526004016103719061199b565b6060610e158261086b565b610e7b5760405162461bcd60e51b815260206004820152603160248201527f45524337323155524953746f726167653a2055524920717565727920666f72206044820152703737b732bc34b9ba32b73a103a37b5b2b760791b6064820152608401610371565b60008281526006602052604081208054610e94906118b4565b80601f0160208091040260200160405190810160405280929190818152602001828054610ec0906118b4565b8015610f0d5780601f10610ee257610100808354040283529160200191610f0d565b820191906000526020600020905b815481529060010190602001808311610ef057829003601f168201915b505050505090506000610f2b60408051602081019091526000815290565b9050805160001415610f3e575092915050565b815115610f70578082604051602001610f589291906119ed565b60405160208183030381529060405292505050919050565b6109b8846110d2565b60006001600160e01b031982166380ac58cd60e01b1480610faa57506001600160e01b03198216635b5e139f60e01b145b8061027157506301ffc9a760e01b6001600160e01b0319831614610271565b6104a28383836111a9565b60006001600160a01b0384163b156110c757604051630a85bd0160e11b81526001600160a01b0385169063150b7a0290611018903390899088908890600401611a1c565b6020604051808303816000875af1925050508015611053575060408051601f3d908101601f1916820190925261105091810190611a59565b60015b6110ad573d808015611081576040519150601f19603f3d011682016040523d82523d6000602084013e611086565b606091505b5080516110a55760405162461bcd60e51b81526004016103719061199b565b805181602001fd5b6001600160e01b031916630a85bd0160e11b1490506109b8565b506001949350505050565b60606110dd8261086b565b6111415760405162461bcd60e51b815260206004820152602f60248201527f4552433732314d657461646174613a2055524920717565727920666f72206e6f60448201526e3732bc34b9ba32b73a103a37b5b2b760891b6064820152608401610371565b600061115860408051602081019091526000815290565b9050600081511161117857604051806020016040528060008152506107bf565b8061118284611261565b6040516020016111939291906119ed565b6040516020818303038152906040529392505050565b6001600160a01b038316611204576111ff81600980546000838152600a60205260408120829055600182018355919091527f6e1540171b6c0c960b71a7020d9f60077f6af931a8bbf590da0223dacf75c7af0155565b611227565b816001600160a01b0316836001600160a01b03161461122757611227838261135e565b6001600160a01b03821661123e576104a2816113fb565b826001600160a01b0316826001600160a01b0316146104a2576104a282826114aa565b6060816112855750506040805180820190915260018152600360fc1b602082015290565b8160005b81156112af578061129981611a76565b91506112a89050600a83611aa7565b9150611289565b6000816001600160401b038111156112c9576112c96116de565b6040519080825280601f01601f1916602001820160405280156112f3576020820181803683370190505b5090505b84156109b85761130860018361196c565b9150611315600a86611abb565b611320906030611983565b60f81b81838151811061133557611335611940565b60200101906001600160f81b031916908160001a905350611357600a86611aa7565b94506112f7565b6000600161136b846106f9565b611375919061196c565b6000838152600860205260409020549091508082146113c8576001600160a01b03841660009081526007602090815260408083208584528252808320548484528184208190558352600890915290208190555b5060009182526008602090815260408084208490556001600160a01b039094168352600781528383209183525290812055565b60095460009061140d9060019061196c565b6000838152600a60205260408120546009805493945090928490811061143557611435611940565b90600052602060002001549050806009838154811061145657611456611940565b6000918252602080832090910192909255828152600a9091526040808220849055858252812055600980548061148e5761148e611acf565b6001900381819060005260206000200160009055905550505050565b60006114b5836106f9565b6001600160a01b039093166000908152600760209081526040808320868452825280832085905593825260089052919091209190915550565b8280546114fa906118b4565b90600052602060002090601f01602090048101928261151c5760008555611562565b82601f1061153557805160ff1916838001178555611562565b82800160010185558215611562579182015b82811115611562578251825591602001919060010190611547565b5061156e929150611572565b5090565b5b8082111561156e5760008155600101611573565b6001600160e01b03198116811461159d57600080fd5b50565b6000602082840312156115b257600080fd5b81356107bf81611587565b60005b838110156115d85781810151838201526020016115c0565b838111156108075750506000910152565b600081518084526116018160208601602086016115bd565b601f01601f19169290920160200192915050565b6020815260006107bf60208301846115e9565b60006020828403121561163a57600080fd5b5035919050565b80356001600160a01b038116811461165857600080fd5b919050565b6000806040838503121561167057600080fd5b61167983611641565b946020939093013593505050565b60008060006060848603121561169c57600080fd5b6116a584611641565b92506116b360208501611641565b9150604084013590509250925092565b6000602082840312156116d557600080fd5b6107bf82611641565b634e487b7160e01b600052604160045260246000fd5b60006001600160401b038084111561170e5761170e6116de565b604051601f8501601f19908116603f01168101908282118183101715611736576117366116de565b8160405280935085815286868601111561174f57600080fd5b858560208301376000602087830101525050509392505050565b6000806040838503121561177c57600080fd5b61178583611641565b915060208301356001600160401b038111156117a057600080fd5b8301601f810185136117b157600080fd5b6117c0858235602084016116f4565b9150509250929050565b600080604083850312156117dd57600080fd5b6117e683611641565b9150602083013580151581146117fb57600080fd5b809150509250929050565b6000806000806080858703121561181c57600080fd5b61182585611641565b935061183360208601611641565b92506040850135915060608501356001600160401b0381111561185557600080fd5b8501601f8101871361186657600080fd5b611875878235602084016116f4565b91505092959194509250565b6000806040838503121561189457600080fd5b61189d83611641565b91506118ab60208401611641565b90509250929050565b600181811c908216806118c857607f821691505b602082108114156118e957634e487b7160e01b600052602260045260246000fd5b50919050565b60208082526031908201527f4552433732313a207472616e736665722063616c6c6572206973206e6f74206f6040820152701ddb995c881b9bdc88185c1c1c9bdd9959607a1b606082015260800190565b634e487b7160e01b600052603260045260246000fd5b634e487b7160e01b600052601160045260246000fd5b60008282101561197e5761197e611956565b500390565b6000821982111561199657611996611956565b500190565b60208082526032908201527f4552433732313a207472616e7366657220746f206e6f6e20455243373231526560408201527131b2b4bb32b91034b6b83632b6b2b73a32b960711b606082015260800190565b600083516119ff8184602088016115bd565b835190830190611a138183602088016115bd565b01949350505050565b6001600160a01b0385811682528416602082015260408101839052608060608201819052600090611a4f908301846115e9565b9695505050505050565b600060208284031215611a6b57600080fd5b81516107bf81611587565b6000600019821415611a8a57611a8a611956565b5060010190565b634e487b7160e01b600052601260045260246000fd5b600082611ab657611ab6611a91565b500490565b600082611aca57611aca611a91565b500690565b634e487b7160e01b600052603160045260246000fdfeddf252ad1be2c89b69c2b068fc378daa952ba7f163c4a11628f55a4df523b3efa2646970667358221220e81c1829af9b911f4ed15624dc11ae3eb800536e7adf596f7e6758faa04878e364736f6c634300080c0033",
  "immutableReferences": {},
  "source": "// SPDX-License-Identifier: UNLICENSED\r\npragma solidity ^0.8.0;\r\n\r\nimport '@openzeppelin/contracts/token/ERC721/extensions/ERC721URIStorage.sol';\r\nimport '@openzeppelin/contracts/token/ERC721/extensions/ERC721Enumerable.sol';\r\nimport '@openzeppelin/contracts/utils/Counters.sol';\r\n\r\ncontract Certificate is ERC721URIStorage, ERC721Enumerable {\r\n    using Counters for Counters.Counter;\r\n    Counters.Counter private tokenIDTracker;\r\n    string certificateID;\r\n\r\n    // constructor() ERC721('Credibly', 'Credibly') {\r\n    // }\r\n    constructor(string memory name, string memory symbol, string memory _certificateID) ERC721(name, symbol) {\r\n        certificateID = _certificateID;\r\n    }\r\n\r\n    function create(address admin, string memory certificateUrl) public returns (uint256) {\r\n        uint256 tokenID = tokenIDTracker.current();\r\n        tokenIDTracker.increment();\r\n        _mint(admin, tokenID);\r\n        _setTokenURI(tokenID, certificateUrl);\r\n        return tokenID;\r\n    }\r\n\r\n    function transferOwnership(address admin, address awardee, uint256 tokenID) public { \r\n        require( _isApprovedOrOwner(admin, tokenID), 'Caller is not owner of this certificate');\r\n        _transfer(admin, awardee, tokenID);\r\n    }\r\n\r\n    // overriding functions\r\n\r\n    function _burn(uint256 tokenId) internal override(ERC721, ERC721URIStorage) {\r\n        super._burn(tokenId);\r\n    }\r\n\r\n    function tokenURI(uint256 tokenId) public view override(ERC721, ERC721URIStorage) returns (string memory) {\r\n        return super.tokenURI(tokenId);\r\n    }\r\n\r\n    function _beforeTokenTransfer(address from, address to, uint256 tokenId) internal override(ERC721, ERC721Enumerable) {\r\n        super._beforeTokenTransfer(from, to, tokenId);\r\n    }\r\n\r\n    function supportsInterface(bytes4 interfaceId) public view override(ERC721, ERC721Enumerable) returns (bool) {\r\n        return super.supportsInterface(interfaceId);\r\n    }\r\n}",
  "sourcePath": "C:\\Users\\MHA\\desktop\\credibly-fe\\ethereum\\contracts\\Certificate.sol",
  "compiler": {
    "name": "solc",
    "version": "0.8.12+commit.f00d7308.Emscripten.clang"
  },
  "schemaVersion": "3.4.6",
  "updatedAt": "2022-03-20T08:22:15.929Z",
  "devdoc": {
    "kind": "dev",
    "methods": {
      "approve(address,uint256)": {
        "details": "See {IERC721-approve}."
      },
      "balanceOf(address)": {
        "details": "See {IERC721-balanceOf}."
      },
      "getApproved(uint256)": {
        "details": "See {IERC721-getApproved}."
      },
      "isApprovedForAll(address,address)": {
        "details": "See {IERC721-isApprovedForAll}."
      },
      "name()": {
        "details": "See {IERC721Metadata-name}."
      },
      "ownerOf(uint256)": {
        "details": "See {IERC721-ownerOf}."
      },
      "safeTransferFrom(address,address,uint256)": {
        "details": "See {IERC721-safeTransferFrom}."
      },
      "safeTransferFrom(address,address,uint256,bytes)": {
        "details": "See {IERC721-safeTransferFrom}."
      },
      "setApprovalForAll(address,bool)": {
        "details": "See {IERC721-setApprovalForAll}."
      },
      "symbol()": {
        "details": "See {IERC721Metadata-symbol}."
      },
      "tokenByIndex(uint256)": {
        "details": "See {IERC721Enumerable-tokenByIndex}."
      },
      "tokenOfOwnerByIndex(address,uint256)": {
        "details": "See {IERC721Enumerable-tokenOfOwnerByIndex}."
      },
      "totalSupply()": {
        "details": "See {IERC721Enumerable-totalSupply}."
      },
      "transferFrom(address,address,uint256)": {
        "details": "See {IERC721-transferFrom}."
      }
    },
    "version": 1
  },
  "userdoc": {
    "kind": "user",
    "methods": {},
    "version": 1
  }
}