{
  "contractName": "Certificate",
  "abi": [
    {
      "inputs": [],
      "stateMutability": "nonpayable",
      "type": "constructor"
    },
    {
      "anonymous": false,
      "inputs": [
        {
          "indexed": true,
          "internalType": "address",
          "name": "owner",
          "type": "address"
        },
        {
          "indexed": true,
          "internalType": "address",
          "name": "approved",
          "type": "address"
        },
        {
          "indexed": true,
          "internalType": "uint256",
          "name": "tokenId",
          "type": "uint256"
        }
      ],
      "name": "Approval",
      "type": "event"
    },
    {
      "anonymous": false,
      "inputs": [
        {
          "indexed": true,
          "internalType": "address",
          "name": "owner",
          "type": "address"
        },
        {
          "indexed": true,
          "internalType": "address",
          "name": "operator",
          "type": "address"
        },
        {
          "indexed": false,
          "internalType": "bool",
          "name": "approved",
          "type": "bool"
        }
      ],
      "name": "ApprovalForAll",
      "type": "event"
    },
    {
      "anonymous": false,
      "inputs": [
        {
          "indexed": true,
          "internalType": "address",
          "name": "from",
          "type": "address"
        },
        {
          "indexed": true,
          "internalType": "address",
          "name": "to",
          "type": "address"
        },
        {
          "indexed": true,
          "internalType": "uint256",
          "name": "tokenId",
          "type": "uint256"
        }
      ],
      "name": "Transfer",
      "type": "event"
    },
    {
      "inputs": [
        {
          "internalType": "address",
          "name": "to",
          "type": "address"
        },
        {
          "internalType": "uint256",
          "name": "tokenId",
          "type": "uint256"
        }
      ],
      "name": "approve",
      "outputs": [],
      "stateMutability": "nonpayable",
      "type": "function"
    },
    {
      "inputs": [
        {
          "internalType": "address",
          "name": "owner",
          "type": "address"
        }
      ],
      "name": "balanceOf",
      "outputs": [
        {
          "internalType": "uint256",
          "name": "",
          "type": "uint256"
        }
      ],
      "stateMutability": "view",
      "type": "function"
    },
    {
      "inputs": [
        {
          "internalType": "uint256",
          "name": "tokenId",
          "type": "uint256"
        }
      ],
      "name": "getApproved",
      "outputs": [
        {
          "internalType": "address",
          "name": "",
          "type": "address"
        }
      ],
      "stateMutability": "view",
      "type": "function"
    },
    {
      "inputs": [
        {
          "internalType": "address",
          "name": "owner",
          "type": "address"
        },
        {
          "internalType": "address",
          "name": "operator",
          "type": "address"
        }
      ],
      "name": "isApprovedForAll",
      "outputs": [
        {
          "internalType": "bool",
          "name": "",
          "type": "bool"
        }
      ],
      "stateMutability": "view",
      "type": "function"
    },
    {
      "inputs": [],
      "name": "name",
      "outputs": [
        {
          "internalType": "string",
          "name": "",
          "type": "string"
        }
      ],
      "stateMutability": "view",
      "type": "function"
    },
    {
      "inputs": [
        {
          "internalType": "uint256",
          "name": "tokenId",
          "type": "uint256"
        }
      ],
      "name": "ownerOf",
      "outputs": [
        {
          "internalType": "address",
          "name": "",
          "type": "address"
        }
      ],
      "stateMutability": "view",
      "type": "function"
    },
    {
      "inputs": [
        {
          "internalType": "address",
          "name": "from",
          "type": "address"
        },
        {
          "internalType": "address",
          "name": "to",
          "type": "address"
        },
        {
          "internalType": "uint256",
          "name": "tokenId",
          "type": "uint256"
        }
      ],
      "name": "safeTransferFrom",
      "outputs": [],
      "stateMutability": "nonpayable",
      "type": "function"
    },
    {
      "inputs": [
        {
          "internalType": "address",
          "name": "from",
          "type": "address"
        },
        {
          "internalType": "address",
          "name": "to",
          "type": "address"
        },
        {
          "internalType": "uint256",
          "name": "tokenId",
          "type": "uint256"
        },
        {
          "internalType": "bytes",
          "name": "_data",
          "type": "bytes"
        }
      ],
      "name": "safeTransferFrom",
      "outputs": [],
      "stateMutability": "nonpayable",
      "type": "function"
    },
    {
      "inputs": [
        {
          "internalType": "address",
          "name": "operator",
          "type": "address"
        },
        {
          "internalType": "bool",
          "name": "approved",
          "type": "bool"
        }
      ],
      "name": "setApprovalForAll",
      "outputs": [],
      "stateMutability": "nonpayable",
      "type": "function"
    },
    {
      "inputs": [],
      "name": "symbol",
      "outputs": [
        {
          "internalType": "string",
          "name": "",
          "type": "string"
        }
      ],
      "stateMutability": "view",
      "type": "function"
    },
    {
      "inputs": [
        {
          "internalType": "uint256",
          "name": "index",
          "type": "uint256"
        }
      ],
      "name": "tokenByIndex",
      "outputs": [
        {
          "internalType": "uint256",
          "name": "",
          "type": "uint256"
        }
      ],
      "stateMutability": "view",
      "type": "function"
    },
    {
      "inputs": [
        {
          "internalType": "address",
          "name": "owner",
          "type": "address"
        },
        {
          "internalType": "uint256",
          "name": "index",
          "type": "uint256"
        }
      ],
      "name": "tokenOfOwnerByIndex",
      "outputs": [
        {
          "internalType": "uint256",
          "name": "",
          "type": "uint256"
        }
      ],
      "stateMutability": "view",
      "type": "function"
    },
    {
      "inputs": [],
      "name": "totalSupply",
      "outputs": [
        {
          "internalType": "uint256",
          "name": "",
          "type": "uint256"
        }
      ],
      "stateMutability": "view",
      "type": "function"
    },
    {
      "inputs": [
        {
          "internalType": "address",
          "name": "from",
          "type": "address"
        },
        {
          "internalType": "address",
          "name": "to",
          "type": "address"
        },
        {
          "internalType": "uint256",
          "name": "tokenId",
          "type": "uint256"
        }
      ],
      "name": "transferFrom",
      "outputs": [],
      "stateMutability": "nonpayable",
      "type": "function"
    },
    {
      "inputs": [
        {
          "internalType": "address",
          "name": "owner",
          "type": "address"
        },
        {
          "internalType": "string",
          "name": "certificateUrl",
          "type": "string"
        }
      ],
      "name": "award",
      "outputs": [
        {
          "internalType": "uint256",
          "name": "",
          "type": "uint256"
        }
      ],
      "stateMutability": "nonpayable",
      "type": "function"
    },
    {
      "inputs": [
        {
          "internalType": "address",
          "name": "owner",
          "type": "address"
        },
        {
          "internalType": "address",
          "name": "receiver",
          "type": "address"
        },
        {
          "internalType": "uint256",
          "name": "tokenID",
          "type": "uint256"
        }
      ],
      "name": "transferOwnership",
      "outputs": [],
      "stateMutability": "nonpayable",
      "type": "function"
    },
    {
      "inputs": [
        {
          "internalType": "uint256",
          "name": "tokenId",
          "type": "uint256"
        }
      ],
      "name": "tokenURI",
      "outputs": [
        {
          "internalType": "string",
          "name": "",
          "type": "string"
        }
      ],
      "stateMutability": "view",
      "type": "function"
    },
    {
      "inputs": [
        {
          "internalType": "bytes4",
          "name": "interfaceId",
          "type": "bytes4"
        }
      ],
      "name": "supportsInterface",
      "outputs": [
        {
          "internalType": "bool",
          "name": "",
          "type": "bool"
        }
      ],
      "stateMutability": "view",
      "type": "function"
    }
  ],
  "bytecode": "0x60806040523480156200001157600080fd5b506040518060400160405280600b81526020017f43657274696669636174650000000000000000000000000000000000000000008152506040518060400160405280600b81526020017f4365727469666963617465000000000000000000000000000000000000000000815250816000908051906020019062000096929190620000b8565b508060019080519060200190620000af929190620000b8565b505050620001cd565b828054620000c69062000197565b90600052602060002090601f016020900481019282620000ea576000855562000136565b82601f106200010557805160ff191683800117855562000136565b8280016001018555821562000136579182015b828111156200013557825182559160200191906001019062000118565b5b50905062000145919062000149565b5090565b5b80821115620001645760008160009055506001016200014a565b5090565b7f4e487b7100000000000000000000000000000000000000000000000000000000600052602260045260246000fd5b60006002820490506001821680620001b057607f821691505b60208210811415620001c757620001c662000168565b5b50919050565b6134b080620001dd6000396000f3fe608060405234801561001057600080fd5b50600436106101165760003560e01c806342842e0e116100a257806395d89b411161007157806395d89b4114610317578063a22cb46514610335578063b88d4fde14610351578063c87b56dd1461036d578063e985e9c51461039d57610116565b806342842e0e1461026b5780634f6ccce7146102875780636352211e146102b757806370a08231146102e757610116565b80630be03131116100e95780630be03131146101b5578063171c00fd146101e557806318160ddd1461020157806323b872dd1461021f5780632f745c591461023b57610116565b806301ffc9a71461011b57806306fdde031461014b578063081812fc14610169578063095ea7b314610199575b600080fd5b6101356004803603810190610130919061202d565b6103cd565b6040516101429190612075565b60405180910390f35b6101536103df565b6040516101609190612129565b60405180910390f35b610183600480360381019061017e9190612181565b610471565b60405161019091906121ef565b60405180910390f35b6101b360048036038101906101ae9190612236565b6104f6565b005b6101cf60048036038101906101ca91906123ab565b61060e565b6040516101dc9190612416565b60405180910390f35b6101ff60048036038101906101fa9190612431565b610645565b005b61020961069e565b6040516102169190612416565b60405180910390f35b61023960048036038101906102349190612431565b6106ab565b005b61025560048036038101906102509190612236565b61070b565b6040516102629190612416565b60405180910390f35b61028560048036038101906102809190612431565b6107b0565b005b6102a1600480360381019061029c9190612181565b6107d0565b6040516102ae9190612416565b60405180910390f35b6102d160048036038101906102cc9190612181565b610841565b6040516102de91906121ef565b60405180910390f35b61030160048036038101906102fc9190612484565b6108f3565b60405161030e9190612416565b60405180910390f35b61031f6109ab565b60405161032c9190612129565b60405180910390f35b61034f600480360381019061034a91906124dd565b610a3d565b005b61036b600480360381019061036691906125be565b610a53565b005b61038760048036038101906103829190612181565b610ab5565b6040516103949190612129565b60405180910390f35b6103b760048036038101906103b29190612641565b610ac7565b6040516103c49190612075565b60405180910390f35b60006103d882610b5b565b9050919050565b6060600080546103ee906126b0565b80601f016020809104026020016040519081016040528092919081815260200182805461041a906126b0565b80156104675780601f1061043c57610100808354040283529160200191610467565b820191906000526020600020905b81548152906001019060200180831161044a57829003601f168201915b5050505050905090565b600061047c82610bd5565b6104bb576040517f08c379a00000000000000000000000000000000000000000000000000000000081526004016104b290612754565b60405180910390fd5b6004600083815260200190815260200160002060009054906101000a900473ffffffffffffffffffffffffffffffffffffffff169050919050565b600061050182610841565b90508073ffffffffffffffffffffffffffffffffffffffff168373ffffffffffffffffffffffffffffffffffffffff161415610572576040517f08c379a0000000000000000000000000000000000000000000000000000000008152600401610569906127e6565b60405180910390fd5b8073ffffffffffffffffffffffffffffffffffffffff16610591610c41565b73ffffffffffffffffffffffffffffffffffffffff1614806105c057506105bf816105ba610c41565b610ac7565b5b6105ff576040517f08c379a00000000000000000000000000000000000000000000000000000000081526004016105f690612878565b60405180910390fd5b6106098383610c49565b505050565b60008061061b600b610d02565b9050610627600b610d10565b6106318482610d26565b61063b8184610f00565b8091505092915050565b61064f8382610f74565b61068e576040517f08c379a00000000000000000000000000000000000000000000000000000000081526004016106859061290a565b60405180910390fd5b610699838383611052565b505050565b6000600980549050905090565b6106bc6106b6610c41565b82610f74565b6106fb576040517f08c379a00000000000000000000000000000000000000000000000000000000081526004016106f29061299c565b60405180910390fd5b610706838383611052565b505050565b6000610716836108f3565b8210610757576040517f08c379a000000000000000000000000000000000000000000000000000000000815260040161074e90612a2e565b60405180910390fd5b600760008473ffffffffffffffffffffffffffffffffffffffff1673ffffffffffffffffffffffffffffffffffffffff168152602001908152602001600020600083815260200190815260200160002054905092915050565b6107cb83838360405180602001604052806000815250610a53565b505050565b60006107da61069e565b821061081b576040517f08c379a000000000000000000000000000000000000000000000000000000000815260040161081290612ac0565b60405180910390fd5b6009828154811061082f5761082e612ae0565b5b90600052602060002001549050919050565b6000806002600084815260200190815260200160002060009054906101000a900473ffffffffffffffffffffffffffffffffffffffff169050600073ffffffffffffffffffffffffffffffffffffffff168173ffffffffffffffffffffffffffffffffffffffff1614156108ea576040517f08c379a00000000000000000000000000000000000000000000000000000000081526004016108e190612b81565b60405180910390fd5b80915050919050565b60008073ffffffffffffffffffffffffffffffffffffffff168273ffffffffffffffffffffffffffffffffffffffff161415610964576040517f08c379a000000000000000000000000000000000000000000000000000000000815260040161095b90612c13565b60405180910390fd5b600360008373ffffffffffffffffffffffffffffffffffffffff1673ffffffffffffffffffffffffffffffffffffffff168152602001908152602001600020549050919050565b6060600180546109ba906126b0565b80601f01602080910402602001604051908101604052809291908181526020018280546109e6906126b0565b8015610a335780601f10610a0857610100808354040283529160200191610a33565b820191906000526020600020905b815481529060010190602001808311610a1657829003601f168201915b5050505050905090565b610a4f610a48610c41565b83836112b9565b5050565b610a64610a5e610c41565b83610f74565b610aa3576040517f08c379a0000000000000000000000000000000000000000000000000000000008152600401610a9a9061299c565b60405180910390fd5b610aaf84848484611426565b50505050565b6060610ac082611482565b9050919050565b6000600560008473ffffffffffffffffffffffffffffffffffffffff1673ffffffffffffffffffffffffffffffffffffffff16815260200190815260200160002060008373ffffffffffffffffffffffffffffffffffffffff1673ffffffffffffffffffffffffffffffffffffffff16815260200190815260200160002060009054906101000a900460ff16905092915050565b60007f780e9d63000000000000000000000000000000000000000000000000000000007bffffffffffffffffffffffffffffffffffffffffffffffffffffffff1916827bffffffffffffffffffffffffffffffffffffffffffffffffffffffff19161480610bce5750610bcd826115d4565b5b9050919050565b60008073ffffffffffffffffffffffffffffffffffffffff166002600084815260200190815260200160002060009054906101000a900473ffffffffffffffffffffffffffffffffffffffff1673ffffffffffffffffffffffffffffffffffffffff1614159050919050565b600033905090565b816004600083815260200190815260200160002060006101000a81548173ffffffffffffffffffffffffffffffffffffffff021916908373ffffffffffffffffffffffffffffffffffffffff160217905550808273ffffffffffffffffffffffffffffffffffffffff16610cbc83610841565b73ffffffffffffffffffffffffffffffffffffffff167f8c5be1e5ebec7d5bd14f71427d1e84f3dd0314c0f7b2291e5b200ac8c7c3b92560405160405180910390a45050565b600081600001549050919050565b6001816000016000828254019250508190555050565b600073ffffffffffffffffffffffffffffffffffffffff168273ffffffffffffffffffffffffffffffffffffffff161415610d96576040517f08c379a0000000000000000000000000000000000000000000000000000000008152600401610d8d90612c7f565b60405180910390fd5b610d9f81610bd5565b15610ddf576040517f08c379a0000000000000000000000000000000000000000000000000000000008152600401610dd690612ceb565b60405180910390fd5b610deb600083836116b6565b6001600360008473ffffffffffffffffffffffffffffffffffffffff1673ffffffffffffffffffffffffffffffffffffffff1681526020019081526020016000206000828254610e3b9190612d3a565b92505081905550816002600083815260200190815260200160002060006101000a81548173ffffffffffffffffffffffffffffffffffffffff021916908373ffffffffffffffffffffffffffffffffffffffff160217905550808273ffffffffffffffffffffffffffffffffffffffff16600073ffffffffffffffffffffffffffffffffffffffff167fddf252ad1be2c89b69c2b068fc378daa952ba7f163c4a11628f55a4df523b3ef60405160405180910390a4610efc600083836116c6565b5050565b610f0982610bd5565b610f48576040517f08c379a0000000000000000000000000000000000000000000000000000000008152600401610f3f90612e02565b60405180910390fd5b80600660008481526020019081526020016000209080519060200190610f6f929190611f1e565b505050565b6000610f7f82610bd5565b610fbe576040517f08c379a0000000000000000000000000000000000000000000000000000000008152600401610fb590612e94565b60405180910390fd5b6000610fc983610841565b90508073ffffffffffffffffffffffffffffffffffffffff168473ffffffffffffffffffffffffffffffffffffffff16148061103857508373ffffffffffffffffffffffffffffffffffffffff1661102084610471565b73ffffffffffffffffffffffffffffffffffffffff16145b8061104957506110488185610ac7565b5b91505092915050565b8273ffffffffffffffffffffffffffffffffffffffff1661107282610841565b73ffffffffffffffffffffffffffffffffffffffff16146110c8576040517f08c379a00000000000000000000000000000000000000000000000000000000081526004016110bf90612f26565b60405180910390fd5b600073ffffffffffffffffffffffffffffffffffffffff168273ffffffffffffffffffffffffffffffffffffffff161415611138576040517f08c379a000000000000000000000000000000000000000000000000000000000815260040161112f90612fb8565b60405180910390fd5b6111438383836116b6565b61114e600082610c49565b6001600360008573ffffffffffffffffffffffffffffffffffffffff1673ffffffffffffffffffffffffffffffffffffffff168152602001908152602001600020600082825461119e9190612fd8565b925050819055506001600360008473ffffffffffffffffffffffffffffffffffffffff1673ffffffffffffffffffffffffffffffffffffffff16815260200190815260200160002060008282546111f59190612d3a565b92505081905550816002600083815260200190815260200160002060006101000a81548173ffffffffffffffffffffffffffffffffffffffff021916908373ffffffffffffffffffffffffffffffffffffffff160217905550808273ffffffffffffffffffffffffffffffffffffffff168473ffffffffffffffffffffffffffffffffffffffff167fddf252ad1be2c89b69c2b068fc378daa952ba7f163c4a11628f55a4df523b3ef60405160405180910390a46112b48383836116c6565b505050565b8173ffffffffffffffffffffffffffffffffffffffff168373ffffffffffffffffffffffffffffffffffffffff161415611328576040517f08c379a000000000000000000000000000000000000000000000000000000000815260040161131f90613058565b60405180910390fd5b80600560008573ffffffffffffffffffffffffffffffffffffffff1673ffffffffffffffffffffffffffffffffffffffff16815260200190815260200160002060008473ffffffffffffffffffffffffffffffffffffffff1673ffffffffffffffffffffffffffffffffffffffff16815260200190815260200160002060006101000a81548160ff0219169083151502179055508173ffffffffffffffffffffffffffffffffffffffff168373ffffffffffffffffffffffffffffffffffffffff167f17307eab39ab6107e8899845ad3d59bd9653f200f220920489ca2b5937696c31836040516114199190612075565b60405180910390a3505050565b611431848484611052565b61143d848484846116cb565b61147c576040517f08c379a0000000000000000000000000000000000000000000000000000000008152600401611473906130ea565b60405180910390fd5b50505050565b606061148d82610bd5565b6114cc576040517f08c379a00000000000000000000000000000000000000000000000000000000081526004016114c39061317c565b60405180910390fd5b60006006600084815260200190815260200160002080546114ec906126b0565b80601f0160208091040260200160405190810160405280929190818152602001828054611518906126b0565b80156115655780601f1061153a57610100808354040283529160200191611565565b820191906000526020600020905b81548152906001019060200180831161154857829003601f168201915b505050505090506000611576611853565b905060008151141561158c5781925050506115cf565b6000825111156115c15780826040516020016115a99291906131d8565b604051602081830303815290604052925050506115cf565b6115ca8461186a565b925050505b919050565b60007f80ac58cd000000000000000000000000000000000000000000000000000000007bffffffffffffffffffffffffffffffffffffffffffffffffffffffff1916827bffffffffffffffffffffffffffffffffffffffffffffffffffffffff1916148061169f57507f5b5e139f000000000000000000000000000000000000000000000000000000007bffffffffffffffffffffffffffffffffffffffffffffffffffffffff1916827bffffffffffffffffffffffffffffffffffffffffffffffffffffffff1916145b806116af57506116ae82611911565b5b9050919050565b6116c183838361197b565b505050565b505050565b60006116ec8473ffffffffffffffffffffffffffffffffffffffff16611a8f565b15611846578373ffffffffffffffffffffffffffffffffffffffff1663150b7a02611715610c41565b8786866040518563ffffffff1660e01b81526004016117379493929190613251565b6020604051808303816000875af192505050801561177357506040513d601f19601f8201168201806040525081019061177091906132b2565b60015b6117f6573d80600081146117a3576040519150601f19603f3d011682016040523d82523d6000602084013e6117a8565b606091505b506000815114156117ee576040517f08c379a00000000000000000000000000000000000000000000000000000000081526004016117e5906130ea565b60405180910390fd5b805181602001fd5b63150b7a0260e01b7bffffffffffffffffffffffffffffffffffffffffffffffffffffffff1916817bffffffffffffffffffffffffffffffffffffffffffffffffffffffff19161491505061184b565b600190505b949350505050565b606060405180602001604052806000815250905090565b606061187582610bd5565b6118b4576040517f08c379a00000000000000000000000000000000000000000000000000000000081526004016118ab90613351565b60405180910390fd5b60006118be611853565b905060008151116118de5760405180602001604052806000815250611909565b806118e884611ab2565b6040516020016118f99291906131d8565b6040516020818303038152906040525b915050919050565b60007f01ffc9a7000000000000000000000000000000000000000000000000000000007bffffffffffffffffffffffffffffffffffffffffffffffffffffffff1916827bffffffffffffffffffffffffffffffffffffffffffffffffffffffff1916149050919050565b611986838383611c13565b600073ffffffffffffffffffffffffffffffffffffffff168373ffffffffffffffffffffffffffffffffffffffff1614156119c9576119c481611c18565b611a08565b8173ffffffffffffffffffffffffffffffffffffffff168373ffffffffffffffffffffffffffffffffffffffff1614611a0757611a068382611c61565b5b5b600073ffffffffffffffffffffffffffffffffffffffff168273ffffffffffffffffffffffffffffffffffffffff161415611a4b57611a4681611dce565b611a8a565b8273ffffffffffffffffffffffffffffffffffffffff168273ffffffffffffffffffffffffffffffffffffffff1614611a8957611a888282611e9f565b5b5b505050565b6000808273ffffffffffffffffffffffffffffffffffffffff163b119050919050565b60606000821415611afa576040518060400160405280600181526020017f30000000000000000000000000000000000000000000000000000000000000008152509050611c0e565b600082905060005b60008214611b2c578080611b1590613371565b915050600a82611b2591906133e9565b9150611b02565b60008167ffffffffffffffff811115611b4857611b47612280565b5b6040519080825280601f01601f191660200182016040528015611b7a5781602001600182028036833780820191505090505b5090505b60008514611c0757600182611b939190612fd8565b9150600a85611ba2919061341a565b6030611bae9190612d3a565b60f81b818381518110611bc457611bc3612ae0565b5b60200101907effffffffffffffffffffffffffffffffffffffffffffffffffffffffffffff1916908160001a905350600a85611c0091906133e9565b9450611b7e565b8093505050505b919050565b505050565b600980549050600a600083815260200190815260200160002081905550600981908060018154018082558091505060019003906000526020600020016000909190919091505550565b60006001611c6e846108f3565b611c789190612fd8565b9050600060086000848152602001908152602001600020549050818114611d5d576000600760008673ffffffffffffffffffffffffffffffffffffffff1673ffffffffffffffffffffffffffffffffffffffff168152602001908152602001600020600084815260200190815260200160002054905080600760008773ffffffffffffffffffffffffffffffffffffffff1673ffffffffffffffffffffffffffffffffffffffff168152602001908152602001600020600084815260200190815260200160002081905550816008600083815260200190815260200160002081905550505b6008600084815260200190815260200160002060009055600760008573ffffffffffffffffffffffffffffffffffffffff1673ffffffffffffffffffffffffffffffffffffffff16815260200190815260200160002060008381526020019081526020016000206000905550505050565b60006001600980549050611de29190612fd8565b90506000600a6000848152602001908152602001600020549050600060098381548110611e1257611e11612ae0565b5b906000526020600020015490508060098381548110611e3457611e33612ae0565b5b906000526020600020018190555081600a600083815260200190815260200160002081905550600a6000858152602001908152602001600020600090556009805480611e8357611e8261344b565b5b6001900381819060005260206000200160009055905550505050565b6000611eaa836108f3565b905081600760008573ffffffffffffffffffffffffffffffffffffffff1673ffffffffffffffffffffffffffffffffffffffff168152602001908152602001600020600083815260200190815260200160002081905550806008600084815260200190815260200160002081905550505050565b828054611f2a906126b0565b90600052602060002090601f016020900481019282611f4c5760008555611f93565b82601f10611f6557805160ff1916838001178555611f93565b82800160010185558215611f93579182015b82811115611f92578251825591602001919060010190611f77565b5b509050611fa09190611fa4565b5090565b5b80821115611fbd576000816000905550600101611fa5565b5090565b6000604051905090565b600080fd5b600080fd5b60007fffffffff0000000000000000000000000000000000000000000000000000000082169050919050565b61200a81611fd5565b811461201557600080fd5b50565b60008135905061202781612001565b92915050565b60006020828403121561204357612042611fcb565b5b600061205184828501612018565b91505092915050565b60008115159050919050565b61206f8161205a565b82525050565b600060208201905061208a6000830184612066565b92915050565b600081519050919050565b600082825260208201905092915050565b60005b838110156120ca5780820151818401526020810190506120af565b838111156120d9576000848401525b50505050565b6000601f19601f8301169050919050565b60006120fb82612090565b612105818561209b565b93506121158185602086016120ac565b61211e816120df565b840191505092915050565b6000602082019050818103600083015261214381846120f0565b905092915050565b6000819050919050565b61215e8161214b565b811461216957600080fd5b50565b60008135905061217b81612155565b92915050565b60006020828403121561219757612196611fcb565b5b60006121a58482850161216c565b91505092915050565b600073ffffffffffffffffffffffffffffffffffffffff82169050919050565b60006121d9826121ae565b9050919050565b6121e9816121ce565b82525050565b600060208201905061220460008301846121e0565b92915050565b612213816121ce565b811461221e57600080fd5b50565b6000813590506122308161220a565b92915050565b6000806040838503121561224d5761224c611fcb565b5b600061225b85828601612221565b925050602061226c8582860161216c565b9150509250929050565b600080fd5b600080fd5b7f4e487b7100000000000000000000000000000000000000000000000000000000600052604160045260246000fd5b6122b8826120df565b810181811067ffffffffffffffff821117156122d7576122d6612280565b5b80604052505050565b60006122ea611fc1565b90506122f682826122af565b919050565b600067ffffffffffffffff82111561231657612315612280565b5b61231f826120df565b9050602081019050919050565b82818337600083830152505050565b600061234e612349846122fb565b6122e0565b90508281526020810184848401111561236a5761236961227b565b5b61237584828561232c565b509392505050565b600082601f83011261239257612391612276565b5b81356123a284826020860161233b565b91505092915050565b600080604083850312156123c2576123c1611fcb565b5b60006123d085828601612221565b925050602083013567ffffffffffffffff8111156123f1576123f0611fd0565b5b6123fd8582860161237d565b9150509250929050565b6124108161214b565b82525050565b600060208201905061242b6000830184612407565b92915050565b60008060006060848603121561244a57612449611fcb565b5b600061245886828701612221565b935050602061246986828701612221565b925050604061247a8682870161216c565b9150509250925092565b60006020828403121561249a57612499611fcb565b5b60006124a884828501612221565b91505092915050565b6124ba8161205a565b81146124c557600080fd5b50565b6000813590506124d7816124b1565b92915050565b600080604083850312156124f4576124f3611fcb565b5b600061250285828601612221565b9250506020612513858286016124c8565b9150509250929050565b600067ffffffffffffffff82111561253857612537612280565b5b612541826120df565b9050602081019050919050565b600061256161255c8461251d565b6122e0565b90508281526020810184848401111561257d5761257c61227b565b5b61258884828561232c565b509392505050565b600082601f8301126125a5576125a4612276565b5b81356125b584826020860161254e565b91505092915050565b600080600080608085870312156125d8576125d7611fcb565b5b60006125e687828801612221565b94505060206125f787828801612221565b93505060406126088782880161216c565b925050606085013567ffffffffffffffff81111561262957612628611fd0565b5b61263587828801612590565b91505092959194509250565b6000806040838503121561265857612657611fcb565b5b600061266685828601612221565b925050602061267785828601612221565b9150509250929050565b7f4e487b7100000000000000000000000000000000000000000000000000000000600052602260045260246000fd5b600060028204905060018216806126c857607f821691505b602082108114156126dc576126db612681565b5b50919050565b7f4552433732313a20617070726f76656420717565727920666f72206e6f6e657860008201527f697374656e7420746f6b656e0000000000000000000000000000000000000000602082015250565b600061273e602c8361209b565b9150612749826126e2565b604082019050919050565b6000602082019050818103600083015261276d81612731565b9050919050565b7f4552433732313a20617070726f76616c20746f2063757272656e74206f776e6560008201527f7200000000000000000000000000000000000000000000000000000000000000602082015250565b60006127d060218361209b565b91506127db82612774565b604082019050919050565b600060208201905081810360008301526127ff816127c3565b9050919050565b7f4552433732313a20617070726f76652063616c6c6572206973206e6f74206f7760008201527f6e6572206e6f7220617070726f76656420666f7220616c6c0000000000000000602082015250565b600061286260388361209b565b915061286d82612806565b604082019050919050565b6000602082019050818103600083015261289181612855565b9050919050565b7f43616c6c6572206973206e6f74206f776e6572206f662074686973206365727460008201527f6966696361746500000000000000000000000000000000000000000000000000602082015250565b60006128f460278361209b565b91506128ff82612898565b604082019050919050565b60006020820190508181036000830152612923816128e7565b9050919050565b7f4552433732313a207472616e736665722063616c6c6572206973206e6f74206f60008201527f776e6572206e6f7220617070726f766564000000000000000000000000000000602082015250565b600061298660318361209b565b91506129918261292a565b604082019050919050565b600060208201905081810360008301526129b581612979565b9050919050565b7f455243373231456e756d657261626c653a206f776e657220696e646578206f7560008201527f74206f6620626f756e6473000000000000000000000000000000000000000000602082015250565b6000612a18602b8361209b565b9150612a23826129bc565b604082019050919050565b60006020820190508181036000830152612a4781612a0b565b9050919050565b7f455243373231456e756d657261626c653a20676c6f62616c20696e646578206f60008201527f7574206f6620626f756e64730000000000000000000000000000000000000000602082015250565b6000612aaa602c8361209b565b9150612ab582612a4e565b604082019050919050565b60006020820190508181036000830152612ad981612a9d565b9050919050565b7f4e487b7100000000000000000000000000000000000000000000000000000000600052603260045260246000fd5b7f4552433732313a206f776e657220717565727920666f72206e6f6e657869737460008201527f656e7420746f6b656e0000000000000000000000000000000000000000000000602082015250565b6000612b6b60298361209b565b9150612b7682612b0f565b604082019050919050565b60006020820190508181036000830152612b9a81612b5e565b9050919050565b7f4552433732313a2062616c616e636520717565727920666f7220746865207a6560008201527f726f206164647265737300000000000000000000000000000000000000000000602082015250565b6000612bfd602a8361209b565b9150612c0882612ba1565b604082019050919050565b60006020820190508181036000830152612c2c81612bf0565b9050919050565b7f4552433732313a206d696e7420746f20746865207a65726f2061646472657373600082015250565b6000612c6960208361209b565b9150612c7482612c33565b602082019050919050565b60006020820190508181036000830152612c9881612c5c565b9050919050565b7f4552433732313a20746f6b656e20616c7265616479206d696e74656400000000600082015250565b6000612cd5601c8361209b565b9150612ce082612c9f565b602082019050919050565b60006020820190508181036000830152612d0481612cc8565b9050919050565b7f4e487b7100000000000000000000000000000000000000000000000000000000600052601160045260246000fd5b6000612d458261214b565b9150612d508361214b565b9250827fffffffffffffffffffffffffffffffffffffffffffffffffffffffffffffffff03821115612d8557612d84612d0b565b5b828201905092915050565b7f45524337323155524953746f726167653a2055524920736574206f66206e6f6e60008201527f6578697374656e7420746f6b656e000000000000000000000000000000000000602082015250565b6000612dec602e8361209b565b9150612df782612d90565b604082019050919050565b60006020820190508181036000830152612e1b81612ddf565b9050919050565b7f4552433732313a206f70657261746f7220717565727920666f72206e6f6e657860008201527f697374656e7420746f6b656e0000000000000000000000000000000000000000602082015250565b6000612e7e602c8361209b565b9150612e8982612e22565b604082019050919050565b60006020820190508181036000830152612ead81612e71565b9050919050565b7f4552433732313a207472616e736665722066726f6d20696e636f72726563742060008201527f6f776e6572000000000000000000000000000000000000000000000000000000602082015250565b6000612f1060258361209b565b9150612f1b82612eb4565b604082019050919050565b60006020820190508181036000830152612f3f81612f03565b9050919050565b7f4552433732313a207472616e7366657220746f20746865207a65726f2061646460008201527f7265737300000000000000000000000000000000000000000000000000000000602082015250565b6000612fa260248361209b565b9150612fad82612f46565b604082019050919050565b60006020820190508181036000830152612fd181612f95565b9050919050565b6000612fe38261214b565b9150612fee8361214b565b92508282101561300157613000612d0b565b5b828203905092915050565b7f4552433732313a20617070726f766520746f2063616c6c657200000000000000600082015250565b600061304260198361209b565b915061304d8261300c565b602082019050919050565b6000602082019050818103600083015261307181613035565b9050919050565b7f4552433732313a207472616e7366657220746f206e6f6e20455243373231526560008201527f63656976657220696d706c656d656e7465720000000000000000000000000000602082015250565b60006130d460328361209b565b91506130df82613078565b604082019050919050565b60006020820190508181036000830152613103816130c7565b9050919050565b7f45524337323155524953746f726167653a2055524920717565727920666f722060008201527f6e6f6e6578697374656e7420746f6b656e000000000000000000000000000000602082015250565b600061316660318361209b565b91506131718261310a565b604082019050919050565b6000602082019050818103600083015261319581613159565b9050919050565b600081905092915050565b60006131b282612090565b6131bc818561319c565b93506131cc8185602086016120ac565b80840191505092915050565b60006131e482856131a7565b91506131f082846131a7565b91508190509392505050565b600081519050919050565b600082825260208201905092915050565b6000613223826131fc565b61322d8185613207565b935061323d8185602086016120ac565b613246816120df565b840191505092915050565b600060808201905061326660008301876121e0565b61327360208301866121e0565b6132806040830185612407565b81810360608301526132928184613218565b905095945050505050565b6000815190506132ac81612001565b92915050565b6000602082840312156132c8576132c7611fcb565b5b60006132d68482850161329d565b91505092915050565b7f4552433732314d657461646174613a2055524920717565727920666f72206e6f60008201527f6e6578697374656e7420746f6b656e0000000000000000000000000000000000602082015250565b600061333b602f8361209b565b9150613346826132df565b604082019050919050565b6000602082019050818103600083015261336a8161332e565b9050919050565b600061337c8261214b565b91507fffffffffffffffffffffffffffffffffffffffffffffffffffffffffffffffff8214156133af576133ae612d0b565b5b600182019050919050565b7f4e487b7100000000000000000000000000000000000000000000000000000000600052601260045260246000fd5b60006133f48261214b565b91506133ff8361214b565b92508261340f5761340e6133ba565b5b828204905092915050565b60006134258261214b565b91506134308361214b565b9250826134405761343f6133ba565b5b828206905092915050565b7f4e487b7100000000000000000000000000000000000000000000000000000000600052603160045260246000fdfea2646970667358221220dfc808f6bc0f63ea7992ff9cc27f195f70e5813e769829080bac377b800229d064736f6c634300080c0033",
  "immutableReferences": {},
  "source": "// SPDX-License-Identifier: MIT\r\npragma solidity ^0.8.0;\r\n\r\nimport '@openzeppelin/contracts/token/ERC721/extensions/ERC721URIStorage.sol';\r\nimport '@openzeppelin/contracts/token/ERC721/extensions/ERC721Enumerable.sol';\r\nimport '@openzeppelin/contracts/utils/Counters.sol';\r\n\r\ncontract Certificate is ERC721URIStorage, ERC721Enumerable {\r\n    using Counters for Counters.Counter;\r\n    Counters.Counter private tokenIDTracker;\r\n\r\n    constructor() ERC721('Certificate', 'Certificate') {\r\n    }\r\n\r\n    function award(address owner, string memory certificateUrl) public returns (uint256) {\r\n        uint256 tokenID = tokenIDTracker.current();\r\n        tokenIDTracker.increment();\r\n        _mint(owner, tokenID);\r\n        _setTokenURI(tokenID, certificateUrl);\r\n        return tokenID;\r\n    }\r\n\r\n    function transferOwnership(address owner, address receiver, uint256 tokenID) public { \r\n        require( _isApprovedOrOwner(owner, tokenID), 'Caller is not owner of this certificate');\r\n        _transfer(owner, receiver, tokenID);\r\n    }\r\n\r\n    // overriding functions\r\n\r\n    function _burn(uint256 tokenId) internal override(ERC721, ERC721URIStorage) {\r\n        super._burn(tokenId);\r\n    }\r\n\r\n    function tokenURI(uint256 tokenId) public view override(ERC721, ERC721URIStorage) returns (string memory) {\r\n        return super.tokenURI(tokenId);\r\n    }\r\n\r\n    function _beforeTokenTransfer(address from, address to, uint256 tokenId) internal override(ERC721, ERC721Enumerable) {\r\n        super._beforeTokenTransfer(from, to, tokenId);\r\n    }\r\n\r\n    function supportsInterface(bytes4 interfaceId) public view override(ERC721, ERC721Enumerable) returns (bool) {\r\n        return super.supportsInterface(interfaceId);\r\n    }\r\n}",
  "sourcePath": "C:\\Users\\MHA\\desktop\\credibly-fe\\ethereum\\contracts\\Certificate.sol",
  "compiler": {
    "name": "solc",
    "version": "0.8.12+commit.f00d7308.Emscripten.clang"
  },
  "schemaVersion": "3.4.6",
  "updatedAt": "2022-03-12T12:10:16.134Z",
  "devdoc": {
    "kind": "dev",
    "methods": {
      "approve(address,uint256)": {
        "details": "See {IERC721-approve}."
      },
      "balanceOf(address)": {
        "details": "See {IERC721-balanceOf}."
      },
      "getApproved(uint256)": {
        "details": "See {IERC721-getApproved}."
      },
      "isApprovedForAll(address,address)": {
        "details": "See {IERC721-isApprovedForAll}."
      },
      "name()": {
        "details": "See {IERC721Metadata-name}."
      },
      "ownerOf(uint256)": {
        "details": "See {IERC721-ownerOf}."
      },
      "safeTransferFrom(address,address,uint256)": {
        "details": "See {IERC721-safeTransferFrom}."
      },
      "safeTransferFrom(address,address,uint256,bytes)": {
        "details": "See {IERC721-safeTransferFrom}."
      },
      "setApprovalForAll(address,bool)": {
        "details": "See {IERC721-setApprovalForAll}."
      },
      "symbol()": {
        "details": "See {IERC721Metadata-symbol}."
      },
      "tokenByIndex(uint256)": {
        "details": "See {IERC721Enumerable-tokenByIndex}."
      },
      "tokenOfOwnerByIndex(address,uint256)": {
        "details": "See {IERC721Enumerable-tokenOfOwnerByIndex}."
      },
      "totalSupply()": {
        "details": "See {IERC721Enumerable-totalSupply}."
      },
      "transferFrom(address,address,uint256)": {
        "details": "See {IERC721-transferFrom}."
      }
    },
    "version": 1
  },
  "userdoc": {
    "kind": "user",
    "methods": {},
    "version": 1
  }
}