{
  "contractName": "Certificate",
  "abi": [
    {
      "inputs": [
        {
          "internalType": "string",
          "name": "name",
          "type": "string"
        },
        {
          "internalType": "string",
          "name": "_certificateId",
          "type": "string"
        },
        {
          "internalType": "string",
          "name": "_description",
          "type": "string"
        },
        {
          "internalType": "string",
          "name": "_organisation",
          "type": "string"
        }
      ],
      "stateMutability": "nonpayable",
      "type": "constructor"
    },
    {
      "anonymous": false,
      "inputs": [
        {
          "indexed": true,
          "internalType": "address",
          "name": "owner",
          "type": "address"
        },
        {
          "indexed": true,
          "internalType": "address",
          "name": "approved",
          "type": "address"
        },
        {
          "indexed": true,
          "internalType": "uint256",
          "name": "tokenId",
          "type": "uint256"
        }
      ],
      "name": "Approval",
      "type": "event"
    },
    {
      "anonymous": false,
      "inputs": [
        {
          "indexed": true,
          "internalType": "address",
          "name": "owner",
          "type": "address"
        },
        {
          "indexed": true,
          "internalType": "address",
          "name": "operator",
          "type": "address"
        },
        {
          "indexed": false,
          "internalType": "bool",
          "name": "approved",
          "type": "bool"
        }
      ],
      "name": "ApprovalForAll",
      "type": "event"
    },
    {
      "anonymous": false,
      "inputs": [
        {
          "indexed": true,
          "internalType": "address",
          "name": "from",
          "type": "address"
        },
        {
          "indexed": true,
          "internalType": "address",
          "name": "to",
          "type": "address"
        },
        {
          "indexed": true,
          "internalType": "uint256",
          "name": "tokenId",
          "type": "uint256"
        }
      ],
      "name": "Transfer",
      "type": "event"
    },
    {
      "inputs": [
        {
          "internalType": "address",
          "name": "to",
          "type": "address"
        },
        {
          "internalType": "uint256",
          "name": "tokenId",
          "type": "uint256"
        }
      ],
      "name": "approve",
      "outputs": [],
      "stateMutability": "nonpayable",
      "type": "function"
    },
    {
      "inputs": [
        {
          "internalType": "address",
          "name": "owner",
          "type": "address"
        }
      ],
      "name": "balanceOf",
      "outputs": [
        {
          "internalType": "uint256",
          "name": "",
          "type": "uint256"
        }
      ],
      "stateMutability": "view",
      "type": "function"
    },
    {
      "inputs": [
        {
          "internalType": "uint256",
          "name": "tokenId",
          "type": "uint256"
        }
      ],
      "name": "getApproved",
      "outputs": [
        {
          "internalType": "address",
          "name": "",
          "type": "address"
        }
      ],
      "stateMutability": "view",
      "type": "function"
    },
    {
      "inputs": [
        {
          "internalType": "address",
          "name": "owner",
          "type": "address"
        },
        {
          "internalType": "address",
          "name": "operator",
          "type": "address"
        }
      ],
      "name": "isApprovedForAll",
      "outputs": [
        {
          "internalType": "bool",
          "name": "",
          "type": "bool"
        }
      ],
      "stateMutability": "view",
      "type": "function"
    },
    {
      "inputs": [],
      "name": "name",
      "outputs": [
        {
          "internalType": "string",
          "name": "",
          "type": "string"
        }
      ],
      "stateMutability": "view",
      "type": "function"
    },
    {
      "inputs": [
        {
          "internalType": "uint256",
          "name": "tokenId",
          "type": "uint256"
        }
      ],
      "name": "ownerOf",
      "outputs": [
        {
          "internalType": "address",
          "name": "",
          "type": "address"
        }
      ],
      "stateMutability": "view",
      "type": "function"
    },
    {
      "inputs": [
        {
          "internalType": "address",
          "name": "from",
          "type": "address"
        },
        {
          "internalType": "address",
          "name": "to",
          "type": "address"
        },
        {
          "internalType": "uint256",
          "name": "tokenId",
          "type": "uint256"
        }
      ],
      "name": "safeTransferFrom",
      "outputs": [],
      "stateMutability": "nonpayable",
      "type": "function"
    },
    {
      "inputs": [
        {
          "internalType": "address",
          "name": "from",
          "type": "address"
        },
        {
          "internalType": "address",
          "name": "to",
          "type": "address"
        },
        {
          "internalType": "uint256",
          "name": "tokenId",
          "type": "uint256"
        },
        {
          "internalType": "bytes",
          "name": "_data",
          "type": "bytes"
        }
      ],
      "name": "safeTransferFrom",
      "outputs": [],
      "stateMutability": "nonpayable",
      "type": "function"
    },
    {
      "inputs": [
        {
          "internalType": "address",
          "name": "operator",
          "type": "address"
        },
        {
          "internalType": "bool",
          "name": "approved",
          "type": "bool"
        }
      ],
      "name": "setApprovalForAll",
      "outputs": [],
      "stateMutability": "nonpayable",
      "type": "function"
    },
    {
      "inputs": [],
      "name": "symbol",
      "outputs": [
        {
          "internalType": "string",
          "name": "",
          "type": "string"
        }
      ],
      "stateMutability": "view",
      "type": "function"
    },
    {
      "inputs": [
        {
          "internalType": "uint256",
          "name": "index",
          "type": "uint256"
        }
      ],
      "name": "tokenByIndex",
      "outputs": [
        {
          "internalType": "uint256",
          "name": "",
          "type": "uint256"
        }
      ],
      "stateMutability": "view",
      "type": "function"
    },
    {
      "inputs": [
        {
          "internalType": "address",
          "name": "owner",
          "type": "address"
        },
        {
          "internalType": "uint256",
          "name": "index",
          "type": "uint256"
        }
      ],
      "name": "tokenOfOwnerByIndex",
      "outputs": [
        {
          "internalType": "uint256",
          "name": "",
          "type": "uint256"
        }
      ],
      "stateMutability": "view",
      "type": "function"
    },
    {
      "inputs": [],
      "name": "totalSupply",
      "outputs": [
        {
          "internalType": "uint256",
          "name": "",
          "type": "uint256"
        }
      ],
      "stateMutability": "view",
      "type": "function"
    },
    {
      "inputs": [
        {
          "internalType": "address",
          "name": "from",
          "type": "address"
        },
        {
          "internalType": "address",
          "name": "to",
          "type": "address"
        },
        {
          "internalType": "uint256",
          "name": "tokenId",
          "type": "uint256"
        }
      ],
      "name": "transferFrom",
      "outputs": [],
      "stateMutability": "nonpayable",
      "type": "function"
    },
    {
      "inputs": [
        {
          "internalType": "address",
          "name": "admin",
          "type": "address"
        },
        {
          "internalType": "string",
          "name": "ipfs",
          "type": "string"
        }
      ],
      "name": "create",
      "outputs": [
        {
          "internalType": "uint256",
          "name": "",
          "type": "uint256"
        }
      ],
      "stateMutability": "nonpayable",
      "type": "function"
    },
    {
      "inputs": [
        {
          "internalType": "uint256",
          "name": "tokenId",
          "type": "uint256"
        }
      ],
      "name": "getData",
      "outputs": [
        {
          "internalType": "string",
          "name": "",
          "type": "string"
        },
        {
          "internalType": "string",
          "name": "",
          "type": "string"
        },
        {
          "internalType": "string",
          "name": "",
          "type": "string"
        }
      ],
      "stateMutability": "view",
      "type": "function"
    },
    {
      "inputs": [
        {
          "internalType": "uint256",
          "name": "tokenId",
          "type": "uint256"
        }
      ],
      "name": "tokenURI",
      "outputs": [
        {
          "internalType": "string",
          "name": "",
          "type": "string"
        }
      ],
      "stateMutability": "view",
      "type": "function"
    },
    {
      "inputs": [
        {
          "internalType": "bytes4",
          "name": "interfaceId",
          "type": "bytes4"
        }
      ],
      "name": "supportsInterface",
      "outputs": [
        {
          "internalType": "bool",
          "name": "",
          "type": "bool"
        }
      ],
      "stateMutability": "view",
      "type": "function"
    }
  ],
  "bytecode": "0x60806040523480156200001157600080fd5b5060405162001fa438038062001fa4833981016040819052620000349162000246565b83604051806040016040528060088152602001674372656469626c7960c01b81525081600090805190602001906200006e929190620000d3565b50805162000084906001906020840190620000d3565b505083516200009c9150600c906020860190620000d3565b508151620000b290600d906020850190620000d3565b508051620000c890600e906020840190620000d3565b50505050506200033c565b828054620000e190620002ff565b90600052602060002090601f01602090048101928262000105576000855562000150565b82601f106200012057805160ff191683800117855562000150565b8280016001018555821562000150579182015b828111156200015057825182559160200191906001019062000133565b506200015e92915062000162565b5090565b5b808211156200015e576000815560010162000163565b634e487b7160e01b600052604160045260246000fd5b600082601f830112620001a157600080fd5b81516001600160401b0380821115620001be57620001be62000179565b604051601f8301601f19908116603f01168101908282118183101715620001e957620001e962000179565b816040528381526020925086838588010111156200020657600080fd5b600091505b838210156200022a57858201830151818301840152908201906200020b565b838211156200023c5760008385830101525b9695505050505050565b600080600080608085870312156200025d57600080fd5b84516001600160401b03808211156200027557600080fd5b62000283888389016200018f565b955060208701519150808211156200029a57600080fd5b620002a8888389016200018f565b94506040870151915080821115620002bf57600080fd5b620002cd888389016200018f565b93506060870151915080821115620002e457600080fd5b50620002f3878288016200018f565b91505092959194509250565b600181811c908216806200031457607f821691505b602082108114156200033657634e487b7160e01b600052602260045260246000fd5b50919050565b611c58806200034c6000396000f3fe608060405234801561001057600080fd5b50600436106100e65760003560e01c80630178fe3f146100eb57806301ffc9a71461011657806306fdde0314610139578063081812fc1461014e578063095ea7b31461017957806318160ddd1461018e57806323b872dd146101a05780632f745c59146101b357806342842e0e146101c65780634f6ccce7146101d95780636352211e146101ec57806370a08231146101ff57806395d89b4114610212578063a15ab08d1461021a578063a22cb4651461022d578063b88d4fde14610240578063c87b56dd14610253578063e985e9c514610266575b600080fd5b6100fe6100f936600461166b565b610279565b60405161010d939291906116dc565b60405180910390f35b610129610124366004611738565b6103b0565b604051901515815260200161010d565b6101416103c1565b60405161010d9190611755565b61016161015c36600461166b565b610453565b6040516001600160a01b03909116815260200161010d565b61018c610187366004611784565b6104e0565b005b6009545b60405190815260200161010d565b61018c6101ae3660046117ae565b6105f1565b6101926101c1366004611784565b610622565b61018c6101d43660046117ae565b6106b8565b6101926101e736600461166b565b6106d3565b6101616101fa36600461166b565b610766565b61019261020d3660046117ea565b6107dd565b610141610864565b610192610228366004611890565b610873565b61018c61023b3660046118f1565b6108aa565b61018c61024e36600461192d565b6108b9565b61014161026136600461166b565b6108f1565b6101296102743660046119a8565b6108fc565b6060806060610287846108f1565b600d600e818054610297906119db565b80601f01602080910402602001604051908101604052809291908181526020018280546102c3906119db565b80156103105780601f106102e557610100808354040283529160200191610310565b820191906000526020600020905b8154815290600101906020018083116102f357829003601f168201915b50505050509150808054610323906119db565b80601f016020809104026020016040519081016040528092919081815260200182805461034f906119db565b801561039c5780601f106103715761010080835404028352916020019161039c565b820191906000526020600020905b81548152906001019060200180831161037f57829003601f168201915b505050505090509250925092509193909250565b60006103bb8261092a565b92915050565b6060600080546103d0906119db565b80601f01602080910402602001604051908101604052809291908181526020018280546103fc906119db565b80156104495780601f1061041e57610100808354040283529160200191610449565b820191906000526020600020905b81548152906001019060200180831161042c57829003601f168201915b5050505050905090565b600061045e8261094f565b6104c45760405162461bcd60e51b815260206004820152602c60248201527f4552433732313a20617070726f76656420717565727920666f72206e6f6e657860448201526b34b9ba32b73a103a37b5b2b760a11b60648201526084015b60405180910390fd5b506000908152600460205260409020546001600160a01b031690565b60006104eb82610766565b9050806001600160a01b0316836001600160a01b031614156105595760405162461bcd60e51b815260206004820152602160248201527f4552433732313a20617070726f76616c20746f2063757272656e74206f776e656044820152603960f91b60648201526084016104bb565b336001600160a01b0382161480610575575061057581336108fc565b6105e25760405162461bcd60e51b815260206004820152603860248201527f4552433732313a20617070726f76652063616c6c6572206973206e6f74206f776044820152771b995c881b9bdc88185c1c1c9bdd995908199bdc88185b1b60421b60648201526084016104bb565b6105ec838361096c565b505050565b6105fb33826109da565b6106175760405162461bcd60e51b81526004016104bb90611a16565b6105ec838383610aa4565b600061062d836107dd565b821061068f5760405162461bcd60e51b815260206004820152602b60248201527f455243373231456e756d657261626c653a206f776e657220696e646578206f7560448201526a74206f6620626f756e647360a81b60648201526084016104bb565b506001600160a01b03919091166000908152600760209081526040808320938352929052205490565b6105ec838383604051806020016040528060008152506108b9565b60006106de60095490565b82106107415760405162461bcd60e51b815260206004820152602c60248201527f455243373231456e756d657261626c653a20676c6f62616c20696e646578206f60448201526b7574206f6620626f756e647360a01b60648201526084016104bb565b6009828154811061075457610754611a67565b90600052602060002001549050919050565b6000818152600260205260408120546001600160a01b0316806103bb5760405162461bcd60e51b815260206004820152602960248201527f4552433732313a206f776e657220717565727920666f72206e6f6e657869737460448201526832b73a103a37b5b2b760b91b60648201526084016104bb565b60006001600160a01b0382166108485760405162461bcd60e51b815260206004820152602a60248201527f4552433732313a2062616c616e636520717565727920666f7220746865207a65604482015269726f206164647265737360b01b60648201526084016104bb565b506001600160a01b031660009081526003602052604090205490565b6060600180546103d0906119db565b60008061087f600b5490565b905061088f600b80546001019055565b6108998482610c39565b6108a38184610d65565b9392505050565b6108b5338383610df0565b5050565b6108c333836109da565b6108df5760405162461bcd60e51b81526004016104bb90611a16565b6108eb84848484610ebb565b50505050565b60606103bb82610eee565b6001600160a01b03918216600090815260056020908152604080832093909416825291909152205460ff1690565b60006001600160e01b0319821663780e9d6360e01b14806103bb57506103bb8261105d565b6000908152600260205260409020546001600160a01b0316151590565b600081815260046020526040902080546001600160a01b0319166001600160a01b03841690811790915581906109a182610766565b6001600160a01b03167f8c5be1e5ebec7d5bd14f71427d1e84f3dd0314c0f7b2291e5b200ac8c7c3b92560405160405180910390a45050565b60006109e58261094f565b610a465760405162461bcd60e51b815260206004820152602c60248201527f4552433732313a206f70657261746f7220717565727920666f72206e6f6e657860448201526b34b9ba32b73a103a37b5b2b760a11b60648201526084016104bb565b6000610a5183610766565b9050806001600160a01b0316846001600160a01b03161480610a8c5750836001600160a01b0316610a8184610453565b6001600160a01b0316145b80610a9c5750610a9c81856108fc565b949350505050565b826001600160a01b0316610ab782610766565b6001600160a01b031614610b1b5760405162461bcd60e51b815260206004820152602560248201527f4552433732313a207472616e736665722066726f6d20696e636f72726563742060448201526437bbb732b960d91b60648201526084016104bb565b6001600160a01b038216610b7d5760405162461bcd60e51b8152602060048201526024808201527f4552433732313a207472616e7366657220746f20746865207a65726f206164646044820152637265737360e01b60648201526084016104bb565b610b888383836110ad565b610b9360008261096c565b6001600160a01b0383166000908152600360205260408120805460019290610bbc908490611a93565b90915550506001600160a01b0382166000908152600360205260408120805460019290610bea908490611aaa565b909155505060008181526002602052604080822080546001600160a01b0319166001600160a01b038681169182179092559151849391871691600080516020611c0383398151915291a4505050565b6001600160a01b038216610c8f5760405162461bcd60e51b815260206004820181905260248201527f4552433732313a206d696e7420746f20746865207a65726f206164647265737360448201526064016104bb565b610c988161094f565b15610ce45760405162461bcd60e51b815260206004820152601c60248201527b115490cdcc8c4e881d1bdad95b88185b1c9958591e481b5a5b9d195960221b60448201526064016104bb565b610cf0600083836110ad565b6001600160a01b0382166000908152600360205260408120805460019290610d19908490611aaa565b909155505060008181526002602052604080822080546001600160a01b0319166001600160a01b0386169081179091559051839290600080516020611c03833981519152908290a45050565b610d6e8261094f565b610dd15760405162461bcd60e51b815260206004820152602e60248201527f45524337323155524953746f726167653a2055524920736574206f66206e6f6e60448201526d32bc34b9ba32b73a103a37b5b2b760911b60648201526084016104bb565b600082815260066020908152604090912082516105ec928401906115d2565b816001600160a01b0316836001600160a01b03161415610e4e5760405162461bcd60e51b815260206004820152601960248201527822a9219b99189d1030b8383937bb32903a379031b0b63632b960391b60448201526064016104bb565b6001600160a01b03838116600081815260056020908152604080832094871680845294825291829020805460ff191686151590811790915591519182527f17307eab39ab6107e8899845ad3d59bd9653f200f220920489ca2b5937696c31910160405180910390a3505050565b610ec6848484610aa4565b610ed2848484846110b8565b6108eb5760405162461bcd60e51b81526004016104bb90611ac2565b6060610ef98261094f565b610f5f5760405162461bcd60e51b815260206004820152603160248201527f45524337323155524953746f726167653a2055524920717565727920666f72206044820152703737b732bc34b9ba32b73a103a37b5b2b760791b60648201526084016104bb565b60008281526006602052604081208054610f78906119db565b80601f0160208091040260200160405190810160405280929190818152602001828054610fa4906119db565b8015610ff15780601f10610fc657610100808354040283529160200191610ff1565b820191906000526020600020905b815481529060010190602001808311610fd457829003601f168201915b50505050509050600061100f60408051602081019091526000815290565b9050805160001415611022575092915050565b81511561105457808260405160200161103c929190611b14565b60405160208183030381529060405292505050919050565b610a9c846111b6565b60006001600160e01b031982166380ac58cd60e01b148061108e57506001600160e01b03198216635b5e139f60e01b145b806103bb57506301ffc9a760e01b6001600160e01b03198316146103bb565b6105ec83838361128d565b60006001600160a01b0384163b156111ab57604051630a85bd0160e11b81526001600160a01b0385169063150b7a02906110fc903390899088908890600401611b43565b6020604051808303816000875af1925050508015611137575060408051601f3d908101601f1916820190925261113491810190611b76565b60015b611191573d808015611165576040519150601f19603f3d011682016040523d82523d6000602084013e61116a565b606091505b5080516111895760405162461bcd60e51b81526004016104bb90611ac2565b805181602001fd5b6001600160e01b031916630a85bd0160e11b149050610a9c565b506001949350505050565b60606111c18261094f565b6112255760405162461bcd60e51b815260206004820152602f60248201527f4552433732314d657461646174613a2055524920717565727920666f72206e6f60448201526e3732bc34b9ba32b73a103a37b5b2b760891b60648201526084016104bb565b600061123c60408051602081019091526000815290565b9050600081511161125c57604051806020016040528060008152506108a3565b8061126684611345565b604051602001611277929190611b14565b6040516020818303038152906040529392505050565b6001600160a01b0383166112e8576112e381600980546000838152600a60205260408120829055600182018355919091527f6e1540171b6c0c960b71a7020d9f60077f6af931a8bbf590da0223dacf75c7af0155565b61130b565b816001600160a01b0316836001600160a01b03161461130b5761130b8382611442565b6001600160a01b038216611322576105ec816114df565b826001600160a01b0316826001600160a01b0316146105ec576105ec828261158e565b6060816113695750506040805180820190915260018152600360fc1b602082015290565b8160005b8115611393578061137d81611b93565b915061138c9050600a83611bc4565b915061136d565b6000816001600160401b038111156113ad576113ad611805565b6040519080825280601f01601f1916602001820160405280156113d7576020820181803683370190505b5090505b8415610a9c576113ec600183611a93565b91506113f9600a86611bd8565b611404906030611aaa565b60f81b81838151811061141957611419611a67565b60200101906001600160f81b031916908160001a90535061143b600a86611bc4565b94506113db565b6000600161144f846107dd565b6114599190611a93565b6000838152600860205260409020549091508082146114ac576001600160a01b03841660009081526007602090815260408083208584528252808320548484528184208190558352600890915290208190555b5060009182526008602090815260408084208490556001600160a01b039094168352600781528383209183525290812055565b6009546000906114f190600190611a93565b6000838152600a60205260408120546009805493945090928490811061151957611519611a67565b90600052602060002001549050806009838154811061153a5761153a611a67565b6000918252602080832090910192909255828152600a9091526040808220849055858252812055600980548061157257611572611bec565b6001900381819060005260206000200160009055905550505050565b6000611599836107dd565b6001600160a01b039093166000908152600760209081526040808320868452825280832085905593825260089052919091209190915550565b8280546115de906119db565b90600052602060002090601f0160209004810192826116005760008555611646565b82601f1061161957805160ff1916838001178555611646565b82800160010185558215611646579182015b8281111561164657825182559160200191906001019061162b565b50611652929150611656565b5090565b5b808211156116525760008155600101611657565b60006020828403121561167d57600080fd5b5035919050565b60005b8381101561169f578181015183820152602001611687565b838111156108eb5750506000910152565b600081518084526116c8816020860160208601611684565b601f01601f19169290920160200192915050565b6060815260006116ef60608301866116b0565b828103602084015261170181866116b0565b9050828103604084015261171581856116b0565b9695505050505050565b6001600160e01b03198116811461173557600080fd5b50565b60006020828403121561174a57600080fd5b81356108a38161171f565b6020815260006108a360208301846116b0565b80356001600160a01b038116811461177f57600080fd5b919050565b6000806040838503121561179757600080fd5b6117a083611768565b946020939093013593505050565b6000806000606084860312156117c357600080fd5b6117cc84611768565b92506117da60208501611768565b9150604084013590509250925092565b6000602082840312156117fc57600080fd5b6108a382611768565b634e487b7160e01b600052604160045260246000fd5b60006001600160401b038084111561183557611835611805565b604051601f8501601f19908116603f0116810190828211818310171561185d5761185d611805565b8160405280935085815286868601111561187657600080fd5b858560208301376000602087830101525050509392505050565b600080604083850312156118a357600080fd5b6118ac83611768565b915060208301356001600160401b038111156118c757600080fd5b8301601f810185136118d857600080fd5b6118e78582356020840161181b565b9150509250929050565b6000806040838503121561190457600080fd5b61190d83611768565b91506020830135801515811461192257600080fd5b809150509250929050565b6000806000806080858703121561194357600080fd5b61194c85611768565b935061195a60208601611768565b92506040850135915060608501356001600160401b0381111561197c57600080fd5b8501601f8101871361198d57600080fd5b61199c8782356020840161181b565b91505092959194509250565b600080604083850312156119bb57600080fd5b6119c483611768565b91506119d260208401611768565b90509250929050565b600181811c908216806119ef57607f821691505b60208210811415611a1057634e487b7160e01b600052602260045260246000fd5b50919050565b60208082526031908201527f4552433732313a207472616e736665722063616c6c6572206973206e6f74206f6040820152701ddb995c881b9bdc88185c1c1c9bdd9959607a1b606082015260800190565b634e487b7160e01b600052603260045260246000fd5b634e487b7160e01b600052601160045260246000fd5b600082821015611aa557611aa5611a7d565b500390565b60008219821115611abd57611abd611a7d565b500190565b60208082526032908201527f4552433732313a207472616e7366657220746f206e6f6e20455243373231526560408201527131b2b4bb32b91034b6b83632b6b2b73a32b960711b606082015260800190565b60008351611b26818460208801611684565b835190830190611b3a818360208801611684565b01949350505050565b6001600160a01b0385811682528416602082015260408101839052608060608201819052600090611715908301846116b0565b600060208284031215611b8857600080fd5b81516108a38161171f565b6000600019821415611ba757611ba7611a7d565b5060010190565b634e487b7160e01b600052601260045260246000fd5b600082611bd357611bd3611bae565b500490565b600082611be757611be7611bae565b500690565b634e487b7160e01b600052603160045260246000fdfeddf252ad1be2c89b69c2b068fc378daa952ba7f163c4a11628f55a4df523b3efa26469706673582212208c219c92238608a2d57d466b637c0a224c6c51a8b600fa2c164e4e77a9ac46ad64736f6c634300080c0033",
  "immutableReferences": {},
  "source": "// SPDX-License-Identifier: UNLICENSED\r\npragma solidity ^0.8.0;\r\n\r\nimport '@openzeppelin/contracts/token/ERC721/extensions/ERC721URIStorage.sol';\r\nimport '@openzeppelin/contracts/token/ERC721/extensions/ERC721Enumerable.sol';\r\nimport '@openzeppelin/contracts/utils/Counters.sol';\r\n\r\ncontract Certificate is ERC721URIStorage, ERC721Enumerable {\r\n    using Counters for Counters.Counter;\r\n    Counters.Counter private tokenIdTracker;\r\n    string certificateId;\r\n    string description;\r\n    string organisation;\r\n\r\n\r\n    constructor(string memory name, string memory _certificateId, string memory _description, string memory _organisation) ERC721(name, 'Credibly') {\r\n        certificateId = _certificateId;\r\n        description = _description;\r\n        organisation = _organisation;\r\n    }\r\n\r\n    function create(address admin, string memory ipfs) public returns (uint256) {\r\n        uint256 tokenId = tokenIdTracker.current();\r\n        tokenIdTracker.increment();\r\n        _mint(admin, tokenId);\r\n        _setTokenURI(tokenId, ipfs);\r\n        return tokenId;\r\n    }\r\n\r\n    function getData(uint256 tokenId) view public returns(string memory, string memory, string memory) {\r\n        return (tokenURI(tokenId), description, organisation);\r\n    }\r\n\r\n    // overriding functions\r\n\r\n    function _burn(uint256 tokenId) internal override(ERC721, ERC721URIStorage) {\r\n        super._burn(tokenId);\r\n    }\r\n\r\n    function tokenURI(uint256 tokenId) public view override(ERC721, ERC721URIStorage) returns (string memory) {\r\n        return super.tokenURI(tokenId);\r\n    }\r\n\r\n    function _beforeTokenTransfer(address from, address to, uint256 tokenId) internal override(ERC721, ERC721Enumerable) {\r\n        super._beforeTokenTransfer(from, to, tokenId);\r\n    }\r\n\r\n    function supportsInterface(bytes4 interfaceId) public view override(ERC721, ERC721Enumerable) returns (bool) {\r\n        return super.supportsInterface(interfaceId);\r\n    }\r\n}",
  "sourcePath": "C:\\Users\\MHA\\desktop\\credibly-fe\\ethereum\\contracts\\Certificate.sol",
  "compiler": {
    "name": "solc",
    "version": "0.8.12+commit.f00d7308.Emscripten.clang"
  },
  "schemaVersion": "3.4.6",
  "updatedAt": "2022-03-24T16:18:58.249Z",
  "devdoc": {
    "kind": "dev",
    "methods": {
      "approve(address,uint256)": {
        "details": "See {IERC721-approve}."
      },
      "balanceOf(address)": {
        "details": "See {IERC721-balanceOf}."
      },
      "getApproved(uint256)": {
        "details": "See {IERC721-getApproved}."
      },
      "isApprovedForAll(address,address)": {
        "details": "See {IERC721-isApprovedForAll}."
      },
      "name()": {
        "details": "See {IERC721Metadata-name}."
      },
      "ownerOf(uint256)": {
        "details": "See {IERC721-ownerOf}."
      },
      "safeTransferFrom(address,address,uint256)": {
        "details": "See {IERC721-safeTransferFrom}."
      },
      "safeTransferFrom(address,address,uint256,bytes)": {
        "details": "See {IERC721-safeTransferFrom}."
      },
      "setApprovalForAll(address,bool)": {
        "details": "See {IERC721-setApprovalForAll}."
      },
      "symbol()": {
        "details": "See {IERC721Metadata-symbol}."
      },
      "tokenByIndex(uint256)": {
        "details": "See {IERC721Enumerable-tokenByIndex}."
      },
      "tokenOfOwnerByIndex(address,uint256)": {
        "details": "See {IERC721Enumerable-tokenOfOwnerByIndex}."
      },
      "totalSupply()": {
        "details": "See {IERC721Enumerable-totalSupply}."
      },
      "transferFrom(address,address,uint256)": {
        "details": "See {IERC721-transferFrom}."
      }
    },
    "version": 1
  },
  "userdoc": {
    "kind": "user",
    "methods": {},
    "version": 1
  }
}