{
  "contractName": "Certificate",
  "abi": [
    {
      "inputs": [
        {
          "internalType": "string",
          "name": "name",
          "type": "string"
        },
        {
          "internalType": "string",
          "name": "_certificateId",
          "type": "string"
        },
        {
          "internalType": "string",
          "name": "_description",
          "type": "string"
        },
        {
          "internalType": "string",
          "name": "_organisation",
          "type": "string"
        },
        {
          "internalType": "address",
          "name": "_admin",
          "type": "address"
        }
      ],
      "stateMutability": "nonpayable",
      "type": "constructor"
    },
    {
      "anonymous": false,
      "inputs": [
        {
          "indexed": true,
          "internalType": "address",
          "name": "owner",
          "type": "address"
        },
        {
          "indexed": true,
          "internalType": "address",
          "name": "approved",
          "type": "address"
        },
        {
          "indexed": true,
          "internalType": "uint256",
          "name": "tokenId",
          "type": "uint256"
        }
      ],
      "name": "Approval",
      "type": "event"
    },
    {
      "anonymous": false,
      "inputs": [
        {
          "indexed": true,
          "internalType": "address",
          "name": "owner",
          "type": "address"
        },
        {
          "indexed": true,
          "internalType": "address",
          "name": "operator",
          "type": "address"
        },
        {
          "indexed": false,
          "internalType": "bool",
          "name": "approved",
          "type": "bool"
        }
      ],
      "name": "ApprovalForAll",
      "type": "event"
    },
    {
      "anonymous": false,
      "inputs": [
        {
          "indexed": true,
          "internalType": "address",
          "name": "from",
          "type": "address"
        },
        {
          "indexed": true,
          "internalType": "address",
          "name": "to",
          "type": "address"
        },
        {
          "indexed": true,
          "internalType": "uint256",
          "name": "tokenId",
          "type": "uint256"
        }
      ],
      "name": "Transfer",
      "type": "event"
    },
    {
      "inputs": [
        {
          "internalType": "address",
          "name": "to",
          "type": "address"
        },
        {
          "internalType": "uint256",
          "name": "tokenId",
          "type": "uint256"
        }
      ],
      "name": "approve",
      "outputs": [],
      "stateMutability": "nonpayable",
      "type": "function"
    },
    {
      "inputs": [
        {
          "internalType": "address",
          "name": "owner",
          "type": "address"
        }
      ],
      "name": "balanceOf",
      "outputs": [
        {
          "internalType": "uint256",
          "name": "",
          "type": "uint256"
        }
      ],
      "stateMutability": "view",
      "type": "function"
    },
    {
      "inputs": [],
      "name": "certificateId",
      "outputs": [
        {
          "internalType": "string",
          "name": "",
          "type": "string"
        }
      ],
      "stateMutability": "view",
      "type": "function"
    },
    {
      "inputs": [],
      "name": "description",
      "outputs": [
        {
          "internalType": "string",
          "name": "",
          "type": "string"
        }
      ],
      "stateMutability": "view",
      "type": "function"
    },
    {
      "inputs": [
        {
          "internalType": "uint256",
          "name": "tokenId",
          "type": "uint256"
        }
      ],
      "name": "getApproved",
      "outputs": [
        {
          "internalType": "address",
          "name": "",
          "type": "address"
        }
      ],
      "stateMutability": "view",
      "type": "function"
    },
    {
      "inputs": [
        {
          "internalType": "address",
          "name": "owner",
          "type": "address"
        },
        {
          "internalType": "address",
          "name": "operator",
          "type": "address"
        }
      ],
      "name": "isApprovedForAll",
      "outputs": [
        {
          "internalType": "bool",
          "name": "",
          "type": "bool"
        }
      ],
      "stateMutability": "view",
      "type": "function"
    },
    {
      "inputs": [],
      "name": "name",
      "outputs": [
        {
          "internalType": "string",
          "name": "",
          "type": "string"
        }
      ],
      "stateMutability": "view",
      "type": "function"
    },
    {
      "inputs": [],
      "name": "organisation",
      "outputs": [
        {
          "internalType": "string",
          "name": "",
          "type": "string"
        }
      ],
      "stateMutability": "view",
      "type": "function"
    },
    {
      "inputs": [
        {
          "internalType": "uint256",
          "name": "tokenId",
          "type": "uint256"
        }
      ],
      "name": "ownerOf",
      "outputs": [
        {
          "internalType": "address",
          "name": "",
          "type": "address"
        }
      ],
      "stateMutability": "view",
      "type": "function"
    },
    {
      "inputs": [
        {
          "internalType": "address",
          "name": "from",
          "type": "address"
        },
        {
          "internalType": "address",
          "name": "to",
          "type": "address"
        },
        {
          "internalType": "uint256",
          "name": "tokenId",
          "type": "uint256"
        }
      ],
      "name": "safeTransferFrom",
      "outputs": [],
      "stateMutability": "nonpayable",
      "type": "function"
    },
    {
      "inputs": [
        {
          "internalType": "address",
          "name": "from",
          "type": "address"
        },
        {
          "internalType": "address",
          "name": "to",
          "type": "address"
        },
        {
          "internalType": "uint256",
          "name": "tokenId",
          "type": "uint256"
        },
        {
          "internalType": "bytes",
          "name": "_data",
          "type": "bytes"
        }
      ],
      "name": "safeTransferFrom",
      "outputs": [],
      "stateMutability": "nonpayable",
      "type": "function"
    },
    {
      "inputs": [
        {
          "internalType": "address",
          "name": "operator",
          "type": "address"
        },
        {
          "internalType": "bool",
          "name": "approved",
          "type": "bool"
        }
      ],
      "name": "setApprovalForAll",
      "outputs": [],
      "stateMutability": "nonpayable",
      "type": "function"
    },
    {
      "inputs": [],
      "name": "symbol",
      "outputs": [
        {
          "internalType": "string",
          "name": "",
          "type": "string"
        }
      ],
      "stateMutability": "view",
      "type": "function"
    },
    {
      "inputs": [
        {
          "internalType": "uint256",
          "name": "index",
          "type": "uint256"
        }
      ],
      "name": "tokenByIndex",
      "outputs": [
        {
          "internalType": "uint256",
          "name": "",
          "type": "uint256"
        }
      ],
      "stateMutability": "view",
      "type": "function"
    },
    {
      "inputs": [
        {
          "internalType": "address",
          "name": "owner",
          "type": "address"
        },
        {
          "internalType": "uint256",
          "name": "index",
          "type": "uint256"
        }
      ],
      "name": "tokenOfOwnerByIndex",
      "outputs": [
        {
          "internalType": "uint256",
          "name": "",
          "type": "uint256"
        }
      ],
      "stateMutability": "view",
      "type": "function"
    },
    {
      "inputs": [],
      "name": "totalSupply",
      "outputs": [
        {
          "internalType": "uint256",
          "name": "",
          "type": "uint256"
        }
      ],
      "stateMutability": "view",
      "type": "function"
    },
    {
      "inputs": [
        {
          "internalType": "address",
          "name": "from",
          "type": "address"
        },
        {
          "internalType": "address",
          "name": "to",
          "type": "address"
        },
        {
          "internalType": "uint256",
          "name": "tokenId",
          "type": "uint256"
        }
      ],
      "name": "transferFrom",
      "outputs": [],
      "stateMutability": "nonpayable",
      "type": "function"
    },
    {
      "inputs": [
        {
          "internalType": "address",
          "name": "owner",
          "type": "address"
        },
        {
          "internalType": "string",
          "name": "ipfsHash",
          "type": "string"
        }
      ],
      "name": "create",
      "outputs": [
        {
          "internalType": "uint256",
          "name": "",
          "type": "uint256"
        }
      ],
      "stateMutability": "nonpayable",
      "type": "function"
    },
    {
      "inputs": [
        {
          "internalType": "uint256",
          "name": "tokenId",
          "type": "uint256"
        }
      ],
      "name": "getData",
      "outputs": [
        {
          "internalType": "string",
          "name": "",
          "type": "string"
        },
        {
          "internalType": "string",
          "name": "",
          "type": "string"
        },
        {
          "internalType": "string",
          "name": "",
          "type": "string"
        }
      ],
      "stateMutability": "view",
      "type": "function"
    },
    {
      "inputs": [
        {
          "internalType": "uint256",
          "name": "tokenId",
          "type": "uint256"
        }
      ],
      "name": "tokenURI",
      "outputs": [
        {
          "internalType": "string",
          "name": "",
          "type": "string"
        }
      ],
      "stateMutability": "view",
      "type": "function"
    },
    {
      "inputs": [
        {
          "internalType": "bytes4",
          "name": "interfaceId",
          "type": "bytes4"
        }
      ],
      "name": "supportsInterface",
      "outputs": [
        {
          "internalType": "bool",
          "name": "",
          "type": "bool"
        }
      ],
      "stateMutability": "view",
      "type": "function"
    }
  ],
  "bytecode": "0x60806040523480156200001157600080fd5b506040516200211b3803806200211b833981016040819052620000349162000267565b84604051806040016040528060088152602001674372656469626c7960c01b81525081600090805190602001906200006e929190620000f4565b50805162000084906001906020840190620000f4565b505084516200009c9150600c906020870190620000f4565b508251620000b290600d906020860190620000f4565b508151620000c890600e906020850190620000f4565b50600f80546001600160a01b0319166001600160a01b0392909216919091179055506200038192505050565b828054620001029062000344565b90600052602060002090601f01602090048101928262000126576000855562000171565b82601f106200014157805160ff191683800117855562000171565b8280016001018555821562000171579182015b828111156200017157825182559160200191906001019062000154565b506200017f92915062000183565b5090565b5b808211156200017f576000815560010162000184565b634e487b7160e01b600052604160045260246000fd5b600082601f830112620001c257600080fd5b81516001600160401b0380821115620001df57620001df6200019a565b604051601f8301601f19908116603f011681019082821181831017156200020a576200020a6200019a565b816040528381526020925086838588010111156200022757600080fd5b600091505b838210156200024b57858201830151818301840152908201906200022c565b838211156200025d5760008385830101525b9695505050505050565b600080600080600060a086880312156200028057600080fd5b85516001600160401b03808211156200029857600080fd5b620002a689838a01620001b0565b96506020880151915080821115620002bd57600080fd5b620002cb89838a01620001b0565b95506040880151915080821115620002e257600080fd5b620002f089838a01620001b0565b945060608801519150808211156200030757600080fd5b506200031688828901620001b0565b608088015190935090506001600160a01b03811681146200033657600080fd5b809150509295509295909350565b600181811c908216806200035957607f821691505b602082108114156200037b57634e487b7160e01b600052602260045260246000fd5b50919050565b611d8a80620003916000396000f3fe608060405234801561001057600080fd5b50600436106101075760003560e01c80630178fe3f1461010c57806301ffc9a71461013757806306fdde031461015a578063081812fc1461016f578063095ea7b31461019a57806318160ddd146101af57806323b872dd146101c15780632f745c59146101d457806342842e0e146101e7578063438b12d1146101fa5780634f6ccce7146102025780635629cb0b146102155780636352211e1461021d57806370a08231146102305780637284e4161461024357806395d89b411461024b578063a15ab08d14610253578063a22cb46514610266578063b88d4fde14610279578063c87b56dd1461028c578063e985e9c51461029f575b600080fd5b61011f61011a36600461179d565b6102b2565b60405161012e9392919061180e565b60405180910390f35b61014a61014536600461186a565b6103e9565b604051901515815260200161012e565b6101626103fa565b60405161012e9190611887565b61018261017d36600461179d565b61048c565b6040516001600160a01b03909116815260200161012e565b6101ad6101a83660046118b6565b610519565b005b6009545b60405190815260200161012e565b6101ad6101cf3660046118e0565b61062a565b6101b36101e23660046118b6565b61065b565b6101ad6101f53660046118e0565b6106f1565b61016261070c565b6101b361021036600461179d565b61079a565b61016261082d565b61018261022b36600461179d565b61083a565b6101b361023e36600461191c565b6108b1565b610162610938565b610162610945565b6101b36102613660046119c2565b610954565b6101ad610274366004611a23565b6109dc565b6101ad610287366004611a5f565b6109eb565b61016261029a36600461179d565b610a23565b61014a6102ad366004611ada565b610a2e565b60608060606102c084610a23565b600d600e8180546102d090611b0d565b80601f01602080910402602001604051908101604052809291908181526020018280546102fc90611b0d565b80156103495780601f1061031e57610100808354040283529160200191610349565b820191906000526020600020905b81548152906001019060200180831161032c57829003601f168201915b5050505050915080805461035c90611b0d565b80601f016020809104026020016040519081016040528092919081815260200182805461038890611b0d565b80156103d55780601f106103aa576101008083540402835291602001916103d5565b820191906000526020600020905b8154815290600101906020018083116103b857829003601f168201915b505050505090509250925092509193909250565b60006103f482610a5c565b92915050565b60606000805461040990611b0d565b80601f016020809104026020016040519081016040528092919081815260200182805461043590611b0d565b80156104825780601f1061045757610100808354040283529160200191610482565b820191906000526020600020905b81548152906001019060200180831161046557829003601f168201915b5050505050905090565b600061049782610a81565b6104fd5760405162461bcd60e51b815260206004820152602c60248201527f4552433732313a20617070726f76656420717565727920666f72206e6f6e657860448201526b34b9ba32b73a103a37b5b2b760a11b60648201526084015b60405180910390fd5b506000908152600460205260409020546001600160a01b031690565b60006105248261083a565b9050806001600160a01b0316836001600160a01b031614156105925760405162461bcd60e51b815260206004820152602160248201527f4552433732313a20617070726f76616c20746f2063757272656e74206f776e656044820152603960f91b60648201526084016104f4565b336001600160a01b03821614806105ae57506105ae8133610a2e565b61061b5760405162461bcd60e51b815260206004820152603860248201527f4552433732313a20617070726f76652063616c6c6572206973206e6f74206f776044820152771b995c881b9bdc88185c1c1c9bdd995908199bdc88185b1b60421b60648201526084016104f4565b6106258383610a9e565b505050565b6106343382610b0c565b6106505760405162461bcd60e51b81526004016104f490611b48565b610625838383610bd6565b6000610666836108b1565b82106106c85760405162461bcd60e51b815260206004820152602b60248201527f455243373231456e756d657261626c653a206f776e657220696e646578206f7560448201526a74206f6620626f756e647360a81b60648201526084016104f4565b506001600160a01b03919091166000908152600760209081526040808320938352929052205490565b610625838383604051806020016040528060008152506109eb565b600e805461071990611b0d565b80601f016020809104026020016040519081016040528092919081815260200182805461074590611b0d565b80156107925780601f1061076757610100808354040283529160200191610792565b820191906000526020600020905b81548152906001019060200180831161077557829003601f168201915b505050505081565b60006107a560095490565b82106108085760405162461bcd60e51b815260206004820152602c60248201527f455243373231456e756d657261626c653a20676c6f62616c20696e646578206f60448201526b7574206f6620626f756e647360a01b60648201526084016104f4565b6009828154811061081b5761081b611b99565b90600052602060002001549050919050565b600c805461071990611b0d565b6000818152600260205260408120546001600160a01b0316806103f45760405162461bcd60e51b815260206004820152602960248201527f4552433732313a206f776e657220717565727920666f72206e6f6e657869737460448201526832b73a103a37b5b2b760b91b60648201526084016104f4565b60006001600160a01b03821661091c5760405162461bcd60e51b815260206004820152602a60248201527f4552433732313a2062616c616e636520717565727920666f7220746865207a65604482015269726f206164647265737360b01b60648201526084016104f4565b506001600160a01b031660009081526003602052604090205490565b600d805461071990611b0d565b60606001805461040990611b0d565b600f546000906001600160a01b031632146109a65760405162461bcd60e51b81526020600482015260126024820152712ab730baba3437b934b9b2b2103ab9b2b91760711b60448201526064016104f4565b60006109b1600b5490565b90506109c1600b80546001019055565b6109cb8482610d6b565b6109d58184610e97565b9392505050565b6109e7338383610f22565b5050565b6109f53383610b0c565b610a115760405162461bcd60e51b81526004016104f490611b48565b610a1d84848484610fed565b50505050565b60606103f482611020565b6001600160a01b03918216600090815260056020908152604080832093909416825291909152205460ff1690565b60006001600160e01b0319821663780e9d6360e01b14806103f457506103f48261118f565b6000908152600260205260409020546001600160a01b0316151590565b600081815260046020526040902080546001600160a01b0319166001600160a01b0384169081179091558190610ad38261083a565b6001600160a01b03167f8c5be1e5ebec7d5bd14f71427d1e84f3dd0314c0f7b2291e5b200ac8c7c3b92560405160405180910390a45050565b6000610b1782610a81565b610b785760405162461bcd60e51b815260206004820152602c60248201527f4552433732313a206f70657261746f7220717565727920666f72206e6f6e657860448201526b34b9ba32b73a103a37b5b2b760a11b60648201526084016104f4565b6000610b838361083a565b9050806001600160a01b0316846001600160a01b03161480610bbe5750836001600160a01b0316610bb38461048c565b6001600160a01b0316145b80610bce5750610bce8185610a2e565b949350505050565b826001600160a01b0316610be98261083a565b6001600160a01b031614610c4d5760405162461bcd60e51b815260206004820152602560248201527f4552433732313a207472616e736665722066726f6d20696e636f72726563742060448201526437bbb732b960d91b60648201526084016104f4565b6001600160a01b038216610caf5760405162461bcd60e51b8152602060048201526024808201527f4552433732313a207472616e7366657220746f20746865207a65726f206164646044820152637265737360e01b60648201526084016104f4565b610cba8383836111df565b610cc5600082610a9e565b6001600160a01b0383166000908152600360205260408120805460019290610cee908490611bc5565b90915550506001600160a01b0382166000908152600360205260408120805460019290610d1c908490611bdc565b909155505060008181526002602052604080822080546001600160a01b0319166001600160a01b038681169182179092559151849391871691600080516020611d3583398151915291a4505050565b6001600160a01b038216610dc15760405162461bcd60e51b815260206004820181905260248201527f4552433732313a206d696e7420746f20746865207a65726f206164647265737360448201526064016104f4565b610dca81610a81565b15610e165760405162461bcd60e51b815260206004820152601c60248201527b115490cdcc8c4e881d1bdad95b88185b1c9958591e481b5a5b9d195960221b60448201526064016104f4565b610e22600083836111df565b6001600160a01b0382166000908152600360205260408120805460019290610e4b908490611bdc565b909155505060008181526002602052604080822080546001600160a01b0319166001600160a01b0386169081179091559051839290600080516020611d35833981519152908290a45050565b610ea082610a81565b610f035760405162461bcd60e51b815260206004820152602e60248201527f45524337323155524953746f726167653a2055524920736574206f66206e6f6e60448201526d32bc34b9ba32b73a103a37b5b2b760911b60648201526084016104f4565b6000828152600660209081526040909120825161062592840190611704565b816001600160a01b0316836001600160a01b03161415610f805760405162461bcd60e51b815260206004820152601960248201527822a9219b99189d1030b8383937bb32903a379031b0b63632b960391b60448201526064016104f4565b6001600160a01b03838116600081815260056020908152604080832094871680845294825291829020805460ff191686151590811790915591519182527f17307eab39ab6107e8899845ad3d59bd9653f200f220920489ca2b5937696c31910160405180910390a3505050565b610ff8848484610bd6565b611004848484846111ea565b610a1d5760405162461bcd60e51b81526004016104f490611bf4565b606061102b82610a81565b6110915760405162461bcd60e51b815260206004820152603160248201527f45524337323155524953746f726167653a2055524920717565727920666f72206044820152703737b732bc34b9ba32b73a103a37b5b2b760791b60648201526084016104f4565b600082815260066020526040812080546110aa90611b0d565b80601f01602080910402602001604051908101604052809291908181526020018280546110d690611b0d565b80156111235780601f106110f857610100808354040283529160200191611123565b820191906000526020600020905b81548152906001019060200180831161110657829003601f168201915b50505050509050600061114160408051602081019091526000815290565b9050805160001415611154575092915050565b81511561118657808260405160200161116e929190611c46565b60405160208183030381529060405292505050919050565b610bce846112e8565b60006001600160e01b031982166380ac58cd60e01b14806111c057506001600160e01b03198216635b5e139f60e01b145b806103f457506301ffc9a760e01b6001600160e01b03198316146103f4565b6106258383836113bf565b60006001600160a01b0384163b156112dd57604051630a85bd0160e11b81526001600160a01b0385169063150b7a029061122e903390899088908890600401611c75565b6020604051808303816000875af1925050508015611269575060408051601f3d908101601f1916820190925261126691810190611ca8565b60015b6112c3573d808015611297576040519150601f19603f3d011682016040523d82523d6000602084013e61129c565b606091505b5080516112bb5760405162461bcd60e51b81526004016104f490611bf4565b805181602001fd5b6001600160e01b031916630a85bd0160e11b149050610bce565b506001949350505050565b60606112f382610a81565b6113575760405162461bcd60e51b815260206004820152602f60248201527f4552433732314d657461646174613a2055524920717565727920666f72206e6f60448201526e3732bc34b9ba32b73a103a37b5b2b760891b60648201526084016104f4565b600061136e60408051602081019091526000815290565b9050600081511161138e57604051806020016040528060008152506109d5565b8061139884611477565b6040516020016113a9929190611c46565b6040516020818303038152906040529392505050565b6001600160a01b03831661141a5761141581600980546000838152600a60205260408120829055600182018355919091527f6e1540171b6c0c960b71a7020d9f60077f6af931a8bbf590da0223dacf75c7af0155565b61143d565b816001600160a01b0316836001600160a01b03161461143d5761143d8382611574565b6001600160a01b0382166114545761062581611611565b826001600160a01b0316826001600160a01b0316146106255761062582826116c0565b60608161149b5750506040805180820190915260018152600360fc1b602082015290565b8160005b81156114c557806114af81611cc5565b91506114be9050600a83611cf6565b915061149f565b6000816001600160401b038111156114df576114df611937565b6040519080825280601f01601f191660200182016040528015611509576020820181803683370190505b5090505b8415610bce5761151e600183611bc5565b915061152b600a86611d0a565b611536906030611bdc565b60f81b81838151811061154b5761154b611b99565b60200101906001600160f81b031916908160001a90535061156d600a86611cf6565b945061150d565b60006001611581846108b1565b61158b9190611bc5565b6000838152600860205260409020549091508082146115de576001600160a01b03841660009081526007602090815260408083208584528252808320548484528184208190558352600890915290208190555b5060009182526008602090815260408084208490556001600160a01b039094168352600781528383209183525290812055565b60095460009061162390600190611bc5565b6000838152600a60205260408120546009805493945090928490811061164b5761164b611b99565b90600052602060002001549050806009838154811061166c5761166c611b99565b6000918252602080832090910192909255828152600a909152604080822084905585825281205560098054806116a4576116a4611d1e565b6001900381819060005260206000200160009055905550505050565b60006116cb836108b1565b6001600160a01b039093166000908152600760209081526040808320868452825280832085905593825260089052919091209190915550565b82805461171090611b0d565b90600052602060002090601f0160209004810192826117325760008555611778565b82601f1061174b57805160ff1916838001178555611778565b82800160010185558215611778579182015b8281111561177857825182559160200191906001019061175d565b50611784929150611788565b5090565b5b808211156117845760008155600101611789565b6000602082840312156117af57600080fd5b5035919050565b60005b838110156117d15781810151838201526020016117b9565b83811115610a1d5750506000910152565b600081518084526117fa8160208601602086016117b6565b601f01601f19169290920160200192915050565b60608152600061182160608301866117e2565b828103602084015261183381866117e2565b9050828103604084015261184781856117e2565b9695505050505050565b6001600160e01b03198116811461186757600080fd5b50565b60006020828403121561187c57600080fd5b81356109d581611851565b6020815260006109d560208301846117e2565b80356001600160a01b03811681146118b157600080fd5b919050565b600080604083850312156118c957600080fd5b6118d28361189a565b946020939093013593505050565b6000806000606084860312156118f557600080fd5b6118fe8461189a565b925061190c6020850161189a565b9150604084013590509250925092565b60006020828403121561192e57600080fd5b6109d58261189a565b634e487b7160e01b600052604160045260246000fd5b60006001600160401b038084111561196757611967611937565b604051601f8501601f19908116603f0116810190828211818310171561198f5761198f611937565b816040528093508581528686860111156119a857600080fd5b858560208301376000602087830101525050509392505050565b600080604083850312156119d557600080fd5b6119de8361189a565b915060208301356001600160401b038111156119f957600080fd5b8301601f81018513611a0a57600080fd5b611a198582356020840161194d565b9150509250929050565b60008060408385031215611a3657600080fd5b611a3f8361189a565b915060208301358015158114611a5457600080fd5b809150509250929050565b60008060008060808587031215611a7557600080fd5b611a7e8561189a565b9350611a8c6020860161189a565b92506040850135915060608501356001600160401b03811115611aae57600080fd5b8501601f81018713611abf57600080fd5b611ace8782356020840161194d565b91505092959194509250565b60008060408385031215611aed57600080fd5b611af68361189a565b9150611b046020840161189a565b90509250929050565b600181811c90821680611b2157607f821691505b60208210811415611b4257634e487b7160e01b600052602260045260246000fd5b50919050565b60208082526031908201527f4552433732313a207472616e736665722063616c6c6572206973206e6f74206f6040820152701ddb995c881b9bdc88185c1c1c9bdd9959607a1b606082015260800190565b634e487b7160e01b600052603260045260246000fd5b634e487b7160e01b600052601160045260246000fd5b600082821015611bd757611bd7611baf565b500390565b60008219821115611bef57611bef611baf565b500190565b60208082526032908201527f4552433732313a207472616e7366657220746f206e6f6e20455243373231526560408201527131b2b4bb32b91034b6b83632b6b2b73a32b960711b606082015260800190565b60008351611c588184602088016117b6565b835190830190611c6c8183602088016117b6565b01949350505050565b6001600160a01b0385811682528416602082015260408101839052608060608201819052600090611847908301846117e2565b600060208284031215611cba57600080fd5b81516109d581611851565b6000600019821415611cd957611cd9611baf565b5060010190565b634e487b7160e01b600052601260045260246000fd5b600082611d0557611d05611ce0565b500490565b600082611d1957611d19611ce0565b500690565b634e487b7160e01b600052603160045260246000fdfeddf252ad1be2c89b69c2b068fc378daa952ba7f163c4a11628f55a4df523b3efa26469706673582212209c3a952b448384474e7db1b7823c5ed38442a6b258a9eed0ce6d5b9655b044b264736f6c634300080c0033",
  "immutableReferences": {},
  "source": "// SPDX-License-Identifier: UNLICENSED\r\npragma solidity ^0.8.0;\r\n\r\nimport '@openzeppelin/contracts/token/ERC721/extensions/ERC721URIStorage.sol';\r\nimport '@openzeppelin/contracts/token/ERC721/extensions/ERC721Enumerable.sol';\r\nimport '@openzeppelin/contracts/utils/Counters.sol';\r\n\r\ncontract Certificate is ERC721URIStorage, ERC721Enumerable {\r\n    using Counters for Counters.Counter;\r\n    Counters.Counter private tokenIdTracker;\r\n\r\n    string public certificateId;\r\n    string public description;\r\n    string public organisation;\r\n\r\n    address admin;\r\n\r\n    constructor(string memory name, string memory _certificateId, string memory _description, string memory _organisation, address _admin) ERC721(name, 'Credibly') {\r\n        certificateId = _certificateId;\r\n        description = _description;\r\n        organisation = _organisation;\r\n        admin = _admin;\r\n    }\r\n\r\n    modifier onlyAdmin {\r\n        require(tx.origin == admin, \"Unauthorised user.\");\r\n        _;\r\n    }\r\n\r\n    function create(address owner, string memory ipfsHash) public onlyAdmin returns (uint256) {\r\n        uint256 tokenId = tokenIdTracker.current();\r\n        tokenIdTracker.increment();\r\n        _mint(owner, tokenId);\r\n        _setTokenURI(tokenId, ipfsHash);\r\n        return tokenId;\r\n    }\r\n\r\n    function getData(uint256 tokenId) view public returns(string memory, string memory, string memory) {\r\n        return (tokenURI(tokenId), description, organisation);\r\n    }\r\n\r\n    // overriding functions\r\n\r\n    function _burn(uint256 tokenId) internal override(ERC721, ERC721URIStorage) {\r\n        super._burn(tokenId);\r\n    }\r\n\r\n    function tokenURI(uint256 tokenId) public view override(ERC721, ERC721URIStorage) returns (string memory) {\r\n        return super.tokenURI(tokenId);\r\n    }\r\n\r\n    function _beforeTokenTransfer(address from, address to, uint256 tokenId) internal override(ERC721, ERC721Enumerable) {\r\n        super._beforeTokenTransfer(from, to, tokenId);\r\n    }\r\n\r\n    function supportsInterface(bytes4 interfaceId) public view override(ERC721, ERC721Enumerable) returns (bool) {\r\n        return super.supportsInterface(interfaceId);\r\n    }\r\n}",
  "sourcePath": "C:\\Users\\MHA\\Desktop\\credibly-fe\\ethereum\\contracts\\Certificate.sol",
  "compiler": {
    "name": "solc",
    "version": "0.8.12+commit.f00d7308.Emscripten.clang"
  },
  "schemaVersion": "3.4.6",
  "updatedAt": "2022-04-06T06:42:24.879Z",
  "devdoc": {
    "kind": "dev",
    "methods": {
      "approve(address,uint256)": {
        "details": "See {IERC721-approve}."
      },
      "balanceOf(address)": {
        "details": "See {IERC721-balanceOf}."
      },
      "getApproved(uint256)": {
        "details": "See {IERC721-getApproved}."
      },
      "isApprovedForAll(address,address)": {
        "details": "See {IERC721-isApprovedForAll}."
      },
      "name()": {
        "details": "See {IERC721Metadata-name}."
      },
      "ownerOf(uint256)": {
        "details": "See {IERC721-ownerOf}."
      },
      "safeTransferFrom(address,address,uint256)": {
        "details": "See {IERC721-safeTransferFrom}."
      },
      "safeTransferFrom(address,address,uint256,bytes)": {
        "details": "See {IERC721-safeTransferFrom}."
      },
      "setApprovalForAll(address,bool)": {
        "details": "See {IERC721-setApprovalForAll}."
      },
      "symbol()": {
        "details": "See {IERC721Metadata-symbol}."
      },
      "tokenByIndex(uint256)": {
        "details": "See {IERC721Enumerable-tokenByIndex}."
      },
      "tokenOfOwnerByIndex(address,uint256)": {
        "details": "See {IERC721Enumerable-tokenOfOwnerByIndex}."
      },
      "totalSupply()": {
        "details": "See {IERC721Enumerable-totalSupply}."
      },
      "transferFrom(address,address,uint256)": {
        "details": "See {IERC721-transferFrom}."
      }
    },
    "version": 1
  },
  "userdoc": {
    "kind": "user",
    "methods": {},
    "version": 1
  }
}