{
  "contractName": "Organisation",
  "abi": [
    {
      "inputs": [
        {
          "internalType": "string",
          "name": "_name",
          "type": "string"
        },
        {
          "internalType": "string",
          "name": "_uen",
          "type": "string"
        },
        {
          "internalType": "address",
          "name": "_admin",
          "type": "address"
        }
      ],
      "stateMutability": "nonpayable",
      "type": "constructor"
    },
    {
      "inputs": [],
      "name": "admin",
      "outputs": [
        {
          "internalType": "address",
          "name": "",
          "type": "address"
        }
      ],
      "stateMutability": "view",
      "type": "function"
    },
    {
      "inputs": [
        {
          "internalType": "string",
          "name": "",
          "type": "string"
        }
      ],
      "name": "certificates",
      "outputs": [
        {
          "internalType": "contract Certificate",
          "name": "",
          "type": "address"
        }
      ],
      "stateMutability": "view",
      "type": "function"
    },
    {
      "inputs": [
        {
          "internalType": "string",
          "name": "",
          "type": "string"
        }
      ],
      "name": "employees",
      "outputs": [
        {
          "internalType": "string",
          "name": "email",
          "type": "string"
        },
        {
          "internalType": "string",
          "name": "name",
          "type": "string"
        },
        {
          "internalType": "string",
          "name": "position",
          "type": "string"
        },
        {
          "internalType": "uint256",
          "name": "startDate",
          "type": "uint256"
        },
        {
          "internalType": "uint256",
          "name": "endDate",
          "type": "uint256"
        }
      ],
      "stateMutability": "view",
      "type": "function"
    },
    {
      "inputs": [],
      "name": "name",
      "outputs": [
        {
          "internalType": "string",
          "name": "",
          "type": "string"
        }
      ],
      "stateMutability": "view",
      "type": "function"
    },
    {
      "inputs": [
        {
          "internalType": "string",
          "name": "",
          "type": "string"
        },
        {
          "internalType": "uint256",
          "name": "",
          "type": "uint256"
        }
      ],
      "name": "ownedCertificates",
      "outputs": [
        {
          "internalType": "contract Certificate",
          "name": "certificate",
          "type": "address"
        },
        {
          "internalType": "uint256",
          "name": "tokenID",
          "type": "uint256"
        }
      ],
      "stateMutability": "view",
      "type": "function"
    },
    {
      "inputs": [],
      "name": "uen",
      "outputs": [
        {
          "internalType": "string",
          "name": "",
          "type": "string"
        }
      ],
      "stateMutability": "view",
      "type": "function"
    },
    {
      "inputs": [
        {
          "internalType": "string",
          "name": "email",
          "type": "string"
        },
        {
          "internalType": "string",
          "name": "name",
          "type": "string"
        },
        {
          "internalType": "string",
          "name": "position",
          "type": "string"
        },
        {
          "internalType": "uint256",
          "name": "startDate",
          "type": "uint256"
        }
      ],
      "name": "addEmployee",
      "outputs": [],
      "stateMutability": "nonpayable",
      "type": "function"
    },
    {
      "inputs": [
        {
          "internalType": "string",
          "name": "name",
          "type": "string"
        },
        {
          "internalType": "string",
          "name": "symbol",
          "type": "string"
        },
        {
          "internalType": "string",
          "name": "certificateID",
          "type": "string"
        }
      ],
      "name": "addCertificate",
      "outputs": [],
      "stateMutability": "nonpayable",
      "type": "function"
    },
    {
      "inputs": [
        {
          "internalType": "string",
          "name": "email",
          "type": "string"
        },
        {
          "internalType": "string",
          "name": "certificateID",
          "type": "string"
        },
        {
          "internalType": "string",
          "name": "url",
          "type": "string"
        }
      ],
      "name": "awardCertificate",
      "outputs": [],
      "stateMutability": "nonpayable",
      "type": "function"
    },
    {
      "inputs": [
        {
          "internalType": "address",
          "name": "awardee",
          "type": "address"
        },
        {
          "internalType": "string",
          "name": "email",
          "type": "string"
        }
      ],
      "name": "transferCertificate",
      "outputs": [],
      "stateMutability": "nonpayable",
      "type": "function"
    }
  ],
  "bytecode": "0x60806040523480156200001157600080fd5b506040516200503c3803806200503c833981810160405281019062000037919062000365565b82600090805190602001906200004f929190620000b3565b50816001908051906020019062000068929190620000b3565b5080600260006101000a81548173ffffffffffffffffffffffffffffffffffffffff021916908373ffffffffffffffffffffffffffffffffffffffff16021790555050505062000464565b828054620000c1906200042e565b90600052602060002090601f016020900481019282620000e5576000855562000131565b82601f106200010057805160ff191683800117855562000131565b8280016001018555821562000131579182015b828111156200013057825182559160200191906001019062000113565b5b50905062000140919062000144565b5090565b5b808211156200015f57600081600090555060010162000145565b5090565b6000604051905090565b600080fd5b600080fd5b600080fd5b600080fd5b6000601f19601f8301169050919050565b7f4e487b7100000000000000000000000000000000000000000000000000000000600052604160045260246000fd5b620001cc8262000181565b810181811067ffffffffffffffff82111715620001ee57620001ed62000192565b5b80604052505050565b60006200020362000163565b9050620002118282620001c1565b919050565b600067ffffffffffffffff82111562000234576200023362000192565b5b6200023f8262000181565b9050602081019050919050565b60005b838110156200026c5780820151818401526020810190506200024f565b838111156200027c576000848401525b50505050565b600062000299620002938462000216565b620001f7565b905082815260208101848484011115620002b857620002b76200017c565b5b620002c58482856200024c565b509392505050565b600082601f830112620002e557620002e462000177565b5b8151620002f784826020860162000282565b91505092915050565b600073ffffffffffffffffffffffffffffffffffffffff82169050919050565b60006200032d8262000300565b9050919050565b6200033f8162000320565b81146200034b57600080fd5b50565b6000815190506200035f8162000334565b92915050565b6000806000606084860312156200038157620003806200016d565b5b600084015167ffffffffffffffff811115620003a257620003a162000172565b5b620003b086828701620002cd565b935050602084015167ffffffffffffffff811115620003d457620003d362000172565b5b620003e286828701620002cd565b9250506040620003f5868287016200034e565b9150509250925092565b7f4e487b7100000000000000000000000000000000000000000000000000000000600052602260045260246000fd5b600060028204905060018216806200044757607f821691505b602082108114156200045e576200045d620003ff565b5b50919050565b614bc880620004746000396000f3fe60806040523480156200001157600080fd5b5060043610620000ac5760003560e01c8063ac9e5760116200006f578063ac9e57601462000182578063b4ed0b9d14620001a2578063e2c755b614620001dc578063f851a44014620001fc578063fad7de05146200021e57620000ac565b806306fdde0314620000b15780632d7cb52a14620000d357806350f1614614620000f55780638f2b91ea146200012c5780639f560d891462000162575b600080fd5b620000bb6200023e565b604051620000ca919062000b15565b60405180910390f35b620000dd620002d4565b604051620000ec919062000b15565b60405180910390f35b6200011360048036038101906200010d919062000cd9565b6200036a565b6040516200012392919062000ddb565b60405180910390f35b6200014a600480360381019062000144919062000e08565b620003e2565b60405162000159919062000e59565b60405180910390f35b6200018060048036038101906200017a919062000e76565b6200042b565b005b620001a060048036038101906200019a919062000e76565b620005ed565b005b620001c06004803603810190620001ba919062000e08565b62000693565b604051620001d395949392919062000f2f565b60405180910390f35b620001fa6004803603810190620001f4919062000fa1565b6200088f565b005b620002066200095a565b60405162000215919062001095565b60405180910390f35b6200023c6004803603810190620002369190620010e3565b62000980565b005b600080546200024d9062001178565b80601f01602080910402602001604051908101604052809291908181526020018280546200027b9062001178565b8015620002cc5780601f10620002a057610100808354040283529160200191620002cc565b820191906000526020600020905b815481529060010190602001808311620002ae57829003601f168201915b505050505081565b60018054620002e39062001178565b80601f0160208091040260200160405190810160405280929190818152602001828054620003119062001178565b8015620003625780601f10620003365761010080835404028352916020019162000362565b820191906000526020600020905b8154815290600101906020018083116200034457829003601f168201915b505050505081565b60058280516020810182018051848252602083016020850120818352809550505050505081815481106200039d57600080fd5b9060005260206000209060020201600091509150508060000160009054906101000a900473ffffffffffffffffffffffffffffffffffffffff16908060010154905082565b6004818051602081018201805184825260208301602085012081835280955050505050506000915054906101000a900473ffffffffffffffffffffffffffffffffffffffff1681565b60006004836040516200043f9190620011f0565b908152602001604051809103902060009054906101000a900473ffffffffffffffffffffffffffffffffffffffff16905060008173ffffffffffffffffffffffffffffffffffffffff1663a15ab08d600260009054906101000a900473ffffffffffffffffffffffffffffffffffffffff16856040518363ffffffff1660e01b8152600401620004d192919062001209565b6020604051808303816000875af1158015620004f1573d6000803e3d6000fd5b505050506040513d601f19601f8201168201806040525081019062000517919062001254565b9050600060405180604001604052808473ffffffffffffffffffffffffffffffffffffffff1681526020018381525090506005866040516200055a9190620011f0565b908152602001604051809103902081908060018154018082558091505060019003906000526020600020906002020160009091909190915060008201518160000160006101000a81548173ffffffffffffffffffffffffffffffffffffffff021916908373ffffffffffffffffffffffffffffffffffffffff160217905550602082015181600101555050505050505050565b6000838383604051620006009062000984565b6200060e9392919062001286565b604051809103906000f0801580156200062b573d6000803e3d6000fd5b50905080600483604051620006419190620011f0565b908152602001604051809103902060006101000a81548173ffffffffffffffffffffffffffffffffffffffff021916908373ffffffffffffffffffffffffffffffffffffffff16021790555050505050565b600381805160208101820180518482526020830160208501208183528095505050505050600091509050806000018054620006ce9062001178565b80601f0160208091040260200160405190810160405280929190818152602001828054620006fc9062001178565b80156200074d5780601f1062000721576101008083540402835291602001916200074d565b820191906000526020600020905b8154815290600101906020018083116200072f57829003601f168201915b505050505090806001018054620007649062001178565b80601f0160208091040260200160405190810160405280929190818152602001828054620007929062001178565b8015620007e35780601f10620007b757610100808354040283529160200191620007e3565b820191906000526020600020905b815481529060010190602001808311620007c557829003601f168201915b505050505090806002018054620007fa9062001178565b80601f0160208091040260200160405190810160405280929190818152602001828054620008289062001178565b8015620008795780601f106200084d5761010080835404028352916020019162000879565b820191906000526020600020905b8154815290600101906020018083116200085b57829003601f168201915b5050505050908060030154908060040154905085565b6200089962000992565b8481600001819052508381602001819052508281604001819052508181606001818152505080600386604051620008d19190620011f0565b90815260200160405180910390206000820151816000019080519060200190620008fd929190620009c1565b5060208201518160010190805190602001906200091c929190620009c1565b5060408201518160020190805190602001906200093b929190620009c1565b5060608201518160030155608082015181600401559050505050505050565b600260009054906101000a900473ffffffffffffffffffffffffffffffffffffffff1681565b5050565b6138ba80620012d983390190565b6040518060a0016040528060608152602001606081526020016060815260200160008152602001600081525090565b828054620009cf9062001178565b90600052602060002090601f016020900481019282620009f3576000855562000a3f565b82601f1062000a0e57805160ff191683800117855562000a3f565b8280016001018555821562000a3f579182015b8281111562000a3e57825182559160200191906001019062000a21565b5b50905062000a4e919062000a52565b5090565b5b8082111562000a6d57600081600090555060010162000a53565b5090565b600081519050919050565b600082825260208201905092915050565b60005b8381101562000aad57808201518184015260208101905062000a90565b8381111562000abd576000848401525b50505050565b6000601f19601f8301169050919050565b600062000ae18262000a71565b62000aed818562000a7c565b935062000aff81856020860162000a8d565b62000b0a8162000ac3565b840191505092915050565b6000602082019050818103600083015262000b31818462000ad4565b905092915050565b6000604051905090565b600080fd5b600080fd5b600080fd5b600080fd5b7f4e487b7100000000000000000000000000000000000000000000000000000000600052604160045260246000fd5b62000b918262000ac3565b810181811067ffffffffffffffff8211171562000bb35762000bb262000b57565b5b80604052505050565b600062000bc862000b39565b905062000bd6828262000b86565b919050565b600067ffffffffffffffff82111562000bf95762000bf862000b57565b5b62000c048262000ac3565b9050602081019050919050565b82818337600083830152505050565b600062000c3762000c318462000bdb565b62000bbc565b90508281526020810184848401111562000c565762000c5562000b52565b5b62000c6384828562000c11565b509392505050565b600082601f83011262000c835762000c8262000b4d565b5b813562000c9584826020860162000c20565b91505092915050565b6000819050919050565b62000cb38162000c9e565b811462000cbf57600080fd5b50565b60008135905062000cd38162000ca8565b92915050565b6000806040838503121562000cf35762000cf262000b43565b5b600083013567ffffffffffffffff81111562000d145762000d1362000b48565b5b62000d228582860162000c6b565b925050602062000d358582860162000cc2565b9150509250929050565b600073ffffffffffffffffffffffffffffffffffffffff82169050919050565b6000819050919050565b600062000d8a62000d8462000d7e8462000d3f565b62000d5f565b62000d3f565b9050919050565b600062000d9e8262000d69565b9050919050565b600062000db28262000d91565b9050919050565b62000dc48162000da5565b82525050565b62000dd58162000c9e565b82525050565b600060408201905062000df2600083018562000db9565b62000e01602083018462000dca565b9392505050565b60006020828403121562000e215762000e2062000b43565b5b600082013567ffffffffffffffff81111562000e425762000e4162000b48565b5b62000e508482850162000c6b565b91505092915050565b600060208201905062000e70600083018462000db9565b92915050565b60008060006060848603121562000e925762000e9162000b43565b5b600084013567ffffffffffffffff81111562000eb35762000eb262000b48565b5b62000ec18682870162000c6b565b935050602084013567ffffffffffffffff81111562000ee55762000ee462000b48565b5b62000ef38682870162000c6b565b925050604084013567ffffffffffffffff81111562000f175762000f1662000b48565b5b62000f258682870162000c6b565b9150509250925092565b600060a082019050818103600083015262000f4b818862000ad4565b9050818103602083015262000f61818762000ad4565b9050818103604083015262000f77818662000ad4565b905062000f88606083018562000dca565b62000f97608083018462000dca565b9695505050505050565b6000806000806080858703121562000fbe5762000fbd62000b43565b5b600085013567ffffffffffffffff81111562000fdf5762000fde62000b48565b5b62000fed8782880162000c6b565b945050602085013567ffffffffffffffff81111562001011576200101062000b48565b5b6200101f8782880162000c6b565b935050604085013567ffffffffffffffff81111562001043576200104262000b48565b5b620010518782880162000c6b565b9250506060620010648782880162000cc2565b91505092959194509250565b60006200107d8262000d3f565b9050919050565b6200108f8162001070565b82525050565b6000602082019050620010ac600083018462001084565b92915050565b620010bd8162001070565b8114620010c957600080fd5b50565b600081359050620010dd81620010b2565b92915050565b60008060408385031215620010fd57620010fc62000b43565b5b60006200110d85828601620010cc565b925050602083013567ffffffffffffffff81111562001131576200113062000b48565b5b6200113f8582860162000c6b565b9150509250929050565b7f4e487b7100000000000000000000000000000000000000000000000000000000600052602260045260246000fd5b600060028204905060018216806200119157607f821691505b60208210811415620011a857620011a762001149565b5b50919050565b600081905092915050565b6000620011c68262000a71565b620011d28185620011ae565b9350620011e481856020860162000a8d565b80840191505092915050565b6000620011fe8284620011b9565b915081905092915050565b600060408201905062001220600083018562001084565b818103602083015262001234818462000ad4565b90509392505050565b6000815190506200124e8162000ca8565b92915050565b6000602082840312156200126d576200126c62000b43565b5b60006200127d848285016200123d565b91505092915050565b60006060820190508181036000830152620012a2818662000ad4565b90508181036020830152620012b8818562000ad4565b90508181036040830152620012ce818462000ad4565b905094935050505056fe60806040523480156200001157600080fd5b50604051620038ba380380620038ba8339818101604052810190620000379190620002dc565b82828160009080519060200190620000519291906200008f565b5080600190805190602001906200006a9291906200008f565b50505080600c9080519060200190620000859291906200008f565b50505050620003fa565b8280546200009d90620003c4565b90600052602060002090601f016020900481019282620000c157600085556200010d565b82601f10620000dc57805160ff19168380011785556200010d565b828001600101855582156200010d579182015b828111156200010c578251825591602001919060010190620000ef565b5b5090506200011c919062000120565b5090565b5b808211156200013b57600081600090555060010162000121565b5090565b6000604051905090565b600080fd5b600080fd5b600080fd5b600080fd5b6000601f19601f8301169050919050565b7f4e487b7100000000000000000000000000000000000000000000000000000000600052604160045260246000fd5b620001a8826200015d565b810181811067ffffffffffffffff82111715620001ca57620001c96200016e565b5b80604052505050565b6000620001df6200013f565b9050620001ed82826200019d565b919050565b600067ffffffffffffffff82111562000210576200020f6200016e565b5b6200021b826200015d565b9050602081019050919050565b60005b83811015620002485780820151818401526020810190506200022b565b8381111562000258576000848401525b50505050565b6000620002756200026f84620001f2565b620001d3565b90508281526020810184848401111562000294576200029362000158565b5b620002a184828562000228565b509392505050565b600082601f830112620002c157620002c062000153565b5b8151620002d38482602086016200025e565b91505092915050565b600080600060608486031215620002f857620002f762000149565b5b600084015167ffffffffffffffff8111156200031957620003186200014e565b5b6200032786828701620002a9565b935050602084015167ffffffffffffffff8111156200034b576200034a6200014e565b5b6200035986828701620002a9565b925050604084015167ffffffffffffffff8111156200037d576200037c6200014e565b5b6200038b86828701620002a9565b9150509250925092565b7f4e487b7100000000000000000000000000000000000000000000000000000000600052602260045260246000fd5b60006002820490506001821680620003dd57607f821691505b60208210811415620003f457620003f362000395565b5b50919050565b6134b0806200040a6000396000f3fe608060405234801561001057600080fd5b50600436106101165760003560e01c80634f6ccce7116100a2578063a15ab08d11610071578063a15ab08d14610305578063a22cb46514610335578063b88d4fde14610351578063c87b56dd1461036d578063e985e9c51461039d57610116565b80634f6ccce7146102575780636352211e1461028757806370a08231146102b757806395d89b41146102e757610116565b8063171c00fd116100e9578063171c00fd146101b557806318160ddd146101d157806323b872dd146101ef5780632f745c591461020b57806342842e0e1461023b57610116565b806301ffc9a71461011b57806306fdde031461014b578063081812fc14610169578063095ea7b314610199575b600080fd5b6101356004803603810190610130919061202d565b6103cd565b6040516101429190612075565b60405180910390f35b6101536103df565b6040516101609190612129565b60405180910390f35b610183600480360381019061017e9190612181565b610471565b60405161019091906121ef565b60405180910390f35b6101b360048036038101906101ae9190612236565b6104f6565b005b6101cf60048036038101906101ca9190612276565b61060e565b005b6101d9610667565b6040516101e691906122d8565b60405180910390f35b61020960048036038101906102049190612276565b610674565b005b61022560048036038101906102209190612236565b6106d4565b60405161023291906122d8565b60405180910390f35b61025560048036038101906102509190612276565b610779565b005b610271600480360381019061026c9190612181565b610799565b60405161027e91906122d8565b60405180910390f35b6102a1600480360381019061029c9190612181565b61080a565b6040516102ae91906121ef565b60405180910390f35b6102d160048036038101906102cc91906122f3565b6108bc565b6040516102de91906122d8565b60405180910390f35b6102ef610974565b6040516102fc9190612129565b60405180910390f35b61031f600480360381019061031a9190612455565b610a06565b60405161032c91906122d8565b60405180910390f35b61034f600480360381019061034a91906124dd565b610a3d565b005b61036b600480360381019061036691906125be565b610a53565b005b61038760048036038101906103829190612181565b610ab5565b6040516103949190612129565b60405180910390f35b6103b760048036038101906103b29190612641565b610ac7565b6040516103c49190612075565b60405180910390f35b60006103d882610b5b565b9050919050565b6060600080546103ee906126b0565b80601f016020809104026020016040519081016040528092919081815260200182805461041a906126b0565b80156104675780601f1061043c57610100808354040283529160200191610467565b820191906000526020600020905b81548152906001019060200180831161044a57829003601f168201915b5050505050905090565b600061047c82610bd5565b6104bb576040517f08c379a00000000000000000000000000000000000000000000000000000000081526004016104b290612754565b60405180910390fd5b6004600083815260200190815260200160002060009054906101000a900473ffffffffffffffffffffffffffffffffffffffff169050919050565b60006105018261080a565b90508073ffffffffffffffffffffffffffffffffffffffff168373ffffffffffffffffffffffffffffffffffffffff161415610572576040517f08c379a0000000000000000000000000000000000000000000000000000000008152600401610569906127e6565b60405180910390fd5b8073ffffffffffffffffffffffffffffffffffffffff16610591610c41565b73ffffffffffffffffffffffffffffffffffffffff1614806105c057506105bf816105ba610c41565b610ac7565b5b6105ff576040517f08c379a00000000000000000000000000000000000000000000000000000000081526004016105f690612878565b60405180910390fd5b6106098383610c49565b505050565b6106188382610d02565b610657576040517f08c379a000000000000000000000000000000000000000000000000000000000815260040161064e9061290a565b60405180910390fd5b610662838383610de0565b505050565b6000600980549050905090565b61068561067f610c41565b82610d02565b6106c4576040517f08c379a00000000000000000000000000000000000000000000000000000000081526004016106bb9061299c565b60405180910390fd5b6106cf838383610de0565b505050565b60006106df836108bc565b8210610720576040517f08c379a000000000000000000000000000000000000000000000000000000000815260040161071790612a2e565b60405180910390fd5b600760008473ffffffffffffffffffffffffffffffffffffffff1673ffffffffffffffffffffffffffffffffffffffff168152602001908152602001600020600083815260200190815260200160002054905092915050565b61079483838360405180602001604052806000815250610a53565b505050565b60006107a3610667565b82106107e4576040517f08c379a00000000000000000000000000000000000000000000000000000000081526004016107db90612ac0565b60405180910390fd5b600982815481106107f8576107f7612ae0565b5b90600052602060002001549050919050565b6000806002600084815260200190815260200160002060009054906101000a900473ffffffffffffffffffffffffffffffffffffffff169050600073ffffffffffffffffffffffffffffffffffffffff168173ffffffffffffffffffffffffffffffffffffffff1614156108b3576040517f08c379a00000000000000000000000000000000000000000000000000000000081526004016108aa90612b81565b60405180910390fd5b80915050919050565b60008073ffffffffffffffffffffffffffffffffffffffff168273ffffffffffffffffffffffffffffffffffffffff16141561092d576040517f08c379a000000000000000000000000000000000000000000000000000000000815260040161092490612c13565b60405180910390fd5b600360008373ffffffffffffffffffffffffffffffffffffffff1673ffffffffffffffffffffffffffffffffffffffff168152602001908152602001600020549050919050565b606060018054610983906126b0565b80601f01602080910402602001604051908101604052809291908181526020018280546109af906126b0565b80156109fc5780601f106109d1576101008083540402835291602001916109fc565b820191906000526020600020905b8154815290600101906020018083116109df57829003601f168201915b5050505050905090565b600080610a13600b611047565b9050610a1f600b611055565b610a29848261106b565b610a338184611245565b8091505092915050565b610a4f610a48610c41565b83836112b9565b5050565b610a64610a5e610c41565b83610d02565b610aa3576040517f08c379a0000000000000000000000000000000000000000000000000000000008152600401610a9a9061299c565b60405180910390fd5b610aaf84848484611426565b50505050565b6060610ac082611482565b9050919050565b6000600560008473ffffffffffffffffffffffffffffffffffffffff1673ffffffffffffffffffffffffffffffffffffffff16815260200190815260200160002060008373ffffffffffffffffffffffffffffffffffffffff1673ffffffffffffffffffffffffffffffffffffffff16815260200190815260200160002060009054906101000a900460ff16905092915050565b60007f780e9d63000000000000000000000000000000000000000000000000000000007bffffffffffffffffffffffffffffffffffffffffffffffffffffffff1916827bffffffffffffffffffffffffffffffffffffffffffffffffffffffff19161480610bce5750610bcd826115d4565b5b9050919050565b60008073ffffffffffffffffffffffffffffffffffffffff166002600084815260200190815260200160002060009054906101000a900473ffffffffffffffffffffffffffffffffffffffff1673ffffffffffffffffffffffffffffffffffffffff1614159050919050565b600033905090565b816004600083815260200190815260200160002060006101000a81548173ffffffffffffffffffffffffffffffffffffffff021916908373ffffffffffffffffffffffffffffffffffffffff160217905550808273ffffffffffffffffffffffffffffffffffffffff16610cbc8361080a565b73ffffffffffffffffffffffffffffffffffffffff167f8c5be1e5ebec7d5bd14f71427d1e84f3dd0314c0f7b2291e5b200ac8c7c3b92560405160405180910390a45050565b6000610d0d82610bd5565b610d4c576040517f08c379a0000000000000000000000000000000000000000000000000000000008152600401610d4390612ca5565b60405180910390fd5b6000610d578361080a565b90508073ffffffffffffffffffffffffffffffffffffffff168473ffffffffffffffffffffffffffffffffffffffff161480610dc657508373ffffffffffffffffffffffffffffffffffffffff16610dae84610471565b73ffffffffffffffffffffffffffffffffffffffff16145b80610dd75750610dd68185610ac7565b5b91505092915050565b8273ffffffffffffffffffffffffffffffffffffffff16610e008261080a565b73ffffffffffffffffffffffffffffffffffffffff1614610e56576040517f08c379a0000000000000000000000000000000000000000000000000000000008152600401610e4d90612d37565b60405180910390fd5b600073ffffffffffffffffffffffffffffffffffffffff168273ffffffffffffffffffffffffffffffffffffffff161415610ec6576040517f08c379a0000000000000000000000000000000000000000000000000000000008152600401610ebd90612dc9565b60405180910390fd5b610ed18383836116b6565b610edc600082610c49565b6001600360008573ffffffffffffffffffffffffffffffffffffffff1673ffffffffffffffffffffffffffffffffffffffff1681526020019081526020016000206000828254610f2c9190612e18565b925050819055506001600360008473ffffffffffffffffffffffffffffffffffffffff1673ffffffffffffffffffffffffffffffffffffffff1681526020019081526020016000206000828254610f839190612e4c565b92505081905550816002600083815260200190815260200160002060006101000a81548173ffffffffffffffffffffffffffffffffffffffff021916908373ffffffffffffffffffffffffffffffffffffffff160217905550808273ffffffffffffffffffffffffffffffffffffffff168473ffffffffffffffffffffffffffffffffffffffff167fddf252ad1be2c89b69c2b068fc378daa952ba7f163c4a11628f55a4df523b3ef60405160405180910390a46110428383836116c6565b505050565b600081600001549050919050565b6001816000016000828254019250508190555050565b600073ffffffffffffffffffffffffffffffffffffffff168273ffffffffffffffffffffffffffffffffffffffff1614156110db576040517f08c379a00000000000000000000000000000000000000000000000000000000081526004016110d290612eee565b60405180910390fd5b6110e481610bd5565b15611124576040517f08c379a000000000000000000000000000000000000000000000000000000000815260040161111b90612f5a565b60405180910390fd5b611130600083836116b6565b6001600360008473ffffffffffffffffffffffffffffffffffffffff1673ffffffffffffffffffffffffffffffffffffffff16815260200190815260200160002060008282546111809190612e4c565b92505081905550816002600083815260200190815260200160002060006101000a81548173ffffffffffffffffffffffffffffffffffffffff021916908373ffffffffffffffffffffffffffffffffffffffff160217905550808273ffffffffffffffffffffffffffffffffffffffff16600073ffffffffffffffffffffffffffffffffffffffff167fddf252ad1be2c89b69c2b068fc378daa952ba7f163c4a11628f55a4df523b3ef60405160405180910390a4611241600083836116c6565b5050565b61124e82610bd5565b61128d576040517f08c379a000000000000000000000000000000000000000000000000000000000815260040161128490612fec565b60405180910390fd5b806006600084815260200190815260200160002090805190602001906112b4929190611f1e565b505050565b8173ffffffffffffffffffffffffffffffffffffffff168373ffffffffffffffffffffffffffffffffffffffff161415611328576040517f08c379a000000000000000000000000000000000000000000000000000000000815260040161131f90613058565b60405180910390fd5b80600560008573ffffffffffffffffffffffffffffffffffffffff1673ffffffffffffffffffffffffffffffffffffffff16815260200190815260200160002060008473ffffffffffffffffffffffffffffffffffffffff1673ffffffffffffffffffffffffffffffffffffffff16815260200190815260200160002060006101000a81548160ff0219169083151502179055508173ffffffffffffffffffffffffffffffffffffffff168373ffffffffffffffffffffffffffffffffffffffff167f17307eab39ab6107e8899845ad3d59bd9653f200f220920489ca2b5937696c31836040516114199190612075565b60405180910390a3505050565b611431848484610de0565b61143d848484846116cb565b61147c576040517f08c379a0000000000000000000000000000000000000000000000000000000008152600401611473906130ea565b60405180910390fd5b50505050565b606061148d82610bd5565b6114cc576040517f08c379a00000000000000000000000000000000000000000000000000000000081526004016114c39061317c565b60405180910390fd5b60006006600084815260200190815260200160002080546114ec906126b0565b80601f0160208091040260200160405190810160405280929190818152602001828054611518906126b0565b80156115655780601f1061153a57610100808354040283529160200191611565565b820191906000526020600020905b81548152906001019060200180831161154857829003601f168201915b505050505090506000611576611853565b905060008151141561158c5781925050506115cf565b6000825111156115c15780826040516020016115a99291906131d8565b604051602081830303815290604052925050506115cf565b6115ca8461186a565b925050505b919050565b60007f80ac58cd000000000000000000000000000000000000000000000000000000007bffffffffffffffffffffffffffffffffffffffffffffffffffffffff1916827bffffffffffffffffffffffffffffffffffffffffffffffffffffffff1916148061169f57507f5b5e139f000000000000000000000000000000000000000000000000000000007bffffffffffffffffffffffffffffffffffffffffffffffffffffffff1916827bffffffffffffffffffffffffffffffffffffffffffffffffffffffff1916145b806116af57506116ae82611911565b5b9050919050565b6116c183838361197b565b505050565b505050565b60006116ec8473ffffffffffffffffffffffffffffffffffffffff16611a8f565b15611846578373ffffffffffffffffffffffffffffffffffffffff1663150b7a02611715610c41565b8786866040518563ffffffff1660e01b81526004016117379493929190613251565b6020604051808303816000875af192505050801561177357506040513d601f19601f8201168201806040525081019061177091906132b2565b60015b6117f6573d80600081146117a3576040519150601f19603f3d011682016040523d82523d6000602084013e6117a8565b606091505b506000815114156117ee576040517f08c379a00000000000000000000000000000000000000000000000000000000081526004016117e5906130ea565b60405180910390fd5b805181602001fd5b63150b7a0260e01b7bffffffffffffffffffffffffffffffffffffffffffffffffffffffff1916817bffffffffffffffffffffffffffffffffffffffffffffffffffffffff19161491505061184b565b600190505b949350505050565b606060405180602001604052806000815250905090565b606061187582610bd5565b6118b4576040517f08c379a00000000000000000000000000000000000000000000000000000000081526004016118ab90613351565b60405180910390fd5b60006118be611853565b905060008151116118de5760405180602001604052806000815250611909565b806118e884611ab2565b6040516020016118f99291906131d8565b6040516020818303038152906040525b915050919050565b60007f01ffc9a7000000000000000000000000000000000000000000000000000000007bffffffffffffffffffffffffffffffffffffffffffffffffffffffff1916827bffffffffffffffffffffffffffffffffffffffffffffffffffffffff1916149050919050565b611986838383611c13565b600073ffffffffffffffffffffffffffffffffffffffff168373ffffffffffffffffffffffffffffffffffffffff1614156119c9576119c481611c18565b611a08565b8173ffffffffffffffffffffffffffffffffffffffff168373ffffffffffffffffffffffffffffffffffffffff1614611a0757611a068382611c61565b5b5b600073ffffffffffffffffffffffffffffffffffffffff168273ffffffffffffffffffffffffffffffffffffffff161415611a4b57611a4681611dce565b611a8a565b8273ffffffffffffffffffffffffffffffffffffffff168273ffffffffffffffffffffffffffffffffffffffff1614611a8957611a888282611e9f565b5b5b505050565b6000808273ffffffffffffffffffffffffffffffffffffffff163b119050919050565b60606000821415611afa576040518060400160405280600181526020017f30000000000000000000000000000000000000000000000000000000000000008152509050611c0e565b600082905060005b60008214611b2c578080611b1590613371565b915050600a82611b2591906133e9565b9150611b02565b60008167ffffffffffffffff811115611b4857611b4761232a565b5b6040519080825280601f01601f191660200182016040528015611b7a5781602001600182028036833780820191505090505b5090505b60008514611c0757600182611b939190612e18565b9150600a85611ba2919061341a565b6030611bae9190612e4c565b60f81b818381518110611bc457611bc3612ae0565b5b60200101907effffffffffffffffffffffffffffffffffffffffffffffffffffffffffffff1916908160001a905350600a85611c0091906133e9565b9450611b7e565b8093505050505b919050565b505050565b600980549050600a600083815260200190815260200160002081905550600981908060018154018082558091505060019003906000526020600020016000909190919091505550565b60006001611c6e846108bc565b611c789190612e18565b9050600060086000848152602001908152602001600020549050818114611d5d576000600760008673ffffffffffffffffffffffffffffffffffffffff1673ffffffffffffffffffffffffffffffffffffffff168152602001908152602001600020600084815260200190815260200160002054905080600760008773ffffffffffffffffffffffffffffffffffffffff1673ffffffffffffffffffffffffffffffffffffffff168152602001908152602001600020600084815260200190815260200160002081905550816008600083815260200190815260200160002081905550505b6008600084815260200190815260200160002060009055600760008573ffffffffffffffffffffffffffffffffffffffff1673ffffffffffffffffffffffffffffffffffffffff16815260200190815260200160002060008381526020019081526020016000206000905550505050565b60006001600980549050611de29190612e18565b90506000600a6000848152602001908152602001600020549050600060098381548110611e1257611e11612ae0565b5b906000526020600020015490508060098381548110611e3457611e33612ae0565b5b906000526020600020018190555081600a600083815260200190815260200160002081905550600a6000858152602001908152602001600020600090556009805480611e8357611e8261344b565b5b6001900381819060005260206000200160009055905550505050565b6000611eaa836108bc565b905081600760008573ffffffffffffffffffffffffffffffffffffffff1673ffffffffffffffffffffffffffffffffffffffff168152602001908152602001600020600083815260200190815260200160002081905550806008600084815260200190815260200160002081905550505050565b828054611f2a906126b0565b90600052602060002090601f016020900481019282611f4c5760008555611f93565b82601f10611f6557805160ff1916838001178555611f93565b82800160010185558215611f93579182015b82811115611f92578251825591602001919060010190611f77565b5b509050611fa09190611fa4565b5090565b5b80821115611fbd576000816000905550600101611fa5565b5090565b6000604051905090565b600080fd5b600080fd5b60007fffffffff0000000000000000000000000000000000000000000000000000000082169050919050565b61200a81611fd5565b811461201557600080fd5b50565b60008135905061202781612001565b92915050565b60006020828403121561204357612042611fcb565b5b600061205184828501612018565b91505092915050565b60008115159050919050565b61206f8161205a565b82525050565b600060208201905061208a6000830184612066565b92915050565b600081519050919050565b600082825260208201905092915050565b60005b838110156120ca5780820151818401526020810190506120af565b838111156120d9576000848401525b50505050565b6000601f19601f8301169050919050565b60006120fb82612090565b612105818561209b565b93506121158185602086016120ac565b61211e816120df565b840191505092915050565b6000602082019050818103600083015261214381846120f0565b905092915050565b6000819050919050565b61215e8161214b565b811461216957600080fd5b50565b60008135905061217b81612155565b92915050565b60006020828403121561219757612196611fcb565b5b60006121a58482850161216c565b91505092915050565b600073ffffffffffffffffffffffffffffffffffffffff82169050919050565b60006121d9826121ae565b9050919050565b6121e9816121ce565b82525050565b600060208201905061220460008301846121e0565b92915050565b612213816121ce565b811461221e57600080fd5b50565b6000813590506122308161220a565b92915050565b6000806040838503121561224d5761224c611fcb565b5b600061225b85828601612221565b925050602061226c8582860161216c565b9150509250929050565b60008060006060848603121561228f5761228e611fcb565b5b600061229d86828701612221565b93505060206122ae86828701612221565b92505060406122bf8682870161216c565b9150509250925092565b6122d28161214b565b82525050565b60006020820190506122ed60008301846122c9565b92915050565b60006020828403121561230957612308611fcb565b5b600061231784828501612221565b91505092915050565b600080fd5b600080fd5b7f4e487b7100000000000000000000000000000000000000000000000000000000600052604160045260246000fd5b612362826120df565b810181811067ffffffffffffffff821117156123815761238061232a565b5b80604052505050565b6000612394611fc1565b90506123a08282612359565b919050565b600067ffffffffffffffff8211156123c0576123bf61232a565b5b6123c9826120df565b9050602081019050919050565b82818337600083830152505050565b60006123f86123f3846123a5565b61238a565b90508281526020810184848401111561241457612413612325565b5b61241f8482856123d6565b509392505050565b600082601f83011261243c5761243b612320565b5b813561244c8482602086016123e5565b91505092915050565b6000806040838503121561246c5761246b611fcb565b5b600061247a85828601612221565b925050602083013567ffffffffffffffff81111561249b5761249a611fd0565b5b6124a785828601612427565b9150509250929050565b6124ba8161205a565b81146124c557600080fd5b50565b6000813590506124d7816124b1565b92915050565b600080604083850312156124f4576124f3611fcb565b5b600061250285828601612221565b9250506020612513858286016124c8565b9150509250929050565b600067ffffffffffffffff8211156125385761253761232a565b5b612541826120df565b9050602081019050919050565b600061256161255c8461251d565b61238a565b90508281526020810184848401111561257d5761257c612325565b5b6125888482856123d6565b509392505050565b600082601f8301126125a5576125a4612320565b5b81356125b584826020860161254e565b91505092915050565b600080600080608085870312156125d8576125d7611fcb565b5b60006125e687828801612221565b94505060206125f787828801612221565b93505060406126088782880161216c565b925050606085013567ffffffffffffffff81111561262957612628611fd0565b5b61263587828801612590565b91505092959194509250565b6000806040838503121561265857612657611fcb565b5b600061266685828601612221565b925050602061267785828601612221565b9150509250929050565b7f4e487b7100000000000000000000000000000000000000000000000000000000600052602260045260246000fd5b600060028204905060018216806126c857607f821691505b602082108114156126dc576126db612681565b5b50919050565b7f4552433732313a20617070726f76656420717565727920666f72206e6f6e657860008201527f697374656e7420746f6b656e0000000000000000000000000000000000000000602082015250565b600061273e602c8361209b565b9150612749826126e2565b604082019050919050565b6000602082019050818103600083015261276d81612731565b9050919050565b7f4552433732313a20617070726f76616c20746f2063757272656e74206f776e6560008201527f7200000000000000000000000000000000000000000000000000000000000000602082015250565b60006127d060218361209b565b91506127db82612774565b604082019050919050565b600060208201905081810360008301526127ff816127c3565b9050919050565b7f4552433732313a20617070726f76652063616c6c6572206973206e6f74206f7760008201527f6e6572206e6f7220617070726f76656420666f7220616c6c0000000000000000602082015250565b600061286260388361209b565b915061286d82612806565b604082019050919050565b6000602082019050818103600083015261289181612855565b9050919050565b7f43616c6c6572206973206e6f74206f776e6572206f662074686973206365727460008201527f6966696361746500000000000000000000000000000000000000000000000000602082015250565b60006128f460278361209b565b91506128ff82612898565b604082019050919050565b60006020820190508181036000830152612923816128e7565b9050919050565b7f4552433732313a207472616e736665722063616c6c6572206973206e6f74206f60008201527f776e6572206e6f7220617070726f766564000000000000000000000000000000602082015250565b600061298660318361209b565b91506129918261292a565b604082019050919050565b600060208201905081810360008301526129b581612979565b9050919050565b7f455243373231456e756d657261626c653a206f776e657220696e646578206f7560008201527f74206f6620626f756e6473000000000000000000000000000000000000000000602082015250565b6000612a18602b8361209b565b9150612a23826129bc565b604082019050919050565b60006020820190508181036000830152612a4781612a0b565b9050919050565b7f455243373231456e756d657261626c653a20676c6f62616c20696e646578206f60008201527f7574206f6620626f756e64730000000000000000000000000000000000000000602082015250565b6000612aaa602c8361209b565b9150612ab582612a4e565b604082019050919050565b60006020820190508181036000830152612ad981612a9d565b9050919050565b7f4e487b7100000000000000000000000000000000000000000000000000000000600052603260045260246000fd5b7f4552433732313a206f776e657220717565727920666f72206e6f6e657869737460008201527f656e7420746f6b656e0000000000000000000000000000000000000000000000602082015250565b6000612b6b60298361209b565b9150612b7682612b0f565b604082019050919050565b60006020820190508181036000830152612b9a81612b5e565b9050919050565b7f4552433732313a2062616c616e636520717565727920666f7220746865207a6560008201527f726f206164647265737300000000000000000000000000000000000000000000602082015250565b6000612bfd602a8361209b565b9150612c0882612ba1565b604082019050919050565b60006020820190508181036000830152612c2c81612bf0565b9050919050565b7f4552433732313a206f70657261746f7220717565727920666f72206e6f6e657860008201527f697374656e7420746f6b656e0000000000000000000000000000000000000000602082015250565b6000612c8f602c8361209b565b9150612c9a82612c33565b604082019050919050565b60006020820190508181036000830152612cbe81612c82565b9050919050565b7f4552433732313a207472616e736665722066726f6d20696e636f72726563742060008201527f6f776e6572000000000000000000000000000000000000000000000000000000602082015250565b6000612d2160258361209b565b9150612d2c82612cc5565b604082019050919050565b60006020820190508181036000830152612d5081612d14565b9050919050565b7f4552433732313a207472616e7366657220746f20746865207a65726f2061646460008201527f7265737300000000000000000000000000000000000000000000000000000000602082015250565b6000612db360248361209b565b9150612dbe82612d57565b604082019050919050565b60006020820190508181036000830152612de281612da6565b9050919050565b7f4e487b7100000000000000000000000000000000000000000000000000000000600052601160045260246000fd5b6000612e238261214b565b9150612e2e8361214b565b925082821015612e4157612e40612de9565b5b828203905092915050565b6000612e578261214b565b9150612e628361214b565b9250827fffffffffffffffffffffffffffffffffffffffffffffffffffffffffffffffff03821115612e9757612e96612de9565b5b828201905092915050565b7f4552433732313a206d696e7420746f20746865207a65726f2061646472657373600082015250565b6000612ed860208361209b565b9150612ee382612ea2565b602082019050919050565b60006020820190508181036000830152612f0781612ecb565b9050919050565b7f4552433732313a20746f6b656e20616c7265616479206d696e74656400000000600082015250565b6000612f44601c8361209b565b9150612f4f82612f0e565b602082019050919050565b60006020820190508181036000830152612f7381612f37565b9050919050565b7f45524337323155524953746f726167653a2055524920736574206f66206e6f6e60008201527f6578697374656e7420746f6b656e000000000000000000000000000000000000602082015250565b6000612fd6602e8361209b565b9150612fe182612f7a565b604082019050919050565b6000602082019050818103600083015261300581612fc9565b9050919050565b7f4552433732313a20617070726f766520746f2063616c6c657200000000000000600082015250565b600061304260198361209b565b915061304d8261300c565b602082019050919050565b6000602082019050818103600083015261307181613035565b9050919050565b7f4552433732313a207472616e7366657220746f206e6f6e20455243373231526560008201527f63656976657220696d706c656d656e7465720000000000000000000000000000602082015250565b60006130d460328361209b565b91506130df82613078565b604082019050919050565b60006020820190508181036000830152613103816130c7565b9050919050565b7f45524337323155524953746f726167653a2055524920717565727920666f722060008201527f6e6f6e6578697374656e7420746f6b656e000000000000000000000000000000602082015250565b600061316660318361209b565b91506131718261310a565b604082019050919050565b6000602082019050818103600083015261319581613159565b9050919050565b600081905092915050565b60006131b282612090565b6131bc818561319c565b93506131cc8185602086016120ac565b80840191505092915050565b60006131e482856131a7565b91506131f082846131a7565b91508190509392505050565b600081519050919050565b600082825260208201905092915050565b6000613223826131fc565b61322d8185613207565b935061323d8185602086016120ac565b613246816120df565b840191505092915050565b600060808201905061326660008301876121e0565b61327360208301866121e0565b61328060408301856122c9565b81810360608301526132928184613218565b905095945050505050565b6000815190506132ac81612001565b92915050565b6000602082840312156132c8576132c7611fcb565b5b60006132d68482850161329d565b91505092915050565b7f4552433732314d657461646174613a2055524920717565727920666f72206e6f60008201527f6e6578697374656e7420746f6b656e0000000000000000000000000000000000602082015250565b600061333b602f8361209b565b9150613346826132df565b604082019050919050565b6000602082019050818103600083015261336a8161332e565b9050919050565b600061337c8261214b565b91507fffffffffffffffffffffffffffffffffffffffffffffffffffffffffffffffff8214156133af576133ae612de9565b5b600182019050919050565b7f4e487b7100000000000000000000000000000000000000000000000000000000600052601260045260246000fd5b60006133f48261214b565b91506133ff8361214b565b92508261340f5761340e6133ba565b5b828204905092915050565b60006134258261214b565b91506134308361214b565b9250826134405761343f6133ba565b5b828206905092915050565b7f4e487b7100000000000000000000000000000000000000000000000000000000600052603160045260246000fdfea2646970667358221220ad3dea16ffccc6d8775c87656b432a30a3e55ac3081d18220fd9f36738e961e964736f6c634300080c0033a2646970667358221220f96f57a4a8177225717fb177467702baf24f9f27068cbd246d4a4b9bad2a153a64736f6c634300080c0033",
  "immutableReferences": {},
  "source": "// SPDX-License-Identifier: UNLICENSED\r\npragma solidity ^0.8.0;\r\n\r\nimport './Certificate.sol';\r\n\r\ncontract Organisation {\r\n\r\n    string public name;\r\n    string public uen;\r\n    address public admin;\r\n\r\n    mapping (string => Employee) public employees;\r\n    mapping (string => Certificate) public certificates;\r\n    mapping (string => CertificateToken[]) public ownedCertificates;\r\n\r\n    struct Employee {\r\n        string email;\r\n        string name;\r\n        string position;\r\n        uint256 startDate;\r\n        uint256 endDate;\r\n        // CertificateToken[] ownedCertificates; // UnimplementedFeatureError\r\n    }\r\n\r\n    struct CertificateToken{\r\n        Certificate certificate;\r\n        // address tokenAddress;\r\n        // string name;\r\n        // string certificateID;\r\n        uint256 tokenID;\r\n    }\r\n\r\n    constructor(string memory _name, string memory _uen, address _admin) {\r\n        name = _name;\r\n        uen = _uen;\r\n        admin = _admin;\r\n    }\r\n\r\n    function addEmployee(\r\n        string memory email,\r\n        string memory name,\r\n        string memory position,\r\n        uint256 startDate\r\n    ) public {\r\n        Employee memory employee;\r\n        employee.email = email;\r\n        employee.name = name;\r\n        employee.position = position;\r\n        employee.startDate = startDate;\r\n        // Employee memory employee = Employee({\r\n        //     email: email,\r\n        //     name: name,\r\n        //     position: position,\r\n        //     startDate: startDate,\r\n        //     endDate: 0,\r\n        //     ownedCertificates: new CertificateToken[](0)\r\n        // });\r\n        employees[email] = employee;\r\n    }\r\n\r\n    function addCertificate(\r\n        string memory name,\r\n        string memory symbol,\r\n        string memory certificateID\r\n    ) public {\r\n        Certificate certificate = new Certificate(name, symbol, certificateID);\r\n        certificates[certificateID] = certificate;\r\n    }\r\n\r\n    function awardCertificate(\r\n        string memory email,\r\n        string memory certificateID,\r\n        string memory url\r\n    ) public {\r\n        Certificate certificate = certificates[certificateID];\r\n        // create certificate\r\n        uint256 tokenID = certificate.create(admin, url);\r\n        CertificateToken memory certificateToken = CertificateToken({\r\n            certificate: certificate,\r\n            tokenID: tokenID\r\n        });\r\n        // map certificate to employee\r\n        ownedCertificates[email].push(certificateToken);\r\n    }\r\n\r\n    function transferCertificate(\r\n        address awardee,\r\n        string memory email\r\n    ) public {\r\n        // approve transfer from  // how??? // HR system as the owner instead of admin??\r\n        // maybe require admin to add employee and add cert\r\n        // HR system as the owner to create cert to\r\n\r\n        // for ownederts in employee, cert.transferownership\r\n    }\r\n\r\n}",
  "sourcePath": "C:\\Users\\MHA\\desktop\\credibly-fe\\ethereum\\contracts\\Organisation.sol",
  "compiler": {
    "name": "solc",
    "version": "0.8.12+commit.f00d7308.Emscripten.clang"
  },
  "schemaVersion": "3.4.6",
  "updatedAt": "2022-03-18T16:41:00.997Z",
  "devdoc": {
    "kind": "dev",
    "methods": {},
    "version": 1
  },
  "userdoc": {
    "kind": "user",
    "methods": {},
    "version": 1
  }
}