{
  "contractName": "Organisation",
  "abi": [
    {
      "inputs": [
        {
          "internalType": "string",
          "name": "_name",
          "type": "string"
        },
        {
          "internalType": "string",
          "name": "_uen",
          "type": "string"
        },
        {
          "internalType": "address",
          "name": "_admin",
          "type": "address"
        }
      ],
      "stateMutability": "nonpayable",
      "type": "constructor"
    },
    {
      "inputs": [],
      "name": "admin",
      "outputs": [
        {
          "internalType": "address",
          "name": "",
          "type": "address"
        }
      ],
      "stateMutability": "view",
      "type": "function"
    },
    {
      "inputs": [
        {
          "internalType": "uint256",
          "name": "",
          "type": "uint256"
        }
      ],
      "name": "allAwardees",
      "outputs": [
        {
          "internalType": "contract Awardee",
          "name": "",
          "type": "address"
        }
      ],
      "stateMutability": "view",
      "type": "function"
    },
    {
      "inputs": [
        {
          "internalType": "string",
          "name": "",
          "type": "string"
        }
      ],
      "name": "awardees",
      "outputs": [
        {
          "internalType": "contract Awardee",
          "name": "",
          "type": "address"
        }
      ],
      "stateMutability": "view",
      "type": "function"
    },
    {
      "inputs": [
        {
          "internalType": "string",
          "name": "",
          "type": "string"
        }
      ],
      "name": "certificateContracts",
      "outputs": [
        {
          "internalType": "contract Certificate",
          "name": "",
          "type": "address"
        }
      ],
      "stateMutability": "view",
      "type": "function"
    },
    {
      "inputs": [],
      "name": "name",
      "outputs": [
        {
          "internalType": "string",
          "name": "",
          "type": "string"
        }
      ],
      "stateMutability": "view",
      "type": "function"
    },
    {
      "inputs": [],
      "name": "uen",
      "outputs": [
        {
          "internalType": "string",
          "name": "",
          "type": "string"
        }
      ],
      "stateMutability": "view",
      "type": "function"
    },
    {
      "inputs": [
        {
          "internalType": "string",
          "name": "email",
          "type": "string"
        },
        {
          "internalType": "address",
          "name": "awardeeContractAddress",
          "type": "address"
        }
      ],
      "name": "addAwardee",
      "outputs": [],
      "stateMutability": "nonpayable",
      "type": "function"
    },
    {
      "inputs": [
        {
          "internalType": "string",
          "name": "oldEmail",
          "type": "string"
        },
        {
          "internalType": "string",
          "name": "newEmail",
          "type": "string"
        }
      ],
      "name": "updateEmail",
      "outputs": [],
      "stateMutability": "nonpayable",
      "type": "function"
    },
    {
      "inputs": [
        {
          "internalType": "string",
          "name": "email",
          "type": "string"
        },
        {
          "internalType": "string",
          "name": "position",
          "type": "string"
        },
        {
          "internalType": "string",
          "name": "description",
          "type": "string"
        },
        {
          "internalType": "uint256",
          "name": "startDate",
          "type": "uint256"
        }
      ],
      "name": "addWorkExperience",
      "outputs": [],
      "stateMutability": "nonpayable",
      "type": "function"
    },
    {
      "inputs": [
        {
          "internalType": "string",
          "name": "certificateName",
          "type": "string"
        },
        {
          "internalType": "string",
          "name": "certificateId",
          "type": "string"
        },
        {
          "internalType": "string",
          "name": "description",
          "type": "string"
        }
      ],
      "name": "addCertificate",
      "outputs": [],
      "stateMutability": "nonpayable",
      "type": "function"
    },
    {
      "inputs": [
        {
          "internalType": "string",
          "name": "email",
          "type": "string"
        },
        {
          "internalType": "string",
          "name": "certificateId",
          "type": "string"
        },
        {
          "internalType": "string",
          "name": "ipfsHash",
          "type": "string"
        }
      ],
      "name": "awardCertificate",
      "outputs": [],
      "stateMutability": "nonpayable",
      "type": "function"
    },
    {
      "inputs": [
        {
          "internalType": "string[]",
          "name": "emails",
          "type": "string[]"
        },
        {
          "internalType": "string",
          "name": "certificateId",
          "type": "string"
        },
        {
          "internalType": "string[]",
          "name": "ipfsHashs",
          "type": "string[]"
        }
      ],
      "name": "awardCertificates",
      "outputs": [],
      "stateMutability": "nonpayable",
      "type": "function"
    }
  ],
  "bytecode": "0x60806040523480156200001157600080fd5b5060405162003b0e38038062003b0e8339810160408190526200003491620001fc565b82516200004990600090602086019062000089565b5081516200005f90600190602085019062000089565b50600280546001600160a01b0319166001600160a01b039290921691909117905550620002c69050565b828054620000979062000289565b90600052602060002090601f016020900481019282620000bb576000855562000106565b82601f10620000d657805160ff191683800117855562000106565b8280016001018555821562000106579182015b8281111562000106578251825591602001919060010190620000e9565b506200011492915062000118565b5090565b5b8082111562000114576000815560010162000119565b634e487b7160e01b600052604160045260246000fd5b600082601f8301126200015757600080fd5b81516001600160401b03808211156200017457620001746200012f565b604051601f8301601f19908116603f011681019082821181831017156200019f576200019f6200012f565b81604052838152602092508683858801011115620001bc57600080fd5b600091505b83821015620001e05785820183015181830184015290820190620001c1565b83821115620001f25760008385830101525b9695505050505050565b6000806000606084860312156200021257600080fd5b83516001600160401b03808211156200022a57600080fd5b620002388783880162000145565b945060208601519150808211156200024f57600080fd5b506200025e8682870162000145565b604086015190935090506001600160a01b03811681146200027e57600080fd5b809150509250925092565b600181811c908216806200029e57607f821691505b60208210811415620002c057634e487b7160e01b600052602260045260246000fd5b50919050565b61383880620002d66000396000f3fe60806040523480156200001157600080fd5b5060043610620000b25760003560e01c806306fdde0314620000b75780630d7e2e5b14620000d9578063145b8eb314620000ff5780632789755714620001365780632d7cb52a146200014f5780635b9519a414620001595780637cac6dce146200017057806392ad8eec14620001a75780639f560d8914620001be578063ac9e576014620001d5578063ebf814ec14620001ec578063f851a4401462000203575b600080fd5b620000c162000217565b604051620000d0919062000a4b565b60405180910390f35b620000f0620000ea36600462000a67565b620002ad565b604051620000d0919062000a81565b620000f06200011036600462000b54565b80516020818301810180516004825292820191909301209152546001600160a01b031681565b6200014d6200014736600462000b94565b620002d8565b005b620000c1620003d0565b6200014d6200016a36600462000bfe565b620003df565b620000f06200018136600462000b54565b80516020818301810180516005825292820191909301209152546001600160a01b031681565b6200014d620001b836600462000c60565b62000467565b6200014d620001cf36600462000cf9565b62000600565b6200014d620001e636600462000cf9565b6200083c565b6200014d620001fd36600462000e34565b620008f5565b600254620000f0906001600160a01b031681565b60008054620002269062000ebb565b80601f0160208091040260200160405190810160405280929190818152602001828054620002549062000ebb565b8015620002a55780601f106200027957610100808354040283529160200191620002a5565b820191906000526020600020905b8154815290600101906020018083116200028757829003601f168201915b505050505081565b60068181548110620002be57600080fd5b6000918252602090912001546001600160a01b0316905081565b816000600582604051620002ed919062000ef8565b908152604051908190036020019020546001600160a01b0316905080620003315760405162461bcd60e51b8152600401620003289062000f16565b60405180910390fd5b60058460405162000343919062000ef8565b908152604051908190036020018120546001600160a01b0316906005906200036d90869062000ef8565b90815260405190819003602001812080546001600160a01b03939093166001600160a01b031990931692909217909155600590620003ad90869062000ef8565b90815260405190819003602001902080546001600160a01b031916905550505050565b60018054620002269062000ebb565b600081905080600584604051620003f7919062000ef8565b90815260405190819003602001902080546001600160a01b039283166001600160a01b031991821617909155600680546001810182556000919091527ff652222313e28459528d920b65115c16c04f3efc82aaedc97be59f3f377c0d3f0180549390921692169190911790555050565b6002546001600160a01b03163214620004945760405162461bcd60e51b8152600401620003289062000f47565b836000600582604051620004a9919062000ef8565b908152604051908190036020019020546001600160a01b0316905080620004e45760405162461bcd60e51b8152600401620003289062000f16565b600080868686604051620004f890620009d2565b6200050794939291906200101b565b604051809103906000f08015801562000524573d6000803e3d6000fd5b50905060038760405162000539919062000ef8565b908152604051602091819003820181208054600181018255600091825292812090920180546001600160a01b0319166001600160a01b03851617905560059062000585908a9062000ef8565b90815260405190819003602001812054632367850560e01b82526001600160a01b031691508190632367850590620005c290859060040162000a81565b600060405180830381600087803b158015620005dd57600080fd5b505af1158015620005f2573d6000803e3d6000fd5b505050505050505050505050565b6002546001600160a01b031632146200062d5760405162461bcd60e51b8152600401620003289062000f47565b82600060058260405162000642919062000ef8565b908152604051908190036020019020546001600160a01b03169050806200067d5760405162461bcd60e51b8152600401620003289062000f16565b83600060048260405162000692919062000ef8565b908152604051908190036020019020546001600160a01b0316905080620006fa5760405162461bcd60e51b815260206004820152601b60248201527a21b2b93a34b334b1b0ba32903237b2b9903737ba1032bc34b9ba1760291b604482015260640162000328565b60006004876040516200070e919062000ef8565b908152604051908190036020018120546001600160a01b031691506000906005906200073c908b9062000ef8565b9081526040519081900360200181205463a15ab08d60e01b82526001600160a01b0390811692506000919084169063a15ab08d90620007829085908c906004016200106c565b6020604051808303816000875af1158015620007a2573d6000803e3d6000fd5b505050506040513d601f19601f82011682018060405250810190620007c8919062001092565b604051636a11781160e11b81526001600160a01b038581166004830152602482018390529192509083169063d422f02290604401600060405180830381600087803b1580156200081757600080fd5b505af11580156200082c573d6000803e3d6000fd5b5050505050505050505050505050565b6002546001600160a01b03163214620008695760405162461bcd60e51b8152600401620003289062000f47565b600083838360006040516200087e90620009e0565b6200088d9493929190620010ac565b604051809103906000f080158015620008aa573d6000803e3d6000fd5b50905080600484604051620008c0919062000ef8565b90815260405190819003602001902080546001600160a01b03929092166001600160a01b031990921691909117905550505050565b6002546001600160a01b03163214620009225760405162461bcd60e51b8152600401620003289062000f47565b8051835114620009655760405162461bcd60e51b815260206004820152600d60248201526c24b73b30b634b2103230ba309760991b604482015260640162000328565b60005b8351811015620009cc57620009b78482815181106200098b576200098b6200110c565b602002602001015184848481518110620009a957620009a96200110c565b602002602001015162000600565b80620009c38162001122565b91505062000968565b50505050565b610631806200114d83390190565b612085806200177e83390190565b60005b8381101562000a0b578181015183820152602001620009f1565b83811115620009cc5750506000910152565b6000815180845262000a37816020860160208601620009ee565b601f01601f19169290920160200192915050565b60208152600062000a60602083018462000a1d565b9392505050565b60006020828403121562000a7a57600080fd5b5035919050565b6001600160a01b0391909116815260200190565b634e487b7160e01b600052604160045260246000fd5b604051601f8201601f191681016001600160401b038111828210171562000ad65762000ad662000a95565b604052919050565b600082601f83011262000af057600080fd5b81356001600160401b0381111562000b0c5762000b0c62000a95565b62000b21601f8201601f191660200162000aab565b81815284602083860101111562000b3757600080fd5b816020850160208301376000918101602001919091529392505050565b60006020828403121562000b6757600080fd5b81356001600160401b0381111562000b7e57600080fd5b62000b8c8482850162000ade565b949350505050565b6000806040838503121562000ba857600080fd5b82356001600160401b038082111562000bc057600080fd5b62000bce8683870162000ade565b9350602085013591508082111562000be557600080fd5b5062000bf48582860162000ade565b9150509250929050565b6000806040838503121562000c1257600080fd5b82356001600160401b0381111562000c2957600080fd5b62000c378582860162000ade565b92505060208301356001600160a01b038116811462000c5557600080fd5b809150509250929050565b6000806000806080858703121562000c7757600080fd5b84356001600160401b038082111562000c8f57600080fd5b62000c9d8883890162000ade565b9550602087013591508082111562000cb457600080fd5b62000cc28883890162000ade565b9450604087013591508082111562000cd957600080fd5b5062000ce88782880162000ade565b949793965093946060013593505050565b60008060006060848603121562000d0f57600080fd5b83356001600160401b038082111562000d2757600080fd5b62000d358783880162000ade565b9450602086013591508082111562000d4c57600080fd5b62000d5a8783880162000ade565b9350604086013591508082111562000d7157600080fd5b5062000d808682870162000ade565b9150509250925092565b600082601f83011262000d9c57600080fd5b813560206001600160401b038083111562000dbb5762000dbb62000a95565b8260051b62000dcc83820162000aab565b938452858101830193838101908886111562000de757600080fd5b84880192505b8583101562000e285782358481111562000e075760008081fd5b62000e178a87838c010162000ade565b835250918401919084019062000ded565b98975050505050505050565b60008060006060848603121562000e4a57600080fd5b83356001600160401b038082111562000e6257600080fd5b62000e708783880162000d8a565b9450602086013591508082111562000e8757600080fd5b62000e958783880162000ade565b9350604086013591508082111562000eac57600080fd5b5062000d808682870162000d8a565b600181811c9082168062000ed057607f821691505b6020821081141562000ef257634e487b7160e01b600052602260045260246000fd5b50919050565b6000825162000f0c818460208701620009ee565b9190910192915050565b60208082526017908201527620bbb0b93232b2903237b2b9903737ba1032bc34b9ba1760491b604082015260600190565b6020808252601290820152712ab730baba3437b934b9b2b2103ab9b2b91760711b604082015260600190565b8054600090600181811c908083168062000f8e57607f831692505b602080841082141562000fb157634e487b7160e01b600052602260045260246000fd5b8388526020880182801562000fcf576001811462000fe1576200100e565b60ff198716825282820197506200100e565b60008981526020902060005b87811015620010085781548482015290860190840162000fed565b83019850505b5050505050505092915050565b60808152600062001030608083018762000f73565b828103602084015262001044818762000a1d565b905082810360408401526200105a818662000a1d565b91505082606083015295945050505050565b6001600160a01b038316815260406020820181905260009062000b8c9083018462000a1d565b600060208284031215620010a557600080fd5b5051919050565b608081526000620010c1608083018762000a1d565b8281036020840152620010d5818762000a1d565b90508281036040840152620010eb818662000a1d565b9050828103606084015262001101818562000f73565b979650505050505050565b634e487b7160e01b600052603260045260246000fd5b60006000198214156200114557634e487b7160e01b600052601160045260246000fd5b506001019056fe608060405234801561001057600080fd5b5060405161063138038061063183398101604081905261002f916101d2565b8351610042906000906020870190610077565b508251610056906001906020860190610077565b50815161006a906002906020850190610077565b506003555061029c915050565b82805461008390610261565b90600052602060002090601f0160209004810192826100a557600085556100eb565b82601f106100be57805160ff19168380011785556100eb565b828001600101855582156100eb579182015b828111156100eb5782518255916020019190600101906100d0565b506100f79291506100fb565b5090565b5b808211156100f757600081556001016100fc565b634e487b7160e01b600052604160045260246000fd5b600082601f83011261013757600080fd5b81516001600160401b038082111561015157610151610110565b604051601f8301601f19908116603f0116810190828211818310171561017957610179610110565b8160405283815260209250868385880101111561019557600080fd5b600091505b838210156101b7578582018301518183018401529082019061019a565b838211156101c85760008385830101525b9695505050505050565b600080600080608085870312156101e857600080fd5b84516001600160401b03808211156101ff57600080fd5b61020b88838901610126565b9550602087015191508082111561022157600080fd5b61022d88838901610126565b9450604087015191508082111561024357600080fd5b5061025087828801610126565b606096909601519497939650505050565b600181811c9082168061027557607f821691505b6020821081141561029657634e487b7160e01b600052602260045260246000fd5b50919050565b610386806102ab6000396000f3fe608060405234801561001057600080fd5b50600436106100415760003560e01c80633784f00014610046578063565974d31461005b57806392f622d11461007e575b600080fd5b610059610054366004610255565b600455565b005b610063610090565b604051610075969594939291906102bb565b60405180910390f35b6100596005805460ff19166001179055565b60008054819061009f90610315565b80601f01602080910402602001604051908101604052809291908181526020018280546100cb90610315565b80156101185780601f106100ed57610100808354040283529160200191610118565b820191906000526020600020905b8154815290600101906020018083116100fb57829003601f168201915b50505050509080600101805461012d90610315565b80601f016020809104026020016040519081016040528092919081815260200182805461015990610315565b80156101a65780601f1061017b576101008083540402835291602001916101a6565b820191906000526020600020905b81548152906001019060200180831161018957829003601f168201915b5050505050908060020180546101bb90610315565b80601f01602080910402602001604051908101604052809291908181526020018280546101e790610315565b80156102345780601f1061020957610100808354040283529160200191610234565b820191906000526020600020905b81548152906001019060200180831161021757829003601f168201915b50505050600383015460048401546005909401549293909290915060ff1686565b60006020828403121561026757600080fd5b5035919050565b6000815180845260005b8181101561029457602081850181015186830182015201610278565b818111156102a6576000602083870101525b50601f01601f19169290920160200192915050565b60c0815260006102ce60c083018961026e565b82810360208401526102e0818961026e565b905082810360408401526102f4818861026e565b606084019690965250506080810192909252151560a0909101529392505050565b600181811c9082168061032957607f821691505b6020821081141561034a57634e487b7160e01b600052602260045260246000fd5b5091905056fea26469706673582212201793ec91c2d6060493d022154c92c878144bb63bc14cdc3ca39ac22cca04fc0f64736f6c634300080c003360806040523480156200001157600080fd5b506040516200208538038062002085833981016040819052620000349162000246565b83604051806040016040528060088152602001674372656469626c7960c01b81525081600090805190602001906200006e929190620000d3565b50805162000084906001906020840190620000d3565b505083516200009c9150600c906020860190620000d3565b508151620000b290600d906020850190620000d3565b508051620000c890600e906020840190620000d3565b50505050506200033c565b828054620000e190620002ff565b90600052602060002090601f01602090048101928262000105576000855562000150565b82601f106200012057805160ff191683800117855562000150565b8280016001018555821562000150579182015b828111156200015057825182559160200191906001019062000133565b506200015e92915062000162565b5090565b5b808211156200015e576000815560010162000163565b634e487b7160e01b600052604160045260246000fd5b600082601f830112620001a157600080fd5b81516001600160401b0380821115620001be57620001be62000179565b604051601f8301601f19908116603f01168101908282118183101715620001e957620001e962000179565b816040528381526020925086838588010111156200020657600080fd5b600091505b838210156200022a57858201830151818301840152908201906200020b565b838211156200023c5760008385830101525b9695505050505050565b600080600080608085870312156200025d57600080fd5b84516001600160401b03808211156200027557600080fd5b62000283888389016200018f565b955060208701519150808211156200029a57600080fd5b620002a8888389016200018f565b94506040870151915080821115620002bf57600080fd5b620002cd888389016200018f565b93506060870151915080821115620002e457600080fd5b50620002f3878288016200018f565b91505092959194509250565b600181811c908216806200031457607f821691505b602082108114156200033657634e487b7160e01b600052602260045260246000fd5b50919050565b611d39806200034c6000396000f3fe608060405234801561001057600080fd5b50600436106101075760003560e01c80630178fe3f1461010c57806301ffc9a71461013757806306fdde031461015a578063081812fc1461016f578063095ea7b31461019a57806318160ddd146101af57806323b872dd146101c15780632f745c59146101d457806342842e0e146101e7578063438b12d1146101fa5780634f6ccce7146102025780635629cb0b146102155780636352211e1461021d57806370a08231146102305780637284e4161461024357806395d89b411461024b578063a15ab08d14610253578063a22cb46514610266578063b88d4fde14610279578063c87b56dd1461028c578063e985e9c51461029f575b600080fd5b61011f61011a36600461174c565b6102b2565b60405161012e939291906117bd565b60405180910390f35b61014a610145366004611819565b6103e9565b604051901515815260200161012e565b6101626103fa565b60405161012e9190611836565b61018261017d36600461174c565b61048c565b6040516001600160a01b03909116815260200161012e565b6101ad6101a8366004611865565b610519565b005b6009545b60405190815260200161012e565b6101ad6101cf36600461188f565b61062a565b6101b36101e2366004611865565b61065b565b6101ad6101f536600461188f565b6106f1565b61016261070c565b6101b361021036600461174c565b61079a565b61016261082d565b61018261022b36600461174c565b61083a565b6101b361023e3660046118cb565b6108b1565b610162610938565b610162610945565b6101b3610261366004611971565b610954565b6101ad6102743660046119d2565b61098b565b6101ad610287366004611a0e565b61099a565b61016261029a36600461174c565b6109d2565b61014a6102ad366004611a89565b6109dd565b60608060606102c0846109d2565b600d600e8180546102d090611abc565b80601f01602080910402602001604051908101604052809291908181526020018280546102fc90611abc565b80156103495780601f1061031e57610100808354040283529160200191610349565b820191906000526020600020905b81548152906001019060200180831161032c57829003601f168201915b5050505050915080805461035c90611abc565b80601f016020809104026020016040519081016040528092919081815260200182805461038890611abc565b80156103d55780601f106103aa576101008083540402835291602001916103d5565b820191906000526020600020905b8154815290600101906020018083116103b857829003601f168201915b505050505090509250925092509193909250565b60006103f482610a0b565b92915050565b60606000805461040990611abc565b80601f016020809104026020016040519081016040528092919081815260200182805461043590611abc565b80156104825780601f1061045757610100808354040283529160200191610482565b820191906000526020600020905b81548152906001019060200180831161046557829003601f168201915b5050505050905090565b600061049782610a30565b6104fd5760405162461bcd60e51b815260206004820152602c60248201527f4552433732313a20617070726f76656420717565727920666f72206e6f6e657860448201526b34b9ba32b73a103a37b5b2b760a11b60648201526084015b60405180910390fd5b506000908152600460205260409020546001600160a01b031690565b60006105248261083a565b9050806001600160a01b0316836001600160a01b031614156105925760405162461bcd60e51b815260206004820152602160248201527f4552433732313a20617070726f76616c20746f2063757272656e74206f776e656044820152603960f91b60648201526084016104f4565b336001600160a01b03821614806105ae57506105ae81336109dd565b61061b5760405162461bcd60e51b815260206004820152603860248201527f4552433732313a20617070726f76652063616c6c6572206973206e6f74206f776044820152771b995c881b9bdc88185c1c1c9bdd995908199bdc88185b1b60421b60648201526084016104f4565b6106258383610a4d565b505050565b6106343382610abb565b6106505760405162461bcd60e51b81526004016104f490611af7565b610625838383610b85565b6000610666836108b1565b82106106c85760405162461bcd60e51b815260206004820152602b60248201527f455243373231456e756d657261626c653a206f776e657220696e646578206f7560448201526a74206f6620626f756e647360a81b60648201526084016104f4565b506001600160a01b03919091166000908152600760209081526040808320938352929052205490565b6106258383836040518060200160405280600081525061099a565b600e805461071990611abc565b80601f016020809104026020016040519081016040528092919081815260200182805461074590611abc565b80156107925780601f1061076757610100808354040283529160200191610792565b820191906000526020600020905b81548152906001019060200180831161077557829003601f168201915b505050505081565b60006107a560095490565b82106108085760405162461bcd60e51b815260206004820152602c60248201527f455243373231456e756d657261626c653a20676c6f62616c20696e646578206f60448201526b7574206f6620626f756e647360a01b60648201526084016104f4565b6009828154811061081b5761081b611b48565b90600052602060002001549050919050565b600c805461071990611abc565b6000818152600260205260408120546001600160a01b0316806103f45760405162461bcd60e51b815260206004820152602960248201527f4552433732313a206f776e657220717565727920666f72206e6f6e657869737460448201526832b73a103a37b5b2b760b91b60648201526084016104f4565b60006001600160a01b03821661091c5760405162461bcd60e51b815260206004820152602a60248201527f4552433732313a2062616c616e636520717565727920666f7220746865207a65604482015269726f206164647265737360b01b60648201526084016104f4565b506001600160a01b031660009081526003602052604090205490565b600d805461071990611abc565b60606001805461040990611abc565b600080610960600b5490565b9050610970600b80546001019055565b61097a8482610d1a565b6109848184610e46565b9392505050565b610996338383610ed1565b5050565b6109a43383610abb565b6109c05760405162461bcd60e51b81526004016104f490611af7565b6109cc84848484610f9c565b50505050565b60606103f482610fcf565b6001600160a01b03918216600090815260056020908152604080832093909416825291909152205460ff1690565b60006001600160e01b0319821663780e9d6360e01b14806103f457506103f48261113e565b6000908152600260205260409020546001600160a01b0316151590565b600081815260046020526040902080546001600160a01b0319166001600160a01b0384169081179091558190610a828261083a565b6001600160a01b03167f8c5be1e5ebec7d5bd14f71427d1e84f3dd0314c0f7b2291e5b200ac8c7c3b92560405160405180910390a45050565b6000610ac682610a30565b610b275760405162461bcd60e51b815260206004820152602c60248201527f4552433732313a206f70657261746f7220717565727920666f72206e6f6e657860448201526b34b9ba32b73a103a37b5b2b760a11b60648201526084016104f4565b6000610b328361083a565b9050806001600160a01b0316846001600160a01b03161480610b6d5750836001600160a01b0316610b628461048c565b6001600160a01b0316145b80610b7d5750610b7d81856109dd565b949350505050565b826001600160a01b0316610b988261083a565b6001600160a01b031614610bfc5760405162461bcd60e51b815260206004820152602560248201527f4552433732313a207472616e736665722066726f6d20696e636f72726563742060448201526437bbb732b960d91b60648201526084016104f4565b6001600160a01b038216610c5e5760405162461bcd60e51b8152602060048201526024808201527f4552433732313a207472616e7366657220746f20746865207a65726f206164646044820152637265737360e01b60648201526084016104f4565b610c6983838361118e565b610c74600082610a4d565b6001600160a01b0383166000908152600360205260408120805460019290610c9d908490611b74565b90915550506001600160a01b0382166000908152600360205260408120805460019290610ccb908490611b8b565b909155505060008181526002602052604080822080546001600160a01b0319166001600160a01b038681169182179092559151849391871691600080516020611ce483398151915291a4505050565b6001600160a01b038216610d705760405162461bcd60e51b815260206004820181905260248201527f4552433732313a206d696e7420746f20746865207a65726f206164647265737360448201526064016104f4565b610d7981610a30565b15610dc55760405162461bcd60e51b815260206004820152601c60248201527b115490cdcc8c4e881d1bdad95b88185b1c9958591e481b5a5b9d195960221b60448201526064016104f4565b610dd16000838361118e565b6001600160a01b0382166000908152600360205260408120805460019290610dfa908490611b8b565b909155505060008181526002602052604080822080546001600160a01b0319166001600160a01b0386169081179091559051839290600080516020611ce4833981519152908290a45050565b610e4f82610a30565b610eb25760405162461bcd60e51b815260206004820152602e60248201527f45524337323155524953746f726167653a2055524920736574206f66206e6f6e60448201526d32bc34b9ba32b73a103a37b5b2b760911b60648201526084016104f4565b60008281526006602090815260409091208251610625928401906116b3565b816001600160a01b0316836001600160a01b03161415610f2f5760405162461bcd60e51b815260206004820152601960248201527822a9219b99189d1030b8383937bb32903a379031b0b63632b960391b60448201526064016104f4565b6001600160a01b03838116600081815260056020908152604080832094871680845294825291829020805460ff191686151590811790915591519182527f17307eab39ab6107e8899845ad3d59bd9653f200f220920489ca2b5937696c31910160405180910390a3505050565b610fa7848484610b85565b610fb384848484611199565b6109cc5760405162461bcd60e51b81526004016104f490611ba3565b6060610fda82610a30565b6110405760405162461bcd60e51b815260206004820152603160248201527f45524337323155524953746f726167653a2055524920717565727920666f72206044820152703737b732bc34b9ba32b73a103a37b5b2b760791b60648201526084016104f4565b6000828152600660205260408120805461105990611abc565b80601f016020809104026020016040519081016040528092919081815260200182805461108590611abc565b80156110d25780601f106110a7576101008083540402835291602001916110d2565b820191906000526020600020905b8154815290600101906020018083116110b557829003601f168201915b5050505050905060006110f060408051602081019091526000815290565b9050805160001415611103575092915050565b81511561113557808260405160200161111d929190611bf5565b60405160208183030381529060405292505050919050565b610b7d84611297565b60006001600160e01b031982166380ac58cd60e01b148061116f57506001600160e01b03198216635b5e139f60e01b145b806103f457506301ffc9a760e01b6001600160e01b03198316146103f4565b61062583838361136e565b60006001600160a01b0384163b1561128c57604051630a85bd0160e11b81526001600160a01b0385169063150b7a02906111dd903390899088908890600401611c24565b6020604051808303816000875af1925050508015611218575060408051601f3d908101601f1916820190925261121591810190611c57565b60015b611272573d808015611246576040519150601f19603f3d011682016040523d82523d6000602084013e61124b565b606091505b50805161126a5760405162461bcd60e51b81526004016104f490611ba3565b805181602001fd5b6001600160e01b031916630a85bd0160e11b149050610b7d565b506001949350505050565b60606112a282610a30565b6113065760405162461bcd60e51b815260206004820152602f60248201527f4552433732314d657461646174613a2055524920717565727920666f72206e6f60448201526e3732bc34b9ba32b73a103a37b5b2b760891b60648201526084016104f4565b600061131d60408051602081019091526000815290565b9050600081511161133d5760405180602001604052806000815250610984565b8061134784611426565b604051602001611358929190611bf5565b6040516020818303038152906040529392505050565b6001600160a01b0383166113c9576113c481600980546000838152600a60205260408120829055600182018355919091527f6e1540171b6c0c960b71a7020d9f60077f6af931a8bbf590da0223dacf75c7af0155565b6113ec565b816001600160a01b0316836001600160a01b0316146113ec576113ec8382611523565b6001600160a01b03821661140357610625816115c0565b826001600160a01b0316826001600160a01b03161461062557610625828261166f565b60608161144a5750506040805180820190915260018152600360fc1b602082015290565b8160005b8115611474578061145e81611c74565b915061146d9050600a83611ca5565b915061144e565b6000816001600160401b0381111561148e5761148e6118e6565b6040519080825280601f01601f1916602001820160405280156114b8576020820181803683370190505b5090505b8415610b7d576114cd600183611b74565b91506114da600a86611cb9565b6114e5906030611b8b565b60f81b8183815181106114fa576114fa611b48565b60200101906001600160f81b031916908160001a90535061151c600a86611ca5565b94506114bc565b60006001611530846108b1565b61153a9190611b74565b60008381526008602052604090205490915080821461158d576001600160a01b03841660009081526007602090815260408083208584528252808320548484528184208190558352600890915290208190555b5060009182526008602090815260408084208490556001600160a01b039094168352600781528383209183525290812055565b6009546000906115d290600190611b74565b6000838152600a6020526040812054600980549394509092849081106115fa576115fa611b48565b90600052602060002001549050806009838154811061161b5761161b611b48565b6000918252602080832090910192909255828152600a9091526040808220849055858252812055600980548061165357611653611ccd565b6001900381819060005260206000200160009055905550505050565b600061167a836108b1565b6001600160a01b039093166000908152600760209081526040808320868452825280832085905593825260089052919091209190915550565b8280546116bf90611abc565b90600052602060002090601f0160209004810192826116e15760008555611727565b82601f106116fa57805160ff1916838001178555611727565b82800160010185558215611727579182015b8281111561172757825182559160200191906001019061170c565b50611733929150611737565b5090565b5b808211156117335760008155600101611738565b60006020828403121561175e57600080fd5b5035919050565b60005b83811015611780578181015183820152602001611768565b838111156109cc5750506000910152565b600081518084526117a9816020860160208601611765565b601f01601f19169290920160200192915050565b6060815260006117d06060830186611791565b82810360208401526117e28186611791565b905082810360408401526117f68185611791565b9695505050505050565b6001600160e01b03198116811461181657600080fd5b50565b60006020828403121561182b57600080fd5b813561098481611800565b6020815260006109846020830184611791565b80356001600160a01b038116811461186057600080fd5b919050565b6000806040838503121561187857600080fd5b61188183611849565b946020939093013593505050565b6000806000606084860312156118a457600080fd5b6118ad84611849565b92506118bb60208501611849565b9150604084013590509250925092565b6000602082840312156118dd57600080fd5b61098482611849565b634e487b7160e01b600052604160045260246000fd5b60006001600160401b0380841115611916576119166118e6565b604051601f8501601f19908116603f0116810190828211818310171561193e5761193e6118e6565b8160405280935085815286868601111561195757600080fd5b858560208301376000602087830101525050509392505050565b6000806040838503121561198457600080fd5b61198d83611849565b915060208301356001600160401b038111156119a857600080fd5b8301601f810185136119b957600080fd5b6119c8858235602084016118fc565b9150509250929050565b600080604083850312156119e557600080fd5b6119ee83611849565b915060208301358015158114611a0357600080fd5b809150509250929050565b60008060008060808587031215611a2457600080fd5b611a2d85611849565b9350611a3b60208601611849565b92506040850135915060608501356001600160401b03811115611a5d57600080fd5b8501601f81018713611a6e57600080fd5b611a7d878235602084016118fc565b91505092959194509250565b60008060408385031215611a9c57600080fd5b611aa583611849565b9150611ab360208401611849565b90509250929050565b600181811c90821680611ad057607f821691505b60208210811415611af157634e487b7160e01b600052602260045260246000fd5b50919050565b60208082526031908201527f4552433732313a207472616e736665722063616c6c6572206973206e6f74206f6040820152701ddb995c881b9bdc88185c1c1c9bdd9959607a1b606082015260800190565b634e487b7160e01b600052603260045260246000fd5b634e487b7160e01b600052601160045260246000fd5b600082821015611b8657611b86611b5e565b500390565b60008219821115611b9e57611b9e611b5e565b500190565b60208082526032908201527f4552433732313a207472616e7366657220746f206e6f6e20455243373231526560408201527131b2b4bb32b91034b6b83632b6b2b73a32b960711b606082015260800190565b60008351611c07818460208801611765565b835190830190611c1b818360208801611765565b01949350505050565b6001600160a01b03858116825284166020820152604081018390526080606082018190526000906117f690830184611791565b600060208284031215611c6957600080fd5b815161098481611800565b6000600019821415611c8857611c88611b5e565b5060010190565b634e487b7160e01b600052601260045260246000fd5b600082611cb457611cb4611c8f565b500490565b600082611cc857611cc8611c8f565b500690565b634e487b7160e01b600052603160045260246000fdfeddf252ad1be2c89b69c2b068fc378daa952ba7f163c4a11628f55a4df523b3efa26469706673582212207d861d3552623f3be0c7744a803b3fbf7c319daebf4c9d48d3bdeac1419fe9b564736f6c634300080c0033a2646970667358221220435b131a51a094e4e67052cbbeda1b5099aae40aa2c7642193f6072cd35d127d64736f6c634300080c0033",
  "immutableReferences": {},
  "source": "// SPDX-License-Identifier: UNLICENSED\r\n\r\npragma solidity ^0.8.0;\r\n\r\n// import 'hardhat/console.sol';\r\nimport './Certificate.sol';\r\nimport './Awardee.sol';\r\nimport './WorkExperience.sol';\r\n\r\ncontract Organisation {\r\n\r\n    string public name;\r\n    string public uen;\r\n    address public admin;\r\n\r\n    mapping (string => WorkExperience[]) awardeesWorkExperiences;\r\n    mapping (string => Certificate) public certificateContracts;\r\n    mapping (string => Awardee) public awardees;\r\n\r\n    Awardee[] public allAwardees;\r\n\r\n    constructor(string memory _name, string memory _uen, address _admin) {\r\n        name = _name;\r\n        uen = _uen;\r\n        admin = _admin;\r\n    }\r\n\r\n    modifier onlyAdmin {\r\n        require(tx.origin == admin, \"Unauthorised user.\");\r\n        _;\r\n    }\r\n\r\n    modifier awardeeExists(string memory email) {\r\n        Awardee awardee = awardees[email];\r\n        require(address(awardee) != address(0), \"Awardee does not exist.\");\r\n        _;\r\n    }\r\n\r\n    modifier certificateExists(string memory certificateId) {\r\n        Certificate certificate = certificateContracts[certificateId];\r\n        require(address(certificate) != address(0), \"Certificate does not exist.\");\r\n        _;\r\n    }\r\n\r\n    function addAwardee(\r\n        string memory email,\r\n        address awardeeContractAddress // NOT WALLET ADDRESS\r\n    ) public {\r\n        Awardee awardee = Awardee(awardeeContractAddress);\r\n        awardees[email] = awardee;\r\n        allAwardees.push(awardee);\r\n    }\r\n\r\n    function updateEmail(\r\n        string memory oldEmail,\r\n        string memory newEmail\r\n    ) public awardeeExists(oldEmail) {\r\n        awardees[newEmail] = awardees[oldEmail];\r\n        delete awardees[oldEmail]; // need to test if it works\r\n    }\r\n\r\n    function addWorkExperience(\r\n        string memory email,\r\n        string memory position,\r\n        string memory description,\r\n        uint256 startDate\r\n    ) public onlyAdmin awardeeExists(email) {\r\n        WorkExperience workExperience = new WorkExperience(name, position, description, startDate);\r\n        awardeesWorkExperiences[email].push(workExperience);\r\n        Awardee awardee = awardees[email];\r\n        awardee.addWorkExperience(address(workExperience));\r\n    }\r\n\r\n    function addCertificate(\r\n        string memory certificateName,\r\n        string memory certificateId,\r\n        string memory description\r\n    ) public onlyAdmin {\r\n        Certificate certificate = new Certificate(certificateName, certificateId, description, name);\r\n        certificateContracts[certificateId] = certificate;\r\n    }\r\n\r\n    function awardCertificate(\r\n        string memory email,\r\n        string memory certificateId,\r\n        string memory ipfsHash\r\n    ) public onlyAdmin awardeeExists(email) certificateExists(certificateId){\r\n        Certificate certificate = certificateContracts[certificateId];\r\n        Awardee awardee = awardees[email];\r\n        uint256 tokenId = certificate.create(address(awardee), ipfsHash);\r\n        awardee.addCertificate(address(certificate), tokenId);\r\n    }\r\n\r\n    function awardCertificates(\r\n        string[] memory emails,\r\n        string memory certificateId,\r\n        string[] memory ipfsHashs\r\n    ) public onlyAdmin {\r\n        require(emails.length == ipfsHashs.length, \"Invalid data.\");\r\n        for (uint i = 0; i < emails.length; i++) {\r\n            awardCertificate(emails[i], certificateId, ipfsHashs[i]);\r\n        }\r\n    }\r\n}",
  "sourcePath": "C:\\Users\\MHA\\desktop\\credibly-fe\\ethereum\\contracts\\Organisation.sol",
  "compiler": {
    "name": "solc",
    "version": "0.8.12+commit.f00d7308.Emscripten.clang"
  },
  "schemaVersion": "3.4.6",
  "updatedAt": "2022-03-28T16:44:21.549Z",
  "devdoc": {
    "kind": "dev",
    "methods": {},
    "version": 1
  },
  "userdoc": {
    "kind": "user",
    "methods": {},
    "version": 1
  }
}