{
  "contractName": "Organisation",
  "abi": [
    {
      "inputs": [
        {
          "internalType": "string",
          "name": "_name",
          "type": "string"
        },
        {
          "internalType": "string",
          "name": "_uen",
          "type": "string"
        },
        {
          "internalType": "address",
          "name": "_admin",
          "type": "address"
        }
      ],
      "stateMutability": "nonpayable",
      "type": "constructor"
    },
    {
      "inputs": [],
      "name": "admin",
      "outputs": [
        {
          "internalType": "address",
          "name": "",
          "type": "address"
        }
      ],
      "stateMutability": "view",
      "type": "function"
    },
    {
      "inputs": [
        {
          "internalType": "uint256",
          "name": "",
          "type": "uint256"
        }
      ],
      "name": "allAwardees",
      "outputs": [
        {
          "internalType": "contract Awardee",
          "name": "",
          "type": "address"
        }
      ],
      "stateMutability": "view",
      "type": "function"
    },
    {
      "inputs": [
        {
          "internalType": "string",
          "name": "",
          "type": "string"
        }
      ],
      "name": "awardees",
      "outputs": [
        {
          "internalType": "contract Awardee",
          "name": "",
          "type": "address"
        }
      ],
      "stateMutability": "view",
      "type": "function"
    },
    {
      "inputs": [
        {
          "internalType": "string",
          "name": "",
          "type": "string"
        }
      ],
      "name": "certificateContracts",
      "outputs": [
        {
          "internalType": "contract Certificate",
          "name": "",
          "type": "address"
        }
      ],
      "stateMutability": "view",
      "type": "function"
    },
    {
      "inputs": [],
      "name": "name",
      "outputs": [
        {
          "internalType": "string",
          "name": "",
          "type": "string"
        }
      ],
      "stateMutability": "view",
      "type": "function"
    },
    {
      "inputs": [],
      "name": "uen",
      "outputs": [
        {
          "internalType": "string",
          "name": "",
          "type": "string"
        }
      ],
      "stateMutability": "view",
      "type": "function"
    },
    {
      "inputs": [
        {
          "internalType": "string",
          "name": "email",
          "type": "string"
        },
        {
          "internalType": "address",
          "name": "awardeeContractAddress",
          "type": "address"
        }
      ],
      "name": "addAwardee",
      "outputs": [],
      "stateMutability": "nonpayable",
      "type": "function"
    },
    {
      "inputs": [
        {
          "internalType": "string",
          "name": "oldEmail",
          "type": "string"
        },
        {
          "internalType": "string",
          "name": "newEmail",
          "type": "string"
        }
      ],
      "name": "updateEmail",
      "outputs": [],
      "stateMutability": "nonpayable",
      "type": "function"
    },
    {
      "inputs": [
        {
          "internalType": "string",
          "name": "email",
          "type": "string"
        },
        {
          "internalType": "string",
          "name": "position",
          "type": "string"
        },
        {
          "internalType": "string",
          "name": "description",
          "type": "string"
        },
        {
          "internalType": "uint256",
          "name": "startDate",
          "type": "uint256"
        }
      ],
      "name": "addWorkExperience",
      "outputs": [],
      "stateMutability": "nonpayable",
      "type": "function"
    },
    {
      "inputs": [
        {
          "internalType": "string",
          "name": "email",
          "type": "string"
        },
        {
          "internalType": "string",
          "name": "position",
          "type": "string"
        },
        {
          "internalType": "uint256",
          "name": "endDate",
          "type": "uint256"
        }
      ],
      "name": "endWorkExperience",
      "outputs": [],
      "stateMutability": "nonpayable",
      "type": "function"
    },
    {
      "inputs": [
        {
          "internalType": "string",
          "name": "certificateName",
          "type": "string"
        },
        {
          "internalType": "string",
          "name": "certificateId",
          "type": "string"
        },
        {
          "internalType": "string",
          "name": "description",
          "type": "string"
        }
      ],
      "name": "addCertificate",
      "outputs": [],
      "stateMutability": "nonpayable",
      "type": "function"
    },
    {
      "inputs": [
        {
          "internalType": "string",
          "name": "email",
          "type": "string"
        },
        {
          "internalType": "string",
          "name": "certificateId",
          "type": "string"
        },
        {
          "internalType": "string",
          "name": "ipfsHash",
          "type": "string"
        }
      ],
      "name": "awardCertificate",
      "outputs": [],
      "stateMutability": "nonpayable",
      "type": "function"
    },
    {
      "inputs": [
        {
          "internalType": "string[]",
          "name": "emails",
          "type": "string[]"
        },
        {
          "internalType": "string",
          "name": "certificateId",
          "type": "string"
        },
        {
          "internalType": "string[]",
          "name": "ipfsHashs",
          "type": "string[]"
        }
      ],
      "name": "awardCertificates",
      "outputs": [],
      "stateMutability": "nonpayable",
      "type": "function"
    },
    {
      "inputs": [],
      "name": "getAwardees",
      "outputs": [
        {
          "internalType": "contract Awardee[]",
          "name": "",
          "type": "address[]"
        }
      ],
      "stateMutability": "view",
      "type": "function"
    }
  ],
  "bytecode": "0x60806040523480156200001157600080fd5b5060405162004007380380620040078339810160408190526200003491620001fc565b82516200004990600090602086019062000089565b5081516200005f90600190602085019062000089565b50600280546001600160a01b0319166001600160a01b039290921691909117905550620002c69050565b828054620000979062000289565b90600052602060002090601f016020900481019282620000bb576000855562000106565b82601f10620000d657805160ff191683800117855562000106565b8280016001018555821562000106579182015b8281111562000106578251825591602001919060010190620000e9565b506200011492915062000118565b5090565b5b8082111562000114576000815560010162000119565b634e487b7160e01b600052604160045260246000fd5b600082601f8301126200015757600080fd5b81516001600160401b03808211156200017457620001746200012f565b604051601f8301601f19908116603f011681019082821181831017156200019f576200019f6200012f565b81604052838152602092508683858801011115620001bc57600080fd5b600091505b83821015620001e05785820183015181830184015290820190620001c1565b83821115620001f25760008385830101525b9695505050505050565b6000806000606084860312156200021257600080fd5b83516001600160401b03808211156200022a57600080fd5b620002388783880162000145565b945060208601519150808211156200024f57600080fd5b506200025e8682870162000145565b604086015190935090506001600160a01b03811681146200027e57600080fd5b809150509250925092565b600181811c908216806200029e57607f821691505b60208210811415620002c057634e487b7160e01b600052602260045260246000fd5b50919050565b613d3180620002d66000396000f3fe60806040523480156200001157600080fd5b5060043610620000ca5760003560e01c806306fdde0314620000cf5780630d7e2e5b14620000f1578063145b8eb3146200011757806327897557146200014e5780632d7cb52a14620001675780635b9519a41462000171578063616c030b1462000188578063672093e614620001a15780637cac6dce14620001b857806392ad8eec14620001ef5780639f560d891462000206578063ac9e5760146200021d578063ebf814ec1462000234578063f851a440146200024b575b600080fd5b620000d96200025f565b604051620000e8919062000d13565b60405180910390f35b620001086200010236600462000d2f565b620002f5565b604051620000e8919062000d49565b620001086200012836600462000e1c565b80516020818301810180516004825292820191909301209152546001600160a01b031681565b620001656200015f36600462000e5c565b62000320565b005b620000d962000418565b620001656200018236600462000ec6565b62000427565b62000192620004af565b604051620000e8919062000f28565b62000165620001b236600462000f77565b62000513565b62000108620001c936600462000e1c565b80516020818301810180516005825292820191909301209152546001600160a01b031681565b620001656200020036600462000fea565b620006f1565b620001656200021736600462001083565b620008b6565b620001656200022e36600462001083565b62000af2565b6200016562000245366004620011be565b62000bbd565b60025462000108906001600160a01b031681565b600080546200026e9062001245565b80601f01602080910402602001604051908101604052809291908181526020018280546200029c9062001245565b8015620002ed5780601f10620002c157610100808354040283529160200191620002ed565b820191906000526020600020905b815481529060010190602001808311620002cf57829003601f168201915b505050505081565b600681815481106200030657600080fd5b6000918252602090912001546001600160a01b0316905081565b81600060058260405162000335919062001282565b908152604051908190036020019020546001600160a01b0316905080620003795760405162461bcd60e51b81526004016200037090620012a0565b60405180910390fd5b6005846040516200038b919062001282565b908152604051908190036020018120546001600160a01b031690600590620003b590869062001282565b90815260405190819003602001812080546001600160a01b03939093166001600160a01b031990931692909217909155600590620003f590869062001282565b90815260405190819003602001902080546001600160a01b031916905550505050565b600180546200026e9062001245565b6000819050806005846040516200043f919062001282565b90815260405190819003602001902080546001600160a01b039283166001600160a01b031991821617909155600680546001810182556000919091527ff652222313e28459528d920b65115c16c04f3efc82aaedc97be59f3f377c0d3f0180549390921692169190911790555050565b606060068054806020026020016040519081016040528092919081815260200182805480156200050957602002820191906000526020600020905b81546001600160a01b03168152600190910190602001808311620004ea575b5050505050905090565b6002546001600160a01b03163214620005405760405162461bcd60e51b81526004016200037090620012d1565b82600060058260405162000555919062001282565b908152604051908190036020019020546001600160a01b0316905080620005905760405162461bcd60e51b81526004016200037090620012a0565b60006001600160a01b0316600386604051620005ad919062001282565b908152602001604051809103902085604051620005cb919062001282565b908152604051908190036020019020546001600160a01b03161415620006445760405162461bcd60e51b815260206004820152602760248201527f4177617264656520576f726b20457870657269656e636520646f6573206e6f746044820152661032bc34b9ba1760c91b606482015260840162000370565b600060038660405162000658919062001282565b90815260200160405180910390208560405162000676919062001282565b908152604051908190036020018120546203784f60ec1b82526001600160a01b031691508190633784f00090620006b590879060040190815260200190565b600060405180830381600087803b158015620006d057600080fd5b505af1158015620006e5573d6000803e3d6000fd5b50505050505050505050565b6002546001600160a01b031632146200071e5760405162461bcd60e51b81526004016200037090620012d1565b83600060058260405162000733919062001282565b908152604051908190036020019020546001600160a01b03169050806200076e5760405162461bcd60e51b81526004016200037090620012a0565b60025460405160009182918891889188916001600160a01b031690620007949062000c9a565b620007a4959493929190620013a5565b604051809103906000f080158015620007c1573d6000803e3d6000fd5b50905080600388604051620007d7919062001282565b908152602001604051809103902087604051620007f5919062001282565b908152602001604051809103902060006101000a8154816001600160a01b0302191690836001600160a01b0316021790555060006005886040516200083b919062001282565b90815260405190819003602001812054632367850560e01b82526001600160a01b0316915081906323678505906200087890859060040162000d49565b600060405180830381600087803b1580156200089357600080fd5b505af1158015620008a8573d6000803e3d6000fd5b505050505050505050505050565b6002546001600160a01b03163214620008e35760405162461bcd60e51b81526004016200037090620012d1565b826000600582604051620008f8919062001282565b908152604051908190036020019020546001600160a01b0316905080620009335760405162461bcd60e51b81526004016200037090620012a0565b83600060048260405162000948919062001282565b908152604051908190036020019020546001600160a01b0316905080620009b05760405162461bcd60e51b815260206004820152601b60248201527a21b2b93a34b334b1b0ba32903237b2b9903737ba1032bc34b9ba1760291b604482015260640162000370565b6000600487604051620009c4919062001282565b908152604051908190036020018120546001600160a01b03169150600090600590620009f2908b9062001282565b9081526040519081900360200181205463a15ab08d60e01b82526001600160a01b0390811692506000919084169063a15ab08d9062000a389085908c9060040162001407565b6020604051808303816000875af115801562000a58573d6000803e3d6000fd5b505050506040513d601f19601f8201168201806040525081019062000a7e91906200142d565b604051636a11781160e11b81526001600160a01b038581166004830152602482018390529192509083169063d422f02290604401600060405180830381600087803b15801562000acd57600080fd5b505af115801562000ae2573d6000803e3d6000fd5b5050505050505050505050505050565b6002546001600160a01b0316321462000b1f5760405162461bcd60e51b81526004016200037090620012d1565b60025460405160009185918591859185916001600160a01b03169062000b459062000ca8565b62000b5595949392919062001447565b604051809103906000f08015801562000b72573d6000803e3d6000fd5b5090508060048460405162000b88919062001282565b90815260405190819003602001902080546001600160a01b03929092166001600160a01b031990921691909117905550505050565b6002546001600160a01b0316321462000bea5760405162461bcd60e51b81526004016200037090620012d1565b805183511462000c2d5760405162461bcd60e51b815260206004820152600d60248201526c24b73b30b634b2103230ba309760991b604482015260640162000370565b60005b835181101562000c945762000c7f84828151811062000c535762000c53620014b7565b60200260200101518484848151811062000c715762000c71620014b7565b6020026020010151620008b6565b8062000c8b81620014cd565b91505062000c30565b50505050565b6106e980620014f883390190565b61211b8062001be183390190565b60005b8381101562000cd357818101518382015260200162000cb9565b8381111562000c945750506000910152565b6000815180845262000cff81602086016020860162000cb6565b601f01601f19169290920160200192915050565b60208152600062000d28602083018462000ce5565b9392505050565b60006020828403121562000d4257600080fd5b5035919050565b6001600160a01b0391909116815260200190565b634e487b7160e01b600052604160045260246000fd5b604051601f8201601f191681016001600160401b038111828210171562000d9e5762000d9e62000d5d565b604052919050565b600082601f83011262000db857600080fd5b81356001600160401b0381111562000dd45762000dd462000d5d565b62000de9601f8201601f191660200162000d73565b81815284602083860101111562000dff57600080fd5b816020850160208301376000918101602001919091529392505050565b60006020828403121562000e2f57600080fd5b81356001600160401b0381111562000e4657600080fd5b62000e548482850162000da6565b949350505050565b6000806040838503121562000e7057600080fd5b82356001600160401b038082111562000e8857600080fd5b62000e968683870162000da6565b9350602085013591508082111562000ead57600080fd5b5062000ebc8582860162000da6565b9150509250929050565b6000806040838503121562000eda57600080fd5b82356001600160401b0381111562000ef157600080fd5b62000eff8582860162000da6565b92505060208301356001600160a01b038116811462000f1d57600080fd5b809150509250929050565b6020808252825182820181905260009190848201906040850190845b8181101562000f6b5783516001600160a01b03168352928401929184019160010162000f44565b50909695505050505050565b60008060006060848603121562000f8d57600080fd5b83356001600160401b038082111562000fa557600080fd5b62000fb38783880162000da6565b9450602086013591508082111562000fca57600080fd5b5062000fd98682870162000da6565b925050604084013590509250925092565b600080600080608085870312156200100157600080fd5b84356001600160401b03808211156200101957600080fd5b620010278883890162000da6565b955060208701359150808211156200103e57600080fd5b6200104c8883890162000da6565b945060408701359150808211156200106357600080fd5b50620010728782880162000da6565b949793965093946060013593505050565b6000806000606084860312156200109957600080fd5b83356001600160401b0380821115620010b157600080fd5b620010bf8783880162000da6565b94506020860135915080821115620010d657600080fd5b620010e48783880162000da6565b93506040860135915080821115620010fb57600080fd5b506200110a8682870162000da6565b9150509250925092565b600082601f8301126200112657600080fd5b813560206001600160401b038083111562001145576200114562000d5d565b8260051b6200115683820162000d73565b93845285810183019383810190888611156200117157600080fd5b84880192505b85831015620011b257823584811115620011915760008081fd5b620011a18a87838c010162000da6565b835250918401919084019062001177565b98975050505050505050565b600080600060608486031215620011d457600080fd5b83356001600160401b0380821115620011ec57600080fd5b620011fa8783880162001114565b945060208601359150808211156200121157600080fd5b6200121f8783880162000da6565b935060408601359150808211156200123657600080fd5b506200110a8682870162001114565b600181811c908216806200125a57607f821691505b602082108114156200127c57634e487b7160e01b600052602260045260246000fd5b50919050565b600082516200129681846020870162000cb6565b9190910192915050565b60208082526017908201527620bbb0b93232b2903237b2b9903737ba1032bc34b9ba1760491b604082015260600190565b6020808252601290820152712ab730baba3437b934b9b2b2103ab9b2b91760711b604082015260600190565b8054600090600181811c90808316806200131857607f831692505b60208084108214156200133b57634e487b7160e01b600052602260045260246000fd5b838852602088018280156200135957600181146200136b5762001398565b60ff1987168252828201975062001398565b60008981526020902060005b87811015620013925781548482015290860190840162001377565b83019850505b5050505050505092915050565b60a081526000620013ba60a0830188620012fd565b8281036020840152620013ce818862000ce5565b90508281036040840152620013e4818762000ce5565b606084019590955250506001600160a01b03919091166080909101529392505050565b6001600160a01b038316815260406020820181905260009062000e549083018462000ce5565b6000602082840312156200144057600080fd5b5051919050565b60a0815260006200145c60a083018862000ce5565b828103602084015262001470818862000ce5565b9050828103604084015262001486818762000ce5565b905082810360608401526200149c8186620012fd565b91505060018060a01b03831660808301529695505050505050565b634e487b7160e01b600052603260045260246000fd5b6000600019821415620014f057634e487b7160e01b600052601160045260246000fd5b506001019056fe608060405234801561001057600080fd5b506040516106e93803806106e983398101604081905261002f916101f4565b8451610042906001906020880190610099565b508351610056906002906020870190610099565b50825161006a906003906020860190610099565b50600491909155600080546001600160a01b0319166001600160a01b03909216919091179055506102e3915050565b8280546100a5906102a8565b90600052602060002090601f0160209004810192826100c7576000855561010d565b82601f106100e057805160ff191683800117855561010d565b8280016001018555821561010d579182015b8281111561010d5782518255916020019190600101906100f2565b5061011992915061011d565b5090565b5b80821115610119576000815560010161011e565b634e487b7160e01b600052604160045260246000fd5b600082601f83011261015957600080fd5b81516001600160401b038082111561017357610173610132565b604051601f8301601f19908116603f0116810190828211818310171561019b5761019b610132565b816040528381526020925086838588010111156101b757600080fd5b600091505b838210156101d957858201830151818301840152908201906101bc565b838211156101ea5760008385830101525b9695505050505050565b600080600080600060a0868803121561020c57600080fd5b85516001600160401b038082111561022357600080fd5b61022f89838a01610148565b9650602088015191508082111561024557600080fd5b61025189838a01610148565b9550604088015191508082111561026757600080fd5b5061027488828901610148565b60608801516080890151919550935090506001600160a01b038116811461029a57600080fd5b809150509295509295909350565b600181811c908216806102bc57607f821691505b602082108114156102dd57634e487b7160e01b600052602260045260246000fd5b50919050565b6103f7806102f26000396000f3fe608060405234801561001057600080fd5b50600436106100415760003560e01c80633784f00014610046578063565974d31461005b578063f851a4401461007e575b600080fd5b6100596100543660046102c6565b6100a9565b005b610063610101565b6040516100759695949392919061032c565b60405180910390f35b600054610091906001600160a01b031681565b6040516001600160a01b039091168152602001610075565b6000546001600160a01b031632146100fc5760405162461bcd60e51b81526020600482015260126024820152712ab730baba3437b934b9b2b2103ab9b2b91760711b604482015260640160405180910390fd5b600555565b60018054819061011090610386565b80601f016020809104026020016040519081016040528092919081815260200182805461013c90610386565b80156101895780601f1061015e57610100808354040283529160200191610189565b820191906000526020600020905b81548152906001019060200180831161016c57829003601f168201915b50505050509080600101805461019e90610386565b80601f01602080910402602001604051908101604052809291908181526020018280546101ca90610386565b80156102175780601f106101ec57610100808354040283529160200191610217565b820191906000526020600020905b8154815290600101906020018083116101fa57829003601f168201915b50505050509080600201805461022c90610386565b80601f016020809104026020016040519081016040528092919081815260200182805461025890610386565b80156102a55780601f1061027a576101008083540402835291602001916102a5565b820191906000526020600020905b81548152906001019060200180831161028857829003601f168201915b50505050600383015460048401546005909401549293909290915060ff1686565b6000602082840312156102d857600080fd5b5035919050565b6000815180845260005b81811015610305576020818501810151868301820152016102e9565b81811115610317576000602083870101525b50601f01601f19169290920160200192915050565b60c08152600061033f60c08301896102df565b828103602084015261035181896102df565b9050828103604084015261036581886102df565b606084019690965250506080810192909252151560a0909101529392505050565b600181811c9082168061039a57607f821691505b602082108114156103bb57634e487b7160e01b600052602260045260246000fd5b5091905056fea2646970667358221220d8d0623a5ec857d2e4793cef277638ee1e0f73ebc21e2d25355703507bc3fa4c64736f6c634300080c003360806040523480156200001157600080fd5b506040516200211b3803806200211b833981016040819052620000349162000267565b84604051806040016040528060088152602001674372656469626c7960c01b81525081600090805190602001906200006e929190620000f4565b50805162000084906001906020840190620000f4565b505084516200009c9150600c906020870190620000f4565b508251620000b290600d906020860190620000f4565b508151620000c890600e906020850190620000f4565b50600f80546001600160a01b0319166001600160a01b0392909216919091179055506200038192505050565b828054620001029062000344565b90600052602060002090601f01602090048101928262000126576000855562000171565b82601f106200014157805160ff191683800117855562000171565b8280016001018555821562000171579182015b828111156200017157825182559160200191906001019062000154565b506200017f92915062000183565b5090565b5b808211156200017f576000815560010162000184565b634e487b7160e01b600052604160045260246000fd5b600082601f830112620001c257600080fd5b81516001600160401b0380821115620001df57620001df6200019a565b604051601f8301601f19908116603f011681019082821181831017156200020a576200020a6200019a565b816040528381526020925086838588010111156200022757600080fd5b600091505b838210156200024b57858201830151818301840152908201906200022c565b838211156200025d5760008385830101525b9695505050505050565b600080600080600060a086880312156200028057600080fd5b85516001600160401b03808211156200029857600080fd5b620002a689838a01620001b0565b96506020880151915080821115620002bd57600080fd5b620002cb89838a01620001b0565b95506040880151915080821115620002e257600080fd5b620002f089838a01620001b0565b945060608801519150808211156200030757600080fd5b506200031688828901620001b0565b608088015190935090506001600160a01b03811681146200033657600080fd5b809150509295509295909350565b600181811c908216806200035957607f821691505b602082108114156200037b57634e487b7160e01b600052602260045260246000fd5b50919050565b611d8a80620003916000396000f3fe608060405234801561001057600080fd5b50600436106101075760003560e01c80630178fe3f1461010c57806301ffc9a71461013757806306fdde031461015a578063081812fc1461016f578063095ea7b31461019a57806318160ddd146101af57806323b872dd146101c15780632f745c59146101d457806342842e0e146101e7578063438b12d1146101fa5780634f6ccce7146102025780635629cb0b146102155780636352211e1461021d57806370a08231146102305780637284e4161461024357806395d89b411461024b578063a15ab08d14610253578063a22cb46514610266578063b88d4fde14610279578063c87b56dd1461028c578063e985e9c51461029f575b600080fd5b61011f61011a36600461179d565b6102b2565b60405161012e9392919061180e565b60405180910390f35b61014a61014536600461186a565b6103e9565b604051901515815260200161012e565b6101626103fa565b60405161012e9190611887565b61018261017d36600461179d565b61048c565b6040516001600160a01b03909116815260200161012e565b6101ad6101a83660046118b6565b610519565b005b6009545b60405190815260200161012e565b6101ad6101cf3660046118e0565b61062a565b6101b36101e23660046118b6565b61065b565b6101ad6101f53660046118e0565b6106f1565b61016261070c565b6101b361021036600461179d565b61079a565b61016261082d565b61018261022b36600461179d565b61083a565b6101b361023e36600461191c565b6108b1565b610162610938565b610162610945565b6101b36102613660046119c2565b610954565b6101ad610274366004611a23565b6109dc565b6101ad610287366004611a5f565b6109eb565b61016261029a36600461179d565b610a23565b61014a6102ad366004611ada565b610a2e565b60608060606102c084610a23565b600d600e8180546102d090611b0d565b80601f01602080910402602001604051908101604052809291908181526020018280546102fc90611b0d565b80156103495780601f1061031e57610100808354040283529160200191610349565b820191906000526020600020905b81548152906001019060200180831161032c57829003601f168201915b5050505050915080805461035c90611b0d565b80601f016020809104026020016040519081016040528092919081815260200182805461038890611b0d565b80156103d55780601f106103aa576101008083540402835291602001916103d5565b820191906000526020600020905b8154815290600101906020018083116103b857829003601f168201915b505050505090509250925092509193909250565b60006103f482610a5c565b92915050565b60606000805461040990611b0d565b80601f016020809104026020016040519081016040528092919081815260200182805461043590611b0d565b80156104825780601f1061045757610100808354040283529160200191610482565b820191906000526020600020905b81548152906001019060200180831161046557829003601f168201915b5050505050905090565b600061049782610a81565b6104fd5760405162461bcd60e51b815260206004820152602c60248201527f4552433732313a20617070726f76656420717565727920666f72206e6f6e657860448201526b34b9ba32b73a103a37b5b2b760a11b60648201526084015b60405180910390fd5b506000908152600460205260409020546001600160a01b031690565b60006105248261083a565b9050806001600160a01b0316836001600160a01b031614156105925760405162461bcd60e51b815260206004820152602160248201527f4552433732313a20617070726f76616c20746f2063757272656e74206f776e656044820152603960f91b60648201526084016104f4565b336001600160a01b03821614806105ae57506105ae8133610a2e565b61061b5760405162461bcd60e51b815260206004820152603860248201527f4552433732313a20617070726f76652063616c6c6572206973206e6f74206f776044820152771b995c881b9bdc88185c1c1c9bdd995908199bdc88185b1b60421b60648201526084016104f4565b6106258383610a9e565b505050565b6106343382610b0c565b6106505760405162461bcd60e51b81526004016104f490611b48565b610625838383610bd6565b6000610666836108b1565b82106106c85760405162461bcd60e51b815260206004820152602b60248201527f455243373231456e756d657261626c653a206f776e657220696e646578206f7560448201526a74206f6620626f756e647360a81b60648201526084016104f4565b506001600160a01b03919091166000908152600760209081526040808320938352929052205490565b610625838383604051806020016040528060008152506109eb565b600e805461071990611b0d565b80601f016020809104026020016040519081016040528092919081815260200182805461074590611b0d565b80156107925780601f1061076757610100808354040283529160200191610792565b820191906000526020600020905b81548152906001019060200180831161077557829003601f168201915b505050505081565b60006107a560095490565b82106108085760405162461bcd60e51b815260206004820152602c60248201527f455243373231456e756d657261626c653a20676c6f62616c20696e646578206f60448201526b7574206f6620626f756e647360a01b60648201526084016104f4565b6009828154811061081b5761081b611b99565b90600052602060002001549050919050565b600c805461071990611b0d565b6000818152600260205260408120546001600160a01b0316806103f45760405162461bcd60e51b815260206004820152602960248201527f4552433732313a206f776e657220717565727920666f72206e6f6e657869737460448201526832b73a103a37b5b2b760b91b60648201526084016104f4565b60006001600160a01b03821661091c5760405162461bcd60e51b815260206004820152602a60248201527f4552433732313a2062616c616e636520717565727920666f7220746865207a65604482015269726f206164647265737360b01b60648201526084016104f4565b506001600160a01b031660009081526003602052604090205490565b600d805461071990611b0d565b60606001805461040990611b0d565b600f546000906001600160a01b031632146109a65760405162461bcd60e51b81526020600482015260126024820152712ab730baba3437b934b9b2b2103ab9b2b91760711b60448201526064016104f4565b60006109b1600b5490565b90506109c1600b80546001019055565b6109cb8482610d6b565b6109d58184610e97565b9392505050565b6109e7338383610f22565b5050565b6109f53383610b0c565b610a115760405162461bcd60e51b81526004016104f490611b48565b610a1d84848484610fed565b50505050565b60606103f482611020565b6001600160a01b03918216600090815260056020908152604080832093909416825291909152205460ff1690565b60006001600160e01b0319821663780e9d6360e01b14806103f457506103f48261118f565b6000908152600260205260409020546001600160a01b0316151590565b600081815260046020526040902080546001600160a01b0319166001600160a01b0384169081179091558190610ad38261083a565b6001600160a01b03167f8c5be1e5ebec7d5bd14f71427d1e84f3dd0314c0f7b2291e5b200ac8c7c3b92560405160405180910390a45050565b6000610b1782610a81565b610b785760405162461bcd60e51b815260206004820152602c60248201527f4552433732313a206f70657261746f7220717565727920666f72206e6f6e657860448201526b34b9ba32b73a103a37b5b2b760a11b60648201526084016104f4565b6000610b838361083a565b9050806001600160a01b0316846001600160a01b03161480610bbe5750836001600160a01b0316610bb38461048c565b6001600160a01b0316145b80610bce5750610bce8185610a2e565b949350505050565b826001600160a01b0316610be98261083a565b6001600160a01b031614610c4d5760405162461bcd60e51b815260206004820152602560248201527f4552433732313a207472616e736665722066726f6d20696e636f72726563742060448201526437bbb732b960d91b60648201526084016104f4565b6001600160a01b038216610caf5760405162461bcd60e51b8152602060048201526024808201527f4552433732313a207472616e7366657220746f20746865207a65726f206164646044820152637265737360e01b60648201526084016104f4565b610cba8383836111df565b610cc5600082610a9e565b6001600160a01b0383166000908152600360205260408120805460019290610cee908490611bc5565b90915550506001600160a01b0382166000908152600360205260408120805460019290610d1c908490611bdc565b909155505060008181526002602052604080822080546001600160a01b0319166001600160a01b038681169182179092559151849391871691600080516020611d3583398151915291a4505050565b6001600160a01b038216610dc15760405162461bcd60e51b815260206004820181905260248201527f4552433732313a206d696e7420746f20746865207a65726f206164647265737360448201526064016104f4565b610dca81610a81565b15610e165760405162461bcd60e51b815260206004820152601c60248201527b115490cdcc8c4e881d1bdad95b88185b1c9958591e481b5a5b9d195960221b60448201526064016104f4565b610e22600083836111df565b6001600160a01b0382166000908152600360205260408120805460019290610e4b908490611bdc565b909155505060008181526002602052604080822080546001600160a01b0319166001600160a01b0386169081179091559051839290600080516020611d35833981519152908290a45050565b610ea082610a81565b610f035760405162461bcd60e51b815260206004820152602e60248201527f45524337323155524953746f726167653a2055524920736574206f66206e6f6e60448201526d32bc34b9ba32b73a103a37b5b2b760911b60648201526084016104f4565b6000828152600660209081526040909120825161062592840190611704565b816001600160a01b0316836001600160a01b03161415610f805760405162461bcd60e51b815260206004820152601960248201527822a9219b99189d1030b8383937bb32903a379031b0b63632b960391b60448201526064016104f4565b6001600160a01b03838116600081815260056020908152604080832094871680845294825291829020805460ff191686151590811790915591519182527f17307eab39ab6107e8899845ad3d59bd9653f200f220920489ca2b5937696c31910160405180910390a3505050565b610ff8848484610bd6565b611004848484846111ea565b610a1d5760405162461bcd60e51b81526004016104f490611bf4565b606061102b82610a81565b6110915760405162461bcd60e51b815260206004820152603160248201527f45524337323155524953746f726167653a2055524920717565727920666f72206044820152703737b732bc34b9ba32b73a103a37b5b2b760791b60648201526084016104f4565b600082815260066020526040812080546110aa90611b0d565b80601f01602080910402602001604051908101604052809291908181526020018280546110d690611b0d565b80156111235780601f106110f857610100808354040283529160200191611123565b820191906000526020600020905b81548152906001019060200180831161110657829003601f168201915b50505050509050600061114160408051602081019091526000815290565b9050805160001415611154575092915050565b81511561118657808260405160200161116e929190611c46565b60405160208183030381529060405292505050919050565b610bce846112e8565b60006001600160e01b031982166380ac58cd60e01b14806111c057506001600160e01b03198216635b5e139f60e01b145b806103f457506301ffc9a760e01b6001600160e01b03198316146103f4565b6106258383836113bf565b60006001600160a01b0384163b156112dd57604051630a85bd0160e11b81526001600160a01b0385169063150b7a029061122e903390899088908890600401611c75565b6020604051808303816000875af1925050508015611269575060408051601f3d908101601f1916820190925261126691810190611ca8565b60015b6112c3573d808015611297576040519150601f19603f3d011682016040523d82523d6000602084013e61129c565b606091505b5080516112bb5760405162461bcd60e51b81526004016104f490611bf4565b805181602001fd5b6001600160e01b031916630a85bd0160e11b149050610bce565b506001949350505050565b60606112f382610a81565b6113575760405162461bcd60e51b815260206004820152602f60248201527f4552433732314d657461646174613a2055524920717565727920666f72206e6f60448201526e3732bc34b9ba32b73a103a37b5b2b760891b60648201526084016104f4565b600061136e60408051602081019091526000815290565b9050600081511161138e57604051806020016040528060008152506109d5565b8061139884611477565b6040516020016113a9929190611c46565b6040516020818303038152906040529392505050565b6001600160a01b03831661141a5761141581600980546000838152600a60205260408120829055600182018355919091527f6e1540171b6c0c960b71a7020d9f60077f6af931a8bbf590da0223dacf75c7af0155565b61143d565b816001600160a01b0316836001600160a01b03161461143d5761143d8382611574565b6001600160a01b0382166114545761062581611611565b826001600160a01b0316826001600160a01b0316146106255761062582826116c0565b60608161149b5750506040805180820190915260018152600360fc1b602082015290565b8160005b81156114c557806114af81611cc5565b91506114be9050600a83611cf6565b915061149f565b6000816001600160401b038111156114df576114df611937565b6040519080825280601f01601f191660200182016040528015611509576020820181803683370190505b5090505b8415610bce5761151e600183611bc5565b915061152b600a86611d0a565b611536906030611bdc565b60f81b81838151811061154b5761154b611b99565b60200101906001600160f81b031916908160001a90535061156d600a86611cf6565b945061150d565b60006001611581846108b1565b61158b9190611bc5565b6000838152600860205260409020549091508082146115de576001600160a01b03841660009081526007602090815260408083208584528252808320548484528184208190558352600890915290208190555b5060009182526008602090815260408084208490556001600160a01b039094168352600781528383209183525290812055565b60095460009061162390600190611bc5565b6000838152600a60205260408120546009805493945090928490811061164b5761164b611b99565b90600052602060002001549050806009838154811061166c5761166c611b99565b6000918252602080832090910192909255828152600a909152604080822084905585825281205560098054806116a4576116a4611d1e565b6001900381819060005260206000200160009055905550505050565b60006116cb836108b1565b6001600160a01b039093166000908152600760209081526040808320868452825280832085905593825260089052919091209190915550565b82805461171090611b0d565b90600052602060002090601f0160209004810192826117325760008555611778565b82601f1061174b57805160ff1916838001178555611778565b82800160010185558215611778579182015b8281111561177857825182559160200191906001019061175d565b50611784929150611788565b5090565b5b808211156117845760008155600101611789565b6000602082840312156117af57600080fd5b5035919050565b60005b838110156117d15781810151838201526020016117b9565b83811115610a1d5750506000910152565b600081518084526117fa8160208601602086016117b6565b601f01601f19169290920160200192915050565b60608152600061182160608301866117e2565b828103602084015261183381866117e2565b9050828103604084015261184781856117e2565b9695505050505050565b6001600160e01b03198116811461186757600080fd5b50565b60006020828403121561187c57600080fd5b81356109d581611851565b6020815260006109d560208301846117e2565b80356001600160a01b03811681146118b157600080fd5b919050565b600080604083850312156118c957600080fd5b6118d28361189a565b946020939093013593505050565b6000806000606084860312156118f557600080fd5b6118fe8461189a565b925061190c6020850161189a565b9150604084013590509250925092565b60006020828403121561192e57600080fd5b6109d58261189a565b634e487b7160e01b600052604160045260246000fd5b60006001600160401b038084111561196757611967611937565b604051601f8501601f19908116603f0116810190828211818310171561198f5761198f611937565b816040528093508581528686860111156119a857600080fd5b858560208301376000602087830101525050509392505050565b600080604083850312156119d557600080fd5b6119de8361189a565b915060208301356001600160401b038111156119f957600080fd5b8301601f81018513611a0a57600080fd5b611a198582356020840161194d565b9150509250929050565b60008060408385031215611a3657600080fd5b611a3f8361189a565b915060208301358015158114611a5457600080fd5b809150509250929050565b60008060008060808587031215611a7557600080fd5b611a7e8561189a565b9350611a8c6020860161189a565b92506040850135915060608501356001600160401b03811115611aae57600080fd5b8501601f81018713611abf57600080fd5b611ace8782356020840161194d565b91505092959194509250565b60008060408385031215611aed57600080fd5b611af68361189a565b9150611b046020840161189a565b90509250929050565b600181811c90821680611b2157607f821691505b60208210811415611b4257634e487b7160e01b600052602260045260246000fd5b50919050565b60208082526031908201527f4552433732313a207472616e736665722063616c6c6572206973206e6f74206f6040820152701ddb995c881b9bdc88185c1c1c9bdd9959607a1b606082015260800190565b634e487b7160e01b600052603260045260246000fd5b634e487b7160e01b600052601160045260246000fd5b600082821015611bd757611bd7611baf565b500390565b60008219821115611bef57611bef611baf565b500190565b60208082526032908201527f4552433732313a207472616e7366657220746f206e6f6e20455243373231526560408201527131b2b4bb32b91034b6b83632b6b2b73a32b960711b606082015260800190565b60008351611c588184602088016117b6565b835190830190611c6c8183602088016117b6565b01949350505050565b6001600160a01b0385811682528416602082015260408101839052608060608201819052600090611847908301846117e2565b600060208284031215611cba57600080fd5b81516109d581611851565b6000600019821415611cd957611cd9611baf565b5060010190565b634e487b7160e01b600052601260045260246000fd5b600082611d0557611d05611ce0565b500490565b600082611d1957611d19611ce0565b500690565b634e487b7160e01b600052603160045260246000fdfeddf252ad1be2c89b69c2b068fc378daa952ba7f163c4a11628f55a4df523b3efa264697066735822122012e2f86cc82e01b5afc137ac2c077849ee137006b1f188d4c857140caa6c5fbf64736f6c634300080c0033a264697066735822122087123e4532e876ab51ac65e45e8307c19c9ffc42c4f3679479c79b95882bf62064736f6c634300080c0033",
  "immutableReferences": {},
  "source": "// SPDX-License-Identifier: UNLICENSED\r\n\r\npragma solidity ^0.8.0;\r\n\r\n// import 'hardhat/console.sol';\r\nimport './Certificate.sol';\r\nimport './Awardee.sol';\r\nimport './WorkExperience.sol';\r\n\r\ncontract Organisation {\r\n\r\n    string public name;\r\n    string public uen;\r\n    address public admin; // admin of this Organisation (the wallet address that is allowed to execute certain functions)\r\n\r\n    // What Work Experiences does this Awardee have in this Organisation?\r\n    // email => position => WorkExperience instance\r\n    mapping (string => mapping (string => WorkExperience)) awardeesWorkExperiences;\r\n\r\n    // What Certificates does this Awardee have in this Organisation?\r\n    // certificateId (or GroupId) => Certificate instance\r\n    mapping (string => Certificate) public certificateContracts;\r\n\r\n    // Which Awardee contract instance belongs to the email address?\r\n    // email => Awardee instance\r\n    mapping (string => Awardee) public awardees;\r\n\r\n    // List of Awardees registered in this Organisation\r\n    Awardee[] public allAwardees;\r\n\r\n    constructor(string memory _name, string memory _uen, address _admin) {\r\n        name = _name;\r\n        uen = _uen;\r\n        admin = _admin;\r\n    }\r\n\r\n    modifier onlyAdmin { // only the admin wallet address can execute the function\r\n        require(tx.origin == admin, \"Unauthorised user.\");\r\n        _;\r\n    }\r\n\r\n    modifier awardeeExists(string memory email) { // Awardee instance must exist in this Organisation instance\r\n        Awardee awardee = awardees[email];\r\n        require(address(awardee) != address(0), \"Awardee does not exist.\");\r\n        _;\r\n    }\r\n\r\n    modifier certificateExists(string memory certificateId) { // Certificate instance must exist in this Organisation instance\r\n        Certificate certificate = certificateContracts[certificateId];\r\n        require(address(certificate) != address(0), \"Certificate does not exist.\");\r\n        _;\r\n    }\r\n\r\n    // Add Awardee Instance\r\n    function addAwardee(\r\n        string memory email,\r\n        address awardeeContractAddress // CONTRACT ADDRESS of Awardee instance NOT WALLET ADDRESS of Awardee instance\r\n    ) public {\r\n        Awardee awardee = Awardee(awardeeContractAddress);\r\n        awardees[email] = awardee;\r\n        allAwardees.push(awardee);\r\n    }\r\n\r\n    // Update Email of Awardee Contract Instance\r\n    function updateEmail(\r\n        string memory oldEmail,\r\n        string memory newEmail\r\n    ) public awardeeExists(oldEmail) {\r\n        awardees[newEmail] = awardees[oldEmail];\r\n        delete awardees[oldEmail]; // delete old email mapping\r\n    }\r\n\r\n    // Create New Work Experience Contract Instance for Awardee Contract Instance\r\n    function addWorkExperience(\r\n        string memory email,\r\n        string memory position,\r\n        string memory description,\r\n        uint256 startDate\r\n    ) public onlyAdmin awardeeExists(email) {\r\n        WorkExperience workExperience = new WorkExperience(name, position, description, startDate, admin); // Create new Work Experience instance\r\n        awardeesWorkExperiences[email][position] = workExperience;\r\n        Awardee awardee = awardees[email];\r\n        awardee.addWorkExperience(address(workExperience)); // add Work Experince instance to Awardee instance\r\n    }\r\n\r\n    // Update End Date of Work Experience Contract Instance\r\n    function endWorkExperience(\r\n        string memory email,\r\n        string memory position,\r\n        uint256 endDate\r\n    ) public onlyAdmin awardeeExists(email) {\r\n        require (address(awardeesWorkExperiences[email][position]) != address(0), \"Awardee Work Experience does not exist.\"); // requires Work Experience instance to exist\r\n        WorkExperience workExperience = awardeesWorkExperiences[email][position];\r\n        workExperience.setEndDate(endDate); // update end date of Work Experience instance\r\n    }\r\n\r\n    // Create New Certificate Contract Instance\r\n    function addCertificate(\r\n        string memory certificateName,\r\n        string memory certificateId,\r\n        string memory description\r\n    ) public onlyAdmin {\r\n        Certificate certificate = new Certificate(certificateName, certificateId, description, name, admin);\r\n        certificateContracts[certificateId] = certificate;\r\n    }\r\n\r\n    // Award Certificate to Awardee\r\n    // Mints Certificate NFT to Awardee\r\n    function awardCertificate(\r\n        string memory email,\r\n        string memory certificateId,\r\n        string memory ipfsHash // unique IPFS Hash containing certificate data\r\n    ) public onlyAdmin awardeeExists(email) certificateExists(certificateId){\r\n        Certificate certificate = certificateContracts[certificateId];\r\n        Awardee awardee = awardees[email];\r\n        uint256 tokenId = certificate.create(address(awardee), ipfsHash); // mint Certificate NFT to Awardee with the unique IPFS hash\r\n        awardee.addCertificate(address(certificate), tokenId); // add Certificate NFT to Awardee instance\r\n    }\r\n\r\n    // Award Unique Certifcate NFTs to Each Awardee\r\n    // Calls awardCertificates() method repeatedly\r\n    function awardCertificates(\r\n        string[] memory emails,\r\n        string memory certificateId,\r\n        string[] memory ipfsHashs\r\n    ) public onlyAdmin {\r\n        require(emails.length == ipfsHashs.length, \"Invalid data.\"); // requires all array to be of equal length\r\n        for (uint i = 0; i < emails.length; i++) {\r\n            awardCertificate(emails[i], certificateId, ipfsHashs[i]);\r\n        }\r\n    }\r\n\r\n    // Getter Functions\r\n    function getAwardees() public view returns (Awardee[] memory) {\r\n        return allAwardees;\r\n    }\r\n\r\n}",
  "sourcePath": "D:\\modules\\credibly-fe\\ethereum\\contracts\\Organisation.sol",
  "compiler": {
    "name": "solc",
    "version": "0.8.12+commit.f00d7308.Emscripten.clang"
  },
  "schemaVersion": "3.4.4",
  "updatedAt": "2022-04-08T15:24:29.258Z",
  "devdoc": {
    "kind": "dev",
    "methods": {},
    "version": 1
  },
  "userdoc": {
    "kind": "user",
    "methods": {},
    "version": 1
  }
}