{
  "contractName": "System",
  "abi": [
    {
      "inputs": [],
      "stateMutability": "nonpayable",
      "type": "constructor"
    },
    {
      "inputs": [
        {
          "internalType": "string",
          "name": "",
          "type": "string"
        }
      ],
      "name": "awardees",
      "outputs": [
        {
          "internalType": "contract Awardee",
          "name": "",
          "type": "address"
        }
      ],
      "stateMutability": "view",
      "type": "function"
    },
    {
      "inputs": [
        {
          "internalType": "string",
          "name": "",
          "type": "string"
        }
      ],
      "name": "organisations",
      "outputs": [
        {
          "internalType": "contract Organisation",
          "name": "",
          "type": "address"
        }
      ],
      "stateMutability": "view",
      "type": "function"
    },
    {
      "inputs": [
        {
          "internalType": "string",
          "name": "name",
          "type": "string"
        },
        {
          "internalType": "string",
          "name": "uen",
          "type": "string"
        },
        {
          "internalType": "address",
          "name": "admin",
          "type": "address"
        }
      ],
      "name": "registerOrganisation",
      "outputs": [],
      "stateMutability": "nonpayable",
      "type": "function"
    },
    {
      "inputs": [
        {
          "internalType": "string",
          "name": "email",
          "type": "string"
        },
        {
          "internalType": "string",
          "name": "name",
          "type": "string"
        }
      ],
      "name": "registerAwardee",
      "outputs": [
        {
          "internalType": "contract Awardee",
          "name": "",
          "type": "address"
        }
      ],
      "stateMutability": "nonpayable",
      "type": "function"
    },
    {
      "inputs": [
        {
          "internalType": "string",
          "name": "uen",
          "type": "string"
        },
        {
          "internalType": "string",
          "name": "email",
          "type": "string"
        },
        {
          "internalType": "string",
          "name": "name",
          "type": "string"
        }
      ],
      "name": "addAwardeeToOrganisation",
      "outputs": [],
      "stateMutability": "nonpayable",
      "type": "function"
    },
    {
      "inputs": [
        {
          "internalType": "string",
          "name": "email",
          "type": "string"
        },
        {
          "internalType": "string",
          "name": "name",
          "type": "string"
        }
      ],
      "name": "linkAwardee",
      "outputs": [],
      "stateMutability": "nonpayable",
      "type": "function"
    },
    {
      "inputs": [
        {
          "internalType": "string",
          "name": "oldEmail",
          "type": "string"
        },
        {
          "internalType": "string",
          "name": "newEmail",
          "type": "string"
        }
      ],
      "name": "changeEmail",
      "outputs": [],
      "stateMutability": "nonpayable",
      "type": "function"
    }
  ],
  "bytecode": "0x608060405234801561001057600080fd5b50614e38806100206000396000f3fe60806040523480156200001157600080fd5b5060043610620000755760003560e01c8062389819146200007a5780631f2d8626146200009357806363db7fb114620000c2578063774a4bb414620000f95780637cac6dce14620001105780639ab2a32a1462000147578063e913682a146200015e575b600080fd5b620000916200008b366004620007d6565b62000175565b005b620000aa620000a4366004620007d6565b6200032e565b604051620000b9919062000840565b60405180910390f35b620000aa620000d336600462000854565b80516020818301810180516000825292820191909301209152546001600160a01b031681565b620000916200010a366004620007d6565b62000422565b620000aa6200012136600462000854565b80516020818301810180516001825292820191909301209152546001600160a01b031681565b620000916200015836600462000894565b6200049a565b620000916200016f36600462000925565b620005f3565b60006001600160a01b0316600183604051620001929190620009e3565b908152604051908190036020019020546001600160a01b03161415620001f95760405162461bcd60e51b815260206004820152601760248201527620bbb0b93232b2903237b2b9903737ba1032bc34b9ba1760491b60448201526064015b60405180910390fd5b6001826040516200020b9190620009e3565b9081526040519081900360200181205463f06099af60e01b82526001600160a01b03169063f06099af906200024590849060040162000a2f565b600060405180830381600087803b1580156200026057600080fd5b505af115801562000275573d6000803e3d6000fd5b505050506001826040516200028b9190620009e3565b908152604051908190036020018120546001600160a01b031690600190620002b5908490620009e3565b908152602001604051809103902060006101000a8154816001600160a01b0302191690836001600160a01b031602179055506000600183604051620002fb9190620009e3565b90815260405190819003602001902080546001600160a01b03929092166001600160a01b03199092169190911790555050565b6000806001600160a01b03166001846040516200034c9190620009e3565b908152604051908190036020019020546001600160a01b03161415620003ef57600083836040516200037e9062000710565b6200038b92919062000a4b565b604051809103906000f080158015620003a8573d6000803e3d6000fd5b50905080600185604051620003be9190620009e3565b90815260405190819003602001902080546001600160a01b03929092166001600160a01b0319909216919091179055505b600183604051620004019190620009e3565b908152604051908190036020019020546001600160a01b0316905092915050565b60006200043083836200032e565b60405163560d1c3560e11b81529091506001600160a01b0382169063ac1a386a906200046190329060040162000840565b600060405180830381600087803b1580156200047c57600080fd5b505af115801562000491573d6000803e3d6000fd5b50505050505050565b60006001600160a01b0316600084604051620004b79190620009e3565b908152604051908190036020019020546001600160a01b03161415620005565760405162461bcd60e51b815260206004820152604760248201527f4f7267616e69736174696f6e20646f6573206e6f74206578697374207379737460448201527f656d2c20706c65617365207265676973746572206f7267616e69736174696f6e606482015266103334b939ba1760c91b608482015260a401620001f0565b60006200056483836200032e565b905060008085604051620005799190620009e3565b908152604051908190036020018120546316e5466960e21b82526001600160a01b031691508190635b9519a490620005b8908790869060040162000a7d565b600060405180830381600087803b158015620005d357600080fd5b505af1158015620005e8573d6000803e3d6000fd5b505050505050505050565b60006001600160a01b0316600083604051620006109190620009e3565b908152604051908190036020019020546001600160a01b031614620006875760405162461bcd60e51b815260206004820152602660248201527f4f7267616e69736174696f6e20616c72656164792065786973747320696e20736044820152653cb9ba32b69760d11b6064820152608401620001f0565b60008383836040516200069a906200071e565b620006a89392919062000aa9565b604051809103906000f080158015620006c5573d6000803e3d6000fd5b50905080600084604051620006db9190620009e3565b90815260405190819003602001902080546001600160a01b03929092166001600160a01b031990921691909117905550505050565b610cb18062000aec83390190565b613666806200179d83390190565b634e487b7160e01b600052604160045260246000fd5b600082601f8301126200075457600080fd5b81356001600160401b03808211156200077157620007716200072c565b604051601f8301601f19908116603f011681019082821181831017156200079c576200079c6200072c565b81604052838152866020858801011115620007b657600080fd5b836020870160208301376000602085830101528094505050505092915050565b60008060408385031215620007ea57600080fd5b82356001600160401b03808211156200080257600080fd5b620008108683870162000742565b935060208501359150808211156200082757600080fd5b50620008368582860162000742565b9150509250929050565b6001600160a01b0391909116815260200190565b6000602082840312156200086757600080fd5b81356001600160401b038111156200087e57600080fd5b6200088c8482850162000742565b949350505050565b600080600060608486031215620008aa57600080fd5b83356001600160401b0380821115620008c257600080fd5b620008d08783880162000742565b94506020860135915080821115620008e757600080fd5b620008f58783880162000742565b935060408601359150808211156200090c57600080fd5b506200091b8682870162000742565b9150509250925092565b6000806000606084860312156200093b57600080fd5b83356001600160401b03808211156200095357600080fd5b620009618783880162000742565b945060208601359150808211156200097857600080fd5b50620009878682870162000742565b92505060408401356001600160a01b0381168114620009a557600080fd5b809150509250925092565b60005b83811015620009cd578181015183820152602001620009b3565b83811115620009dd576000848401525b50505050565b60008251620009f7818460208701620009b0565b9190910192915050565b6000815180845262000a1b816020860160208601620009b0565b601f01601f19169290920160200192915050565b60208152600062000a44602083018462000a01565b9392505050565b60408152600062000a60604083018562000a01565b828103602084015262000a74818562000a01565b95945050505050565b60408152600062000a92604083018562000a01565b905060018060a01b03831660208301529392505050565b60608152600062000abe606083018662000a01565b828103602084015262000ad2818662000a01565b91505060018060a01b038316604083015294935050505056fe60806040523480156200001157600080fd5b5060405162000cb138038062000cb18339810160408190526200003491620001ea565b81516200004990600090602085019062000077565b5080516200005f90600190602084019062000077565b50506005805461ff0019166101001790555062000291565b828054620000859062000254565b90600052602060002090601f016020900481019282620000a95760008555620000f4565b82601f10620000c457805160ff1916838001178555620000f4565b82800160010185558215620000f4579182015b82811115620000f4578251825591602001919060010190620000d7565b506200010292915062000106565b5090565b5b8082111562000102576000815560010162000107565b634e487b7160e01b600052604160045260246000fd5b600082601f8301126200014557600080fd5b81516001600160401b03808211156200016257620001626200011d565b604051601f8301601f19908116603f011681019082821181831017156200018d576200018d6200011d565b81604052838152602092508683858801011115620001aa57600080fd5b600091505b83821015620001ce5785820183015181830184015290820190620001af565b83821115620001e05760008385830101525b9695505050505050565b60008060408385031215620001fe57600080fd5b82516001600160401b03808211156200021657600080fd5b620002248683870162000133565b935060208501519150808211156200023b57600080fd5b506200024a8582860162000133565b9150509250929050565b600181811c908216806200026957607f821691505b602082108114156200028b57634e487b7160e01b600052602260045260246000fd5b50919050565b610a1080620002a16000396000f3fe608060405234801561001057600080fd5b50600436106100ba5760003560e01c806306fdde03146100bf578063073469b0146100dd5780631f5ddb4f14610110578063236785051461012557806328c30c07146101875780636ad5b3ea1461019a57806370b2afa6146101c557806377f134c1146101d2578063820e93f5146101e5578063ac1a386a146101ed578063cf445b8614610200578063d422f02214610213578063f06099af146102b6578063ffad62ca146102c9575b600080fd5b6100c76102de565b6040516100d49190610729565b60405180910390f35b6101006100eb36600461079a565b60066020526000908152604090205460ff1681565b60405190151581526020016100d4565b61011861036c565b6040516100d491906107bc565b61018561013336600461079a565b600480546001810182556000919091527f8a35acfbc15ff81a39ae7d344fd709f28e8600b4aa8c65c6b64bfe7fe36bd19b0180546001600160a01b0319166001600160a01b0392909216919091179055565b005b610185610195366004610814565b610457565b6002546101ad906001600160a01b031681565b6040516001600160a01b0390911681526020016100d4565b6005546101009060ff1681565b6101856101e036600461079a565b61049b565b6100c76104e6565b6101856101fb36600461079a565b6104f3565b61018561020e36600461079a565b610532565b610185610221366004610836565b604080518082019091526001600160a01b039283168152602081019182526003805460018101825560009190915290517fc2575a0e9e593c00f959f8c92f12db2869c3395a3b0502d05e2516446f71f85b600290920291820180546001600160a01b0319169190941617909255517fc2575a0e9e593c00f959f8c92f12db2869c3395a3b0502d05e2516446f71f85c90910155565b6101856102c4366004610876565b610580565b6102d16105c1565b6040516100d49190610926565b600180546102eb90610973565b80601f016020809104026020016040519081016040528092919081815260200182805461031790610973565b80156103645780601f1061033957610100808354040283529160200191610364565b820191906000526020600020905b81548152906001019060200180831161034757829003601f168201915b505050505081565b60055460609060ff16156103e45760055460ff610100909104161515600114806103a057506002546001600160a01b031632145b806103bf57503260009081526006602052604090205460ff1615156001145b6103e45760405162461bcd60e51b81526004016103db906109ae565b60405180910390fd5b6003805480602002602001604051908101604052809291908181526020016000905b8282101561044e576000848152602090819020604080518082019091526002850290910180546001600160a01b03168252600190810154828401529083529092019101610406565b50505050905090565b6002546001600160a01b031632146104815760405162461bcd60e51b81526004016103db906109ae565b600580549115156101000261ff0019909216919091179055565b6002546001600160a01b031632146104c55760405162461bcd60e51b81526004016103db906109ae565b6001600160a01b03166000908152600660205260409020805460ff19169055565b600080546102eb90610973565b60055460ff161561050357600080fd5b600280546001600160a01b0319166001600160a01b03929092169190911790556005805460ff19166001179055565b6002546001600160a01b0316321461055c5760405162461bcd60e51b81526004016103db906109ae565b6001600160a01b03166000908152600660205260409020805460ff19166001179055565b6002546001600160a01b031632146105aa5760405162461bcd60e51b81526004016103db906109ae565b80516105bd906000906020840190610690565b5050565b60055460609060ff16156106305760055460ff610100909104161515600114806105f557506002546001600160a01b031632145b8061061457503260009081526006602052604090205460ff1615156001145b6106305760405162461bcd60e51b81526004016103db906109ae565b600480548060200260200160405190810160405280929190818152602001828054801561068657602002820191906000526020600020905b81546001600160a01b03168152600190910190602001808311610668575b5050505050905090565b82805461069c90610973565b90600052602060002090601f0160209004810192826106be5760008555610704565b82601f106106d757805160ff1916838001178555610704565b82800160010185558215610704579182015b828111156107045782518255916020019190600101906106e9565b50610710929150610714565b5090565b5b808211156107105760008155600101610715565b600060208083528351808285015260005b818110156107565785810183015185820160400152820161073a565b81811115610768576000604083870101525b50601f01601f1916929092016040019392505050565b80356001600160a01b038116811461079557600080fd5b919050565b6000602082840312156107ac57600080fd5b6107b58261077e565b9392505050565b602080825282518282018190526000919060409081850190868401855b8281101561080757815180516001600160a01b031685528601518685015292840192908501906001016107d9565b5091979650505050505050565b60006020828403121561082657600080fd5b813580151581146107b557600080fd5b6000806040838503121561084957600080fd5b6108528361077e565b946020939093013593505050565b634e487b7160e01b600052604160045260246000fd5b60006020828403121561088857600080fd5b81356001600160401b038082111561089f57600080fd5b818401915084601f8301126108b357600080fd5b8135818111156108c5576108c5610860565b604051601f8201601f19908116603f011681019083821181831017156108ed576108ed610860565b8160405282815287602084870101111561090657600080fd5b826020860160208301376000928101602001929092525095945050505050565b6020808252825182820181905260009190848201906040850190845b818110156109675783516001600160a01b031683529284019291840191600101610942565b50909695505050505050565b600181811c9082168061098757607f821691505b602082108114156109a857634e487b7160e01b600052602260045260246000fd5b50919050565b6020808252601290820152712ab730baba3437b934b9b2b2103ab9b2b91760711b60408201526060019056fea264697066735822122020f9d5951a1ba7ddd1d72f62157b856ae3024b11ca28ae2ddc48d538bf22f83864736f6c634300080c003360806040523480156200001157600080fd5b5060405162003666380380620036668339810160408190526200003491620001fc565b82516200004990600090602086019062000089565b5081516200005f90600190602085019062000089565b50600280546001600160a01b0319166001600160a01b039290921691909117905550620002c69050565b828054620000979062000289565b90600052602060002090601f016020900481019282620000bb576000855562000106565b82601f10620000d657805160ff191683800117855562000106565b8280016001018555821562000106579182015b8281111562000106578251825591602001919060010190620000e9565b506200011492915062000118565b5090565b5b8082111562000114576000815560010162000119565b634e487b7160e01b600052604160045260246000fd5b600082601f8301126200015757600080fd5b81516001600160401b03808211156200017457620001746200012f565b604051601f8301601f19908116603f011681019082821181831017156200019f576200019f6200012f565b81604052838152602092508683858801011115620001bc57600080fd5b600091505b83821015620001e05785820183015181830184015290820190620001c1565b83821115620001f25760008385830101525b9695505050505050565b6000806000606084860312156200021257600080fd5b83516001600160401b03808211156200022a57600080fd5b620002388783880162000145565b945060208601519150808211156200024f57600080fd5b506200025e8682870162000145565b604086015190935090506001600160a01b03811681146200027e57600080fd5b809150509250925092565b600181811c908216806200029e57607f821691505b60208210811415620002c057634e487b7160e01b600052602260045260246000fd5b50919050565b61339080620002d66000396000f3fe60806040523480156200001157600080fd5b50600436106200008e5760003560e01c806306fdde031462000093578063145b8eb314620000b55780632d7cb52a14620000fb5780635b9519a414620001055780637cac6dce146200011e57806392ad8eec14620001555780639f560d89146200016c578063ac9e57601462000183578063f851a440146200019a575b600080fd5b6200009d620001ae565b604051620000ac9190620007ad565b60405180910390f35b620000ec620000c636600462000873565b80516020818301810180516004825292820191909301209152546001600160a01b031681565b604051620000ac9190620008b3565b6200009d62000244565b6200011c62000116366004620008c7565b62000253565b005b620000ec6200012f36600462000873565b80516020818301810180516005825292820191909301209152546001600160a01b031681565b6200011c6200016636600462000929565b62000299565b6200011c6200017d366004620009c2565b6200043b565b6200011c62000194366004620009c2565b62000677565b600254620000ec906001600160a01b031681565b60008054620001bd9062000a53565b80601f0160208091040260200160405190810160405280929190818152602001828054620001eb9062000a53565b80156200023c5780601f1062000210576101008083540402835291602001916200023c565b820191906000526020600020905b8154815290600101906020018083116200021e57829003601f168201915b505050505081565b60018054620001bd9062000a53565b8060058360405162000266919062000a90565b90815260405190819003602001902080546001600160a01b03929092166001600160a01b03199092169190911790555050565b6002546001600160a01b03163214620002cf5760405162461bcd60e51b8152600401620002c69062000aae565b60405180910390fd5b836000600582604051620002e4919062000a90565b908152604051908190036020019020546001600160a01b03169050806200031f5760405162461bcd60e51b8152600401620002c69062000ada565b600080868686604051620003339062000730565b62000342949392919062000bb3565b604051809103906000f0801580156200035f573d6000803e3d6000fd5b50905060038760405162000374919062000a90565b908152604051602091819003820181208054600181018255600091825292812090920180546001600160a01b0319166001600160a01b038516179055600590620003c0908a9062000a90565b90815260405190819003602001812054632367850560e01b82526001600160a01b031691508190632367850590620003fd908590600401620008b3565b600060405180830381600087803b1580156200041857600080fd5b505af11580156200042d573d6000803e3d6000fd5b505050505050505050505050565b6002546001600160a01b03163214620004685760405162461bcd60e51b8152600401620002c69062000aae565b8260006005826040516200047d919062000a90565b908152604051908190036020019020546001600160a01b0316905080620004b85760405162461bcd60e51b8152600401620002c69062000ada565b836000600482604051620004cd919062000a90565b908152604051908190036020019020546001600160a01b0316905080620005355760405162461bcd60e51b815260206004820152601b60248201527a21b2b93a34b334b1b0ba32903237b2b9903737ba1032bc34b9ba1760291b6044820152606401620002c6565b600060048760405162000549919062000a90565b908152604051908190036020018120546001600160a01b0316915060009060059062000577908b9062000a90565b9081526040519081900360200181205463a15ab08d60e01b82526001600160a01b0390811692506000919084169063a15ab08d90620005bd9085908c9060040162000c04565b6020604051808303816000875af1158015620005dd573d6000803e3d6000fd5b505050506040513d601f19601f8201168201806040525081019062000603919062000c2a565b604051636a11781160e11b81526001600160a01b038581166004830152602482018390529192509083169063d422f02290604401600060405180830381600087803b1580156200065257600080fd5b505af115801562000667573d6000803e3d6000fd5b5050505050505050505050505050565b6002546001600160a01b03163214620006a45760405162461bcd60e51b8152600401620002c69062000aae565b60008383836000604051620006b9906200073e565b620006c8949392919062000c44565b604051809103906000f080158015620006e5573d6000803e3d6000fd5b50905080600484604051620006fb919062000a90565b90815260405190819003602001902080546001600160a01b03929092166001600160a01b031990921691909117905550505050565b6106318062000ca583390190565b61208580620012d683390190565b60005b83811015620007695781810151838201526020016200074f565b8381111562000779576000848401525b50505050565b60008151808452620007998160208601602086016200074c565b601f01601f19169290920160200192915050565b602081526000620007c260208301846200077f565b9392505050565b634e487b7160e01b600052604160045260246000fd5b600082601f830112620007f157600080fd5b81356001600160401b03808211156200080e576200080e620007c9565b604051601f8301601f19908116603f01168101908282118183101715620008395762000839620007c9565b816040528381528660208588010111156200085357600080fd5b836020870160208301376000602085830101528094505050505092915050565b6000602082840312156200088657600080fd5b81356001600160401b038111156200089d57600080fd5b620008ab84828501620007df565b949350505050565b6001600160a01b0391909116815260200190565b60008060408385031215620008db57600080fd5b82356001600160401b03811115620008f257600080fd5b6200090085828601620007df565b92505060208301356001600160a01b03811681146200091e57600080fd5b809150509250929050565b600080600080608085870312156200094057600080fd5b84356001600160401b03808211156200095857600080fd5b6200096688838901620007df565b955060208701359150808211156200097d57600080fd5b6200098b88838901620007df565b94506040870135915080821115620009a257600080fd5b50620009b187828801620007df565b949793965093946060013593505050565b600080600060608486031215620009d857600080fd5b83356001600160401b0380821115620009f057600080fd5b620009fe87838801620007df565b9450602086013591508082111562000a1557600080fd5b62000a2387838801620007df565b9350604086013591508082111562000a3a57600080fd5b5062000a4986828701620007df565b9150509250925092565b600181811c9082168062000a6857607f821691505b6020821081141562000a8a57634e487b7160e01b600052602260045260246000fd5b50919050565b6000825162000aa48184602087016200074c565b9190910192915050565b6020808252601290820152712ab730baba3437b934b9b2b2103ab9b2b91760711b604082015260600190565b60208082526017908201527620bbb0b93232b2903237b2b9903737ba1032bc34b9ba1760491b604082015260600190565b8054600090600181811c908083168062000b2657607f831692505b602080841082141562000b4957634e487b7160e01b600052602260045260246000fd5b8388526020880182801562000b67576001811462000b795762000ba6565b60ff1987168252828201975062000ba6565b60008981526020902060005b8781101562000ba05781548482015290860190840162000b85565b83019850505b5050505050505092915050565b60808152600062000bc8608083018762000b0b565b828103602084015262000bdc81876200077f565b9050828103604084015262000bf281866200077f565b91505082606083015295945050505050565b6001600160a01b0383168152604060208201819052600090620008ab908301846200077f565b60006020828403121562000c3d57600080fd5b5051919050565b60808152600062000c5960808301876200077f565b828103602084015262000c6d81876200077f565b9050828103604084015262000c8381866200077f565b9050828103606084015262000c99818562000b0b565b97965050505050505056fe608060405234801561001057600080fd5b5060405161063138038061063183398101604081905261002f916101d2565b8351610042906000906020870190610077565b508251610056906001906020860190610077565b50815161006a906002906020850190610077565b506003555061029c915050565b82805461008390610261565b90600052602060002090601f0160209004810192826100a557600085556100eb565b82601f106100be57805160ff19168380011785556100eb565b828001600101855582156100eb579182015b828111156100eb5782518255916020019190600101906100d0565b506100f79291506100fb565b5090565b5b808211156100f757600081556001016100fc565b634e487b7160e01b600052604160045260246000fd5b600082601f83011261013757600080fd5b81516001600160401b038082111561015157610151610110565b604051601f8301601f19908116603f0116810190828211818310171561017957610179610110565b8160405283815260209250868385880101111561019557600080fd5b600091505b838210156101b7578582018301518183018401529082019061019a565b838211156101c85760008385830101525b9695505050505050565b600080600080608085870312156101e857600080fd5b84516001600160401b03808211156101ff57600080fd5b61020b88838901610126565b9550602087015191508082111561022157600080fd5b61022d88838901610126565b9450604087015191508082111561024357600080fd5b5061025087828801610126565b606096909601519497939650505050565b600181811c9082168061027557607f821691505b6020821081141561029657634e487b7160e01b600052602260045260246000fd5b50919050565b610386806102ab6000396000f3fe608060405234801561001057600080fd5b50600436106100415760003560e01c80633784f00014610046578063565974d31461005b57806392f622d11461007e575b600080fd5b610059610054366004610255565b600455565b005b610063610090565b604051610075969594939291906102bb565b60405180910390f35b6100596005805460ff19166001179055565b60008054819061009f90610315565b80601f01602080910402602001604051908101604052809291908181526020018280546100cb90610315565b80156101185780601f106100ed57610100808354040283529160200191610118565b820191906000526020600020905b8154815290600101906020018083116100fb57829003601f168201915b50505050509080600101805461012d90610315565b80601f016020809104026020016040519081016040528092919081815260200182805461015990610315565b80156101a65780601f1061017b576101008083540402835291602001916101a6565b820191906000526020600020905b81548152906001019060200180831161018957829003601f168201915b5050505050908060020180546101bb90610315565b80601f01602080910402602001604051908101604052809291908181526020018280546101e790610315565b80156102345780601f1061020957610100808354040283529160200191610234565b820191906000526020600020905b81548152906001019060200180831161021757829003601f168201915b50505050600383015460048401546005909401549293909290915060ff1686565b60006020828403121561026757600080fd5b5035919050565b6000815180845260005b8181101561029457602081850181015186830182015201610278565b818111156102a6576000602083870101525b50601f01601f19169290920160200192915050565b60c0815260006102ce60c083018961026e565b82810360208401526102e0818961026e565b905082810360408401526102f4818861026e565b606084019690965250506080810192909252151560a0909101529392505050565b600181811c9082168061032957607f821691505b6020821081141561034a57634e487b7160e01b600052602260045260246000fd5b5091905056fea26469706673582212201793ec91c2d6060493d022154c92c878144bb63bc14cdc3ca39ac22cca04fc0f64736f6c634300080c003360806040523480156200001157600080fd5b506040516200208538038062002085833981016040819052620000349162000246565b83604051806040016040528060088152602001674372656469626c7960c01b81525081600090805190602001906200006e929190620000d3565b50805162000084906001906020840190620000d3565b505083516200009c9150600c906020860190620000d3565b508151620000b290600d906020850190620000d3565b508051620000c890600e906020840190620000d3565b50505050506200033c565b828054620000e190620002ff565b90600052602060002090601f01602090048101928262000105576000855562000150565b82601f106200012057805160ff191683800117855562000150565b8280016001018555821562000150579182015b828111156200015057825182559160200191906001019062000133565b506200015e92915062000162565b5090565b5b808211156200015e576000815560010162000163565b634e487b7160e01b600052604160045260246000fd5b600082601f830112620001a157600080fd5b81516001600160401b0380821115620001be57620001be62000179565b604051601f8301601f19908116603f01168101908282118183101715620001e957620001e962000179565b816040528381526020925086838588010111156200020657600080fd5b600091505b838210156200022a57858201830151818301840152908201906200020b565b838211156200023c5760008385830101525b9695505050505050565b600080600080608085870312156200025d57600080fd5b84516001600160401b03808211156200027557600080fd5b62000283888389016200018f565b955060208701519150808211156200029a57600080fd5b620002a8888389016200018f565b94506040870151915080821115620002bf57600080fd5b620002cd888389016200018f565b93506060870151915080821115620002e457600080fd5b50620002f3878288016200018f565b91505092959194509250565b600181811c908216806200031457607f821691505b602082108114156200033657634e487b7160e01b600052602260045260246000fd5b50919050565b611d39806200034c6000396000f3fe608060405234801561001057600080fd5b50600436106101075760003560e01c80630178fe3f1461010c57806301ffc9a71461013757806306fdde031461015a578063081812fc1461016f578063095ea7b31461019a57806318160ddd146101af57806323b872dd146101c15780632f745c59146101d457806342842e0e146101e7578063438b12d1146101fa5780634f6ccce7146102025780635629cb0b146102155780636352211e1461021d57806370a08231146102305780637284e4161461024357806395d89b411461024b578063a15ab08d14610253578063a22cb46514610266578063b88d4fde14610279578063c87b56dd1461028c578063e985e9c51461029f575b600080fd5b61011f61011a36600461174c565b6102b2565b60405161012e939291906117bd565b60405180910390f35b61014a610145366004611819565b6103e9565b604051901515815260200161012e565b6101626103fa565b60405161012e9190611836565b61018261017d36600461174c565b61048c565b6040516001600160a01b03909116815260200161012e565b6101ad6101a8366004611865565b610519565b005b6009545b60405190815260200161012e565b6101ad6101cf36600461188f565b61062a565b6101b36101e2366004611865565b61065b565b6101ad6101f536600461188f565b6106f1565b61016261070c565b6101b361021036600461174c565b61079a565b61016261082d565b61018261022b36600461174c565b61083a565b6101b361023e3660046118cb565b6108b1565b610162610938565b610162610945565b6101b3610261366004611971565b610954565b6101ad6102743660046119d2565b61098b565b6101ad610287366004611a0e565b61099a565b61016261029a36600461174c565b6109d2565b61014a6102ad366004611a89565b6109dd565b60608060606102c0846109d2565b600d600e8180546102d090611abc565b80601f01602080910402602001604051908101604052809291908181526020018280546102fc90611abc565b80156103495780601f1061031e57610100808354040283529160200191610349565b820191906000526020600020905b81548152906001019060200180831161032c57829003601f168201915b5050505050915080805461035c90611abc565b80601f016020809104026020016040519081016040528092919081815260200182805461038890611abc565b80156103d55780601f106103aa576101008083540402835291602001916103d5565b820191906000526020600020905b8154815290600101906020018083116103b857829003601f168201915b505050505090509250925092509193909250565b60006103f482610a0b565b92915050565b60606000805461040990611abc565b80601f016020809104026020016040519081016040528092919081815260200182805461043590611abc565b80156104825780601f1061045757610100808354040283529160200191610482565b820191906000526020600020905b81548152906001019060200180831161046557829003601f168201915b5050505050905090565b600061049782610a30565b6104fd5760405162461bcd60e51b815260206004820152602c60248201527f4552433732313a20617070726f76656420717565727920666f72206e6f6e657860448201526b34b9ba32b73a103a37b5b2b760a11b60648201526084015b60405180910390fd5b506000908152600460205260409020546001600160a01b031690565b60006105248261083a565b9050806001600160a01b0316836001600160a01b031614156105925760405162461bcd60e51b815260206004820152602160248201527f4552433732313a20617070726f76616c20746f2063757272656e74206f776e656044820152603960f91b60648201526084016104f4565b336001600160a01b03821614806105ae57506105ae81336109dd565b61061b5760405162461bcd60e51b815260206004820152603860248201527f4552433732313a20617070726f76652063616c6c6572206973206e6f74206f776044820152771b995c881b9bdc88185c1c1c9bdd995908199bdc88185b1b60421b60648201526084016104f4565b6106258383610a4d565b505050565b6106343382610abb565b6106505760405162461bcd60e51b81526004016104f490611af7565b610625838383610b85565b6000610666836108b1565b82106106c85760405162461bcd60e51b815260206004820152602b60248201527f455243373231456e756d657261626c653a206f776e657220696e646578206f7560448201526a74206f6620626f756e647360a81b60648201526084016104f4565b506001600160a01b03919091166000908152600760209081526040808320938352929052205490565b6106258383836040518060200160405280600081525061099a565b600e805461071990611abc565b80601f016020809104026020016040519081016040528092919081815260200182805461074590611abc565b80156107925780601f1061076757610100808354040283529160200191610792565b820191906000526020600020905b81548152906001019060200180831161077557829003601f168201915b505050505081565b60006107a560095490565b82106108085760405162461bcd60e51b815260206004820152602c60248201527f455243373231456e756d657261626c653a20676c6f62616c20696e646578206f60448201526b7574206f6620626f756e647360a01b60648201526084016104f4565b6009828154811061081b5761081b611b48565b90600052602060002001549050919050565b600c805461071990611abc565b6000818152600260205260408120546001600160a01b0316806103f45760405162461bcd60e51b815260206004820152602960248201527f4552433732313a206f776e657220717565727920666f72206e6f6e657869737460448201526832b73a103a37b5b2b760b91b60648201526084016104f4565b60006001600160a01b03821661091c5760405162461bcd60e51b815260206004820152602a60248201527f4552433732313a2062616c616e636520717565727920666f7220746865207a65604482015269726f206164647265737360b01b60648201526084016104f4565b506001600160a01b031660009081526003602052604090205490565b600d805461071990611abc565b60606001805461040990611abc565b600080610960600b5490565b9050610970600b80546001019055565b61097a8482610d1a565b6109848184610e46565b9392505050565b610996338383610ed1565b5050565b6109a43383610abb565b6109c05760405162461bcd60e51b81526004016104f490611af7565b6109cc84848484610f9c565b50505050565b60606103f482610fcf565b6001600160a01b03918216600090815260056020908152604080832093909416825291909152205460ff1690565b60006001600160e01b0319821663780e9d6360e01b14806103f457506103f48261113e565b6000908152600260205260409020546001600160a01b0316151590565b600081815260046020526040902080546001600160a01b0319166001600160a01b0384169081179091558190610a828261083a565b6001600160a01b03167f8c5be1e5ebec7d5bd14f71427d1e84f3dd0314c0f7b2291e5b200ac8c7c3b92560405160405180910390a45050565b6000610ac682610a30565b610b275760405162461bcd60e51b815260206004820152602c60248201527f4552433732313a206f70657261746f7220717565727920666f72206e6f6e657860448201526b34b9ba32b73a103a37b5b2b760a11b60648201526084016104f4565b6000610b328361083a565b9050806001600160a01b0316846001600160a01b03161480610b6d5750836001600160a01b0316610b628461048c565b6001600160a01b0316145b80610b7d5750610b7d81856109dd565b949350505050565b826001600160a01b0316610b988261083a565b6001600160a01b031614610bfc5760405162461bcd60e51b815260206004820152602560248201527f4552433732313a207472616e736665722066726f6d20696e636f72726563742060448201526437bbb732b960d91b60648201526084016104f4565b6001600160a01b038216610c5e5760405162461bcd60e51b8152602060048201526024808201527f4552433732313a207472616e7366657220746f20746865207a65726f206164646044820152637265737360e01b60648201526084016104f4565b610c6983838361118e565b610c74600082610a4d565b6001600160a01b0383166000908152600360205260408120805460019290610c9d908490611b74565b90915550506001600160a01b0382166000908152600360205260408120805460019290610ccb908490611b8b565b909155505060008181526002602052604080822080546001600160a01b0319166001600160a01b038681169182179092559151849391871691600080516020611ce483398151915291a4505050565b6001600160a01b038216610d705760405162461bcd60e51b815260206004820181905260248201527f4552433732313a206d696e7420746f20746865207a65726f206164647265737360448201526064016104f4565b610d7981610a30565b15610dc55760405162461bcd60e51b815260206004820152601c60248201527b115490cdcc8c4e881d1bdad95b88185b1c9958591e481b5a5b9d195960221b60448201526064016104f4565b610dd16000838361118e565b6001600160a01b0382166000908152600360205260408120805460019290610dfa908490611b8b565b909155505060008181526002602052604080822080546001600160a01b0319166001600160a01b0386169081179091559051839290600080516020611ce4833981519152908290a45050565b610e4f82610a30565b610eb25760405162461bcd60e51b815260206004820152602e60248201527f45524337323155524953746f726167653a2055524920736574206f66206e6f6e60448201526d32bc34b9ba32b73a103a37b5b2b760911b60648201526084016104f4565b60008281526006602090815260409091208251610625928401906116b3565b816001600160a01b0316836001600160a01b03161415610f2f5760405162461bcd60e51b815260206004820152601960248201527822a9219b99189d1030b8383937bb32903a379031b0b63632b960391b60448201526064016104f4565b6001600160a01b03838116600081815260056020908152604080832094871680845294825291829020805460ff191686151590811790915591519182527f17307eab39ab6107e8899845ad3d59bd9653f200f220920489ca2b5937696c31910160405180910390a3505050565b610fa7848484610b85565b610fb384848484611199565b6109cc5760405162461bcd60e51b81526004016104f490611ba3565b6060610fda82610a30565b6110405760405162461bcd60e51b815260206004820152603160248201527f45524337323155524953746f726167653a2055524920717565727920666f72206044820152703737b732bc34b9ba32b73a103a37b5b2b760791b60648201526084016104f4565b6000828152600660205260408120805461105990611abc565b80601f016020809104026020016040519081016040528092919081815260200182805461108590611abc565b80156110d25780601f106110a7576101008083540402835291602001916110d2565b820191906000526020600020905b8154815290600101906020018083116110b557829003601f168201915b5050505050905060006110f060408051602081019091526000815290565b9050805160001415611103575092915050565b81511561113557808260405160200161111d929190611bf5565b60405160208183030381529060405292505050919050565b610b7d84611297565b60006001600160e01b031982166380ac58cd60e01b148061116f57506001600160e01b03198216635b5e139f60e01b145b806103f457506301ffc9a760e01b6001600160e01b03198316146103f4565b61062583838361136e565b60006001600160a01b0384163b1561128c57604051630a85bd0160e11b81526001600160a01b0385169063150b7a02906111dd903390899088908890600401611c24565b6020604051808303816000875af1925050508015611218575060408051601f3d908101601f1916820190925261121591810190611c57565b60015b611272573d808015611246576040519150601f19603f3d011682016040523d82523d6000602084013e61124b565b606091505b50805161126a5760405162461bcd60e51b81526004016104f490611ba3565b805181602001fd5b6001600160e01b031916630a85bd0160e11b149050610b7d565b506001949350505050565b60606112a282610a30565b6113065760405162461bcd60e51b815260206004820152602f60248201527f4552433732314d657461646174613a2055524920717565727920666f72206e6f60448201526e3732bc34b9ba32b73a103a37b5b2b760891b60648201526084016104f4565b600061131d60408051602081019091526000815290565b9050600081511161133d5760405180602001604052806000815250610984565b8061134784611426565b604051602001611358929190611bf5565b6040516020818303038152906040529392505050565b6001600160a01b0383166113c9576113c481600980546000838152600a60205260408120829055600182018355919091527f6e1540171b6c0c960b71a7020d9f60077f6af931a8bbf590da0223dacf75c7af0155565b6113ec565b816001600160a01b0316836001600160a01b0316146113ec576113ec8382611523565b6001600160a01b03821661140357610625816115c0565b826001600160a01b0316826001600160a01b03161461062557610625828261166f565b60608161144a5750506040805180820190915260018152600360fc1b602082015290565b8160005b8115611474578061145e81611c74565b915061146d9050600a83611ca5565b915061144e565b6000816001600160401b0381111561148e5761148e6118e6565b6040519080825280601f01601f1916602001820160405280156114b8576020820181803683370190505b5090505b8415610b7d576114cd600183611b74565b91506114da600a86611cb9565b6114e5906030611b8b565b60f81b8183815181106114fa576114fa611b48565b60200101906001600160f81b031916908160001a90535061151c600a86611ca5565b94506114bc565b60006001611530846108b1565b61153a9190611b74565b60008381526008602052604090205490915080821461158d576001600160a01b03841660009081526007602090815260408083208584528252808320548484528184208190558352600890915290208190555b5060009182526008602090815260408084208490556001600160a01b039094168352600781528383209183525290812055565b6009546000906115d290600190611b74565b6000838152600a6020526040812054600980549394509092849081106115fa576115fa611b48565b90600052602060002001549050806009838154811061161b5761161b611b48565b6000918252602080832090910192909255828152600a9091526040808220849055858252812055600980548061165357611653611ccd565b6001900381819060005260206000200160009055905550505050565b600061167a836108b1565b6001600160a01b039093166000908152600760209081526040808320868452825280832085905593825260089052919091209190915550565b8280546116bf90611abc565b90600052602060002090601f0160209004810192826116e15760008555611727565b82601f106116fa57805160ff1916838001178555611727565b82800160010185558215611727579182015b8281111561172757825182559160200191906001019061170c565b50611733929150611737565b5090565b5b808211156117335760008155600101611738565b60006020828403121561175e57600080fd5b5035919050565b60005b83811015611780578181015183820152602001611768565b838111156109cc5750506000910152565b600081518084526117a9816020860160208601611765565b601f01601f19169290920160200192915050565b6060815260006117d06060830186611791565b82810360208401526117e28186611791565b905082810360408401526117f68185611791565b9695505050505050565b6001600160e01b03198116811461181657600080fd5b50565b60006020828403121561182b57600080fd5b813561098481611800565b6020815260006109846020830184611791565b80356001600160a01b038116811461186057600080fd5b919050565b6000806040838503121561187857600080fd5b61188183611849565b946020939093013593505050565b6000806000606084860312156118a457600080fd5b6118ad84611849565b92506118bb60208501611849565b9150604084013590509250925092565b6000602082840312156118dd57600080fd5b61098482611849565b634e487b7160e01b600052604160045260246000fd5b60006001600160401b0380841115611916576119166118e6565b604051601f8501601f19908116603f0116810190828211818310171561193e5761193e6118e6565b8160405280935085815286868601111561195757600080fd5b858560208301376000602087830101525050509392505050565b6000806040838503121561198457600080fd5b61198d83611849565b915060208301356001600160401b038111156119a857600080fd5b8301601f810185136119b957600080fd5b6119c8858235602084016118fc565b9150509250929050565b600080604083850312156119e557600080fd5b6119ee83611849565b915060208301358015158114611a0357600080fd5b809150509250929050565b60008060008060808587031215611a2457600080fd5b611a2d85611849565b9350611a3b60208601611849565b92506040850135915060608501356001600160401b03811115611a5d57600080fd5b8501601f81018713611a6e57600080fd5b611a7d878235602084016118fc565b91505092959194509250565b60008060408385031215611a9c57600080fd5b611aa583611849565b9150611ab360208401611849565b90509250929050565b600181811c90821680611ad057607f821691505b60208210811415611af157634e487b7160e01b600052602260045260246000fd5b50919050565b60208082526031908201527f4552433732313a207472616e736665722063616c6c6572206973206e6f74206f6040820152701ddb995c881b9bdc88185c1c1c9bdd9959607a1b606082015260800190565b634e487b7160e01b600052603260045260246000fd5b634e487b7160e01b600052601160045260246000fd5b600082821015611b8657611b86611b5e565b500390565b60008219821115611b9e57611b9e611b5e565b500190565b60208082526032908201527f4552433732313a207472616e7366657220746f206e6f6e20455243373231526560408201527131b2b4bb32b91034b6b83632b6b2b73a32b960711b606082015260800190565b60008351611c07818460208801611765565b835190830190611c1b818360208801611765565b01949350505050565b6001600160a01b03858116825284166020820152604081018390526080606082018190526000906117f690830184611791565b600060208284031215611c6957600080fd5b815161098481611800565b6000600019821415611c8857611c88611b5e565b5060010190565b634e487b7160e01b600052601260045260246000fd5b600082611cb457611cb4611c8f565b500490565b600082611cc857611cc8611c8f565b500690565b634e487b7160e01b600052603160045260246000fdfeddf252ad1be2c89b69c2b068fc378daa952ba7f163c4a11628f55a4df523b3efa2646970667358221220b5e69aefd7a391a1f8b3b5e648e45d994ca636bcbce7b39d3c113a006b6a8e5664736f6c634300080c0033a264697066735822122078935b69d0ef5326c7ea5ddadae8a3f8d9f9d03dc75ce59a1b94ff087123cc0364736f6c634300080c0033a264697066735822122068df7f76df6b28e54521213f01da23a8448572437b8f8b47e41befa649efa30e64736f6c634300080c0033",
  "immutableReferences": {},
  "source": "// SPDX-License-Identifier: UNLICENSED\r\npragma solidity ^0.8.0;\r\n\r\nimport './Organisation.sol';\r\nimport './Awardee.sol';\r\n\r\ncontract System {\r\n    // uen => Organisation Obj\r\n    mapping (string => Organisation) public organisations;\r\n    // email => Awardee Obj\r\n    mapping (string => Awardee) public awardees;\r\n\r\n    constructor() {}\r\n\r\n    // register organisation\r\n    function registerOrganisation(\r\n        string memory name,\r\n        string memory uen,\r\n        address admin\r\n    ) public {\r\n        require(address(organisations[uen]) == address(0), \"Organisation already exists in system.\");\r\n        Organisation organisation = new Organisation(name, uen, admin);\r\n        organisations[uen] = organisation;\r\n    }\r\n\r\n    // register awardee\r\n    function registerAwardee(\r\n        string memory email,\r\n        string memory name\r\n    ) public returns (Awardee) {\r\n        if (address(awardees[email]) == address(0)) {\r\n            Awardee awardee = new Awardee(email, name);\r\n            awardees[email] = awardee;\r\n        }\r\n        return awardees[email];\r\n    }\r\n\r\n    // add awardee to organisation\r\n    function addAwardeeToOrganisation(\r\n        string memory uen,\r\n        string memory email,\r\n        string memory name\r\n    ) public {\r\n        require(address(organisations[uen]) != address(0), \"Organisation does not exist system, please register organisation first.\");\r\n        Awardee awardee = registerAwardee(email, name);\r\n        Organisation organisation = organisations[uen];\r\n        organisation.addAwardee(email, address(awardee));\r\n    }\r\n\r\n    function linkAwardee(\r\n        string memory email,\r\n        string memory name\r\n    ) public {\r\n        Awardee awardee = registerAwardee(email, name);\r\n        awardee.setWalletAddress(tx.origin);\r\n    }\r\n\r\n    function changeEmail(\r\n        string memory oldEmail,\r\n        string memory newEmail\r\n    ) public {\r\n        require (address(awardees[oldEmail]) != address(0), \"Awardee does not exist.\");\r\n        awardees[oldEmail].updateEmail(newEmail);\r\n        awardees[newEmail] = awardees[oldEmail];\r\n        awardees[oldEmail] = Awardee(address(0));\r\n    }\r\n}\r\n",
  "sourcePath": "D:\\modules\\credibly-fe\\ethereum\\contracts\\System.sol",
  "compiler": {
    "name": "solc",
    "version": "0.8.12+commit.f00d7308.Emscripten.clang"
  },
  "schemaVersion": "3.4.4",
  "updatedAt": "2022-03-28T15:39:08.744Z",
  "devdoc": {
    "kind": "dev",
    "methods": {},
    "version": 1
  },
  "userdoc": {
    "kind": "user",
    "methods": {},
    "version": 1
  }
}