{
  "contractName": "System",
  "abi": [
    {
      "inputs": [],
      "stateMutability": "nonpayable",
      "type": "constructor"
    },
    {
      "inputs": [
        {
          "internalType": "string",
          "name": "",
          "type": "string"
        }
      ],
      "name": "awardees",
      "outputs": [
        {
          "internalType": "contract Awardee",
          "name": "",
          "type": "address"
        }
      ],
      "stateMutability": "view",
      "type": "function"
    },
    {
      "inputs": [
        {
          "internalType": "string",
          "name": "",
          "type": "string"
        },
        {
          "internalType": "uint256",
          "name": "",
          "type": "uint256"
        }
      ],
      "name": "awardeesOrganisations",
      "outputs": [
        {
          "internalType": "string",
          "name": "",
          "type": "string"
        }
      ],
      "stateMutability": "view",
      "type": "function"
    },
    {
      "inputs": [
        {
          "internalType": "string",
          "name": "",
          "type": "string"
        }
      ],
      "name": "organisations",
      "outputs": [
        {
          "internalType": "contract Organisation",
          "name": "",
          "type": "address"
        }
      ],
      "stateMutability": "view",
      "type": "function"
    },
    {
      "inputs": [
        {
          "internalType": "string",
          "name": "name",
          "type": "string"
        },
        {
          "internalType": "string",
          "name": "uen",
          "type": "string"
        },
        {
          "internalType": "address",
          "name": "admin",
          "type": "address"
        }
      ],
      "name": "registerOrganisation",
      "outputs": [],
      "stateMutability": "nonpayable",
      "type": "function"
    },
    {
      "inputs": [
        {
          "internalType": "string",
          "name": "email",
          "type": "string"
        },
        {
          "internalType": "string",
          "name": "name",
          "type": "string"
        }
      ],
      "name": "registerAwardee",
      "outputs": [
        {
          "internalType": "contract Awardee",
          "name": "",
          "type": "address"
        }
      ],
      "stateMutability": "nonpayable",
      "type": "function"
    },
    {
      "inputs": [
        {
          "internalType": "string",
          "name": "uen",
          "type": "string"
        },
        {
          "internalType": "string",
          "name": "email",
          "type": "string"
        },
        {
          "internalType": "string",
          "name": "name",
          "type": "string"
        }
      ],
      "name": "addAwardeeToOrganisation",
      "outputs": [],
      "stateMutability": "nonpayable",
      "type": "function"
    },
    {
      "inputs": [
        {
          "internalType": "string",
          "name": "email",
          "type": "string"
        },
        {
          "internalType": "string",
          "name": "name",
          "type": "string"
        }
      ],
      "name": "linkAwardee",
      "outputs": [],
      "stateMutability": "nonpayable",
      "type": "function"
    },
    {
      "inputs": [
        {
          "internalType": "string",
          "name": "uen",
          "type": "string"
        }
      ],
      "name": "getOrganisation",
      "outputs": [
        {
          "internalType": "contract Organisation",
          "name": "",
          "type": "address"
        }
      ],
      "stateMutability": "view",
      "type": "function"
    },
    {
      "inputs": [
        {
          "internalType": "string",
          "name": "email",
          "type": "string"
        }
      ],
      "name": "getAwardee",
      "outputs": [
        {
          "internalType": "contract Awardee",
          "name": "",
          "type": "address"
        }
      ],
      "stateMutability": "view",
      "type": "function"
    }
  ],
  "bytecode": "0x608060405234801561001057600080fd5b506141ff806100206000396000f3fe60806040523480156200001157600080fd5b50600436106200008e5760003560e01c80631f2d8626146200009357806350a3874414620000c257806363db7fb114620000d9578063774a4bb414620001105780637cac6dce14620001295780638c02ebee14620001605780639ab2a32a1462000186578063c2e2b40e146200019d578063e913682a14620001b4575b600080fd5b620000aa620000a43660046200072a565b620001cb565b604051620000b9919062000794565b60405180910390f35b620000aa620000d3366004620007a8565b620002bf565b620000aa620000ea366004620007a8565b80516020818301810180516000825292820191909301209152546001600160a01b031681565b62000127620001213660046200072a565b620002f1565b005b620000aa6200013a366004620007a8565b80516020818301810180516002825292820191909301209152546001600160a01b031681565b6200017762000171366004620007e8565b62000369565b604051620000b9919062000891565b6200012762000197366004620008ad565b6200043a565b620000aa620001ae366004620007a8565b62000521565b62000127620001c53660046200093e565b62000535565b6000806001600160a01b0316600284604051620001e99190620009c9565b908152604051908190036020019020546001600160a01b031614156200028c57600083836040516200021b90620005be565b62000228929190620009e7565b604051809103906000f08015801562000245573d6000803e3d6000fd5b509050806002856040516200025b9190620009c9565b90815260405190819003602001902080546001600160a01b03929092166001600160a01b0319909216919091179055505b6002836040516200029e9190620009c9565b908152604051908190036020019020546001600160a01b0316905092915050565b60008082604051620002d29190620009c9565b908152604051908190036020019020546001600160a01b031692915050565b6000620002ff8383620001cb565b60405163560d1c3560e11b81529091506001600160a01b0382169063ac1a386a906200033090339060040162000794565b600060405180830381600087803b1580156200034b57600080fd5b505af115801562000360573d6000803e3d6000fd5b50505050505050565b815160208184018101805160018252928201918501919091209190528054829081106200039557600080fd5b90600052602060002001600091509150508054620003b39062000a19565b80601f0160208091040260200160405190810160405280929190818152602001828054620003e19062000a19565b8015620004325780601f10620004065761010080835404028352916020019162000432565b820191906000526020600020905b8154815290600101906020018083116200041457829003601f168201915b505050505081565b6000620004488383620001cb565b9050600080856040516200045d9190620009c9565b908152604051908190036020018120546316e5466960e21b82526001600160a01b031691508190635b9519a4906200049c908790869060040162000a56565b600060405180830381600087803b158015620004b757600080fd5b505af1158015620004cc573d6000803e3d6000fd5b50505050600184604051620004e29190620009c9565b90815260405160209181900382019020805460018101825560009182529082902087516200051993919092019190880190620005cc565b505050505050565b6000600282604051620002d29190620009c9565b600083838360405162000548906200065b565b620005569392919062000a82565b604051809103906000f08015801562000573573d6000803e3d6000fd5b50905080600084604051620005899190620009c9565b90815260405190819003602001902080546001600160a01b03929092166001600160a01b031990921691909117905550505050565b61079c8062000ac583390190565b828054620005da9062000a19565b90600052602060002090601f016020900481019282620005fe576000855562000649565b82601f106200061957805160ff191683800117855562000649565b8280016001018555821562000649579182015b82811115620006495782518255916020019190600101906200062c565b506200065792915062000669565b5090565b612f69806200126183390190565b5b808211156200065757600081556001016200066a565b634e487b7160e01b600052604160045260246000fd5b600082601f830112620006a857600080fd5b81356001600160401b0380821115620006c557620006c562000680565b604051601f8301601f19908116603f01168101908282118183101715620006f057620006f062000680565b816040528381528660208588010111156200070a57600080fd5b836020870160208301376000602085830101528094505050505092915050565b600080604083850312156200073e57600080fd5b82356001600160401b03808211156200075657600080fd5b620007648683870162000696565b935060208501359150808211156200077b57600080fd5b506200078a8582860162000696565b9150509250929050565b6001600160a01b0391909116815260200190565b600060208284031215620007bb57600080fd5b81356001600160401b03811115620007d257600080fd5b620007e08482850162000696565b949350505050565b60008060408385031215620007fc57600080fd5b82356001600160401b038111156200081357600080fd5b620008218582860162000696565b95602094909401359450505050565b60005b838110156200084d57818101518382015260200162000833565b838111156200085d576000848401525b50505050565b600081518084526200087d81602086016020860162000830565b601f01601f19169290920160200192915050565b602081526000620008a6602083018462000863565b9392505050565b600080600060608486031215620008c357600080fd5b83356001600160401b0380821115620008db57600080fd5b620008e98783880162000696565b945060208601359150808211156200090057600080fd5b6200090e8783880162000696565b935060408601359150808211156200092557600080fd5b50620009348682870162000696565b9150509250925092565b6000806000606084860312156200095457600080fd5b83356001600160401b03808211156200096c57600080fd5b6200097a8783880162000696565b945060208601359150808211156200099157600080fd5b50620009a08682870162000696565b92505060408401356001600160a01b0381168114620009be57600080fd5b809150509250925092565b60008251620009dd81846020870162000830565b9190910192915050565b604081526000620009fc604083018562000863565b828103602084015262000a10818562000863565b95945050505050565b600181811c9082168062000a2e57607f821691505b6020821081141562000a5057634e487b7160e01b600052602260045260246000fd5b50919050565b60408152600062000a6b604083018562000863565b905060018060a01b03831660208301529392505050565b60608152600062000a97606083018662000863565b828103602084015262000aab818662000863565b91505060018060a01b038316604083015294935050505056fe608060405234801561001057600080fd5b5060405161079c38038061079c83398101604081905261002f916101b9565b815161004290600090602085019061005e565b50805161005690600190602084019061005e565b505050610257565b82805461006a9061021c565b90600052602060002090601f01602090048101928261008c57600085556100d2565b82601f106100a557805160ff19168380011785556100d2565b828001600101855582156100d2579182015b828111156100d25782518255916020019190600101906100b7565b506100de9291506100e2565b5090565b5b808211156100de57600081556001016100e3565b634e487b7160e01b600052604160045260246000fd5b600082601f83011261011e57600080fd5b81516001600160401b0380821115610138576101386100f7565b604051601f8301601f19908116603f01168101908282118183101715610160576101606100f7565b8160405283815260209250868385880101111561017c57600080fd5b600091505b8382101561019e5785820183015181830184015290820190610181565b838211156101af5760008385830101525b9695505050505050565b600080604083850312156101cc57600080fd5b82516001600160401b03808211156101e357600080fd5b6101ef8683870161010d565b9350602085015191508082111561020557600080fd5b506102128582860161010d565b9150509250929050565b600181811c9082168061023057607f821691505b6020821081141561025157634e487b7160e01b600052602260045260246000fd5b50919050565b610536806102666000396000f3fe608060405234801561001057600080fd5b50600436106100835760003560e01c806306fdde03146100885780631f5ddb4f146100a65780634bdbd39a146100bb578063573668db146100d8578063663b3e22146101035780636ad5b3ea14610135578063820e93f514610148578063ac1a386a14610150578063d422f02214610182575b600080fd5b610090610225565b60405161009d9190610397565b60405180910390f35b6100ae6102b3565b60405161009d91906103ec565b6005546100c89060ff1681565b604051901515815260200161009d565b6100eb6100e6366004610444565b610328565b6040516001600160a01b03909116815260200161009d565b610116610111366004610444565b610352565b604080516001600160a01b03909316835260208301919091520161009d565b6002546100eb906001600160a01b031681565b61009061038a565b61018061015e366004610479565b600280546001600160a01b0319166001600160a01b0392909216919091179055565b005b61018061019036600461049b565b604080518082019091526001600160a01b039283168152602081019182526003805460018101825560009190915290517fc2575a0e9e593c00f959f8c92f12db2869c3395a3b0502d05e2516446f71f85b600290920291820180546001600160a01b0319169190941617909255517fc2575a0e9e593c00f959f8c92f12db2869c3395a3b0502d05e2516446f71f85c90910155565b60018054610232906104c5565b80601f016020809104026020016040519081016040528092919081815260200182805461025e906104c5565b80156102ab5780601f10610280576101008083540402835291602001916102ab565b820191906000526020600020905b81548152906001019060200180831161028e57829003601f168201915b505050505081565b60606003805480602002602001604051908101604052809291908181526020016000905b8282101561031f576000848152602090819020604080518082019091526002850290910180546001600160a01b031682526001908101548284015290835290920191016102d7565b50505050905090565b6004818154811061033857600080fd5b6000918252602090912001546001600160a01b0316905081565b6003818154811061036257600080fd5b6000918252602090912060029091020180546001909101546001600160a01b03909116915082565b60008054610232906104c5565b600060208083528351808285015260005b818110156103c4578581018301518582016040015282016103a8565b818111156103d6576000604083870101525b50601f01601f1916929092016040019392505050565b602080825282518282018190526000919060409081850190868401855b8281101561043757815180516001600160a01b03168552860151868501529284019290850190600101610409565b5091979650505050505050565b60006020828403121561045657600080fd5b5035919050565b80356001600160a01b038116811461047457600080fd5b919050565b60006020828403121561048b57600080fd5b6104948261045d565b9392505050565b600080604083850312156104ae57600080fd5b6104b78361045d565b946020939093013593505050565b600181811c908216806104d957607f821691505b602082108114156104fa57634e487b7160e01b600052602260045260246000fd5b5091905056fea2646970667358221220371f8aabba23fdc7e01ca53eeeb6fb0afbb482ac55e9511b34d72c9fefcd9a9764736f6c634300080c003360806040523480156200001157600080fd5b5060405162002f6938038062002f698339810160408190526200003491620001fc565b82516200004990600090602086019062000089565b5081516200005f90600190602085019062000089565b50600280546001600160a01b0319166001600160a01b039290921691909117905550620002c69050565b828054620000979062000289565b90600052602060002090601f016020900481019282620000bb576000855562000106565b82601f10620000d657805160ff191683800117855562000106565b8280016001018555821562000106579182015b8281111562000106578251825591602001919060010190620000e9565b506200011492915062000118565b5090565b5b8082111562000114576000815560010162000119565b634e487b7160e01b600052604160045260246000fd5b600082601f8301126200015757600080fd5b81516001600160401b03808211156200017457620001746200012f565b604051601f8301601f19908116603f011681019082821181831017156200019f576200019f6200012f565b81604052838152602092508683858801011115620001bc57600080fd5b600091505b83821015620001e05785820183015181830184015290820190620001c1565b83821115620001f25760008385830101525b9695505050505050565b6000806000606084860312156200021257600080fd5b83516001600160401b03808211156200022a57600080fd5b620002388783880162000145565b945060208601519150808211156200024f57600080fd5b506200025e8682870162000145565b604086015190935090506001600160a01b03811681146200027e57600080fd5b809150509250925092565b600181811c908216806200029e57607f821691505b60208210811415620002c057634e487b7160e01b600052602260045260246000fd5b50919050565b612c9380620002d66000396000f3fe60806040523480156200001157600080fd5b50600436106200009a5760003560e01c806306fdde03146200009f578063145b8eb314620000c15780632d7cb52a14620001115780635b9519a4146200011b578063755bc7b214620001345780637cac6dce146200015e5780639f560d891462000195578063ac9e576014620001ac578063f2b700d314620001c3578063f851a44014620001da575b600080fd5b620000a9620001ee565b604051620000b891906200082b565b60405180910390f35b620000f8620000d2366004620008f1565b80516020818301810180516004825292820191909301209152546001600160a01b031681565b6040516001600160a01b039091168152602001620000b8565b620000a962000284565b620001326200012c36600462000931565b62000293565b005b6200014b6200014536600462000993565b620002d9565b604051620000b8959493929190620009db565b620000f86200016f366004620008f1565b80516020818301810180516005825292820191909301209152546001600160a01b031681565b62000132620001a636600462000a24565b62000461565b62000132620001bd36600462000a24565b620005a1565b62000132620001d436600462000ab5565b6200062d565b600254620000f8906001600160a01b031681565b60008054620001fd9062000b28565b80601f01602080910402602001604051908101604052809291908181526020018280546200022b9062000b28565b80156200027c5780601f1062000250576101008083540402835291602001916200027c565b820191906000526020600020905b8154815290600101906020018083116200025e57829003601f168201915b505050505081565b60018054620001fd9062000b28565b80600583604051620002a6919062000b65565b90815260405190819003602001902080546001600160a01b03929092166001600160a01b03199092169190911790555050565b815160208184018101805160038252928201918501919091209190528054829081106200030557600080fd5b9060005260206000209060050201600091509150508060000180546200032b9062000b28565b80601f0160208091040260200160405190810160405280929190818152602001828054620003599062000b28565b8015620003aa5780601f106200037e57610100808354040283529160200191620003aa565b820191906000526020600020905b8154815290600101906020018083116200038c57829003601f168201915b505050505090806001018054620003c19062000b28565b80601f0160208091040260200160405190810160405280929190818152602001828054620003ef9062000b28565b8015620004405780601f10620004145761010080835404028352916020019162000440565b820191906000526020600020905b8154815290600101906020018083116200042257829003601f168201915b50505050600283015460038401546004909401549293909290915060ff1685565b600060048360405162000475919062000b65565b908152604051908190036020018120546001600160a01b03169150600090600590620004a390879062000b65565b9081526040519081900360200181205463a15ab08d60e01b82526001600160a01b039081169250829160009185169063a15ab08d90620004ea908590899060040162000b83565b6020604051808303816000875af11580156200050a573d6000803e3d6000fd5b505050506040513d601f19601f8201168201806040525081019062000530919062000ba9565b604051636a11781160e11b81526001600160a01b038481166004830152602482018390529192509084169063d422f02290604401600060405180830381600087803b1580156200057f57600080fd5b505af115801562000594573d6000803e3d6000fd5b5050505050505050505050565b60008383836000604051620005b69062000716565b620005c5949392919062000bc3565b604051809103906000f080158015620005e2573d6000803e3d6000fd5b50905080600484604051620005f8919062000b65565b90815260405190819003602001902080546001600160a01b03929092166001600160a01b031990921691909117905550505050565b620006626040518060a00160405280606081526020016060815260200160008152602001600081526020016000151581525090565b838152602081018390526040808201839052516003906200068590869062000b65565b908152604051602091819003820190208054600181018255600091825290829020835180518594600590940290920192620006c69284929091019062000724565b506020828101518051620006e1926001850192019062000724565b5060408201516002820155606082015160038201556080909101516004909101805460ff191691151591909117905550505050565b611fa48062000cba83390190565b828054620007329062000b28565b90600052602060002090601f016020900481019282620007565760008555620007a1565b82601f106200077157805160ff1916838001178555620007a1565b82800160010185558215620007a1579182015b82811115620007a157825182559160200191906001019062000784565b50620007af929150620007b3565b5090565b5b80821115620007af5760008155600101620007b4565b60005b83811015620007e7578181015183820152602001620007cd565b83811115620007f7576000848401525b50505050565b6000815180845262000817816020860160208601620007ca565b601f01601f19169290920160200192915050565b602081526000620008406020830184620007fd565b9392505050565b634e487b7160e01b600052604160045260246000fd5b600082601f8301126200086f57600080fd5b81356001600160401b03808211156200088c576200088c62000847565b604051601f8301601f19908116603f01168101908282118183101715620008b757620008b762000847565b81604052838152866020858801011115620008d157600080fd5b836020870160208301376000602085830101528094505050505092915050565b6000602082840312156200090457600080fd5b81356001600160401b038111156200091b57600080fd5b62000929848285016200085d565b949350505050565b600080604083850312156200094557600080fd5b82356001600160401b038111156200095c57600080fd5b6200096a858286016200085d565b92505060208301356001600160a01b03811681146200098857600080fd5b809150509250929050565b60008060408385031215620009a757600080fd5b82356001600160401b03811115620009be57600080fd5b620009cc858286016200085d565b95602094909401359450505050565b60a081526000620009f060a0830188620007fd565b828103602084015262000a048188620007fd565b604084019690965250506060810192909252151560809091015292915050565b60008060006060848603121562000a3a57600080fd5b83356001600160401b038082111562000a5257600080fd5b62000a60878388016200085d565b9450602086013591508082111562000a7757600080fd5b62000a85878388016200085d565b9350604086013591508082111562000a9c57600080fd5b5062000aab868287016200085d565b9150509250925092565b60008060006060848603121562000acb57600080fd5b83356001600160401b038082111562000ae357600080fd5b62000af1878388016200085d565b9450602086013591508082111562000b0857600080fd5b5062000b17868287016200085d565b925050604084013590509250925092565b600181811c9082168062000b3d57607f821691505b6020821081141562000b5f57634e487b7160e01b600052602260045260246000fd5b50919050565b6000825162000b79818460208701620007ca565b9190910192915050565b6001600160a01b03831681526040602082018190526000906200092990830184620007fd565b60006020828403121562000bbc57600080fd5b5051919050565b60808152600062000bd86080830187620007fd565b60208382038185015262000bed8288620007fd565b9150838203604085015262000c038287620007fd565b915083820360608501526000855481600182811c91508083168062000c2957607f831692505b85831081141562000c4857634e487b7160e01b85526022600452602485fd5b82875260208701965080801562000c68576001811462000c7a5762000ca7565b60ff1985168852868801955062000ca7565b60008b81526020902060005b8581101562000ca15781548a82015290840190880162000c86565b89019650505b50939c9b50505050505050505050505056fe60806040523480156200001157600080fd5b5060405162001fa438038062001fa4833981016040819052620000349162000246565b83604051806040016040528060088152602001674372656469626c7960c01b81525081600090805190602001906200006e929190620000d3565b50805162000084906001906020840190620000d3565b505083516200009c9150600c906020860190620000d3565b508151620000b290600d906020850190620000d3565b508051620000c890600e906020840190620000d3565b50505050506200033c565b828054620000e190620002ff565b90600052602060002090601f01602090048101928262000105576000855562000150565b82601f106200012057805160ff191683800117855562000150565b8280016001018555821562000150579182015b828111156200015057825182559160200191906001019062000133565b506200015e92915062000162565b5090565b5b808211156200015e576000815560010162000163565b634e487b7160e01b600052604160045260246000fd5b600082601f830112620001a157600080fd5b81516001600160401b0380821115620001be57620001be62000179565b604051601f8301601f19908116603f01168101908282118183101715620001e957620001e962000179565b816040528381526020925086838588010111156200020657600080fd5b600091505b838210156200022a57858201830151818301840152908201906200020b565b838211156200023c5760008385830101525b9695505050505050565b600080600080608085870312156200025d57600080fd5b84516001600160401b03808211156200027557600080fd5b62000283888389016200018f565b955060208701519150808211156200029a57600080fd5b620002a8888389016200018f565b94506040870151915080821115620002bf57600080fd5b620002cd888389016200018f565b93506060870151915080821115620002e457600080fd5b50620002f3878288016200018f565b91505092959194509250565b600181811c908216806200031457607f821691505b602082108114156200033657634e487b7160e01b600052602260045260246000fd5b50919050565b611c58806200034c6000396000f3fe608060405234801561001057600080fd5b50600436106100e65760003560e01c80630178fe3f146100eb57806301ffc9a71461011657806306fdde0314610139578063081812fc1461014e578063095ea7b31461017957806318160ddd1461018e57806323b872dd146101a05780632f745c59146101b357806342842e0e146101c65780634f6ccce7146101d95780636352211e146101ec57806370a08231146101ff57806395d89b4114610212578063a15ab08d1461021a578063a22cb4651461022d578063b88d4fde14610240578063c87b56dd14610253578063e985e9c514610266575b600080fd5b6100fe6100f936600461166b565b610279565b60405161010d939291906116dc565b60405180910390f35b610129610124366004611738565b6103b0565b604051901515815260200161010d565b6101416103c1565b60405161010d9190611755565b61016161015c36600461166b565b610453565b6040516001600160a01b03909116815260200161010d565b61018c610187366004611784565b6104e0565b005b6009545b60405190815260200161010d565b61018c6101ae3660046117ae565b6105f1565b6101926101c1366004611784565b610622565b61018c6101d43660046117ae565b6106b8565b6101926101e736600461166b565b6106d3565b6101616101fa36600461166b565b610766565b61019261020d3660046117ea565b6107dd565b610141610864565b610192610228366004611890565b610873565b61018c61023b3660046118f1565b6108aa565b61018c61024e36600461192d565b6108b9565b61014161026136600461166b565b6108f1565b6101296102743660046119a8565b6108fc565b6060806060610287846108f1565b600d600e818054610297906119db565b80601f01602080910402602001604051908101604052809291908181526020018280546102c3906119db565b80156103105780601f106102e557610100808354040283529160200191610310565b820191906000526020600020905b8154815290600101906020018083116102f357829003601f168201915b50505050509150808054610323906119db565b80601f016020809104026020016040519081016040528092919081815260200182805461034f906119db565b801561039c5780601f106103715761010080835404028352916020019161039c565b820191906000526020600020905b81548152906001019060200180831161037f57829003601f168201915b505050505090509250925092509193909250565b60006103bb8261092a565b92915050565b6060600080546103d0906119db565b80601f01602080910402602001604051908101604052809291908181526020018280546103fc906119db565b80156104495780601f1061041e57610100808354040283529160200191610449565b820191906000526020600020905b81548152906001019060200180831161042c57829003601f168201915b5050505050905090565b600061045e8261094f565b6104c45760405162461bcd60e51b815260206004820152602c60248201527f4552433732313a20617070726f76656420717565727920666f72206e6f6e657860448201526b34b9ba32b73a103a37b5b2b760a11b60648201526084015b60405180910390fd5b506000908152600460205260409020546001600160a01b031690565b60006104eb82610766565b9050806001600160a01b0316836001600160a01b031614156105595760405162461bcd60e51b815260206004820152602160248201527f4552433732313a20617070726f76616c20746f2063757272656e74206f776e656044820152603960f91b60648201526084016104bb565b336001600160a01b0382161480610575575061057581336108fc565b6105e25760405162461bcd60e51b815260206004820152603860248201527f4552433732313a20617070726f76652063616c6c6572206973206e6f74206f776044820152771b995c881b9bdc88185c1c1c9bdd995908199bdc88185b1b60421b60648201526084016104bb565b6105ec838361096c565b505050565b6105fb33826109da565b6106175760405162461bcd60e51b81526004016104bb90611a16565b6105ec838383610aa4565b600061062d836107dd565b821061068f5760405162461bcd60e51b815260206004820152602b60248201527f455243373231456e756d657261626c653a206f776e657220696e646578206f7560448201526a74206f6620626f756e647360a81b60648201526084016104bb565b506001600160a01b03919091166000908152600760209081526040808320938352929052205490565b6105ec838383604051806020016040528060008152506108b9565b60006106de60095490565b82106107415760405162461bcd60e51b815260206004820152602c60248201527f455243373231456e756d657261626c653a20676c6f62616c20696e646578206f60448201526b7574206f6620626f756e647360a01b60648201526084016104bb565b6009828154811061075457610754611a67565b90600052602060002001549050919050565b6000818152600260205260408120546001600160a01b0316806103bb5760405162461bcd60e51b815260206004820152602960248201527f4552433732313a206f776e657220717565727920666f72206e6f6e657869737460448201526832b73a103a37b5b2b760b91b60648201526084016104bb565b60006001600160a01b0382166108485760405162461bcd60e51b815260206004820152602a60248201527f4552433732313a2062616c616e636520717565727920666f7220746865207a65604482015269726f206164647265737360b01b60648201526084016104bb565b506001600160a01b031660009081526003602052604090205490565b6060600180546103d0906119db565b60008061087f600b5490565b905061088f600b80546001019055565b6108998482610c39565b6108a38184610d65565b9392505050565b6108b5338383610df0565b5050565b6108c333836109da565b6108df5760405162461bcd60e51b81526004016104bb90611a16565b6108eb84848484610ebb565b50505050565b60606103bb82610eee565b6001600160a01b03918216600090815260056020908152604080832093909416825291909152205460ff1690565b60006001600160e01b0319821663780e9d6360e01b14806103bb57506103bb8261105d565b6000908152600260205260409020546001600160a01b0316151590565b600081815260046020526040902080546001600160a01b0319166001600160a01b03841690811790915581906109a182610766565b6001600160a01b03167f8c5be1e5ebec7d5bd14f71427d1e84f3dd0314c0f7b2291e5b200ac8c7c3b92560405160405180910390a45050565b60006109e58261094f565b610a465760405162461bcd60e51b815260206004820152602c60248201527f4552433732313a206f70657261746f7220717565727920666f72206e6f6e657860448201526b34b9ba32b73a103a37b5b2b760a11b60648201526084016104bb565b6000610a5183610766565b9050806001600160a01b0316846001600160a01b03161480610a8c5750836001600160a01b0316610a8184610453565b6001600160a01b0316145b80610a9c5750610a9c81856108fc565b949350505050565b826001600160a01b0316610ab782610766565b6001600160a01b031614610b1b5760405162461bcd60e51b815260206004820152602560248201527f4552433732313a207472616e736665722066726f6d20696e636f72726563742060448201526437bbb732b960d91b60648201526084016104bb565b6001600160a01b038216610b7d5760405162461bcd60e51b8152602060048201526024808201527f4552433732313a207472616e7366657220746f20746865207a65726f206164646044820152637265737360e01b60648201526084016104bb565b610b888383836110ad565b610b9360008261096c565b6001600160a01b0383166000908152600360205260408120805460019290610bbc908490611a93565b90915550506001600160a01b0382166000908152600360205260408120805460019290610bea908490611aaa565b909155505060008181526002602052604080822080546001600160a01b0319166001600160a01b038681169182179092559151849391871691600080516020611c0383398151915291a4505050565b6001600160a01b038216610c8f5760405162461bcd60e51b815260206004820181905260248201527f4552433732313a206d696e7420746f20746865207a65726f206164647265737360448201526064016104bb565b610c988161094f565b15610ce45760405162461bcd60e51b815260206004820152601c60248201527b115490cdcc8c4e881d1bdad95b88185b1c9958591e481b5a5b9d195960221b60448201526064016104bb565b610cf0600083836110ad565b6001600160a01b0382166000908152600360205260408120805460019290610d19908490611aaa565b909155505060008181526002602052604080822080546001600160a01b0319166001600160a01b0386169081179091559051839290600080516020611c03833981519152908290a45050565b610d6e8261094f565b610dd15760405162461bcd60e51b815260206004820152602e60248201527f45524337323155524953746f726167653a2055524920736574206f66206e6f6e60448201526d32bc34b9ba32b73a103a37b5b2b760911b60648201526084016104bb565b600082815260066020908152604090912082516105ec928401906115d2565b816001600160a01b0316836001600160a01b03161415610e4e5760405162461bcd60e51b815260206004820152601960248201527822a9219b99189d1030b8383937bb32903a379031b0b63632b960391b60448201526064016104bb565b6001600160a01b03838116600081815260056020908152604080832094871680845294825291829020805460ff191686151590811790915591519182527f17307eab39ab6107e8899845ad3d59bd9653f200f220920489ca2b5937696c31910160405180910390a3505050565b610ec6848484610aa4565b610ed2848484846110b8565b6108eb5760405162461bcd60e51b81526004016104bb90611ac2565b6060610ef98261094f565b610f5f5760405162461bcd60e51b815260206004820152603160248201527f45524337323155524953746f726167653a2055524920717565727920666f72206044820152703737b732bc34b9ba32b73a103a37b5b2b760791b60648201526084016104bb565b60008281526006602052604081208054610f78906119db565b80601f0160208091040260200160405190810160405280929190818152602001828054610fa4906119db565b8015610ff15780601f10610fc657610100808354040283529160200191610ff1565b820191906000526020600020905b815481529060010190602001808311610fd457829003601f168201915b50505050509050600061100f60408051602081019091526000815290565b9050805160001415611022575092915050565b81511561105457808260405160200161103c929190611b14565b60405160208183030381529060405292505050919050565b610a9c846111b6565b60006001600160e01b031982166380ac58cd60e01b148061108e57506001600160e01b03198216635b5e139f60e01b145b806103bb57506301ffc9a760e01b6001600160e01b03198316146103bb565b6105ec83838361128d565b60006001600160a01b0384163b156111ab57604051630a85bd0160e11b81526001600160a01b0385169063150b7a02906110fc903390899088908890600401611b43565b6020604051808303816000875af1925050508015611137575060408051601f3d908101601f1916820190925261113491810190611b76565b60015b611191573d808015611165576040519150601f19603f3d011682016040523d82523d6000602084013e61116a565b606091505b5080516111895760405162461bcd60e51b81526004016104bb90611ac2565b805181602001fd5b6001600160e01b031916630a85bd0160e11b149050610a9c565b506001949350505050565b60606111c18261094f565b6112255760405162461bcd60e51b815260206004820152602f60248201527f4552433732314d657461646174613a2055524920717565727920666f72206e6f60448201526e3732bc34b9ba32b73a103a37b5b2b760891b60648201526084016104bb565b600061123c60408051602081019091526000815290565b9050600081511161125c57604051806020016040528060008152506108a3565b8061126684611345565b604051602001611277929190611b14565b6040516020818303038152906040529392505050565b6001600160a01b0383166112e8576112e381600980546000838152600a60205260408120829055600182018355919091527f6e1540171b6c0c960b71a7020d9f60077f6af931a8bbf590da0223dacf75c7af0155565b61130b565b816001600160a01b0316836001600160a01b03161461130b5761130b8382611442565b6001600160a01b038216611322576105ec816114df565b826001600160a01b0316826001600160a01b0316146105ec576105ec828261158e565b6060816113695750506040805180820190915260018152600360fc1b602082015290565b8160005b8115611393578061137d81611b93565b915061138c9050600a83611bc4565b915061136d565b6000816001600160401b038111156113ad576113ad611805565b6040519080825280601f01601f1916602001820160405280156113d7576020820181803683370190505b5090505b8415610a9c576113ec600183611a93565b91506113f9600a86611bd8565b611404906030611aaa565b60f81b81838151811061141957611419611a67565b60200101906001600160f81b031916908160001a90535061143b600a86611bc4565b94506113db565b6000600161144f846107dd565b6114599190611a93565b6000838152600860205260409020549091508082146114ac576001600160a01b03841660009081526007602090815260408083208584528252808320548484528184208190558352600890915290208190555b5060009182526008602090815260408084208490556001600160a01b039094168352600781528383209183525290812055565b6009546000906114f190600190611a93565b6000838152600a60205260408120546009805493945090928490811061151957611519611a67565b90600052602060002001549050806009838154811061153a5761153a611a67565b6000918252602080832090910192909255828152600a9091526040808220849055858252812055600980548061157257611572611bec565b6001900381819060005260206000200160009055905550505050565b6000611599836107dd565b6001600160a01b039093166000908152600760209081526040808320868452825280832085905593825260089052919091209190915550565b8280546115de906119db565b90600052602060002090601f0160209004810192826116005760008555611646565b82601f1061161957805160ff1916838001178555611646565b82800160010185558215611646579182015b8281111561164657825182559160200191906001019061162b565b50611652929150611656565b5090565b5b808211156116525760008155600101611657565b60006020828403121561167d57600080fd5b5035919050565b60005b8381101561169f578181015183820152602001611687565b838111156108eb5750506000910152565b600081518084526116c8816020860160208601611684565b601f01601f19169290920160200192915050565b6060815260006116ef60608301866116b0565b828103602084015261170181866116b0565b9050828103604084015261171581856116b0565b9695505050505050565b6001600160e01b03198116811461173557600080fd5b50565b60006020828403121561174a57600080fd5b81356108a38161171f565b6020815260006108a360208301846116b0565b80356001600160a01b038116811461177f57600080fd5b919050565b6000806040838503121561179757600080fd5b6117a083611768565b946020939093013593505050565b6000806000606084860312156117c357600080fd5b6117cc84611768565b92506117da60208501611768565b9150604084013590509250925092565b6000602082840312156117fc57600080fd5b6108a382611768565b634e487b7160e01b600052604160045260246000fd5b60006001600160401b038084111561183557611835611805565b604051601f8501601f19908116603f0116810190828211818310171561185d5761185d611805565b8160405280935085815286868601111561187657600080fd5b858560208301376000602087830101525050509392505050565b600080604083850312156118a357600080fd5b6118ac83611768565b915060208301356001600160401b038111156118c757600080fd5b8301601f810185136118d857600080fd5b6118e78582356020840161181b565b9150509250929050565b6000806040838503121561190457600080fd5b61190d83611768565b91506020830135801515811461192257600080fd5b809150509250929050565b6000806000806080858703121561194357600080fd5b61194c85611768565b935061195a60208601611768565b92506040850135915060608501356001600160401b0381111561197c57600080fd5b8501601f8101871361198d57600080fd5b61199c8782356020840161181b565b91505092959194509250565b600080604083850312156119bb57600080fd5b6119c483611768565b91506119d260208401611768565b90509250929050565b600181811c908216806119ef57607f821691505b60208210811415611a1057634e487b7160e01b600052602260045260246000fd5b50919050565b60208082526031908201527f4552433732313a207472616e736665722063616c6c6572206973206e6f74206f6040820152701ddb995c881b9bdc88185c1c1c9bdd9959607a1b606082015260800190565b634e487b7160e01b600052603260045260246000fd5b634e487b7160e01b600052601160045260246000fd5b600082821015611aa557611aa5611a7d565b500390565b60008219821115611abd57611abd611a7d565b500190565b60208082526032908201527f4552433732313a207472616e7366657220746f206e6f6e20455243373231526560408201527131b2b4bb32b91034b6b83632b6b2b73a32b960711b606082015260800190565b60008351611b26818460208801611684565b835190830190611b3a818360208801611684565b01949350505050565b6001600160a01b0385811682528416602082015260408101839052608060608201819052600090611715908301846116b0565b600060208284031215611b8857600080fd5b81516108a38161171f565b6000600019821415611ba757611ba7611a7d565b5060010190565b634e487b7160e01b600052601260045260246000fd5b600082611bd357611bd3611bae565b500490565b600082611be757611be7611bae565b500690565b634e487b7160e01b600052603160045260246000fdfeddf252ad1be2c89b69c2b068fc378daa952ba7f163c4a11628f55a4df523b3efa26469706673582212208c219c92238608a2d57d466b637c0a224c6c51a8b600fa2c164e4e77a9ac46ad64736f6c634300080c0033a2646970667358221220ff1bd40a2bd8235f47aea57ff3b9725968ba58b9358bc470ebd6a030a343ee4f64736f6c634300080c0033a264697066735822122075c3a6b86485acfeb7cbb2bf54aefe36a82bc32b8575a03ef1108e060d59f56664736f6c634300080c0033",
  "immutableReferences": {},
  "source": "// SPDX-License-Identifier: UNLICENSED\r\npragma solidity ^0.8.0;\r\n\r\nimport './Organisation.sol';\r\nimport './Awardee.sol';\r\n\r\ncontract System {\r\n    // uen => Organisation Obj\r\n    mapping (string => Organisation) public organisations;\r\n    // email => uen[] (list of organisations worked at)\r\n    mapping (string => string[]) public awardeesOrganisations;\r\n    // email => Awardee Obj\r\n    mapping (string => Awardee) public awardees;\r\n\r\n\r\n    constructor() {\r\n    }\r\n\r\n    // register organisation\r\n    function registerOrganisation(\r\n        string memory name,\r\n        string memory uen,\r\n        address admin\r\n    ) public {\r\n        Organisation organisation = new Organisation(name, uen, admin);\r\n        organisations[uen] = organisation;\r\n    }\r\n\r\n    // register awardee\r\n    function registerAwardee(\r\n        string memory email,\r\n        string memory name\r\n    ) public returns (Awardee) {\r\n        if (address(awardees[email]) == address(0)) {\r\n            Awardee awardee = new Awardee(email, name);\r\n            awardees[email] = awardee;\r\n        }\r\n        return awardees[email];\r\n    }\r\n\r\n    // add awardee to organisation\r\n    function addAwardeeToOrganisation(\r\n        string memory uen,\r\n        string memory email,\r\n        string memory name\r\n    ) public {\r\n        // (require) organisation to be created alr\r\n        // create awardee if awardee have not been created\r\n        Awardee awardee = registerAwardee(email, name);\r\n        Organisation organisation = organisations[uen];\r\n        organisation.addAwardee(email, address(awardee));\r\n        awardeesOrganisations[email].push(uen);\r\n    }\r\n\r\n    function linkAwardee(\r\n        string memory email,\r\n        string memory name\r\n    ) public {\r\n        Awardee awardee = registerAwardee(email, name);\r\n        awardee.setWalletAddress(msg.sender);\r\n    }\r\n\r\n    // get all employee certs via email // in awardee contract\r\n\r\n    function getOrganisation(string memory uen) public view returns (Organisation) {\r\n        return organisations[uen];\r\n    }\r\n\r\n    function getAwardee(string memory email) public view returns (Awardee) {\r\n        return awardees[email];\r\n    }\r\n\r\n}\r\n",
  "sourcePath": "C:\\Users\\MHA\\desktop\\credibly-fe\\ethereum\\contracts\\System.sol",
  "compiler": {
    "name": "solc",
    "version": "0.8.12+commit.f00d7308.Emscripten.clang"
  },
  "schemaVersion": "3.4.6",
  "updatedAt": "2022-03-22T14:03:25.828Z",
  "devdoc": {
    "kind": "dev",
    "methods": {},
    "version": 1
  },
  "userdoc": {
    "kind": "user",
    "methods": {},
    "version": 1
  }
}