{
  "contractName": "System",
  "abi": [
    {
      "inputs": [],
      "stateMutability": "nonpayable",
      "type": "constructor"
    },
    {
      "inputs": [
        {
          "internalType": "string",
          "name": "",
          "type": "string"
        }
      ],
      "name": "awardees",
      "outputs": [
        {
          "internalType": "contract Awardee",
          "name": "",
          "type": "address"
        }
      ],
      "stateMutability": "view",
      "type": "function"
    },
    {
      "inputs": [
        {
          "internalType": "string",
          "name": "",
          "type": "string"
        }
      ],
      "name": "organisations",
      "outputs": [
        {
          "internalType": "contract Organisation",
          "name": "",
          "type": "address"
        }
      ],
      "stateMutability": "view",
      "type": "function"
    },
    {
      "inputs": [
        {
          "internalType": "string",
          "name": "name",
          "type": "string"
        },
        {
          "internalType": "string",
          "name": "uen",
          "type": "string"
        },
        {
          "internalType": "address",
          "name": "admin",
          "type": "address"
        }
      ],
      "name": "registerOrganisation",
      "outputs": [],
      "stateMutability": "nonpayable",
      "type": "function"
    },
    {
      "inputs": [
        {
          "internalType": "string",
          "name": "email",
          "type": "string"
        },
        {
          "internalType": "string",
          "name": "name",
          "type": "string"
        }
      ],
      "name": "registerAwardee",
      "outputs": [
        {
          "internalType": "contract Awardee",
          "name": "",
          "type": "address"
        }
      ],
      "stateMutability": "nonpayable",
      "type": "function"
    },
    {
      "inputs": [
        {
          "internalType": "string",
          "name": "uen",
          "type": "string"
        },
        {
          "internalType": "string",
          "name": "email",
          "type": "string"
        },
        {
          "internalType": "string",
          "name": "name",
          "type": "string"
        }
      ],
      "name": "addAwardeeToOrganisation",
      "outputs": [],
      "stateMutability": "nonpayable",
      "type": "function"
    },
    {
      "inputs": [
        {
          "internalType": "string",
          "name": "email",
          "type": "string"
        },
        {
          "internalType": "string",
          "name": "name",
          "type": "string"
        }
      ],
      "name": "linkAwardee",
      "outputs": [],
      "stateMutability": "nonpayable",
      "type": "function"
    },
    {
      "inputs": [
        {
          "internalType": "string",
          "name": "uen",
          "type": "string"
        }
      ],
      "name": "getOrganisation",
      "outputs": [
        {
          "internalType": "contract Organisation",
          "name": "",
          "type": "address"
        }
      ],
      "stateMutability": "view",
      "type": "function"
    },
    {
      "inputs": [
        {
          "internalType": "string",
          "name": "email",
          "type": "string"
        }
      ],
      "name": "getAwardee",
      "outputs": [
        {
          "internalType": "contract Awardee",
          "name": "",
          "type": "address"
        }
      ],
      "stateMutability": "view",
      "type": "function"
    }
  ],
  "bytecode": "0x608060405234801561001057600080fd5b50614a54806100206000396000f3fe60806040523480156200001157600080fd5b5060043610620000825760003560e01c80631f2d8626146200008757806350a3874414620000b657806363db7fb114620000cd578063774a4bb414620001045780637cac6dce146200011d5780639ab2a32a1462000154578063c2e2b40e146200016b578063e913682a1462000182575b600080fd5b6200009e62000098366004620005ce565b62000199565b604051620000ad919062000638565b60405180910390f35b6200009e620000c73660046200064c565b6200028d565b6200009e620000de3660046200064c565b80516020818301810180516000825292820191909301209152546001600160a01b031681565b6200011b62000115366004620005ce565b620002bf565b005b6200009e6200012e3660046200064c565b80516020818301810180516001825292820191909301209152546001600160a01b031681565b6200011b620001653660046200068c565b62000337565b6200009e6200017c3660046200064c565b6200046b565b6200011b620001933660046200071d565b6200047f565b6000806001600160a01b0316600184604051620001b79190620007db565b908152604051908190036020019020546001600160a01b031614156200025a5760008383604051620001e99062000508565b620001f692919062000827565b604051809103906000f08015801562000213573d6000803e3d6000fd5b50905080600185604051620002299190620007db565b90815260405190819003602001902080546001600160a01b03929092166001600160a01b0319909216919091179055505b6001836040516200026c9190620007db565b908152604051908190036020019020546001600160a01b0316905092915050565b60008082604051620002a09190620007db565b908152604051908190036020019020546001600160a01b031692915050565b6000620002cd838362000199565b60405163560d1c3560e11b81529091506001600160a01b0382169063ac1a386a90620002fe90339060040162000638565b600060405180830381600087803b1580156200031957600080fd5b505af11580156200032e573d6000803e3d6000fd5b50505050505050565b60006001600160a01b0316600084604051620003549190620007db565b908152604051908190036020019020546001600160a01b031614620003ce5760405162461bcd60e51b815260206004820152602660248201527f4f7267616e69736174696f6e20616c72656164792065786973747320696e20736044820152653cb9ba32b69760d11b606482015260840160405180910390fd5b6000620003dc838362000199565b905060008085604051620003f19190620007db565b908152604051908190036020018120546316e5466960e21b82526001600160a01b031691508190635b9519a49062000430908790869060040162000859565b600060405180830381600087803b1580156200044b57600080fd5b505af115801562000460573d6000803e3d6000fd5b505050505050505050565b6000600182604051620002a09190620007db565b6000838383604051620004929062000516565b620004a09392919062000885565b604051809103906000f080158015620004bd573d6000803e3d6000fd5b50905080600084604051620004d39190620007db565b90815260405190819003602001902080546001600160a01b03929092166001600160a01b031990921691909117905550505050565b610b0780620008c883390190565b61365080620013cf83390190565b634e487b7160e01b600052604160045260246000fd5b600082601f8301126200054c57600080fd5b81356001600160401b038082111562000569576200056962000524565b604051601f8301601f19908116603f0116810190828211818310171562000594576200059462000524565b81604052838152866020858801011115620005ae57600080fd5b836020870160208301376000602085830101528094505050505092915050565b60008060408385031215620005e257600080fd5b82356001600160401b0380821115620005fa57600080fd5b62000608868387016200053a565b935060208501359150808211156200061f57600080fd5b506200062e858286016200053a565b9150509250929050565b6001600160a01b0391909116815260200190565b6000602082840312156200065f57600080fd5b81356001600160401b038111156200067657600080fd5b62000684848285016200053a565b949350505050565b600080600060608486031215620006a257600080fd5b83356001600160401b0380821115620006ba57600080fd5b620006c8878388016200053a565b94506020860135915080821115620006df57600080fd5b620006ed878388016200053a565b935060408601359150808211156200070457600080fd5b5062000713868287016200053a565b9150509250925092565b6000806000606084860312156200073357600080fd5b83356001600160401b03808211156200074b57600080fd5b62000759878388016200053a565b945060208601359150808211156200077057600080fd5b506200077f868287016200053a565b92505060408401356001600160a01b03811681146200079d57600080fd5b809150509250925092565b60005b83811015620007c5578181015183820152602001620007ab565b83811115620007d5576000848401525b50505050565b60008251620007ef818460208701620007a8565b9190910192915050565b6000815180845262000813816020860160208601620007a8565b601f01601f19169290920160200192915050565b6040815260006200083c6040830185620007f9565b8281036020840152620008508185620007f9565b95945050505050565b6040815260006200086e6040830185620007f9565b905060018060a01b03831660208301529392505050565b6060815260006200089a6060830186620007f9565b8281036020840152620008ae8186620007f9565b91505060018060a01b038316604083015294935050505056fe60806040523480156200001157600080fd5b5060405162000b0738038062000b078339810160408190526200003491620001db565b81516200004990600090602085019062000068565b5080516200005f90600190602084019062000068565b50505062000282565b828054620000769062000245565b90600052602060002090601f0160209004810192826200009a5760008555620000e5565b82601f10620000b557805160ff1916838001178555620000e5565b82800160010185558215620000e5579182015b82811115620000e5578251825591602001919060010190620000c8565b50620000f3929150620000f7565b5090565b5b80821115620000f35760008155600101620000f8565b634e487b7160e01b600052604160045260246000fd5b600082601f8301126200013657600080fd5b81516001600160401b03808211156200015357620001536200010e565b604051601f8301601f19908116603f011681019082821181831017156200017e576200017e6200010e565b816040528381526020925086838588010111156200019b57600080fd5b600091505b83821015620001bf5785820183015181830184015290820190620001a0565b83821115620001d15760008385830101525b9695505050505050565b60008060408385031215620001ef57600080fd5b82516001600160401b03808211156200020757600080fd5b620002158683870162000124565b935060208501519150808211156200022c57600080fd5b506200023b8582860162000124565b9150509250929050565b600181811c908216806200025a57607f821691505b602082108114156200027c57634e487b7160e01b600052602260045260246000fd5b50919050565b61087580620002926000396000f3fe608060405234801561001057600080fd5b50600436106100ba5760003560e01c806306fdde03146100bf578063073469b0146100dd5780631f5ddb4f146101105780632367850514610125578063663b3e22146101875780636ad5b3ea146101b957806370b2afa6146101e457806374f752e5146101f157806377f134c114610204578063820e93f514610217578063ac1a386a1461021f578063cf445b8614610232578063d422f02214610245578063ffad62ca146102e8575b600080fd5b6100c76102fd565b6040516100d4919061065d565b60405180910390f35b6101006100eb3660046106ce565b60056020526000908152604090205460ff1681565b60405190151581526020016100d4565b61011861038b565b6040516100d491906106f0565b6101856101333660046106ce565b600480546001810182556000919091527f8a35acfbc15ff81a39ae7d344fd709f28e8600b4aa8c65c6b64bfe7fe36bd19b0180546001600160a01b0319166001600160a01b0392909216919091179055565b005b61019a610195366004610748565b61045f565b604080516001600160a01b0390931683526020830191909152016100d4565b6002546101cc906001600160a01b031681565b6040516001600160a01b0390911681526020016100d4565b6006546101009060ff1681565b6101cc6101ff366004610748565b610497565b6101856102123660046106ce565b6104c1565b6100c761050c565b61018561022d3660046106ce565b610519565b6101856102403660046106ce565b610558565b610185610253366004610761565b604080518082019091526001600160a01b039283168152602081019182526003805460018101825560009190915290517fc2575a0e9e593c00f959f8c92f12db2869c3395a3b0502d05e2516446f71f85b600290920291820180546001600160a01b0319169190941617909255517fc2575a0e9e593c00f959f8c92f12db2869c3395a3b0502d05e2516446f71f85c90910155565b6102f06105a6565b6040516100d4919061078b565b6001805461030a906107d8565b80601f0160208091040260200160405190810160405280929190818152602001828054610336906107d8565b80156103835780601f1061035857610100808354040283529160200191610383565b820191906000526020600020905b81548152906001019060200180831161036657829003601f168201915b505050505081565b60065460609060ff161561045c576002546001600160a01b03163314806103c657503360009081526005602052604090205460ff1615156001145b6103eb5760405162461bcd60e51b81526004016103e290610813565b60405180910390fd5b6003805480602002602001604051908101604052809291908181526020016000905b82821015610455576000848152602090819020604080518082019091526002850290910180546001600160a01b0316825260019081015482840152908352909201910161040d565b5050505090505b90565b6003818154811061046f57600080fd5b6000918252602090912060029091020180546001909101546001600160a01b03909116915082565b600481815481106104a757600080fd5b6000918252602090912001546001600160a01b0316905081565b6002546001600160a01b031633146104eb5760405162461bcd60e51b81526004016103e290610813565b6001600160a01b03166000908152600560205260409020805460ff19169055565b6000805461030a906107d8565b60065460ff161561052957600080fd5b600280546001600160a01b0319166001600160a01b03929092169190911790556006805460ff19166001179055565b6002546001600160a01b031633146105825760405162461bcd60e51b81526004016103e290610813565b6001600160a01b03166000908152600560205260409020805460ff19166001179055565b60065460609060ff161561045c576002546001600160a01b03163314806105e157503360009081526005602052604090205460ff1615156001145b6105fd5760405162461bcd60e51b81526004016103e290610813565b600480548060200260200160405190810160405280929190818152602001828054801561065357602002820191906000526020600020905b81546001600160a01b03168152600190910190602001808311610635575b5050505050905090565b600060208083528351808285015260005b8181101561068a5785810183015185820160400152820161066e565b8181111561069c576000604083870101525b50601f01601f1916929092016040019392505050565b80356001600160a01b03811681146106c957600080fd5b919050565b6000602082840312156106e057600080fd5b6106e9826106b2565b9392505050565b602080825282518282018190526000919060409081850190868401855b8281101561073b57815180516001600160a01b0316855286015186850152928401929085019060010161070d565b5091979650505050505050565b60006020828403121561075a57600080fd5b5035919050565b6000806040838503121561077457600080fd5b61077d836106b2565b946020939093013593505050565b6020808252825182820181905260009190848201906040850190845b818110156107cc5783516001600160a01b0316835292840192918401916001016107a7565b50909695505050505050565b600181811c908216806107ec57607f821691505b6020821081141561080d57634e487b7160e01b600052602260045260246000fd5b50919050565b6020808252601290820152712ab730baba3437b934b9b2b2103ab9b2b91760711b60408201526060019056fea2646970667358221220d9ec1a95db4ef1f391b0837b3e9d8bf39b2041906a6e33753c32c2ff51b5353964736f6c634300080c003360806040523480156200001157600080fd5b5060405162003650380380620036508339810160408190526200003491620001fc565b82516200004990600090602086019062000089565b5081516200005f90600190602085019062000089565b50600280546001600160a01b0319166001600160a01b039290921691909117905550620002c69050565b828054620000979062000289565b90600052602060002090601f016020900481019282620000bb576000855562000106565b82601f10620000d657805160ff191683800117855562000106565b8280016001018555821562000106579182015b8281111562000106578251825591602001919060010190620000e9565b506200011492915062000118565b5090565b5b8082111562000114576000815560010162000119565b634e487b7160e01b600052604160045260246000fd5b600082601f8301126200015757600080fd5b81516001600160401b03808211156200017457620001746200012f565b604051601f8301601f19908116603f011681019082821181831017156200019f576200019f6200012f565b81604052838152602092508683858801011115620001bc57600080fd5b600091505b83821015620001e05785820183015181830184015290820190620001c1565b83821115620001f25760008385830101525b9695505050505050565b6000806000606084860312156200021257600080fd5b83516001600160401b03808211156200022a57600080fd5b620002388783880162000145565b945060208601519150808211156200024f57600080fd5b506200025e8682870162000145565b604086015190935090506001600160a01b03811681146200027e57600080fd5b809150509250925092565b600181811c908216806200029e57607f821691505b60208210811415620002c057634e487b7160e01b600052602260045260246000fd5b50919050565b61337a80620002d66000396000f3fe60806040523480156200001157600080fd5b50600436106200009a5760003560e01c806306fdde03146200009f578063145b8eb314620000c15780632d7cb52a14620001075780635b9519a41462000111578063755bc7b2146200012a5780637cac6dce146200014157806392ad8eec14620001785780639f560d89146200018f578063ac9e576014620001a6578063f851a44014620001bd575b600080fd5b620000a9620001d1565b604051620000b8919062000818565b60405180910390f35b620000f8620000d2366004620008de565b80516020818301810180516004825292820191909301209152546001600160a01b031681565b604051620000b891906200091e565b620000a962000267565b620001286200012236600462000932565b62000276565b005b620000f86200013b36600462000994565b620002bc565b620000f862000152366004620008de565b80516020818301810180516005825292820191909301209152546001600160a01b031681565b6200012862000189366004620009dc565b62000304565b62000128620001a036600462000a75565b620004a6565b62000128620001b736600462000a75565b620006e2565b600254620000f8906001600160a01b031681565b60008054620001e09062000b06565b80601f01602080910402602001604051908101604052809291908181526020018280546200020e9062000b06565b80156200025f5780601f1062000233576101008083540402835291602001916200025f565b820191906000526020600020905b8154815290600101906020018083116200024157829003601f168201915b505050505081565b60018054620001e09062000b06565b8060058360405162000289919062000b43565b90815260405190819003602001902080546001600160a01b03929092166001600160a01b03199092169190911790555050565b81516020818401810180516003825292820191850191909120919052805482908110620002e857600080fd5b6000918252602090912001546001600160a01b03169150829050565b6002546001600160a01b031633146200033a5760405162461bcd60e51b8152600401620003319062000b61565b60405180910390fd5b8360006005826040516200034f919062000b43565b908152604051908190036020019020546001600160a01b03169050806200038a5760405162461bcd60e51b8152600401620003319062000b8d565b6000808587866040516200039e906200079b565b620003ad949392919062000c66565b604051809103906000f080158015620003ca573d6000803e3d6000fd5b509050600387604051620003df919062000b43565b908152604051602091819003820181208054600181018255600091825292812090920180546001600160a01b0319166001600160a01b0385161790556005906200042b908a9062000b43565b90815260405190819003602001812054632367850560e01b82526001600160a01b031691508190632367850590620004689085906004016200091e565b600060405180830381600087803b1580156200048357600080fd5b505af115801562000498573d6000803e3d6000fd5b505050505050505050505050565b6002546001600160a01b03163314620004d35760405162461bcd60e51b8152600401620003319062000b61565b826000600582604051620004e8919062000b43565b908152604051908190036020019020546001600160a01b0316905080620005235760405162461bcd60e51b8152600401620003319062000b8d565b83600060048260405162000538919062000b43565b908152604051908190036020019020546001600160a01b0316905080620005a05760405162461bcd60e51b815260206004820152601b60248201527a21b2b93a34b334b1b0ba32903237b2b9903737ba1032bc34b9ba1760291b604482015260640162000331565b6000600487604051620005b4919062000b43565b908152604051908190036020018120546001600160a01b03169150600090600590620005e2908b9062000b43565b9081526040519081900360200181205463a15ab08d60e01b82526001600160a01b0390811692506000919084169063a15ab08d90620006289085908c9060040162000cb7565b6020604051808303816000875af115801562000648573d6000803e3d6000fd5b505050506040513d601f19601f820116820180604052508101906200066e919062000cdd565b604051636a11781160e11b81526001600160a01b038581166004830152602482018390529192509083169063d422f02290604401600060405180830381600087803b158015620006bd57600080fd5b505af1158015620006d2573d6000803e3d6000fd5b5050505050505050505050505050565b6002546001600160a01b031633146200070f5760405162461bcd60e51b8152600401620003319062000b61565b600083838360006040516200072490620007a9565b62000733949392919062000cf7565b604051809103906000f08015801562000750573d6000803e3d6000fd5b5090508060048460405162000766919062000b43565b90815260405190819003602001902080546001600160a01b03929092166001600160a01b031990921691909117905550505050565b6106498062000d5883390190565b611fa480620013a183390190565b60005b83811015620007d4578181015183820152602001620007ba565b83811115620007e4576000848401525b50505050565b6000815180845262000804816020860160208601620007b7565b601f01601f19169290920160200192915050565b6020815260006200082d6020830184620007ea565b9392505050565b634e487b7160e01b600052604160045260246000fd5b600082601f8301126200085c57600080fd5b81356001600160401b038082111562000879576200087962000834565b604051601f8301601f19908116603f01168101908282118183101715620008a457620008a462000834565b81604052838152866020858801011115620008be57600080fd5b836020870160208301376000602085830101528094505050505092915050565b600060208284031215620008f157600080fd5b81356001600160401b038111156200090857600080fd5b62000916848285016200084a565b949350505050565b6001600160a01b0391909116815260200190565b600080604083850312156200094657600080fd5b82356001600160401b038111156200095d57600080fd5b6200096b858286016200084a565b92505060208301356001600160a01b03811681146200098957600080fd5b809150509250929050565b60008060408385031215620009a857600080fd5b82356001600160401b03811115620009bf57600080fd5b620009cd858286016200084a565b95602094909401359450505050565b60008060008060808587031215620009f357600080fd5b84356001600160401b038082111562000a0b57600080fd5b62000a19888389016200084a565b9550602087013591508082111562000a3057600080fd5b62000a3e888389016200084a565b9450604087013591508082111562000a5557600080fd5b5062000a64878288016200084a565b949793965093946060013593505050565b60008060006060848603121562000a8b57600080fd5b83356001600160401b038082111562000aa357600080fd5b62000ab1878388016200084a565b9450602086013591508082111562000ac857600080fd5b62000ad6878388016200084a565b9350604086013591508082111562000aed57600080fd5b5062000afc868287016200084a565b9150509250925092565b600181811c9082168062000b1b57607f821691505b6020821081141562000b3d57634e487b7160e01b600052602260045260246000fd5b50919050565b6000825162000b57818460208701620007b7565b9190910192915050565b6020808252601290820152712ab730baba3437b934b9b2b2103ab9b2b91760711b604082015260600190565b60208082526017908201527620bbb0b93232b2903237b2b9903737ba1032bc34b9ba1760491b604082015260600190565b8054600090600181811c908083168062000bd957607f831692505b602080841082141562000bfc57634e487b7160e01b600052602260045260246000fd5b8388526020880182801562000c1a576001811462000c2c5762000c59565b60ff1987168252828201975062000c59565b60008981526020902060005b8781101562000c535781548482015290860190840162000c38565b83019850505b5050505050505092915050565b60808152600062000c7b608083018762000bbe565b828103602084015262000c8f8187620007ea565b9050828103604084015262000ca58186620007ea565b91505082606083015295945050505050565b6001600160a01b03831681526040602082018190526000906200091690830184620007ea565b60006020828403121562000cf057600080fd5b5051919050565b60808152600062000d0c6080830187620007ea565b828103602084015262000d208187620007ea565b9050828103604084015262000d368186620007ea565b9050828103606084015262000d4c818562000bbe565b97965050505050505056fe608060405234801561001057600080fd5b5060405161064938038061064983398101604081905261002f916101d2565b8351610042906000906020870190610077565b508251610056906001906020860190610077565b50815161006a906002906020850190610077565b506003555061029c915050565b82805461008390610261565b90600052602060002090601f0160209004810192826100a557600085556100eb565b82601f106100be57805160ff19168380011785556100eb565b828001600101855582156100eb579182015b828111156100eb5782518255916020019190600101906100d0565b506100f79291506100fb565b5090565b5b808211156100f757600081556001016100fc565b634e487b7160e01b600052604160045260246000fd5b600082601f83011261013757600080fd5b81516001600160401b038082111561015157610151610110565b604051601f8301601f19908116603f0116810190828211818310171561017957610179610110565b8160405283815260209250868385880101111561019557600080fd5b600091505b838210156101b7578582018301518183018401529082019061019a565b838211156101c85760008385830101525b9695505050505050565b600080600080608085870312156101e857600080fd5b84516001600160401b03808211156101ff57600080fd5b61020b88838901610126565b9550602087015191508082111561022157600080fd5b61022d88838901610126565b9450604087015191508082111561024357600080fd5b5061025087828801610126565b606096909601519497939650505050565b600181811c9082168061027557607f821691505b6020821081141561029657634e487b7160e01b600052602260045260246000fd5b50919050565b61039e806102ab6000396000f3fe608060405234801561001057600080fd5b50600436106100415760003560e01c80633784f0001461004657806392f622d11461005b578063b3629f401461006d575b600080fd5b61005961005436600461026d565b600455565b005b6100596005805460ff19166001179055565b610075610090565b604051610087969594939291906102d3565b60405180910390f35b606080606060008060008060016002600354600454600560009054906101000a900460ff168580546100c19061032d565b80601f01602080910402602001604051908101604052809291908181526020018280546100ed9061032d565b801561013a5780601f1061010f5761010080835404028352916020019161013a565b820191906000526020600020905b81548152906001019060200180831161011d57829003601f168201915b5050505050955084805461014d9061032d565b80601f01602080910402602001604051908101604052809291908181526020018280546101799061032d565b80156101c65780601f1061019b576101008083540402835291602001916101c6565b820191906000526020600020905b8154815290600101906020018083116101a957829003601f168201915b505050505094508380546101d99061032d565b80601f01602080910402602001604051908101604052809291908181526020018280546102059061032d565b80156102525780601f1061022757610100808354040283529160200191610252565b820191906000526020600020905b81548152906001019060200180831161023557829003601f168201915b50505050509350955095509550955095509550909192939495565b60006020828403121561027f57600080fd5b5035919050565b6000815180845260005b818110156102ac57602081850181015186830182015201610290565b818111156102be576000602083870101525b50601f01601f19169290920160200192915050565b60c0815260006102e660c0830189610286565b82810360208401526102f88189610286565b9050828103604084015261030c8188610286565b606084019690965250506080810192909252151560a0909101529392505050565b600181811c9082168061034157607f821691505b6020821081141561036257634e487b7160e01b600052602260045260246000fd5b5091905056fea26469706673582212203bd411085aeef675bd378821bf91d298f34bd10866b62588d859a90e63600b1a64736f6c634300080c003360806040523480156200001157600080fd5b5060405162001fa438038062001fa4833981016040819052620000349162000246565b83604051806040016040528060088152602001674372656469626c7960c01b81525081600090805190602001906200006e929190620000d3565b50805162000084906001906020840190620000d3565b505083516200009c9150600c906020860190620000d3565b508151620000b290600d906020850190620000d3565b508051620000c890600e906020840190620000d3565b50505050506200033c565b828054620000e190620002ff565b90600052602060002090601f01602090048101928262000105576000855562000150565b82601f106200012057805160ff191683800117855562000150565b8280016001018555821562000150579182015b828111156200015057825182559160200191906001019062000133565b506200015e92915062000162565b5090565b5b808211156200015e576000815560010162000163565b634e487b7160e01b600052604160045260246000fd5b600082601f830112620001a157600080fd5b81516001600160401b0380821115620001be57620001be62000179565b604051601f8301601f19908116603f01168101908282118183101715620001e957620001e962000179565b816040528381526020925086838588010111156200020657600080fd5b600091505b838210156200022a57858201830151818301840152908201906200020b565b838211156200023c5760008385830101525b9695505050505050565b600080600080608085870312156200025d57600080fd5b84516001600160401b03808211156200027557600080fd5b62000283888389016200018f565b955060208701519150808211156200029a57600080fd5b620002a8888389016200018f565b94506040870151915080821115620002bf57600080fd5b620002cd888389016200018f565b93506060870151915080821115620002e457600080fd5b50620002f3878288016200018f565b91505092959194509250565b600181811c908216806200031457607f821691505b602082108114156200033657634e487b7160e01b600052602260045260246000fd5b50919050565b611c58806200034c6000396000f3fe608060405234801561001057600080fd5b50600436106100e65760003560e01c80630178fe3f146100eb57806301ffc9a71461011657806306fdde0314610139578063081812fc1461014e578063095ea7b31461017957806318160ddd1461018e57806323b872dd146101a05780632f745c59146101b357806342842e0e146101c65780634f6ccce7146101d95780636352211e146101ec57806370a08231146101ff57806395d89b4114610212578063a15ab08d1461021a578063a22cb4651461022d578063b88d4fde14610240578063c87b56dd14610253578063e985e9c514610266575b600080fd5b6100fe6100f936600461166b565b610279565b60405161010d939291906116dc565b60405180910390f35b610129610124366004611738565b6103b0565b604051901515815260200161010d565b6101416103c1565b60405161010d9190611755565b61016161015c36600461166b565b610453565b6040516001600160a01b03909116815260200161010d565b61018c610187366004611784565b6104e0565b005b6009545b60405190815260200161010d565b61018c6101ae3660046117ae565b6105f1565b6101926101c1366004611784565b610622565b61018c6101d43660046117ae565b6106b8565b6101926101e736600461166b565b6106d3565b6101616101fa36600461166b565b610766565b61019261020d3660046117ea565b6107dd565b610141610864565b610192610228366004611890565b610873565b61018c61023b3660046118f1565b6108aa565b61018c61024e36600461192d565b6108b9565b61014161026136600461166b565b6108f1565b6101296102743660046119a8565b6108fc565b6060806060610287846108f1565b600d600e818054610297906119db565b80601f01602080910402602001604051908101604052809291908181526020018280546102c3906119db565b80156103105780601f106102e557610100808354040283529160200191610310565b820191906000526020600020905b8154815290600101906020018083116102f357829003601f168201915b50505050509150808054610323906119db565b80601f016020809104026020016040519081016040528092919081815260200182805461034f906119db565b801561039c5780601f106103715761010080835404028352916020019161039c565b820191906000526020600020905b81548152906001019060200180831161037f57829003601f168201915b505050505090509250925092509193909250565b60006103bb8261092a565b92915050565b6060600080546103d0906119db565b80601f01602080910402602001604051908101604052809291908181526020018280546103fc906119db565b80156104495780601f1061041e57610100808354040283529160200191610449565b820191906000526020600020905b81548152906001019060200180831161042c57829003601f168201915b5050505050905090565b600061045e8261094f565b6104c45760405162461bcd60e51b815260206004820152602c60248201527f4552433732313a20617070726f76656420717565727920666f72206e6f6e657860448201526b34b9ba32b73a103a37b5b2b760a11b60648201526084015b60405180910390fd5b506000908152600460205260409020546001600160a01b031690565b60006104eb82610766565b9050806001600160a01b0316836001600160a01b031614156105595760405162461bcd60e51b815260206004820152602160248201527f4552433732313a20617070726f76616c20746f2063757272656e74206f776e656044820152603960f91b60648201526084016104bb565b336001600160a01b0382161480610575575061057581336108fc565b6105e25760405162461bcd60e51b815260206004820152603860248201527f4552433732313a20617070726f76652063616c6c6572206973206e6f74206f776044820152771b995c881b9bdc88185c1c1c9bdd995908199bdc88185b1b60421b60648201526084016104bb565b6105ec838361096c565b505050565b6105fb33826109da565b6106175760405162461bcd60e51b81526004016104bb90611a16565b6105ec838383610aa4565b600061062d836107dd565b821061068f5760405162461bcd60e51b815260206004820152602b60248201527f455243373231456e756d657261626c653a206f776e657220696e646578206f7560448201526a74206f6620626f756e647360a81b60648201526084016104bb565b506001600160a01b03919091166000908152600760209081526040808320938352929052205490565b6105ec838383604051806020016040528060008152506108b9565b60006106de60095490565b82106107415760405162461bcd60e51b815260206004820152602c60248201527f455243373231456e756d657261626c653a20676c6f62616c20696e646578206f60448201526b7574206f6620626f756e647360a01b60648201526084016104bb565b6009828154811061075457610754611a67565b90600052602060002001549050919050565b6000818152600260205260408120546001600160a01b0316806103bb5760405162461bcd60e51b815260206004820152602960248201527f4552433732313a206f776e657220717565727920666f72206e6f6e657869737460448201526832b73a103a37b5b2b760b91b60648201526084016104bb565b60006001600160a01b0382166108485760405162461bcd60e51b815260206004820152602a60248201527f4552433732313a2062616c616e636520717565727920666f7220746865207a65604482015269726f206164647265737360b01b60648201526084016104bb565b506001600160a01b031660009081526003602052604090205490565b6060600180546103d0906119db565b60008061087f600b5490565b905061088f600b80546001019055565b6108998482610c39565b6108a38184610d65565b9392505050565b6108b5338383610df0565b5050565b6108c333836109da565b6108df5760405162461bcd60e51b81526004016104bb90611a16565b6108eb84848484610ebb565b50505050565b60606103bb82610eee565b6001600160a01b03918216600090815260056020908152604080832093909416825291909152205460ff1690565b60006001600160e01b0319821663780e9d6360e01b14806103bb57506103bb8261105d565b6000908152600260205260409020546001600160a01b0316151590565b600081815260046020526040902080546001600160a01b0319166001600160a01b03841690811790915581906109a182610766565b6001600160a01b03167f8c5be1e5ebec7d5bd14f71427d1e84f3dd0314c0f7b2291e5b200ac8c7c3b92560405160405180910390a45050565b60006109e58261094f565b610a465760405162461bcd60e51b815260206004820152602c60248201527f4552433732313a206f70657261746f7220717565727920666f72206e6f6e657860448201526b34b9ba32b73a103a37b5b2b760a11b60648201526084016104bb565b6000610a5183610766565b9050806001600160a01b0316846001600160a01b03161480610a8c5750836001600160a01b0316610a8184610453565b6001600160a01b0316145b80610a9c5750610a9c81856108fc565b949350505050565b826001600160a01b0316610ab782610766565b6001600160a01b031614610b1b5760405162461bcd60e51b815260206004820152602560248201527f4552433732313a207472616e736665722066726f6d20696e636f72726563742060448201526437bbb732b960d91b60648201526084016104bb565b6001600160a01b038216610b7d5760405162461bcd60e51b8152602060048201526024808201527f4552433732313a207472616e7366657220746f20746865207a65726f206164646044820152637265737360e01b60648201526084016104bb565b610b888383836110ad565b610b9360008261096c565b6001600160a01b0383166000908152600360205260408120805460019290610bbc908490611a93565b90915550506001600160a01b0382166000908152600360205260408120805460019290610bea908490611aaa565b909155505060008181526002602052604080822080546001600160a01b0319166001600160a01b038681169182179092559151849391871691600080516020611c0383398151915291a4505050565b6001600160a01b038216610c8f5760405162461bcd60e51b815260206004820181905260248201527f4552433732313a206d696e7420746f20746865207a65726f206164647265737360448201526064016104bb565b610c988161094f565b15610ce45760405162461bcd60e51b815260206004820152601c60248201527b115490cdcc8c4e881d1bdad95b88185b1c9958591e481b5a5b9d195960221b60448201526064016104bb565b610cf0600083836110ad565b6001600160a01b0382166000908152600360205260408120805460019290610d19908490611aaa565b909155505060008181526002602052604080822080546001600160a01b0319166001600160a01b0386169081179091559051839290600080516020611c03833981519152908290a45050565b610d6e8261094f565b610dd15760405162461bcd60e51b815260206004820152602e60248201527f45524337323155524953746f726167653a2055524920736574206f66206e6f6e60448201526d32bc34b9ba32b73a103a37b5b2b760911b60648201526084016104bb565b600082815260066020908152604090912082516105ec928401906115d2565b816001600160a01b0316836001600160a01b03161415610e4e5760405162461bcd60e51b815260206004820152601960248201527822a9219b99189d1030b8383937bb32903a379031b0b63632b960391b60448201526064016104bb565b6001600160a01b03838116600081815260056020908152604080832094871680845294825291829020805460ff191686151590811790915591519182527f17307eab39ab6107e8899845ad3d59bd9653f200f220920489ca2b5937696c31910160405180910390a3505050565b610ec6848484610aa4565b610ed2848484846110b8565b6108eb5760405162461bcd60e51b81526004016104bb90611ac2565b6060610ef98261094f565b610f5f5760405162461bcd60e51b815260206004820152603160248201527f45524337323155524953746f726167653a2055524920717565727920666f72206044820152703737b732bc34b9ba32b73a103a37b5b2b760791b60648201526084016104bb565b60008281526006602052604081208054610f78906119db565b80601f0160208091040260200160405190810160405280929190818152602001828054610fa4906119db565b8015610ff15780601f10610fc657610100808354040283529160200191610ff1565b820191906000526020600020905b815481529060010190602001808311610fd457829003601f168201915b50505050509050600061100f60408051602081019091526000815290565b9050805160001415611022575092915050565b81511561105457808260405160200161103c929190611b14565b60405160208183030381529060405292505050919050565b610a9c846111b6565b60006001600160e01b031982166380ac58cd60e01b148061108e57506001600160e01b03198216635b5e139f60e01b145b806103bb57506301ffc9a760e01b6001600160e01b03198316146103bb565b6105ec83838361128d565b60006001600160a01b0384163b156111ab57604051630a85bd0160e11b81526001600160a01b0385169063150b7a02906110fc903390899088908890600401611b43565b6020604051808303816000875af1925050508015611137575060408051601f3d908101601f1916820190925261113491810190611b76565b60015b611191573d808015611165576040519150601f19603f3d011682016040523d82523d6000602084013e61116a565b606091505b5080516111895760405162461bcd60e51b81526004016104bb90611ac2565b805181602001fd5b6001600160e01b031916630a85bd0160e11b149050610a9c565b506001949350505050565b60606111c18261094f565b6112255760405162461bcd60e51b815260206004820152602f60248201527f4552433732314d657461646174613a2055524920717565727920666f72206e6f60448201526e3732bc34b9ba32b73a103a37b5b2b760891b60648201526084016104bb565b600061123c60408051602081019091526000815290565b9050600081511161125c57604051806020016040528060008152506108a3565b8061126684611345565b604051602001611277929190611b14565b6040516020818303038152906040529392505050565b6001600160a01b0383166112e8576112e381600980546000838152600a60205260408120829055600182018355919091527f6e1540171b6c0c960b71a7020d9f60077f6af931a8bbf590da0223dacf75c7af0155565b61130b565b816001600160a01b0316836001600160a01b03161461130b5761130b8382611442565b6001600160a01b038216611322576105ec816114df565b826001600160a01b0316826001600160a01b0316146105ec576105ec828261158e565b6060816113695750506040805180820190915260018152600360fc1b602082015290565b8160005b8115611393578061137d81611b93565b915061138c9050600a83611bc4565b915061136d565b6000816001600160401b038111156113ad576113ad611805565b6040519080825280601f01601f1916602001820160405280156113d7576020820181803683370190505b5090505b8415610a9c576113ec600183611a93565b91506113f9600a86611bd8565b611404906030611aaa565b60f81b81838151811061141957611419611a67565b60200101906001600160f81b031916908160001a90535061143b600a86611bc4565b94506113db565b6000600161144f846107dd565b6114599190611a93565b6000838152600860205260409020549091508082146114ac576001600160a01b03841660009081526007602090815260408083208584528252808320548484528184208190558352600890915290208190555b5060009182526008602090815260408084208490556001600160a01b039094168352600781528383209183525290812055565b6009546000906114f190600190611a93565b6000838152600a60205260408120546009805493945090928490811061151957611519611a67565b90600052602060002001549050806009838154811061153a5761153a611a67565b6000918252602080832090910192909255828152600a9091526040808220849055858252812055600980548061157257611572611bec565b6001900381819060005260206000200160009055905550505050565b6000611599836107dd565b6001600160a01b039093166000908152600760209081526040808320868452825280832085905593825260089052919091209190915550565b8280546115de906119db565b90600052602060002090601f0160209004810192826116005760008555611646565b82601f1061161957805160ff1916838001178555611646565b82800160010185558215611646579182015b8281111561164657825182559160200191906001019061162b565b50611652929150611656565b5090565b5b808211156116525760008155600101611657565b60006020828403121561167d57600080fd5b5035919050565b60005b8381101561169f578181015183820152602001611687565b838111156108eb5750506000910152565b600081518084526116c8816020860160208601611684565b601f01601f19169290920160200192915050565b6060815260006116ef60608301866116b0565b828103602084015261170181866116b0565b9050828103604084015261171581856116b0565b9695505050505050565b6001600160e01b03198116811461173557600080fd5b50565b60006020828403121561174a57600080fd5b81356108a38161171f565b6020815260006108a360208301846116b0565b80356001600160a01b038116811461177f57600080fd5b919050565b6000806040838503121561179757600080fd5b6117a083611768565b946020939093013593505050565b6000806000606084860312156117c357600080fd5b6117cc84611768565b92506117da60208501611768565b9150604084013590509250925092565b6000602082840312156117fc57600080fd5b6108a382611768565b634e487b7160e01b600052604160045260246000fd5b60006001600160401b038084111561183557611835611805565b604051601f8501601f19908116603f0116810190828211818310171561185d5761185d611805565b8160405280935085815286868601111561187657600080fd5b858560208301376000602087830101525050509392505050565b600080604083850312156118a357600080fd5b6118ac83611768565b915060208301356001600160401b038111156118c757600080fd5b8301601f810185136118d857600080fd5b6118e78582356020840161181b565b9150509250929050565b6000806040838503121561190457600080fd5b61190d83611768565b91506020830135801515811461192257600080fd5b809150509250929050565b6000806000806080858703121561194357600080fd5b61194c85611768565b935061195a60208601611768565b92506040850135915060608501356001600160401b0381111561197c57600080fd5b8501601f8101871361198d57600080fd5b61199c8782356020840161181b565b91505092959194509250565b600080604083850312156119bb57600080fd5b6119c483611768565b91506119d260208401611768565b90509250929050565b600181811c908216806119ef57607f821691505b60208210811415611a1057634e487b7160e01b600052602260045260246000fd5b50919050565b60208082526031908201527f4552433732313a207472616e736665722063616c6c6572206973206e6f74206f6040820152701ddb995c881b9bdc88185c1c1c9bdd9959607a1b606082015260800190565b634e487b7160e01b600052603260045260246000fd5b634e487b7160e01b600052601160045260246000fd5b600082821015611aa557611aa5611a7d565b500390565b60008219821115611abd57611abd611a7d565b500190565b60208082526032908201527f4552433732313a207472616e7366657220746f206e6f6e20455243373231526560408201527131b2b4bb32b91034b6b83632b6b2b73a32b960711b606082015260800190565b60008351611b26818460208801611684565b835190830190611b3a818360208801611684565b01949350505050565b6001600160a01b0385811682528416602082015260408101839052608060608201819052600090611715908301846116b0565b600060208284031215611b8857600080fd5b81516108a38161171f565b6000600019821415611ba757611ba7611a7d565b5060010190565b634e487b7160e01b600052601260045260246000fd5b600082611bd357611bd3611bae565b500490565b600082611be757611be7611bae565b500690565b634e487b7160e01b600052603160045260246000fdfeddf252ad1be2c89b69c2b068fc378daa952ba7f163c4a11628f55a4df523b3efa26469706673582212208c219c92238608a2d57d466b637c0a224c6c51a8b600fa2c164e4e77a9ac46ad64736f6c634300080c0033a2646970667358221220d1790cb342d6b393c175b39580a88ad7c67b8151bc616139b5ba7e11192481f564736f6c634300080c0033a26469706673582212209c3da11d4b1d876a1e89b22f13c24a2c3c296864aab2478893874afcb99dd44664736f6c634300080c0033",
  "immutableReferences": {},
  "source": "// SPDX-License-Identifier: UNLICENSED\r\npragma solidity ^0.8.0;\r\n\r\nimport './Organisation.sol';\r\nimport './Awardee.sol';\r\n\r\ncontract System {\r\n    // uen => Organisation Obj\r\n    mapping (string => Organisation) public organisations;\r\n    // email => Awardee Obj\r\n    mapping (string => Awardee) public awardees;\r\n\r\n    constructor() {}\r\n\r\n    // register organisation\r\n    function registerOrganisation(\r\n        string memory name,\r\n        string memory uen,\r\n        address admin\r\n    ) public {\r\n        Organisation organisation = new Organisation(name, uen, admin);\r\n        organisations[uen] = organisation;\r\n    }\r\n\r\n    // register awardee\r\n    function registerAwardee(\r\n        string memory email,\r\n        string memory name\r\n    ) public returns (Awardee) {\r\n        if (address(awardees[email]) == address(0)) {\r\n            Awardee awardee = new Awardee(email, name);\r\n            awardees[email] = awardee;\r\n        }\r\n        return awardees[email];\r\n    }\r\n\r\n    // add awardee to organisation\r\n    function addAwardeeToOrganisation(\r\n        string memory uen,\r\n        string memory email,\r\n        string memory name\r\n    ) public {\r\n        require(address(organisations[uen]) == address(0), \"Organisation already exists in system.\");\r\n        Awardee awardee = registerAwardee(email, name);\r\n        Organisation organisation = organisations[uen];\r\n        organisation.addAwardee(email, address(awardee));\r\n    }\r\n\r\n    function linkAwardee(\r\n        string memory email,\r\n        string memory name\r\n    ) public {\r\n        Awardee awardee = registerAwardee(email, name);\r\n        awardee.setWalletAddress(msg.sender);\r\n    }\r\n\r\n    function getOrganisation(string memory uen) public view returns (Organisation) {\r\n        return organisations[uen];\r\n    }\r\n\r\n    function getAwardee(string memory email) public view returns (Awardee) {\r\n        return awardees[email];\r\n    }\r\n\r\n}\r\n",
  "sourcePath": "C:\\Users\\MHA\\desktop\\credibly-fe\\ethereum\\contracts\\System.sol",
  "compiler": {
    "name": "solc",
    "version": "0.8.12+commit.f00d7308.Emscripten.clang"
  },
  "schemaVersion": "3.4.6",
  "updatedAt": "2022-03-24T16:18:58.301Z",
  "devdoc": {
    "kind": "dev",
    "methods": {},
    "version": 1
  },
  "userdoc": {
    "kind": "user",
    "methods": {},
    "version": 1
  }
}