{
  "contractName": "System",
  "abi": [
    {
      "inputs": [],
      "stateMutability": "nonpayable",
      "type": "constructor"
    },
    {
      "inputs": [
        {
          "internalType": "string",
          "name": "",
          "type": "string"
        }
      ],
      "name": "awardees",
      "outputs": [
        {
          "internalType": "contract Awardee",
          "name": "",
          "type": "address"
        }
      ],
      "stateMutability": "view",
      "type": "function"
    },
    {
      "inputs": [
        {
          "internalType": "string",
          "name": "",
          "type": "string"
        },
        {
          "internalType": "uint256",
          "name": "",
          "type": "uint256"
        }
      ],
      "name": "awardeesOrganisations",
      "outputs": [
        {
          "internalType": "contract Organisation",
          "name": "",
          "type": "address"
        }
      ],
      "stateMutability": "view",
      "type": "function"
    },
    {
      "inputs": [
        {
          "internalType": "string",
          "name": "",
          "type": "string"
        }
      ],
      "name": "organisations",
      "outputs": [
        {
          "internalType": "contract Organisation",
          "name": "",
          "type": "address"
        }
      ],
      "stateMutability": "view",
      "type": "function"
    },
    {
      "inputs": [
        {
          "internalType": "string",
          "name": "name",
          "type": "string"
        },
        {
          "internalType": "string",
          "name": "uen",
          "type": "string"
        },
        {
          "internalType": "address",
          "name": "admin",
          "type": "address"
        }
      ],
      "name": "registerOrganisation",
      "outputs": [],
      "stateMutability": "nonpayable",
      "type": "function"
    },
    {
      "inputs": [
        {
          "internalType": "string",
          "name": "email",
          "type": "string"
        },
        {
          "internalType": "string",
          "name": "name",
          "type": "string"
        }
      ],
      "name": "registerAwardee",
      "outputs": [
        {
          "internalType": "contract Awardee",
          "name": "",
          "type": "address"
        }
      ],
      "stateMutability": "nonpayable",
      "type": "function"
    },
    {
      "inputs": [
        {
          "internalType": "string",
          "name": "uen",
          "type": "string"
        },
        {
          "internalType": "string",
          "name": "email",
          "type": "string"
        },
        {
          "internalType": "string",
          "name": "name",
          "type": "string"
        }
      ],
      "name": "addAwardeeToOrganisation",
      "outputs": [],
      "stateMutability": "nonpayable",
      "type": "function"
    },
    {
      "inputs": [
        {
          "internalType": "string",
          "name": "uen",
          "type": "string"
        },
        {
          "internalType": "string[]",
          "name": "emails",
          "type": "string[]"
        },
        {
          "internalType": "string[]",
          "name": "names",
          "type": "string[]"
        }
      ],
      "name": "addAwardeesToOrganisation",
      "outputs": [],
      "stateMutability": "nonpayable",
      "type": "function"
    },
    {
      "inputs": [
        {
          "internalType": "string",
          "name": "email",
          "type": "string"
        },
        {
          "internalType": "string",
          "name": "name",
          "type": "string"
        }
      ],
      "name": "linkAwardee",
      "outputs": [],
      "stateMutability": "nonpayable",
      "type": "function"
    },
    {
      "inputs": [
        {
          "internalType": "string",
          "name": "oldEmail",
          "type": "string"
        },
        {
          "internalType": "string",
          "name": "newEmail",
          "type": "string"
        }
      ],
      "name": "changeEmail",
      "outputs": [],
      "stateMutability": "nonpayable",
      "type": "function"
    }
  ],
  "bytecode": "0x608060405234801561001057600080fd5b50615849806100206000396000f3fe60806040523480156200001157600080fd5b50600436106200008d5760003560e01c806238981914620000925780631f2d862614620000ab57806363db7fb114620000da578063750e16c61462000111578063774a4bb414620001285780637cac6dce146200013f5780638c02ebee14620001765780639ab2a32a146200018d578063e913682a14620001a4575b600080fd5b620000a9620000a336600462000b8a565b620001bb565b005b620000c2620000bc36600462000b8a565b620004f6565b604051620000d1919062000bf4565b60405180910390f35b620000c2620000eb36600462000c08565b80516020818301810180516000825292820191909301209152546001600160a01b031681565b620000a96200012236600462000cf2565b620005ea565b620000a96200013936600462000b8a565b6200069a565b620000c26200015036600462000c08565b80516020818301810180516001825292820191909301209152546001600160a01b031681565b620000c26200018736600462000d83565b62000712565b620000a96200019e36600462000dcb565b6200075a565b620000a9620001b536600462000e52565b62000903565b60006001600160a01b0316600183604051620001d8919062000f0c565b908152604051908190036020019020546001600160a01b031614156200023f5760405162461bcd60e51b815260206004820152601760248201527620bbb0b93232b2903237b2b9903737ba1032bc34b9ba1760491b60448201526064015b60405180910390fd5b60018260405162000251919062000f0c565b9081526040519081900360200181205463f06099af60e01b82526001600160a01b03169063f06099af906200028b90849060040162000f58565b600060405180830381600087803b158015620002a657600080fd5b505af1158015620002bb573d6000803e3d6000fd5b50505050600182604051620002d1919062000f0c565b908152604051908190036020018120546001600160a01b031690600190620002fb90849062000f0c565b90815260405190819003602001812080546001600160a01b03939093166001600160a01b0319909316929092179091556001906200033b90849062000f0c565b90815260405190819003602001812080546001600160a01b03191690556002906200036890849062000f0c565b908152602001604051809103902060028260405162000388919062000f0c565b9081526040519081900360200190208154620003a5929062000a20565b506000600282604051620003ba919062000f0c565b90815260408051918290036020908101832080548083028501830190935282845291908301828280156200041857602002820191906000526020600020905b81546001600160a01b03168152600190910190602001808311620003f9575b5050505050905060005b8151811015620004c25781818151811062000441576200044162000f74565b60200260200101516001600160a01b0316632789755785856040518363ffffffff1660e01b81526004016200047892919062000f8a565b600060405180830381600087803b1580156200049357600080fd5b505af1158015620004a8573d6000803e3d6000fd5b505050508080620004b99062000fbc565b91505062000422565b50600283604051620004d5919062000f0c565b90815260200160405180910390206000620004f1919062000a75565b505050565b6000806001600160a01b031660018460405162000514919062000f0c565b908152604051908190036020019020546001600160a01b03161415620005b75760008383604051620005469062000a98565b6200055392919062000f8a565b604051809103906000f08015801562000570573d6000803e3d6000fd5b5090508060018560405162000586919062000f0c565b90815260405190819003602001902080546001600160a01b03929092166001600160a01b0319909216919091179055505b600183604051620005c9919062000f0c565b908152604051908190036020019020546001600160a01b0316905092915050565b80518251146200062d5760405162461bcd60e51b815260206004820152600d60248201526c24b73b30b634b2103230ba309760991b604482015260640162000236565b60005b825181101562000694576200067f8484838151811062000654576200065462000f74565b602002602001015184848151811062000671576200067162000f74565b60200260200101516200075a565b806200068b8162000fbc565b91505062000630565b50505050565b6000620006a88383620004f6565b60405163560d1c3560e11b81529091506001600160a01b0382169063ac1a386a90620006d990329060040162000bf4565b600060405180830381600087803b158015620006f457600080fd5b505af115801562000709573d6000803e3d6000fd5b50505050505050565b815160208184018101805160028252928201918501919091209190528054829081106200073e57600080fd5b6000918252602090912001546001600160a01b03169150829050565b60006001600160a01b031660008460405162000777919062000f0c565b908152604051908190036020019020546001600160a01b03161415620008165760405162461bcd60e51b815260206004820152604760248201527f4f7267616e69736174696f6e20646f6573206e6f74206578697374207379737460448201527f656d2c20706c65617365207265676973746572206f7267616e69736174696f6e606482015266103334b939ba1760c91b608482015260a40162000236565b6000620008248383620004f6565b90506000808560405162000839919062000f0c565b908152604051908190036020018120546316e5466960e21b82526001600160a01b031691508190635b9519a49062000878908790869060040162000fe6565b600060405180830381600087803b1580156200089357600080fd5b505af1158015620008a8573d6000803e3d6000fd5b50505050600284604051620008be919062000f0c565b90815260405160209181900382019020805460018101825560009182529190200180546001600160a01b0319166001600160a01b039290921691909117905550505050565b60006001600160a01b031660008360405162000920919062000f0c565b908152604051908190036020019020546001600160a01b031614620009975760405162461bcd60e51b815260206004820152602660248201527f4f7267616e69736174696f6e20616c72656164792065786973747320696e20736044820152653cb9ba32b69760d11b606482015260840162000236565b6000838383604051620009aa9062000aa6565b620009b89392919062001012565b604051809103906000f080158015620009d5573d6000803e3d6000fd5b50905080600084604051620009eb919062000f0c565b90815260405190819003602001902080546001600160a01b03929092166001600160a01b031990921691909117905550505050565b82805482825590600052602060002090810192821562000a635760005260206000209182015b8281111562000a6357825482559160010191906001019062000a46565b5062000a7192915062000ab4565b5090565b508054600082559060005260206000209081019062000a95919062000ab4565b50565b610cb1806200105583390190565b613b0e8062001d0683390190565b5b8082111562000a71576000815560010162000ab5565b634e487b7160e01b600052604160045260246000fd5b604051601f8201601f191681016001600160401b038111828210171562000b0c5762000b0c62000acb565b604052919050565b600082601f83011262000b2657600080fd5b81356001600160401b0381111562000b425762000b4262000acb565b62000b57601f8201601f191660200162000ae1565b81815284602083860101111562000b6d57600080fd5b816020850160208301376000918101602001919091529392505050565b6000806040838503121562000b9e57600080fd5b82356001600160401b038082111562000bb657600080fd5b62000bc48683870162000b14565b9350602085013591508082111562000bdb57600080fd5b5062000bea8582860162000b14565b9150509250929050565b6001600160a01b0391909116815260200190565b60006020828403121562000c1b57600080fd5b81356001600160401b0381111562000c3257600080fd5b62000c408482850162000b14565b949350505050565b600082601f83011262000c5a57600080fd5b813560206001600160401b038083111562000c795762000c7962000acb565b8260051b62000c8a83820162000ae1565b938452858101830193838101908886111562000ca557600080fd5b84880192505b8583101562000ce65782358481111562000cc55760008081fd5b62000cd58a87838c010162000b14565b835250918401919084019062000cab565b98975050505050505050565b60008060006060848603121562000d0857600080fd5b83356001600160401b038082111562000d2057600080fd5b62000d2e8783880162000b14565b9450602086013591508082111562000d4557600080fd5b62000d538783880162000c48565b9350604086013591508082111562000d6a57600080fd5b5062000d798682870162000c48565b9150509250925092565b6000806040838503121562000d9757600080fd5b82356001600160401b0381111562000dae57600080fd5b62000dbc8582860162000b14565b95602094909401359450505050565b60008060006060848603121562000de157600080fd5b83356001600160401b038082111562000df957600080fd5b62000e078783880162000b14565b9450602086013591508082111562000e1e57600080fd5b62000e2c8783880162000b14565b9350604086013591508082111562000e4357600080fd5b5062000d798682870162000b14565b60008060006060848603121562000e6857600080fd5b83356001600160401b038082111562000e8057600080fd5b62000e8e8783880162000b14565b9450602086013591508082111562000ea557600080fd5b5062000eb48682870162000b14565b92505060408401356001600160a01b038116811462000ed257600080fd5b809150509250925092565b60005b8381101562000efa57818101518382015260200162000ee0565b83811115620006945750506000910152565b6000825162000f2081846020870162000edd565b9190910192915050565b6000815180845262000f4481602086016020860162000edd565b601f01601f19169290920160200192915050565b60208152600062000f6d602083018462000f2a565b9392505050565b634e487b7160e01b600052603260045260246000fd5b60408152600062000f9f604083018562000f2a565b828103602084015262000fb3818562000f2a565b95945050505050565b600060001982141562000fdf57634e487b7160e01b600052601160045260246000fd5b5060010190565b60408152600062000ffb604083018562000f2a565b905060018060a01b03831660208301529392505050565b60608152600062001027606083018662000f2a565b82810360208401526200103b818662000f2a565b91505060018060a01b038316604083015294935050505056fe60806040523480156200001157600080fd5b5060405162000cb138038062000cb18339810160408190526200003491620001ea565b81516200004990600090602085019062000077565b5080516200005f90600190602084019062000077565b50506005805461ff0019166101001790555062000291565b828054620000859062000254565b90600052602060002090601f016020900481019282620000a95760008555620000f4565b82601f10620000c457805160ff1916838001178555620000f4565b82800160010185558215620000f4579182015b82811115620000f4578251825591602001919060010190620000d7565b506200010292915062000106565b5090565b5b8082111562000102576000815560010162000107565b634e487b7160e01b600052604160045260246000fd5b600082601f8301126200014557600080fd5b81516001600160401b03808211156200016257620001626200011d565b604051601f8301601f19908116603f011681019082821181831017156200018d576200018d6200011d565b81604052838152602092508683858801011115620001aa57600080fd5b600091505b83821015620001ce5785820183015181830184015290820190620001af565b83821115620001e05760008385830101525b9695505050505050565b60008060408385031215620001fe57600080fd5b82516001600160401b03808211156200021657600080fd5b620002248683870162000133565b935060208501519150808211156200023b57600080fd5b506200024a8582860162000133565b9150509250929050565b600181811c908216806200026957607f821691505b602082108114156200028b57634e487b7160e01b600052602260045260246000fd5b50919050565b610a1080620002a16000396000f3fe608060405234801561001057600080fd5b50600436106100ba5760003560e01c806306fdde03146100bf578063073469b0146100dd5780631f5ddb4f14610110578063236785051461012557806328c30c07146101875780636ad5b3ea1461019a57806370b2afa6146101c557806377f134c1146101d2578063820e93f5146101e5578063ac1a386a146101ed578063cf445b8614610200578063d422f02214610213578063f06099af146102b6578063ffad62ca146102c9575b600080fd5b6100c76102de565b6040516100d49190610729565b60405180910390f35b6101006100eb36600461079a565b60066020526000908152604090205460ff1681565b60405190151581526020016100d4565b61011861036c565b6040516100d491906107bc565b61018561013336600461079a565b600480546001810182556000919091527f8a35acfbc15ff81a39ae7d344fd709f28e8600b4aa8c65c6b64bfe7fe36bd19b0180546001600160a01b0319166001600160a01b0392909216919091179055565b005b610185610195366004610814565b610457565b6002546101ad906001600160a01b031681565b6040516001600160a01b0390911681526020016100d4565b6005546101009060ff1681565b6101856101e036600461079a565b61049b565b6100c76104e6565b6101856101fb36600461079a565b6104f3565b61018561020e36600461079a565b610532565b610185610221366004610836565b604080518082019091526001600160a01b039283168152602081019182526003805460018101825560009190915290517fc2575a0e9e593c00f959f8c92f12db2869c3395a3b0502d05e2516446f71f85b600290920291820180546001600160a01b0319169190941617909255517fc2575a0e9e593c00f959f8c92f12db2869c3395a3b0502d05e2516446f71f85c90910155565b6101856102c4366004610876565b610580565b6102d16105c1565b6040516100d49190610926565b600180546102eb90610973565b80601f016020809104026020016040519081016040528092919081815260200182805461031790610973565b80156103645780601f1061033957610100808354040283529160200191610364565b820191906000526020600020905b81548152906001019060200180831161034757829003601f168201915b505050505081565b60055460609060ff16156103e45760055460ff610100909104161515600114806103a057506002546001600160a01b031632145b806103bf57503260009081526006602052604090205460ff1615156001145b6103e45760405162461bcd60e51b81526004016103db906109ae565b60405180910390fd5b6003805480602002602001604051908101604052809291908181526020016000905b8282101561044e576000848152602090819020604080518082019091526002850290910180546001600160a01b03168252600190810154828401529083529092019101610406565b50505050905090565b6002546001600160a01b031632146104815760405162461bcd60e51b81526004016103db906109ae565b600580549115156101000261ff0019909216919091179055565b6002546001600160a01b031632146104c55760405162461bcd60e51b81526004016103db906109ae565b6001600160a01b03166000908152600660205260409020805460ff19169055565b600080546102eb90610973565b60055460ff161561050357600080fd5b600280546001600160a01b0319166001600160a01b03929092169190911790556005805460ff19166001179055565b6002546001600160a01b0316321461055c5760405162461bcd60e51b81526004016103db906109ae565b6001600160a01b03166000908152600660205260409020805460ff19166001179055565b6002546001600160a01b031632146105aa5760405162461bcd60e51b81526004016103db906109ae565b80516105bd906000906020840190610690565b5050565b60055460609060ff16156106305760055460ff610100909104161515600114806105f557506002546001600160a01b031632145b8061061457503260009081526006602052604090205460ff1615156001145b6106305760405162461bcd60e51b81526004016103db906109ae565b600480548060200260200160405190810160405280929190818152602001828054801561068657602002820191906000526020600020905b81546001600160a01b03168152600190910190602001808311610668575b5050505050905090565b82805461069c90610973565b90600052602060002090601f0160209004810192826106be5760008555610704565b82601f106106d757805160ff1916838001178555610704565b82800160010185558215610704579182015b828111156107045782518255916020019190600101906106e9565b50610710929150610714565b5090565b5b808211156107105760008155600101610715565b600060208083528351808285015260005b818110156107565785810183015185820160400152820161073a565b81811115610768576000604083870101525b50601f01601f1916929092016040019392505050565b80356001600160a01b038116811461079557600080fd5b919050565b6000602082840312156107ac57600080fd5b6107b58261077e565b9392505050565b602080825282518282018190526000919060409081850190868401855b8281101561080757815180516001600160a01b031685528601518685015292840192908501906001016107d9565b5091979650505050505050565b60006020828403121561082657600080fd5b813580151581146107b557600080fd5b6000806040838503121561084957600080fd5b6108528361077e565b946020939093013593505050565b634e487b7160e01b600052604160045260246000fd5b60006020828403121561088857600080fd5b81356001600160401b038082111561089f57600080fd5b818401915084601f8301126108b357600080fd5b8135818111156108c5576108c5610860565b604051601f8201601f19908116603f011681019083821181831017156108ed576108ed610860565b8160405282815287602084870101111561090657600080fd5b826020860160208301376000928101602001929092525095945050505050565b6020808252825182820181905260009190848201906040850190845b818110156109675783516001600160a01b031683529284019291840191600101610942565b50909695505050505050565b600181811c9082168061098757607f821691505b602082108114156109a857634e487b7160e01b600052602260045260246000fd5b50919050565b6020808252601290820152712ab730baba3437b934b9b2b2103ab9b2b91760711b60408201526060019056fea2646970667358221220d8d7c32fd34e5e2ae80ef2288c0c4b76cd047264196b941252bc684023899abf64736f6c634300080c003360806040523480156200001157600080fd5b5060405162003b0e38038062003b0e8339810160408190526200003491620001fc565b82516200004990600090602086019062000089565b5081516200005f90600190602085019062000089565b50600280546001600160a01b0319166001600160a01b039290921691909117905550620002c69050565b828054620000979062000289565b90600052602060002090601f016020900481019282620000bb576000855562000106565b82601f10620000d657805160ff191683800117855562000106565b8280016001018555821562000106579182015b8281111562000106578251825591602001919060010190620000e9565b506200011492915062000118565b5090565b5b8082111562000114576000815560010162000119565b634e487b7160e01b600052604160045260246000fd5b600082601f8301126200015757600080fd5b81516001600160401b03808211156200017457620001746200012f565b604051601f8301601f19908116603f011681019082821181831017156200019f576200019f6200012f565b81604052838152602092508683858801011115620001bc57600080fd5b600091505b83821015620001e05785820183015181830184015290820190620001c1565b83821115620001f25760008385830101525b9695505050505050565b6000806000606084860312156200021257600080fd5b83516001600160401b03808211156200022a57600080fd5b620002388783880162000145565b945060208601519150808211156200024f57600080fd5b506200025e8682870162000145565b604086015190935090506001600160a01b03811681146200027e57600080fd5b809150509250925092565b600181811c908216806200029e57607f821691505b60208210811415620002c057634e487b7160e01b600052602260045260246000fd5b50919050565b61383880620002d66000396000f3fe60806040523480156200001157600080fd5b5060043610620000b25760003560e01c806306fdde0314620000b75780630d7e2e5b14620000d9578063145b8eb314620000ff5780632789755714620001365780632d7cb52a146200014f5780635b9519a414620001595780637cac6dce146200017057806392ad8eec14620001a75780639f560d8914620001be578063ac9e576014620001d5578063ebf814ec14620001ec578063f851a4401462000203575b600080fd5b620000c162000217565b604051620000d0919062000a4b565b60405180910390f35b620000f0620000ea36600462000a67565b620002ad565b604051620000d0919062000a81565b620000f06200011036600462000b54565b80516020818301810180516004825292820191909301209152546001600160a01b031681565b6200014d6200014736600462000b94565b620002d8565b005b620000c1620003d0565b6200014d6200016a36600462000bfe565b620003df565b620000f06200018136600462000b54565b80516020818301810180516005825292820191909301209152546001600160a01b031681565b6200014d620001b836600462000c60565b62000467565b6200014d620001cf36600462000cf9565b62000600565b6200014d620001e636600462000cf9565b6200083c565b6200014d620001fd36600462000e34565b620008f5565b600254620000f0906001600160a01b031681565b60008054620002269062000ebb565b80601f0160208091040260200160405190810160405280929190818152602001828054620002549062000ebb565b8015620002a55780601f106200027957610100808354040283529160200191620002a5565b820191906000526020600020905b8154815290600101906020018083116200028757829003601f168201915b505050505081565b60068181548110620002be57600080fd5b6000918252602090912001546001600160a01b0316905081565b816000600582604051620002ed919062000ef8565b908152604051908190036020019020546001600160a01b0316905080620003315760405162461bcd60e51b8152600401620003289062000f16565b60405180910390fd5b60058460405162000343919062000ef8565b908152604051908190036020018120546001600160a01b0316906005906200036d90869062000ef8565b90815260405190819003602001812080546001600160a01b03939093166001600160a01b031990931692909217909155600590620003ad90869062000ef8565b90815260405190819003602001902080546001600160a01b031916905550505050565b60018054620002269062000ebb565b600081905080600584604051620003f7919062000ef8565b90815260405190819003602001902080546001600160a01b039283166001600160a01b031991821617909155600680546001810182556000919091527ff652222313e28459528d920b65115c16c04f3efc82aaedc97be59f3f377c0d3f0180549390921692169190911790555050565b6002546001600160a01b03163214620004945760405162461bcd60e51b8152600401620003289062000f47565b836000600582604051620004a9919062000ef8565b908152604051908190036020019020546001600160a01b0316905080620004e45760405162461bcd60e51b8152600401620003289062000f16565b600080868686604051620004f890620009d2565b6200050794939291906200101b565b604051809103906000f08015801562000524573d6000803e3d6000fd5b50905060038760405162000539919062000ef8565b908152604051602091819003820181208054600181018255600091825292812090920180546001600160a01b0319166001600160a01b03851617905560059062000585908a9062000ef8565b90815260405190819003602001812054632367850560e01b82526001600160a01b031691508190632367850590620005c290859060040162000a81565b600060405180830381600087803b158015620005dd57600080fd5b505af1158015620005f2573d6000803e3d6000fd5b505050505050505050505050565b6002546001600160a01b031632146200062d5760405162461bcd60e51b8152600401620003289062000f47565b82600060058260405162000642919062000ef8565b908152604051908190036020019020546001600160a01b03169050806200067d5760405162461bcd60e51b8152600401620003289062000f16565b83600060048260405162000692919062000ef8565b908152604051908190036020019020546001600160a01b0316905080620006fa5760405162461bcd60e51b815260206004820152601b60248201527a21b2b93a34b334b1b0ba32903237b2b9903737ba1032bc34b9ba1760291b604482015260640162000328565b60006004876040516200070e919062000ef8565b908152604051908190036020018120546001600160a01b031691506000906005906200073c908b9062000ef8565b9081526040519081900360200181205463a15ab08d60e01b82526001600160a01b0390811692506000919084169063a15ab08d90620007829085908c906004016200106c565b6020604051808303816000875af1158015620007a2573d6000803e3d6000fd5b505050506040513d601f19601f82011682018060405250810190620007c8919062001092565b604051636a11781160e11b81526001600160a01b038581166004830152602482018390529192509083169063d422f02290604401600060405180830381600087803b1580156200081757600080fd5b505af11580156200082c573d6000803e3d6000fd5b5050505050505050505050505050565b6002546001600160a01b03163214620008695760405162461bcd60e51b8152600401620003289062000f47565b600083838360006040516200087e90620009e0565b6200088d9493929190620010ac565b604051809103906000f080158015620008aa573d6000803e3d6000fd5b50905080600484604051620008c0919062000ef8565b90815260405190819003602001902080546001600160a01b03929092166001600160a01b031990921691909117905550505050565b6002546001600160a01b03163214620009225760405162461bcd60e51b8152600401620003289062000f47565b8051835114620009655760405162461bcd60e51b815260206004820152600d60248201526c24b73b30b634b2103230ba309760991b604482015260640162000328565b60005b8351811015620009cc57620009b78482815181106200098b576200098b6200110c565b602002602001015184848481518110620009a957620009a96200110c565b602002602001015162000600565b80620009c38162001122565b91505062000968565b50505050565b610631806200114d83390190565b612085806200177e83390190565b60005b8381101562000a0b578181015183820152602001620009f1565b83811115620009cc5750506000910152565b6000815180845262000a37816020860160208601620009ee565b601f01601f19169290920160200192915050565b60208152600062000a60602083018462000a1d565b9392505050565b60006020828403121562000a7a57600080fd5b5035919050565b6001600160a01b0391909116815260200190565b634e487b7160e01b600052604160045260246000fd5b604051601f8201601f191681016001600160401b038111828210171562000ad65762000ad662000a95565b604052919050565b600082601f83011262000af057600080fd5b81356001600160401b0381111562000b0c5762000b0c62000a95565b62000b21601f8201601f191660200162000aab565b81815284602083860101111562000b3757600080fd5b816020850160208301376000918101602001919091529392505050565b60006020828403121562000b6757600080fd5b81356001600160401b0381111562000b7e57600080fd5b62000b8c8482850162000ade565b949350505050565b6000806040838503121562000ba857600080fd5b82356001600160401b038082111562000bc057600080fd5b62000bce8683870162000ade565b9350602085013591508082111562000be557600080fd5b5062000bf48582860162000ade565b9150509250929050565b6000806040838503121562000c1257600080fd5b82356001600160401b0381111562000c2957600080fd5b62000c378582860162000ade565b92505060208301356001600160a01b038116811462000c5557600080fd5b809150509250929050565b6000806000806080858703121562000c7757600080fd5b84356001600160401b038082111562000c8f57600080fd5b62000c9d8883890162000ade565b9550602087013591508082111562000cb457600080fd5b62000cc28883890162000ade565b9450604087013591508082111562000cd957600080fd5b5062000ce88782880162000ade565b949793965093946060013593505050565b60008060006060848603121562000d0f57600080fd5b83356001600160401b038082111562000d2757600080fd5b62000d358783880162000ade565b9450602086013591508082111562000d4c57600080fd5b62000d5a8783880162000ade565b9350604086013591508082111562000d7157600080fd5b5062000d808682870162000ade565b9150509250925092565b600082601f83011262000d9c57600080fd5b813560206001600160401b038083111562000dbb5762000dbb62000a95565b8260051b62000dcc83820162000aab565b938452858101830193838101908886111562000de757600080fd5b84880192505b8583101562000e285782358481111562000e075760008081fd5b62000e178a87838c010162000ade565b835250918401919084019062000ded565b98975050505050505050565b60008060006060848603121562000e4a57600080fd5b83356001600160401b038082111562000e6257600080fd5b62000e708783880162000d8a565b9450602086013591508082111562000e8757600080fd5b62000e958783880162000ade565b9350604086013591508082111562000eac57600080fd5b5062000d808682870162000d8a565b600181811c9082168062000ed057607f821691505b6020821081141562000ef257634e487b7160e01b600052602260045260246000fd5b50919050565b6000825162000f0c818460208701620009ee565b9190910192915050565b60208082526017908201527620bbb0b93232b2903237b2b9903737ba1032bc34b9ba1760491b604082015260600190565b6020808252601290820152712ab730baba3437b934b9b2b2103ab9b2b91760711b604082015260600190565b8054600090600181811c908083168062000f8e57607f831692505b602080841082141562000fb157634e487b7160e01b600052602260045260246000fd5b8388526020880182801562000fcf576001811462000fe1576200100e565b60ff198716825282820197506200100e565b60008981526020902060005b87811015620010085781548482015290860190840162000fed565b83019850505b5050505050505092915050565b60808152600062001030608083018762000f73565b828103602084015262001044818762000a1d565b905082810360408401526200105a818662000a1d565b91505082606083015295945050505050565b6001600160a01b038316815260406020820181905260009062000b8c9083018462000a1d565b600060208284031215620010a557600080fd5b5051919050565b608081526000620010c1608083018762000a1d565b8281036020840152620010d5818762000a1d565b90508281036040840152620010eb818662000a1d565b9050828103606084015262001101818562000f73565b979650505050505050565b634e487b7160e01b600052603260045260246000fd5b60006000198214156200114557634e487b7160e01b600052601160045260246000fd5b506001019056fe608060405234801561001057600080fd5b5060405161063138038061063183398101604081905261002f916101d2565b8351610042906000906020870190610077565b508251610056906001906020860190610077565b50815161006a906002906020850190610077565b506003555061029c915050565b82805461008390610261565b90600052602060002090601f0160209004810192826100a557600085556100eb565b82601f106100be57805160ff19168380011785556100eb565b828001600101855582156100eb579182015b828111156100eb5782518255916020019190600101906100d0565b506100f79291506100fb565b5090565b5b808211156100f757600081556001016100fc565b634e487b7160e01b600052604160045260246000fd5b600082601f83011261013757600080fd5b81516001600160401b038082111561015157610151610110565b604051601f8301601f19908116603f0116810190828211818310171561017957610179610110565b8160405283815260209250868385880101111561019557600080fd5b600091505b838210156101b7578582018301518183018401529082019061019a565b838211156101c85760008385830101525b9695505050505050565b600080600080608085870312156101e857600080fd5b84516001600160401b03808211156101ff57600080fd5b61020b88838901610126565b9550602087015191508082111561022157600080fd5b61022d88838901610126565b9450604087015191508082111561024357600080fd5b5061025087828801610126565b606096909601519497939650505050565b600181811c9082168061027557607f821691505b6020821081141561029657634e487b7160e01b600052602260045260246000fd5b50919050565b610386806102ab6000396000f3fe608060405234801561001057600080fd5b50600436106100415760003560e01c80633784f00014610046578063565974d31461005b57806392f622d11461007e575b600080fd5b610059610054366004610255565b600455565b005b610063610090565b604051610075969594939291906102bb565b60405180910390f35b6100596005805460ff19166001179055565b60008054819061009f90610315565b80601f01602080910402602001604051908101604052809291908181526020018280546100cb90610315565b80156101185780601f106100ed57610100808354040283529160200191610118565b820191906000526020600020905b8154815290600101906020018083116100fb57829003601f168201915b50505050509080600101805461012d90610315565b80601f016020809104026020016040519081016040528092919081815260200182805461015990610315565b80156101a65780601f1061017b576101008083540402835291602001916101a6565b820191906000526020600020905b81548152906001019060200180831161018957829003601f168201915b5050505050908060020180546101bb90610315565b80601f01602080910402602001604051908101604052809291908181526020018280546101e790610315565b80156102345780601f1061020957610100808354040283529160200191610234565b820191906000526020600020905b81548152906001019060200180831161021757829003601f168201915b50505050600383015460048401546005909401549293909290915060ff1686565b60006020828403121561026757600080fd5b5035919050565b6000815180845260005b8181101561029457602081850181015186830182015201610278565b818111156102a6576000602083870101525b50601f01601f19169290920160200192915050565b60c0815260006102ce60c083018961026e565b82810360208401526102e0818961026e565b905082810360408401526102f4818861026e565b606084019690965250506080810192909252151560a0909101529392505050565b600181811c9082168061032957607f821691505b6020821081141561034a57634e487b7160e01b600052602260045260246000fd5b5091905056fea26469706673582212201793ec91c2d6060493d022154c92c878144bb63bc14cdc3ca39ac22cca04fc0f64736f6c634300080c003360806040523480156200001157600080fd5b506040516200208538038062002085833981016040819052620000349162000246565b83604051806040016040528060088152602001674372656469626c7960c01b81525081600090805190602001906200006e929190620000d3565b50805162000084906001906020840190620000d3565b505083516200009c9150600c906020860190620000d3565b508151620000b290600d906020850190620000d3565b508051620000c890600e906020840190620000d3565b50505050506200033c565b828054620000e190620002ff565b90600052602060002090601f01602090048101928262000105576000855562000150565b82601f106200012057805160ff191683800117855562000150565b8280016001018555821562000150579182015b828111156200015057825182559160200191906001019062000133565b506200015e92915062000162565b5090565b5b808211156200015e576000815560010162000163565b634e487b7160e01b600052604160045260246000fd5b600082601f830112620001a157600080fd5b81516001600160401b0380821115620001be57620001be62000179565b604051601f8301601f19908116603f01168101908282118183101715620001e957620001e962000179565b816040528381526020925086838588010111156200020657600080fd5b600091505b838210156200022a57858201830151818301840152908201906200020b565b838211156200023c5760008385830101525b9695505050505050565b600080600080608085870312156200025d57600080fd5b84516001600160401b03808211156200027557600080fd5b62000283888389016200018f565b955060208701519150808211156200029a57600080fd5b620002a8888389016200018f565b94506040870151915080821115620002bf57600080fd5b620002cd888389016200018f565b93506060870151915080821115620002e457600080fd5b50620002f3878288016200018f565b91505092959194509250565b600181811c908216806200031457607f821691505b602082108114156200033657634e487b7160e01b600052602260045260246000fd5b50919050565b611d39806200034c6000396000f3fe608060405234801561001057600080fd5b50600436106101075760003560e01c80630178fe3f1461010c57806301ffc9a71461013757806306fdde031461015a578063081812fc1461016f578063095ea7b31461019a57806318160ddd146101af57806323b872dd146101c15780632f745c59146101d457806342842e0e146101e7578063438b12d1146101fa5780634f6ccce7146102025780635629cb0b146102155780636352211e1461021d57806370a08231146102305780637284e4161461024357806395d89b411461024b578063a15ab08d14610253578063a22cb46514610266578063b88d4fde14610279578063c87b56dd1461028c578063e985e9c51461029f575b600080fd5b61011f61011a36600461174c565b6102b2565b60405161012e939291906117bd565b60405180910390f35b61014a610145366004611819565b6103e9565b604051901515815260200161012e565b6101626103fa565b60405161012e9190611836565b61018261017d36600461174c565b61048c565b6040516001600160a01b03909116815260200161012e565b6101ad6101a8366004611865565b610519565b005b6009545b60405190815260200161012e565b6101ad6101cf36600461188f565b61062a565b6101b36101e2366004611865565b61065b565b6101ad6101f536600461188f565b6106f1565b61016261070c565b6101b361021036600461174c565b61079a565b61016261082d565b61018261022b36600461174c565b61083a565b6101b361023e3660046118cb565b6108b1565b610162610938565b610162610945565b6101b3610261366004611971565b610954565b6101ad6102743660046119d2565b61098b565b6101ad610287366004611a0e565b61099a565b61016261029a36600461174c565b6109d2565b61014a6102ad366004611a89565b6109dd565b60608060606102c0846109d2565b600d600e8180546102d090611abc565b80601f01602080910402602001604051908101604052809291908181526020018280546102fc90611abc565b80156103495780601f1061031e57610100808354040283529160200191610349565b820191906000526020600020905b81548152906001019060200180831161032c57829003601f168201915b5050505050915080805461035c90611abc565b80601f016020809104026020016040519081016040528092919081815260200182805461038890611abc565b80156103d55780601f106103aa576101008083540402835291602001916103d5565b820191906000526020600020905b8154815290600101906020018083116103b857829003601f168201915b505050505090509250925092509193909250565b60006103f482610a0b565b92915050565b60606000805461040990611abc565b80601f016020809104026020016040519081016040528092919081815260200182805461043590611abc565b80156104825780601f1061045757610100808354040283529160200191610482565b820191906000526020600020905b81548152906001019060200180831161046557829003601f168201915b5050505050905090565b600061049782610a30565b6104fd5760405162461bcd60e51b815260206004820152602c60248201527f4552433732313a20617070726f76656420717565727920666f72206e6f6e657860448201526b34b9ba32b73a103a37b5b2b760a11b60648201526084015b60405180910390fd5b506000908152600460205260409020546001600160a01b031690565b60006105248261083a565b9050806001600160a01b0316836001600160a01b031614156105925760405162461bcd60e51b815260206004820152602160248201527f4552433732313a20617070726f76616c20746f2063757272656e74206f776e656044820152603960f91b60648201526084016104f4565b336001600160a01b03821614806105ae57506105ae81336109dd565b61061b5760405162461bcd60e51b815260206004820152603860248201527f4552433732313a20617070726f76652063616c6c6572206973206e6f74206f776044820152771b995c881b9bdc88185c1c1c9bdd995908199bdc88185b1b60421b60648201526084016104f4565b6106258383610a4d565b505050565b6106343382610abb565b6106505760405162461bcd60e51b81526004016104f490611af7565b610625838383610b85565b6000610666836108b1565b82106106c85760405162461bcd60e51b815260206004820152602b60248201527f455243373231456e756d657261626c653a206f776e657220696e646578206f7560448201526a74206f6620626f756e647360a81b60648201526084016104f4565b506001600160a01b03919091166000908152600760209081526040808320938352929052205490565b6106258383836040518060200160405280600081525061099a565b600e805461071990611abc565b80601f016020809104026020016040519081016040528092919081815260200182805461074590611abc565b80156107925780601f1061076757610100808354040283529160200191610792565b820191906000526020600020905b81548152906001019060200180831161077557829003601f168201915b505050505081565b60006107a560095490565b82106108085760405162461bcd60e51b815260206004820152602c60248201527f455243373231456e756d657261626c653a20676c6f62616c20696e646578206f60448201526b7574206f6620626f756e647360a01b60648201526084016104f4565b6009828154811061081b5761081b611b48565b90600052602060002001549050919050565b600c805461071990611abc565b6000818152600260205260408120546001600160a01b0316806103f45760405162461bcd60e51b815260206004820152602960248201527f4552433732313a206f776e657220717565727920666f72206e6f6e657869737460448201526832b73a103a37b5b2b760b91b60648201526084016104f4565b60006001600160a01b03821661091c5760405162461bcd60e51b815260206004820152602a60248201527f4552433732313a2062616c616e636520717565727920666f7220746865207a65604482015269726f206164647265737360b01b60648201526084016104f4565b506001600160a01b031660009081526003602052604090205490565b600d805461071990611abc565b60606001805461040990611abc565b600080610960600b5490565b9050610970600b80546001019055565b61097a8482610d1a565b6109848184610e46565b9392505050565b610996338383610ed1565b5050565b6109a43383610abb565b6109c05760405162461bcd60e51b81526004016104f490611af7565b6109cc84848484610f9c565b50505050565b60606103f482610fcf565b6001600160a01b03918216600090815260056020908152604080832093909416825291909152205460ff1690565b60006001600160e01b0319821663780e9d6360e01b14806103f457506103f48261113e565b6000908152600260205260409020546001600160a01b0316151590565b600081815260046020526040902080546001600160a01b0319166001600160a01b0384169081179091558190610a828261083a565b6001600160a01b03167f8c5be1e5ebec7d5bd14f71427d1e84f3dd0314c0f7b2291e5b200ac8c7c3b92560405160405180910390a45050565b6000610ac682610a30565b610b275760405162461bcd60e51b815260206004820152602c60248201527f4552433732313a206f70657261746f7220717565727920666f72206e6f6e657860448201526b34b9ba32b73a103a37b5b2b760a11b60648201526084016104f4565b6000610b328361083a565b9050806001600160a01b0316846001600160a01b03161480610b6d5750836001600160a01b0316610b628461048c565b6001600160a01b0316145b80610b7d5750610b7d81856109dd565b949350505050565b826001600160a01b0316610b988261083a565b6001600160a01b031614610bfc5760405162461bcd60e51b815260206004820152602560248201527f4552433732313a207472616e736665722066726f6d20696e636f72726563742060448201526437bbb732b960d91b60648201526084016104f4565b6001600160a01b038216610c5e5760405162461bcd60e51b8152602060048201526024808201527f4552433732313a207472616e7366657220746f20746865207a65726f206164646044820152637265737360e01b60648201526084016104f4565b610c6983838361118e565b610c74600082610a4d565b6001600160a01b0383166000908152600360205260408120805460019290610c9d908490611b74565b90915550506001600160a01b0382166000908152600360205260408120805460019290610ccb908490611b8b565b909155505060008181526002602052604080822080546001600160a01b0319166001600160a01b038681169182179092559151849391871691600080516020611ce483398151915291a4505050565b6001600160a01b038216610d705760405162461bcd60e51b815260206004820181905260248201527f4552433732313a206d696e7420746f20746865207a65726f206164647265737360448201526064016104f4565b610d7981610a30565b15610dc55760405162461bcd60e51b815260206004820152601c60248201527b115490cdcc8c4e881d1bdad95b88185b1c9958591e481b5a5b9d195960221b60448201526064016104f4565b610dd16000838361118e565b6001600160a01b0382166000908152600360205260408120805460019290610dfa908490611b8b565b909155505060008181526002602052604080822080546001600160a01b0319166001600160a01b0386169081179091559051839290600080516020611ce4833981519152908290a45050565b610e4f82610a30565b610eb25760405162461bcd60e51b815260206004820152602e60248201527f45524337323155524953746f726167653a2055524920736574206f66206e6f6e60448201526d32bc34b9ba32b73a103a37b5b2b760911b60648201526084016104f4565b60008281526006602090815260409091208251610625928401906116b3565b816001600160a01b0316836001600160a01b03161415610f2f5760405162461bcd60e51b815260206004820152601960248201527822a9219b99189d1030b8383937bb32903a379031b0b63632b960391b60448201526064016104f4565b6001600160a01b03838116600081815260056020908152604080832094871680845294825291829020805460ff191686151590811790915591519182527f17307eab39ab6107e8899845ad3d59bd9653f200f220920489ca2b5937696c31910160405180910390a3505050565b610fa7848484610b85565b610fb384848484611199565b6109cc5760405162461bcd60e51b81526004016104f490611ba3565b6060610fda82610a30565b6110405760405162461bcd60e51b815260206004820152603160248201527f45524337323155524953746f726167653a2055524920717565727920666f72206044820152703737b732bc34b9ba32b73a103a37b5b2b760791b60648201526084016104f4565b6000828152600660205260408120805461105990611abc565b80601f016020809104026020016040519081016040528092919081815260200182805461108590611abc565b80156110d25780601f106110a7576101008083540402835291602001916110d2565b820191906000526020600020905b8154815290600101906020018083116110b557829003601f168201915b5050505050905060006110f060408051602081019091526000815290565b9050805160001415611103575092915050565b81511561113557808260405160200161111d929190611bf5565b60405160208183030381529060405292505050919050565b610b7d84611297565b60006001600160e01b031982166380ac58cd60e01b148061116f57506001600160e01b03198216635b5e139f60e01b145b806103f457506301ffc9a760e01b6001600160e01b03198316146103f4565b61062583838361136e565b60006001600160a01b0384163b1561128c57604051630a85bd0160e11b81526001600160a01b0385169063150b7a02906111dd903390899088908890600401611c24565b6020604051808303816000875af1925050508015611218575060408051601f3d908101601f1916820190925261121591810190611c57565b60015b611272573d808015611246576040519150601f19603f3d011682016040523d82523d6000602084013e61124b565b606091505b50805161126a5760405162461bcd60e51b81526004016104f490611ba3565b805181602001fd5b6001600160e01b031916630a85bd0160e11b149050610b7d565b506001949350505050565b60606112a282610a30565b6113065760405162461bcd60e51b815260206004820152602f60248201527f4552433732314d657461646174613a2055524920717565727920666f72206e6f60448201526e3732bc34b9ba32b73a103a37b5b2b760891b60648201526084016104f4565b600061131d60408051602081019091526000815290565b9050600081511161133d5760405180602001604052806000815250610984565b8061134784611426565b604051602001611358929190611bf5565b6040516020818303038152906040529392505050565b6001600160a01b0383166113c9576113c481600980546000838152600a60205260408120829055600182018355919091527f6e1540171b6c0c960b71a7020d9f60077f6af931a8bbf590da0223dacf75c7af0155565b6113ec565b816001600160a01b0316836001600160a01b0316146113ec576113ec8382611523565b6001600160a01b03821661140357610625816115c0565b826001600160a01b0316826001600160a01b03161461062557610625828261166f565b60608161144a5750506040805180820190915260018152600360fc1b602082015290565b8160005b8115611474578061145e81611c74565b915061146d9050600a83611ca5565b915061144e565b6000816001600160401b0381111561148e5761148e6118e6565b6040519080825280601f01601f1916602001820160405280156114b8576020820181803683370190505b5090505b8415610b7d576114cd600183611b74565b91506114da600a86611cb9565b6114e5906030611b8b565b60f81b8183815181106114fa576114fa611b48565b60200101906001600160f81b031916908160001a90535061151c600a86611ca5565b94506114bc565b60006001611530846108b1565b61153a9190611b74565b60008381526008602052604090205490915080821461158d576001600160a01b03841660009081526007602090815260408083208584528252808320548484528184208190558352600890915290208190555b5060009182526008602090815260408084208490556001600160a01b039094168352600781528383209183525290812055565b6009546000906115d290600190611b74565b6000838152600a6020526040812054600980549394509092849081106115fa576115fa611b48565b90600052602060002001549050806009838154811061161b5761161b611b48565b6000918252602080832090910192909255828152600a9091526040808220849055858252812055600980548061165357611653611ccd565b6001900381819060005260206000200160009055905550505050565b600061167a836108b1565b6001600160a01b039093166000908152600760209081526040808320868452825280832085905593825260089052919091209190915550565b8280546116bf90611abc565b90600052602060002090601f0160209004810192826116e15760008555611727565b82601f106116fa57805160ff1916838001178555611727565b82800160010185558215611727579182015b8281111561172757825182559160200191906001019061170c565b50611733929150611737565b5090565b5b808211156117335760008155600101611738565b60006020828403121561175e57600080fd5b5035919050565b60005b83811015611780578181015183820152602001611768565b838111156109cc5750506000910152565b600081518084526117a9816020860160208601611765565b601f01601f19169290920160200192915050565b6060815260006117d06060830186611791565b82810360208401526117e28186611791565b905082810360408401526117f68185611791565b9695505050505050565b6001600160e01b03198116811461181657600080fd5b50565b60006020828403121561182b57600080fd5b813561098481611800565b6020815260006109846020830184611791565b80356001600160a01b038116811461186057600080fd5b919050565b6000806040838503121561187857600080fd5b61188183611849565b946020939093013593505050565b6000806000606084860312156118a457600080fd5b6118ad84611849565b92506118bb60208501611849565b9150604084013590509250925092565b6000602082840312156118dd57600080fd5b61098482611849565b634e487b7160e01b600052604160045260246000fd5b60006001600160401b0380841115611916576119166118e6565b604051601f8501601f19908116603f0116810190828211818310171561193e5761193e6118e6565b8160405280935085815286868601111561195757600080fd5b858560208301376000602087830101525050509392505050565b6000806040838503121561198457600080fd5b61198d83611849565b915060208301356001600160401b038111156119a857600080fd5b8301601f810185136119b957600080fd5b6119c8858235602084016118fc565b9150509250929050565b600080604083850312156119e557600080fd5b6119ee83611849565b915060208301358015158114611a0357600080fd5b809150509250929050565b60008060008060808587031215611a2457600080fd5b611a2d85611849565b9350611a3b60208601611849565b92506040850135915060608501356001600160401b03811115611a5d57600080fd5b8501601f81018713611a6e57600080fd5b611a7d878235602084016118fc565b91505092959194509250565b60008060408385031215611a9c57600080fd5b611aa583611849565b9150611ab360208401611849565b90509250929050565b600181811c90821680611ad057607f821691505b60208210811415611af157634e487b7160e01b600052602260045260246000fd5b50919050565b60208082526031908201527f4552433732313a207472616e736665722063616c6c6572206973206e6f74206f6040820152701ddb995c881b9bdc88185c1c1c9bdd9959607a1b606082015260800190565b634e487b7160e01b600052603260045260246000fd5b634e487b7160e01b600052601160045260246000fd5b600082821015611b8657611b86611b5e565b500390565b60008219821115611b9e57611b9e611b5e565b500190565b60208082526032908201527f4552433732313a207472616e7366657220746f206e6f6e20455243373231526560408201527131b2b4bb32b91034b6b83632b6b2b73a32b960711b606082015260800190565b60008351611c07818460208801611765565b835190830190611c1b818360208801611765565b01949350505050565b6001600160a01b03858116825284166020820152604081018390526080606082018190526000906117f690830184611791565b600060208284031215611c6957600080fd5b815161098481611800565b6000600019821415611c8857611c88611b5e565b5060010190565b634e487b7160e01b600052601260045260246000fd5b600082611cb457611cb4611c8f565b500490565b600082611cc857611cc8611c8f565b500690565b634e487b7160e01b600052603160045260246000fdfeddf252ad1be2c89b69c2b068fc378daa952ba7f163c4a11628f55a4df523b3efa26469706673582212207d861d3552623f3be0c7744a803b3fbf7c319daebf4c9d48d3bdeac1419fe9b564736f6c634300080c0033a2646970667358221220435b131a51a094e4e67052cbbeda1b5099aae40aa2c7642193f6072cd35d127d64736f6c634300080c0033a26469706673582212201463693b10303274e4c38f3ee11401fefba72f5cbe9cd415f3de0144366f0c7f64736f6c634300080c0033",
  "immutableReferences": {},
  "source": "// SPDX-License-Identifier: UNLICENSED\r\npragma solidity ^0.8.0;\r\n\r\nimport './Organisation.sol';\r\nimport './Awardee.sol';\r\n\r\ncontract System {\r\n    // uen => Organisation Obj\r\n    mapping (string => Organisation) public organisations;\r\n    // email => Awardee Obj\r\n    mapping (string => Awardee) public awardees;\r\n    // email => list of uen\r\n    mapping (string => Organisation[]) public awardeesOrganisations;\r\n\r\n    constructor() {}\r\n\r\n    // register organisation\r\n    function registerOrganisation(\r\n        string memory name,\r\n        string memory uen,\r\n        address admin\r\n    ) public {\r\n        require(address(organisations[uen]) == address(0), \"Organisation already exists in system.\");\r\n        Organisation organisation = new Organisation(name, uen, admin);\r\n        organisations[uen] = organisation;\r\n    }\r\n\r\n    // register awardee\r\n    function registerAwardee(\r\n        string memory email,\r\n        string memory name\r\n    ) public returns (Awardee) {\r\n        if (address(awardees[email]) == address(0)) {\r\n            Awardee awardee = new Awardee(email, name);\r\n            awardees[email] = awardee;\r\n        }\r\n        return awardees[email];\r\n    }\r\n\r\n    // add awardee to organisation\r\n    function addAwardeeToOrganisation(\r\n        string memory uen,\r\n        string memory email,\r\n        string memory name\r\n    ) public {\r\n        require(address(organisations[uen]) != address(0), \"Organisation does not exist system, please register organisation first.\");\r\n        Awardee awardee = registerAwardee(email, name);\r\n        Organisation organisation = organisations[uen];\r\n        organisation.addAwardee(email, address(awardee));\r\n        awardeesOrganisations[email].push(organisation);\r\n    }\r\n\r\n    function addAwardeesToOrganisation(\r\n        string memory uen,\r\n        string[] memory emails,\r\n        string[] memory names\r\n    ) public {\r\n        require(emails.length == names.length, \"Invalid data.\");\r\n        for (uint i = 0; i < emails.length; i++) {\r\n            addAwardeeToOrganisation(uen, emails[i], names[i]);\r\n        }\r\n    }\r\n\r\n    function linkAwardee(\r\n        string memory email,\r\n        string memory name\r\n    ) public {\r\n        Awardee awardee = registerAwardee(email, name);\r\n        awardee.setWalletAddress(tx.origin);\r\n    }\r\n\r\n    function changeEmail(\r\n        string memory oldEmail,\r\n        string memory newEmail\r\n    ) public {\r\n        require (address(awardees[oldEmail]) != address(0), \"Awardee does not exist.\");\r\n        // update email on awardee side\r\n        awardees[oldEmail].updateEmail(newEmail); // reverts if tx.origin is not owner of awardee contract\r\n        awardees[newEmail] = awardees[oldEmail];\r\n        // awardees[oldEmail] = Awardee(address(0)); // delete mapping\r\n        delete awardees[oldEmail]; // need to test if it works\r\n        // update all awardee information in organisation\r\n        awardeesOrganisations[newEmail] = awardeesOrganisations[oldEmail];\r\n        Organisation[] memory lOrganisations = awardeesOrganisations[newEmail];\r\n        for (uint i = 0; i < lOrganisations.length; i++) {\r\n            lOrganisations[i].updateEmail(oldEmail, newEmail);\r\n        }\r\n        delete awardeesOrganisations[oldEmail]; // need to test if it works\r\n    }\r\n}\r\n",
  "sourcePath": "C:\\Users\\MHA\\desktop\\credibly-fe\\ethereum\\contracts\\System.sol",
  "compiler": {
    "name": "solc",
    "version": "0.8.12+commit.f00d7308.Emscripten.clang"
  },
  "schemaVersion": "3.4.6",
  "updatedAt": "2022-03-28T16:44:21.584Z",
  "devdoc": {
    "kind": "dev",
    "methods": {},
    "version": 1
  },
  "userdoc": {
    "kind": "user",
    "methods": {},
    "version": 1
  }
}