{
  "contractName": "System",
  "abi": [
    {
      "inputs": [],
      "stateMutability": "nonpayable",
      "type": "constructor"
    },
    {
      "inputs": [
        {
          "internalType": "string",
          "name": "",
          "type": "string"
        }
      ],
      "name": "awardees",
      "outputs": [
        {
          "internalType": "contract Awardee",
          "name": "",
          "type": "address"
        }
      ],
      "stateMutability": "view",
      "type": "function"
    },
    {
      "inputs": [
        {
          "internalType": "string",
          "name": "",
          "type": "string"
        },
        {
          "internalType": "uint256",
          "name": "",
          "type": "uint256"
        }
      ],
      "name": "employeesOrganisations",
      "outputs": [
        {
          "internalType": "string",
          "name": "",
          "type": "string"
        }
      ],
      "stateMutability": "view",
      "type": "function"
    },
    {
      "inputs": [
        {
          "internalType": "string",
          "name": "",
          "type": "string"
        }
      ],
      "name": "organisations",
      "outputs": [
        {
          "internalType": "contract Organisation",
          "name": "",
          "type": "address"
        }
      ],
      "stateMutability": "view",
      "type": "function"
    },
    {
      "inputs": [
        {
          "internalType": "string",
          "name": "name",
          "type": "string"
        },
        {
          "internalType": "string",
          "name": "uen",
          "type": "string"
        },
        {
          "internalType": "address",
          "name": "admin",
          "type": "address"
        }
      ],
      "name": "registerOrganisation",
      "outputs": [],
      "stateMutability": "nonpayable",
      "type": "function"
    },
    {
      "inputs": [
        {
          "internalType": "string",
          "name": "uen",
          "type": "string"
        },
        {
          "internalType": "string",
          "name": "email",
          "type": "string"
        }
      ],
      "name": "registerEmployee",
      "outputs": [],
      "stateMutability": "nonpayable",
      "type": "function"
    },
    {
      "inputs": [
        {
          "internalType": "string",
          "name": "email",
          "type": "string"
        },
        {
          "internalType": "address",
          "name": "awardee",
          "type": "address"
        }
      ],
      "name": "registerAwardee",
      "outputs": [],
      "stateMutability": "nonpayable",
      "type": "function"
    }
  ],
  "bytecode": "0x608060405234801561001057600080fd5b50616f2f806100206000396000f3fe60806040523480156200001157600080fd5b50600436106200006a5760003560e01c806363153698146200006f57806363db7fb114620000a55780637cac6dce14620000db578063a477b0241462000111578063e913682a1462000131578063edf09c8d1462000151575b600080fd5b6200008d6004803603810190620000879190620009d5565b62000171565b6040516200009c919062000ace565b60405180910390f35b620000c36004803603810190620000bd919062000af2565b62000249565b604051620000d2919062000bce565b60405180910390f35b620000f96004803603810190620000f3919062000af2565b62000292565b60405162000108919062000c10565b60405180910390f35b6200012f600480360381019062000129919062000c2d565b620002db565b005b6200014f600480360381019062000149919062000cf7565b62000380565b005b6200016f600480360381019062000169919062000d91565b62000426565b005b6001828051602081018201805184825260208301602085012081835280955050505050508181548110620001a457600080fd5b90600052602060002001600091509150508054620001c29062000e26565b80601f0160208091040260200160405190810160405280929190818152602001828054620001f09062000e26565b8015620002415780601f10620002155761010080835404028352916020019162000241565b820191906000526020600020905b8154815290600101906020018083116200022357829003601f168201915b505050505081565b6000818051602081018201805184825260208301602085012081835280955050505050506000915054906101000a900473ffffffffffffffffffffffffffffffffffffffff1681565b6002818051602081018201805184825260208301602085012081835280955050505050506000915054906101000a900473ffffffffffffffffffffffffffffffffffffffff1681565b60008083604051620002ee919062000e9e565b908152602001604051809103902060009054906101000a900473ffffffffffffffffffffffffffffffffffffffff16905060018260405162000331919062000e9e565b9081526020016040518091039020839080600181540180825580915050600190039060005260206000200160009091909190915090805190602001906200037a92919062000758565b50505050565b60008383836040516200039390620007e9565b620003a19392919062000ec8565b604051809103906000f080158015620003be573d6000803e3d6000fd5b50905080600084604051620003d4919062000e9e565b908152602001604051809103902060006101000a81548173ffffffffffffffffffffffffffffffffffffffff021916908373ffffffffffffffffffffffffffffffffffffffff16021790555050505050565b81816040516200043690620007f7565b6200044392919062000f13565b604051809103906000f08015801562000460573d6000803e3d6000fd5b5060028360405162000473919062000e9e565b908152602001604051809103902060006101000a81548173ffffffffffffffffffffffffffffffffffffffff021916908373ffffffffffffffffffffffffffffffffffffffff1602179055506000600183604051620004d3919062000e9e565b9081526020016040518091039020805480602002602001604051908101604052809291908181526020016000905b82821015620005b7578382906000526020600020018054620005239062000e26565b80601f0160208091040260200160405190810160405280929190818152602001828054620005519062000e26565b8015620005a25780601f106200057657610100808354040283529160200191620005a2565b820191906000526020600020905b8154815290600101906020018083116200058457829003601f168201915b50505050508152602001906001019062000501565b5050505090506000600184604051620005d1919062000e9e565b908152602001604051809103902080549050905060005b818110156200075157600083828151811062000609576200060862000f47565b5b602002602001015190506000808260405162000626919062000e9e565b908152602001604051809103902060009054906101000a900473ffffffffffffffffffffffffffffffffffffffff1690508073ffffffffffffffffffffffffffffffffffffffff16635b9519a488886040518363ffffffff1660e01b81526004016200069492919062000f13565b600060405180830381600087803b158015620006af57600080fd5b505af1158015620006c4573d6000803e3d6000fd5b505050508073ffffffffffffffffffffffffffffffffffffffff16639a4046d988886040518363ffffffff1660e01b81526004016200070592919062000f13565b600060405180830381600087803b1580156200072057600080fd5b505af115801562000735573d6000803e3d6000fd5b5050505050508080620007489062000fa5565b915050620005e8565b5050505050565b828054620007669062000e26565b90600052602060002090601f0160209004810192826200078a5760008555620007d6565b82601f10620007a557805160ff1916838001178555620007d6565b82800160010185558215620007d6579182015b82811115620007d5578251825591602001919060010190620007b8565b5b509050620007e5919062000805565b5090565b61539f8062000ff483390190565b610b67806200639383390190565b5b808211156200082057600081600090555060010162000806565b5090565b6000604051905090565b600080fd5b600080fd5b600080fd5b600080fd5b6000601f19601f8301169050919050565b7f4e487b7100000000000000000000000000000000000000000000000000000000600052604160045260246000fd5b6200088d8262000842565b810181811067ffffffffffffffff82111715620008af57620008ae62000853565b5b80604052505050565b6000620008c462000824565b9050620008d2828262000882565b919050565b600067ffffffffffffffff821115620008f557620008f462000853565b5b620009008262000842565b9050602081019050919050565b82818337600083830152505050565b6000620009336200092d84620008d7565b620008b8565b9050828152602081018484840111156200095257620009516200083d565b5b6200095f8482856200090d565b509392505050565b600082601f8301126200097f576200097e62000838565b5b8135620009918482602086016200091c565b91505092915050565b6000819050919050565b620009af816200099a565b8114620009bb57600080fd5b50565b600081359050620009cf81620009a4565b92915050565b60008060408385031215620009ef57620009ee6200082e565b5b600083013567ffffffffffffffff81111562000a105762000a0f62000833565b5b62000a1e8582860162000967565b925050602062000a3185828601620009be565b9150509250929050565b600081519050919050565b600082825260208201905092915050565b60005b8381101562000a7757808201518184015260208101905062000a5a565b8381111562000a87576000848401525b50505050565b600062000a9a8262000a3b565b62000aa6818562000a46565b935062000ab881856020860162000a57565b62000ac38162000842565b840191505092915050565b6000602082019050818103600083015262000aea818462000a8d565b905092915050565b60006020828403121562000b0b5762000b0a6200082e565b5b600082013567ffffffffffffffff81111562000b2c5762000b2b62000833565b5b62000b3a8482850162000967565b91505092915050565b600073ffffffffffffffffffffffffffffffffffffffff82169050919050565b6000819050919050565b600062000b8e62000b8862000b828462000b43565b62000b63565b62000b43565b9050919050565b600062000ba28262000b6d565b9050919050565b600062000bb68262000b95565b9050919050565b62000bc88162000ba9565b82525050565b600060208201905062000be5600083018462000bbd565b92915050565b600062000bf88262000b95565b9050919050565b62000c0a8162000beb565b82525050565b600060208201905062000c27600083018462000bff565b92915050565b6000806040838503121562000c475762000c466200082e565b5b600083013567ffffffffffffffff81111562000c685762000c6762000833565b5b62000c768582860162000967565b925050602083013567ffffffffffffffff81111562000c9a5762000c9962000833565b5b62000ca88582860162000967565b9150509250929050565b600062000cbf8262000b43565b9050919050565b62000cd18162000cb2565b811462000cdd57600080fd5b50565b60008135905062000cf18162000cc6565b92915050565b60008060006060848603121562000d135762000d126200082e565b5b600084013567ffffffffffffffff81111562000d345762000d3362000833565b5b62000d428682870162000967565b935050602084013567ffffffffffffffff81111562000d665762000d6562000833565b5b62000d748682870162000967565b925050604062000d878682870162000ce0565b9150509250925092565b6000806040838503121562000dab5762000daa6200082e565b5b600083013567ffffffffffffffff81111562000dcc5762000dcb62000833565b5b62000dda8582860162000967565b925050602062000ded8582860162000ce0565b9150509250929050565b7f4e487b7100000000000000000000000000000000000000000000000000000000600052602260045260246000fd5b6000600282049050600182168062000e3f57607f821691505b6020821081141562000e565762000e5562000df7565b5b50919050565b600081905092915050565b600062000e748262000a3b565b62000e80818562000e5c565b935062000e9281856020860162000a57565b80840191505092915050565b600062000eac828462000e67565b915081905092915050565b62000ec28162000cb2565b82525050565b6000606082019050818103600083015262000ee4818662000a8d565b9050818103602083015262000efa818562000a8d565b905062000f0b604083018462000eb7565b949350505050565b6000604082019050818103600083015262000f2f818562000a8d565b905062000f40602083018462000eb7565b9392505050565b7f4e487b7100000000000000000000000000000000000000000000000000000000600052603260045260246000fd5b7f4e487b7100000000000000000000000000000000000000000000000000000000600052601160045260246000fd5b600062000fb2826200099a565b91507fffffffffffffffffffffffffffffffffffffffffffffffffffffffffffffffff82141562000fe85762000fe762000f76565b5b60018201905091905056fe60806040523480156200001157600080fd5b506040516200539f3803806200539f833981810160405281019062000037919062000365565b82600090805190602001906200004f929190620000b3565b50816001908051906020019062000068929190620000b3565b5080600260006101000a81548173ffffffffffffffffffffffffffffffffffffffff021916908373ffffffffffffffffffffffffffffffffffffffff16021790555050505062000464565b828054620000c1906200042e565b90600052602060002090601f016020900481019282620000e5576000855562000131565b82601f106200010057805160ff191683800117855562000131565b8280016001018555821562000131579182015b828111156200013057825182559160200191906001019062000113565b5b50905062000140919062000144565b5090565b5b808211156200015f57600081600090555060010162000145565b5090565b6000604051905090565b600080fd5b600080fd5b600080fd5b600080fd5b6000601f19601f8301169050919050565b7f4e487b7100000000000000000000000000000000000000000000000000000000600052604160045260246000fd5b620001cc8262000181565b810181811067ffffffffffffffff82111715620001ee57620001ed62000192565b5b80604052505050565b60006200020362000163565b9050620002118282620001c1565b919050565b600067ffffffffffffffff82111562000234576200023362000192565b5b6200023f8262000181565b9050602081019050919050565b60005b838110156200026c5780820151818401526020810190506200024f565b838111156200027c576000848401525b50505050565b600062000299620002938462000216565b620001f7565b905082815260208101848484011115620002b857620002b76200017c565b5b620002c58482856200024c565b509392505050565b600082601f830112620002e557620002e462000177565b5b8151620002f784826020860162000282565b91505092915050565b600073ffffffffffffffffffffffffffffffffffffffff82169050919050565b60006200032d8262000300565b9050919050565b6200033f8162000320565b81146200034b57600080fd5b50565b6000815190506200035f8162000334565b92915050565b6000806000606084860312156200038157620003806200016d565b5b600084015167ffffffffffffffff811115620003a257620003a162000172565b5b620003b086828701620002cd565b935050602084015167ffffffffffffffff811115620003d457620003d362000172565b5b620003e286828701620002cd565b9250506040620003f5868287016200034e565b9150509250925092565b7f4e487b7100000000000000000000000000000000000000000000000000000000600052602260045260246000fd5b600060028204905060018216806200044757607f821691505b602082108114156200045e576200045d620003ff565b5b50919050565b614f2b80620004746000396000f3fe60806040523480156200001157600080fd5b5060043610620000b85760003560e01c80638f2b91ea116200007b5780638f2b91ea14620001775780639a4046d914620001ad5780639f560d8914620001cd578063ac9e576014620001ed578063b5abaaa2146200020d578063f851a440146200024457620000b8565b806306fdde0314620000bd5780632d7cb52a14620000df5780633f144c9514620001015780635b9519a414620001215780637cac6dce1462000141575b600080fd5b620000c762000266565b604051620000d6919062000d9d565b60405180910390f35b620000e9620002fc565b604051620000f8919062000d9d565b60405180910390f35b6200011f600480360381019062000119919062000fc6565b62000392565b005b6200013f600480360381019062000139919062001041565b62000448565b005b6200015f6004803603810190620001599190620010a7565b620004ab565b6040516200016e919062001163565b60405180910390f35b6200019560048036038101906200018f9190620010a7565b620004f4565b604051620001a49190620011a5565b60405180910390f35b620001cb6004803603810190620001c5919062001041565b6200053d565b005b620001eb6004803603810190620001e59190620011c2565b620007a9565b005b6200020b6004803603810190620002059190620011c2565b62000ba7565b005b6200022b60048036038101906200022591906200127b565b62000c4d565b6040516200023b929190620012f2565b60405180910390f35b6200024e62000cc5565b6040516200025d919062001330565b60405180910390f35b6000805462000275906200137c565b80601f0160208091040260200160405190810160405280929190818152602001828054620002a3906200137c565b8015620002f45780601f10620002c857610100808354040283529160200191620002f4565b820191906000526020600020905b815481529060010190602001808311620002d657829003601f168201915b505050505081565b600180546200030b906200137c565b80601f016020809104026020016040519081016040528092919081815260200182805462000339906200137c565b80156200038a5780601f106200035e576101008083540402835291602001916200038a565b820191906000526020600020905b8154815290600101906020018083116200036c57829003601f168201915b505050505081565b600583604051620003a49190620013f4565b908152602001604051809103902060009054906101000a900473ffffffffffffffffffffffffffffffffffffffff1673ffffffffffffffffffffffffffffffffffffffff1663d422f02283836040518363ffffffff1660e01b81526004016200040f9291906200140d565b600060405180830381600087803b1580156200042a57600080fd5b505af11580156200043f573d6000803e3d6000fd5b50505050505050565b806005836040516200045b9190620013f4565b908152602001604051809103902060006101000a81548173ffffffffffffffffffffffffffffffffffffffff021916908373ffffffffffffffffffffffffffffffffffffffff1602179055505050565b6005818051602081018201805184825260208301602085012081835280955050505050506000915054906101000a900473ffffffffffffffffffffffffffffffffffffffff1681565b6003818051602081018201805184825260208301602085012081835280955050505050506000915054906101000a900473ffffffffffffffffffffffffffffffffffffffff1681565b6000600483604051620005519190620013f4565b9081526020016040518091039020805480602002602001604051908101604052809291908181526020016000905b828210156200061357838290600052602060002090600202016040518060400160405290816000820160009054906101000a900473ffffffffffffffffffffffffffffffffffffffff1673ffffffffffffffffffffffffffffffffffffffff1673ffffffffffffffffffffffffffffffffffffffff168152602001600182015481525050815260200190600101906200057f565b50505050905060008151905060005b81811015620007a25760008382815181106200064357620006426200143a565b5b602002602001015190506000816000015190506000826020015190508173ffffffffffffffffffffffffffffffffffffffff1663171c00fd3389846040518463ffffffff1660e01b81526004016200069e9392919062001469565b600060405180830381600087803b158015620006b957600080fd5b505af1158015620006ce573d6000803e3d6000fd5b505050506000600589604051620006e69190620013f4565b908152602001604051809103902060009054906101000a900473ffffffffffffffffffffffffffffffffffffffff1690508073ffffffffffffffffffffffffffffffffffffffff1663d422f02284846040518363ffffffff1660e01b8152600401620007549291906200140d565b600060405180830381600087803b1580156200076f57600080fd5b505af115801562000784573d6000803e3d6000fd5b505050505050505080806200079990620014d5565b91505062000622565b5050505050565b6000600383604051620007bd9190620013f4565b908152602001604051809103902060009054906101000a900473ffffffffffffffffffffffffffffffffffffffff16905060008173ffffffffffffffffffffffffffffffffffffffff1663a15ab08d33856040518363ffffffff1660e01b81526004016200082d92919062001523565b6020604051808303816000875af11580156200084d573d6000803e3d6000fd5b505050506040513d601f19601f820116820180604052508101906200087391906200156e565b9050600060405180604001604052808473ffffffffffffffffffffffffffffffffffffffff168152602001838152509050600486604051620008b69190620013f4565b908152602001604051809103902081908060018154018082558091505060019003906000526020600020906002020160009091909190915060008201518160000160006101000a81548173ffffffffffffffffffffffffffffffffffffffff021916908373ffffffffffffffffffffffffffffffffffffffff160217905550602082015181600101555050600073ffffffffffffffffffffffffffffffffffffffff166005876040516200096b9190620013f4565b908152602001604051809103902060009054906101000a900473ffffffffffffffffffffffffffffffffffffffff1673ffffffffffffffffffffffffffffffffffffffff16636ad5b3ea6040518163ffffffff1660e01b8152600401602060405180830381865afa158015620009e5573d6000803e3d6000fd5b505050506040513d601f19601f8201168201806040525081019062000a0b9190620015b7565b73ffffffffffffffffffffffffffffffffffffffff161462000b9f578273ffffffffffffffffffffffffffffffffffffffff1663171c00fd3360058960405162000a569190620013f4565b908152602001604051809103902060009054906101000a900473ffffffffffffffffffffffffffffffffffffffff1673ffffffffffffffffffffffffffffffffffffffff16636ad5b3ea6040518163ffffffff1660e01b8152600401602060405180830381865afa15801562000ad0573d6000803e3d6000fd5b505050506040513d601f19601f8201168201806040525081019062000af69190620015b7565b856040518463ffffffff1660e01b815260040162000b179392919062001469565b600060405180830381600087803b15801562000b3257600080fd5b505af115801562000b47573d6000803e3d6000fd5b50505050600060058760405162000b5f9190620013f4565b908152602001604051809103902060009054906101000a900473ffffffffffffffffffffffffffffffffffffffff16905062000b9d87858562000392565b505b505050505050565b600083838360405162000bba9062000ceb565b62000bc893929190620015e9565b604051809103906000f08015801562000be5573d6000803e3d6000fd5b5090508060038360405162000bfb9190620013f4565b908152602001604051809103902060006101000a81548173ffffffffffffffffffffffffffffffffffffffff021916908373ffffffffffffffffffffffffffffffffffffffff16021790555050505050565b600482805160208101820180518482526020830160208501208183528095505050505050818154811062000c8057600080fd5b9060005260206000209060020201600091509150508060000160009054906101000a900473ffffffffffffffffffffffffffffffffffffffff16908060010154905082565b600260009054906101000a900473ffffffffffffffffffffffffffffffffffffffff1681565b6138ba806200163c83390190565b600081519050919050565b600082825260208201905092915050565b60005b8381101562000d3557808201518184015260208101905062000d18565b8381111562000d45576000848401525b50505050565b6000601f19601f8301169050919050565b600062000d698262000cf9565b62000d75818562000d04565b935062000d8781856020860162000d15565b62000d928162000d4b565b840191505092915050565b6000602082019050818103600083015262000db9818462000d5c565b905092915050565b6000604051905090565b600080fd5b600080fd5b600080fd5b600080fd5b7f4e487b7100000000000000000000000000000000000000000000000000000000600052604160045260246000fd5b62000e198262000d4b565b810181811067ffffffffffffffff8211171562000e3b5762000e3a62000ddf565b5b80604052505050565b600062000e5062000dc1565b905062000e5e828262000e0e565b919050565b600067ffffffffffffffff82111562000e815762000e8062000ddf565b5b62000e8c8262000d4b565b9050602081019050919050565b82818337600083830152505050565b600062000ebf62000eb98462000e63565b62000e44565b90508281526020810184848401111562000ede5762000edd62000dda565b5b62000eeb84828562000e99565b509392505050565b600082601f83011262000f0b5762000f0a62000dd5565b5b813562000f1d84826020860162000ea8565b91505092915050565b600073ffffffffffffffffffffffffffffffffffffffff82169050919050565b600062000f538262000f26565b9050919050565b62000f658162000f46565b811462000f7157600080fd5b50565b60008135905062000f858162000f5a565b92915050565b6000819050919050565b62000fa08162000f8b565b811462000fac57600080fd5b50565b60008135905062000fc08162000f95565b92915050565b60008060006060848603121562000fe25762000fe162000dcb565b5b600084013567ffffffffffffffff81111562001003576200100262000dd0565b5b620010118682870162000ef3565b9350506020620010248682870162000f74565b9250506040620010378682870162000faf565b9150509250925092565b600080604083850312156200105b576200105a62000dcb565b5b600083013567ffffffffffffffff8111156200107c576200107b62000dd0565b5b6200108a8582860162000ef3565b92505060206200109d8582860162000f74565b9150509250929050565b600060208284031215620010c057620010bf62000dcb565b5b600082013567ffffffffffffffff811115620010e157620010e062000dd0565b5b620010ef8482850162000ef3565b91505092915050565b6000819050919050565b6000620011236200111d620011178462000f26565b620010f8565b62000f26565b9050919050565b6000620011378262001102565b9050919050565b60006200114b826200112a565b9050919050565b6200115d816200113e565b82525050565b60006020820190506200117a600083018462001152565b92915050565b60006200118d826200112a565b9050919050565b6200119f8162001180565b82525050565b6000602082019050620011bc600083018462001194565b92915050565b600080600060608486031215620011de57620011dd62000dcb565b5b600084013567ffffffffffffffff811115620011ff57620011fe62000dd0565b5b6200120d8682870162000ef3565b935050602084013567ffffffffffffffff81111562001231576200123062000dd0565b5b6200123f8682870162000ef3565b925050604084013567ffffffffffffffff81111562001263576200126262000dd0565b5b620012718682870162000ef3565b9150509250925092565b6000806040838503121562001295576200129462000dcb565b5b600083013567ffffffffffffffff811115620012b657620012b562000dd0565b5b620012c48582860162000ef3565b9250506020620012d78582860162000faf565b9150509250929050565b620012ec8162000f8b565b82525050565b600060408201905062001309600083018562001194565b620013186020830184620012e1565b9392505050565b6200132a8162000f46565b82525050565b60006020820190506200134760008301846200131f565b92915050565b7f4e487b7100000000000000000000000000000000000000000000000000000000600052602260045260246000fd5b600060028204905060018216806200139557607f821691505b60208210811415620013ac57620013ab6200134d565b5b50919050565b600081905092915050565b6000620013ca8262000cf9565b620013d68185620013b2565b9350620013e881856020860162000d15565b80840191505092915050565b6000620014028284620013bd565b915081905092915050565b60006040820190506200142460008301856200131f565b620014336020830184620012e1565b9392505050565b7f4e487b7100000000000000000000000000000000000000000000000000000000600052603260045260246000fd5b60006060820190506200148060008301866200131f565b6200148f60208301856200131f565b6200149e6040830184620012e1565b949350505050565b7f4e487b7100000000000000000000000000000000000000000000000000000000600052601160045260246000fd5b6000620014e28262000f8b565b91507fffffffffffffffffffffffffffffffffffffffffffffffffffffffffffffffff821415620015185762001517620014a6565b5b600182019050919050565b60006040820190506200153a60008301856200131f565b81810360208301526200154e818462000d5c565b90509392505050565b600081519050620015688162000f95565b92915050565b60006020828403121562001587576200158662000dcb565b5b6000620015978482850162001557565b91505092915050565b600081519050620015b18162000f5a565b92915050565b600060208284031215620015d057620015cf62000dcb565b5b6000620015e084828501620015a0565b91505092915050565b6000606082019050818103600083015262001605818662000d5c565b905081810360208301526200161b818562000d5c565b9050818103604083015262001631818462000d5c565b905094935050505056fe60806040523480156200001157600080fd5b50604051620038ba380380620038ba8339818101604052810190620000379190620002dc565b82828160009080519060200190620000519291906200008f565b5080600190805190602001906200006a9291906200008f565b50505080600c9080519060200190620000859291906200008f565b50505050620003fa565b8280546200009d90620003c4565b90600052602060002090601f016020900481019282620000c157600085556200010d565b82601f10620000dc57805160ff19168380011785556200010d565b828001600101855582156200010d579182015b828111156200010c578251825591602001919060010190620000ef565b5b5090506200011c919062000120565b5090565b5b808211156200013b57600081600090555060010162000121565b5090565b6000604051905090565b600080fd5b600080fd5b600080fd5b600080fd5b6000601f19601f8301169050919050565b7f4e487b7100000000000000000000000000000000000000000000000000000000600052604160045260246000fd5b620001a8826200015d565b810181811067ffffffffffffffff82111715620001ca57620001c96200016e565b5b80604052505050565b6000620001df6200013f565b9050620001ed82826200019d565b919050565b600067ffffffffffffffff82111562000210576200020f6200016e565b5b6200021b826200015d565b9050602081019050919050565b60005b83811015620002485780820151818401526020810190506200022b565b8381111562000258576000848401525b50505050565b6000620002756200026f84620001f2565b620001d3565b90508281526020810184848401111562000294576200029362000158565b5b620002a184828562000228565b509392505050565b600082601f830112620002c157620002c062000153565b5b8151620002d38482602086016200025e565b91505092915050565b600080600060608486031215620002f857620002f762000149565b5b600084015167ffffffffffffffff8111156200031957620003186200014e565b5b6200032786828701620002a9565b935050602084015167ffffffffffffffff8111156200034b576200034a6200014e565b5b6200035986828701620002a9565b925050604084015167ffffffffffffffff8111156200037d576200037c6200014e565b5b6200038b86828701620002a9565b9150509250925092565b7f4e487b7100000000000000000000000000000000000000000000000000000000600052602260045260246000fd5b60006002820490506001821680620003dd57607f821691505b60208210811415620003f457620003f362000395565b5b50919050565b6134b0806200040a6000396000f3fe608060405234801561001057600080fd5b50600436106101165760003560e01c80634f6ccce7116100a2578063a15ab08d11610071578063a15ab08d14610305578063a22cb46514610335578063b88d4fde14610351578063c87b56dd1461036d578063e985e9c51461039d57610116565b80634f6ccce7146102575780636352211e1461028757806370a08231146102b757806395d89b41146102e757610116565b8063171c00fd116100e9578063171c00fd146101b557806318160ddd146101d157806323b872dd146101ef5780632f745c591461020b57806342842e0e1461023b57610116565b806301ffc9a71461011b57806306fdde031461014b578063081812fc14610169578063095ea7b314610199575b600080fd5b6101356004803603810190610130919061202d565b6103cd565b6040516101429190612075565b60405180910390f35b6101536103df565b6040516101609190612129565b60405180910390f35b610183600480360381019061017e9190612181565b610471565b60405161019091906121ef565b60405180910390f35b6101b360048036038101906101ae9190612236565b6104f6565b005b6101cf60048036038101906101ca9190612276565b61060e565b005b6101d9610667565b6040516101e691906122d8565b60405180910390f35b61020960048036038101906102049190612276565b610674565b005b61022560048036038101906102209190612236565b6106d4565b60405161023291906122d8565b60405180910390f35b61025560048036038101906102509190612276565b610779565b005b610271600480360381019061026c9190612181565b610799565b60405161027e91906122d8565b60405180910390f35b6102a1600480360381019061029c9190612181565b61080a565b6040516102ae91906121ef565b60405180910390f35b6102d160048036038101906102cc91906122f3565b6108bc565b6040516102de91906122d8565b60405180910390f35b6102ef610974565b6040516102fc9190612129565b60405180910390f35b61031f600480360381019061031a9190612455565b610a06565b60405161032c91906122d8565b60405180910390f35b61034f600480360381019061034a91906124dd565b610a3d565b005b61036b600480360381019061036691906125be565b610a53565b005b61038760048036038101906103829190612181565b610ab5565b6040516103949190612129565b60405180910390f35b6103b760048036038101906103b29190612641565b610ac7565b6040516103c49190612075565b60405180910390f35b60006103d882610b5b565b9050919050565b6060600080546103ee906126b0565b80601f016020809104026020016040519081016040528092919081815260200182805461041a906126b0565b80156104675780601f1061043c57610100808354040283529160200191610467565b820191906000526020600020905b81548152906001019060200180831161044a57829003601f168201915b5050505050905090565b600061047c82610bd5565b6104bb576040517f08c379a00000000000000000000000000000000000000000000000000000000081526004016104b290612754565b60405180910390fd5b6004600083815260200190815260200160002060009054906101000a900473ffffffffffffffffffffffffffffffffffffffff169050919050565b60006105018261080a565b90508073ffffffffffffffffffffffffffffffffffffffff168373ffffffffffffffffffffffffffffffffffffffff161415610572576040517f08c379a0000000000000000000000000000000000000000000000000000000008152600401610569906127e6565b60405180910390fd5b8073ffffffffffffffffffffffffffffffffffffffff16610591610c41565b73ffffffffffffffffffffffffffffffffffffffff1614806105c057506105bf816105ba610c41565b610ac7565b5b6105ff576040517f08c379a00000000000000000000000000000000000000000000000000000000081526004016105f690612878565b60405180910390fd5b6106098383610c49565b505050565b6106188382610d02565b610657576040517f08c379a000000000000000000000000000000000000000000000000000000000815260040161064e9061290a565b60405180910390fd5b610662838383610de0565b505050565b6000600980549050905090565b61068561067f610c41565b82610d02565b6106c4576040517f08c379a00000000000000000000000000000000000000000000000000000000081526004016106bb9061299c565b60405180910390fd5b6106cf838383610de0565b505050565b60006106df836108bc565b8210610720576040517f08c379a000000000000000000000000000000000000000000000000000000000815260040161071790612a2e565b60405180910390fd5b600760008473ffffffffffffffffffffffffffffffffffffffff1673ffffffffffffffffffffffffffffffffffffffff168152602001908152602001600020600083815260200190815260200160002054905092915050565b61079483838360405180602001604052806000815250610a53565b505050565b60006107a3610667565b82106107e4576040517f08c379a00000000000000000000000000000000000000000000000000000000081526004016107db90612ac0565b60405180910390fd5b600982815481106107f8576107f7612ae0565b5b90600052602060002001549050919050565b6000806002600084815260200190815260200160002060009054906101000a900473ffffffffffffffffffffffffffffffffffffffff169050600073ffffffffffffffffffffffffffffffffffffffff168173ffffffffffffffffffffffffffffffffffffffff1614156108b3576040517f08c379a00000000000000000000000000000000000000000000000000000000081526004016108aa90612b81565b60405180910390fd5b80915050919050565b60008073ffffffffffffffffffffffffffffffffffffffff168273ffffffffffffffffffffffffffffffffffffffff16141561092d576040517f08c379a000000000000000000000000000000000000000000000000000000000815260040161092490612c13565b60405180910390fd5b600360008373ffffffffffffffffffffffffffffffffffffffff1673ffffffffffffffffffffffffffffffffffffffff168152602001908152602001600020549050919050565b606060018054610983906126b0565b80601f01602080910402602001604051908101604052809291908181526020018280546109af906126b0565b80156109fc5780601f106109d1576101008083540402835291602001916109fc565b820191906000526020600020905b8154815290600101906020018083116109df57829003601f168201915b5050505050905090565b600080610a13600b611047565b9050610a1f600b611055565b610a29848261106b565b610a338184611245565b8091505092915050565b610a4f610a48610c41565b83836112b9565b5050565b610a64610a5e610c41565b83610d02565b610aa3576040517f08c379a0000000000000000000000000000000000000000000000000000000008152600401610a9a9061299c565b60405180910390fd5b610aaf84848484611426565b50505050565b6060610ac082611482565b9050919050565b6000600560008473ffffffffffffffffffffffffffffffffffffffff1673ffffffffffffffffffffffffffffffffffffffff16815260200190815260200160002060008373ffffffffffffffffffffffffffffffffffffffff1673ffffffffffffffffffffffffffffffffffffffff16815260200190815260200160002060009054906101000a900460ff16905092915050565b60007f780e9d63000000000000000000000000000000000000000000000000000000007bffffffffffffffffffffffffffffffffffffffffffffffffffffffff1916827bffffffffffffffffffffffffffffffffffffffffffffffffffffffff19161480610bce5750610bcd826115d4565b5b9050919050565b60008073ffffffffffffffffffffffffffffffffffffffff166002600084815260200190815260200160002060009054906101000a900473ffffffffffffffffffffffffffffffffffffffff1673ffffffffffffffffffffffffffffffffffffffff1614159050919050565b600033905090565b816004600083815260200190815260200160002060006101000a81548173ffffffffffffffffffffffffffffffffffffffff021916908373ffffffffffffffffffffffffffffffffffffffff160217905550808273ffffffffffffffffffffffffffffffffffffffff16610cbc8361080a565b73ffffffffffffffffffffffffffffffffffffffff167f8c5be1e5ebec7d5bd14f71427d1e84f3dd0314c0f7b2291e5b200ac8c7c3b92560405160405180910390a45050565b6000610d0d82610bd5565b610d4c576040517f08c379a0000000000000000000000000000000000000000000000000000000008152600401610d4390612ca5565b60405180910390fd5b6000610d578361080a565b90508073ffffffffffffffffffffffffffffffffffffffff168473ffffffffffffffffffffffffffffffffffffffff161480610dc657508373ffffffffffffffffffffffffffffffffffffffff16610dae84610471565b73ffffffffffffffffffffffffffffffffffffffff16145b80610dd75750610dd68185610ac7565b5b91505092915050565b8273ffffffffffffffffffffffffffffffffffffffff16610e008261080a565b73ffffffffffffffffffffffffffffffffffffffff1614610e56576040517f08c379a0000000000000000000000000000000000000000000000000000000008152600401610e4d90612d37565b60405180910390fd5b600073ffffffffffffffffffffffffffffffffffffffff168273ffffffffffffffffffffffffffffffffffffffff161415610ec6576040517f08c379a0000000000000000000000000000000000000000000000000000000008152600401610ebd90612dc9565b60405180910390fd5b610ed18383836116b6565b610edc600082610c49565b6001600360008573ffffffffffffffffffffffffffffffffffffffff1673ffffffffffffffffffffffffffffffffffffffff1681526020019081526020016000206000828254610f2c9190612e18565b925050819055506001600360008473ffffffffffffffffffffffffffffffffffffffff1673ffffffffffffffffffffffffffffffffffffffff1681526020019081526020016000206000828254610f839190612e4c565b92505081905550816002600083815260200190815260200160002060006101000a81548173ffffffffffffffffffffffffffffffffffffffff021916908373ffffffffffffffffffffffffffffffffffffffff160217905550808273ffffffffffffffffffffffffffffffffffffffff168473ffffffffffffffffffffffffffffffffffffffff167fddf252ad1be2c89b69c2b068fc378daa952ba7f163c4a11628f55a4df523b3ef60405160405180910390a46110428383836116c6565b505050565b600081600001549050919050565b6001816000016000828254019250508190555050565b600073ffffffffffffffffffffffffffffffffffffffff168273ffffffffffffffffffffffffffffffffffffffff1614156110db576040517f08c379a00000000000000000000000000000000000000000000000000000000081526004016110d290612eee565b60405180910390fd5b6110e481610bd5565b15611124576040517f08c379a000000000000000000000000000000000000000000000000000000000815260040161111b90612f5a565b60405180910390fd5b611130600083836116b6565b6001600360008473ffffffffffffffffffffffffffffffffffffffff1673ffffffffffffffffffffffffffffffffffffffff16815260200190815260200160002060008282546111809190612e4c565b92505081905550816002600083815260200190815260200160002060006101000a81548173ffffffffffffffffffffffffffffffffffffffff021916908373ffffffffffffffffffffffffffffffffffffffff160217905550808273ffffffffffffffffffffffffffffffffffffffff16600073ffffffffffffffffffffffffffffffffffffffff167fddf252ad1be2c89b69c2b068fc378daa952ba7f163c4a11628f55a4df523b3ef60405160405180910390a4611241600083836116c6565b5050565b61124e82610bd5565b61128d576040517f08c379a000000000000000000000000000000000000000000000000000000000815260040161128490612fec565b60405180910390fd5b806006600084815260200190815260200160002090805190602001906112b4929190611f1e565b505050565b8173ffffffffffffffffffffffffffffffffffffffff168373ffffffffffffffffffffffffffffffffffffffff161415611328576040517f08c379a000000000000000000000000000000000000000000000000000000000815260040161131f90613058565b60405180910390fd5b80600560008573ffffffffffffffffffffffffffffffffffffffff1673ffffffffffffffffffffffffffffffffffffffff16815260200190815260200160002060008473ffffffffffffffffffffffffffffffffffffffff1673ffffffffffffffffffffffffffffffffffffffff16815260200190815260200160002060006101000a81548160ff0219169083151502179055508173ffffffffffffffffffffffffffffffffffffffff168373ffffffffffffffffffffffffffffffffffffffff167f17307eab39ab6107e8899845ad3d59bd9653f200f220920489ca2b5937696c31836040516114199190612075565b60405180910390a3505050565b611431848484610de0565b61143d848484846116cb565b61147c576040517f08c379a0000000000000000000000000000000000000000000000000000000008152600401611473906130ea565b60405180910390fd5b50505050565b606061148d82610bd5565b6114cc576040517f08c379a00000000000000000000000000000000000000000000000000000000081526004016114c39061317c565b60405180910390fd5b60006006600084815260200190815260200160002080546114ec906126b0565b80601f0160208091040260200160405190810160405280929190818152602001828054611518906126b0565b80156115655780601f1061153a57610100808354040283529160200191611565565b820191906000526020600020905b81548152906001019060200180831161154857829003601f168201915b505050505090506000611576611853565b905060008151141561158c5781925050506115cf565b6000825111156115c15780826040516020016115a99291906131d8565b604051602081830303815290604052925050506115cf565b6115ca8461186a565b925050505b919050565b60007f80ac58cd000000000000000000000000000000000000000000000000000000007bffffffffffffffffffffffffffffffffffffffffffffffffffffffff1916827bffffffffffffffffffffffffffffffffffffffffffffffffffffffff1916148061169f57507f5b5e139f000000000000000000000000000000000000000000000000000000007bffffffffffffffffffffffffffffffffffffffffffffffffffffffff1916827bffffffffffffffffffffffffffffffffffffffffffffffffffffffff1916145b806116af57506116ae82611911565b5b9050919050565b6116c183838361197b565b505050565b505050565b60006116ec8473ffffffffffffffffffffffffffffffffffffffff16611a8f565b15611846578373ffffffffffffffffffffffffffffffffffffffff1663150b7a02611715610c41565b8786866040518563ffffffff1660e01b81526004016117379493929190613251565b6020604051808303816000875af192505050801561177357506040513d601f19601f8201168201806040525081019061177091906132b2565b60015b6117f6573d80600081146117a3576040519150601f19603f3d011682016040523d82523d6000602084013e6117a8565b606091505b506000815114156117ee576040517f08c379a00000000000000000000000000000000000000000000000000000000081526004016117e5906130ea565b60405180910390fd5b805181602001fd5b63150b7a0260e01b7bffffffffffffffffffffffffffffffffffffffffffffffffffffffff1916817bffffffffffffffffffffffffffffffffffffffffffffffffffffffff19161491505061184b565b600190505b949350505050565b606060405180602001604052806000815250905090565b606061187582610bd5565b6118b4576040517f08c379a00000000000000000000000000000000000000000000000000000000081526004016118ab90613351565b60405180910390fd5b60006118be611853565b905060008151116118de5760405180602001604052806000815250611909565b806118e884611ab2565b6040516020016118f99291906131d8565b6040516020818303038152906040525b915050919050565b60007f01ffc9a7000000000000000000000000000000000000000000000000000000007bffffffffffffffffffffffffffffffffffffffffffffffffffffffff1916827bffffffffffffffffffffffffffffffffffffffffffffffffffffffff1916149050919050565b611986838383611c13565b600073ffffffffffffffffffffffffffffffffffffffff168373ffffffffffffffffffffffffffffffffffffffff1614156119c9576119c481611c18565b611a08565b8173ffffffffffffffffffffffffffffffffffffffff168373ffffffffffffffffffffffffffffffffffffffff1614611a0757611a068382611c61565b5b5b600073ffffffffffffffffffffffffffffffffffffffff168273ffffffffffffffffffffffffffffffffffffffff161415611a4b57611a4681611dce565b611a8a565b8273ffffffffffffffffffffffffffffffffffffffff168273ffffffffffffffffffffffffffffffffffffffff1614611a8957611a888282611e9f565b5b5b505050565b6000808273ffffffffffffffffffffffffffffffffffffffff163b119050919050565b60606000821415611afa576040518060400160405280600181526020017f30000000000000000000000000000000000000000000000000000000000000008152509050611c0e565b600082905060005b60008214611b2c578080611b1590613371565b915050600a82611b2591906133e9565b9150611b02565b60008167ffffffffffffffff811115611b4857611b4761232a565b5b6040519080825280601f01601f191660200182016040528015611b7a5781602001600182028036833780820191505090505b5090505b60008514611c0757600182611b939190612e18565b9150600a85611ba2919061341a565b6030611bae9190612e4c565b60f81b818381518110611bc457611bc3612ae0565b5b60200101907effffffffffffffffffffffffffffffffffffffffffffffffffffffffffffff1916908160001a905350600a85611c0091906133e9565b9450611b7e565b8093505050505b919050565b505050565b600980549050600a600083815260200190815260200160002081905550600981908060018154018082558091505060019003906000526020600020016000909190919091505550565b60006001611c6e846108bc565b611c789190612e18565b9050600060086000848152602001908152602001600020549050818114611d5d576000600760008673ffffffffffffffffffffffffffffffffffffffff1673ffffffffffffffffffffffffffffffffffffffff168152602001908152602001600020600084815260200190815260200160002054905080600760008773ffffffffffffffffffffffffffffffffffffffff1673ffffffffffffffffffffffffffffffffffffffff168152602001908152602001600020600084815260200190815260200160002081905550816008600083815260200190815260200160002081905550505b6008600084815260200190815260200160002060009055600760008573ffffffffffffffffffffffffffffffffffffffff1673ffffffffffffffffffffffffffffffffffffffff16815260200190815260200160002060008381526020019081526020016000206000905550505050565b60006001600980549050611de29190612e18565b90506000600a6000848152602001908152602001600020549050600060098381548110611e1257611e11612ae0565b5b906000526020600020015490508060098381548110611e3457611e33612ae0565b5b906000526020600020018190555081600a600083815260200190815260200160002081905550600a6000858152602001908152602001600020600090556009805480611e8357611e8261344b565b5b6001900381819060005260206000200160009055905550505050565b6000611eaa836108bc565b905081600760008573ffffffffffffffffffffffffffffffffffffffff1673ffffffffffffffffffffffffffffffffffffffff168152602001908152602001600020600083815260200190815260200160002081905550806008600084815260200190815260200160002081905550505050565b828054611f2a906126b0565b90600052602060002090601f016020900481019282611f4c5760008555611f93565b82601f10611f6557805160ff1916838001178555611f93565b82800160010185558215611f93579182015b82811115611f92578251825591602001919060010190611f77565b5b509050611fa09190611fa4565b5090565b5b80821115611fbd576000816000905550600101611fa5565b5090565b6000604051905090565b600080fd5b600080fd5b60007fffffffff0000000000000000000000000000000000000000000000000000000082169050919050565b61200a81611fd5565b811461201557600080fd5b50565b60008135905061202781612001565b92915050565b60006020828403121561204357612042611fcb565b5b600061205184828501612018565b91505092915050565b60008115159050919050565b61206f8161205a565b82525050565b600060208201905061208a6000830184612066565b92915050565b600081519050919050565b600082825260208201905092915050565b60005b838110156120ca5780820151818401526020810190506120af565b838111156120d9576000848401525b50505050565b6000601f19601f8301169050919050565b60006120fb82612090565b612105818561209b565b93506121158185602086016120ac565b61211e816120df565b840191505092915050565b6000602082019050818103600083015261214381846120f0565b905092915050565b6000819050919050565b61215e8161214b565b811461216957600080fd5b50565b60008135905061217b81612155565b92915050565b60006020828403121561219757612196611fcb565b5b60006121a58482850161216c565b91505092915050565b600073ffffffffffffffffffffffffffffffffffffffff82169050919050565b60006121d9826121ae565b9050919050565b6121e9816121ce565b82525050565b600060208201905061220460008301846121e0565b92915050565b612213816121ce565b811461221e57600080fd5b50565b6000813590506122308161220a565b92915050565b6000806040838503121561224d5761224c611fcb565b5b600061225b85828601612221565b925050602061226c8582860161216c565b9150509250929050565b60008060006060848603121561228f5761228e611fcb565b5b600061229d86828701612221565b93505060206122ae86828701612221565b92505060406122bf8682870161216c565b9150509250925092565b6122d28161214b565b82525050565b60006020820190506122ed60008301846122c9565b92915050565b60006020828403121561230957612308611fcb565b5b600061231784828501612221565b91505092915050565b600080fd5b600080fd5b7f4e487b7100000000000000000000000000000000000000000000000000000000600052604160045260246000fd5b612362826120df565b810181811067ffffffffffffffff821117156123815761238061232a565b5b80604052505050565b6000612394611fc1565b90506123a08282612359565b919050565b600067ffffffffffffffff8211156123c0576123bf61232a565b5b6123c9826120df565b9050602081019050919050565b82818337600083830152505050565b60006123f86123f3846123a5565b61238a565b90508281526020810184848401111561241457612413612325565b5b61241f8482856123d6565b509392505050565b600082601f83011261243c5761243b612320565b5b813561244c8482602086016123e5565b91505092915050565b6000806040838503121561246c5761246b611fcb565b5b600061247a85828601612221565b925050602083013567ffffffffffffffff81111561249b5761249a611fd0565b5b6124a785828601612427565b9150509250929050565b6124ba8161205a565b81146124c557600080fd5b50565b6000813590506124d7816124b1565b92915050565b600080604083850312156124f4576124f3611fcb565b5b600061250285828601612221565b9250506020612513858286016124c8565b9150509250929050565b600067ffffffffffffffff8211156125385761253761232a565b5b612541826120df565b9050602081019050919050565b600061256161255c8461251d565b61238a565b90508281526020810184848401111561257d5761257c612325565b5b6125888482856123d6565b509392505050565b600082601f8301126125a5576125a4612320565b5b81356125b584826020860161254e565b91505092915050565b600080600080608085870312156125d8576125d7611fcb565b5b60006125e687828801612221565b94505060206125f787828801612221565b93505060406126088782880161216c565b925050606085013567ffffffffffffffff81111561262957612628611fd0565b5b61263587828801612590565b91505092959194509250565b6000806040838503121561265857612657611fcb565b5b600061266685828601612221565b925050602061267785828601612221565b9150509250929050565b7f4e487b7100000000000000000000000000000000000000000000000000000000600052602260045260246000fd5b600060028204905060018216806126c857607f821691505b602082108114156126dc576126db612681565b5b50919050565b7f4552433732313a20617070726f76656420717565727920666f72206e6f6e657860008201527f697374656e7420746f6b656e0000000000000000000000000000000000000000602082015250565b600061273e602c8361209b565b9150612749826126e2565b604082019050919050565b6000602082019050818103600083015261276d81612731565b9050919050565b7f4552433732313a20617070726f76616c20746f2063757272656e74206f776e6560008201527f7200000000000000000000000000000000000000000000000000000000000000602082015250565b60006127d060218361209b565b91506127db82612774565b604082019050919050565b600060208201905081810360008301526127ff816127c3565b9050919050565b7f4552433732313a20617070726f76652063616c6c6572206973206e6f74206f7760008201527f6e6572206e6f7220617070726f76656420666f7220616c6c0000000000000000602082015250565b600061286260388361209b565b915061286d82612806565b604082019050919050565b6000602082019050818103600083015261289181612855565b9050919050565b7f43616c6c6572206973206e6f74206f776e6572206f662074686973206365727460008201527f6966696361746500000000000000000000000000000000000000000000000000602082015250565b60006128f460278361209b565b91506128ff82612898565b604082019050919050565b60006020820190508181036000830152612923816128e7565b9050919050565b7f4552433732313a207472616e736665722063616c6c6572206973206e6f74206f60008201527f776e6572206e6f7220617070726f766564000000000000000000000000000000602082015250565b600061298660318361209b565b91506129918261292a565b604082019050919050565b600060208201905081810360008301526129b581612979565b9050919050565b7f455243373231456e756d657261626c653a206f776e657220696e646578206f7560008201527f74206f6620626f756e6473000000000000000000000000000000000000000000602082015250565b6000612a18602b8361209b565b9150612a23826129bc565b604082019050919050565b60006020820190508181036000830152612a4781612a0b565b9050919050565b7f455243373231456e756d657261626c653a20676c6f62616c20696e646578206f60008201527f7574206f6620626f756e64730000000000000000000000000000000000000000602082015250565b6000612aaa602c8361209b565b9150612ab582612a4e565b604082019050919050565b60006020820190508181036000830152612ad981612a9d565b9050919050565b7f4e487b7100000000000000000000000000000000000000000000000000000000600052603260045260246000fd5b7f4552433732313a206f776e657220717565727920666f72206e6f6e657869737460008201527f656e7420746f6b656e0000000000000000000000000000000000000000000000602082015250565b6000612b6b60298361209b565b9150612b7682612b0f565b604082019050919050565b60006020820190508181036000830152612b9a81612b5e565b9050919050565b7f4552433732313a2062616c616e636520717565727920666f7220746865207a6560008201527f726f206164647265737300000000000000000000000000000000000000000000602082015250565b6000612bfd602a8361209b565b9150612c0882612ba1565b604082019050919050565b60006020820190508181036000830152612c2c81612bf0565b9050919050565b7f4552433732313a206f70657261746f7220717565727920666f72206e6f6e657860008201527f697374656e7420746f6b656e0000000000000000000000000000000000000000602082015250565b6000612c8f602c8361209b565b9150612c9a82612c33565b604082019050919050565b60006020820190508181036000830152612cbe81612c82565b9050919050565b7f4552433732313a207472616e736665722066726f6d20696e636f72726563742060008201527f6f776e6572000000000000000000000000000000000000000000000000000000602082015250565b6000612d2160258361209b565b9150612d2c82612cc5565b604082019050919050565b60006020820190508181036000830152612d5081612d14565b9050919050565b7f4552433732313a207472616e7366657220746f20746865207a65726f2061646460008201527f7265737300000000000000000000000000000000000000000000000000000000602082015250565b6000612db360248361209b565b9150612dbe82612d57565b604082019050919050565b60006020820190508181036000830152612de281612da6565b9050919050565b7f4e487b7100000000000000000000000000000000000000000000000000000000600052601160045260246000fd5b6000612e238261214b565b9150612e2e8361214b565b925082821015612e4157612e40612de9565b5b828203905092915050565b6000612e578261214b565b9150612e628361214b565b9250827fffffffffffffffffffffffffffffffffffffffffffffffffffffffffffffffff03821115612e9757612e96612de9565b5b828201905092915050565b7f4552433732313a206d696e7420746f20746865207a65726f2061646472657373600082015250565b6000612ed860208361209b565b9150612ee382612ea2565b602082019050919050565b60006020820190508181036000830152612f0781612ecb565b9050919050565b7f4552433732313a20746f6b656e20616c7265616479206d696e74656400000000600082015250565b6000612f44601c8361209b565b9150612f4f82612f0e565b602082019050919050565b60006020820190508181036000830152612f7381612f37565b9050919050565b7f45524337323155524953746f726167653a2055524920736574206f66206e6f6e60008201527f6578697374656e7420746f6b656e000000000000000000000000000000000000602082015250565b6000612fd6602e8361209b565b9150612fe182612f7a565b604082019050919050565b6000602082019050818103600083015261300581612fc9565b9050919050565b7f4552433732313a20617070726f766520746f2063616c6c657200000000000000600082015250565b600061304260198361209b565b915061304d8261300c565b602082019050919050565b6000602082019050818103600083015261307181613035565b9050919050565b7f4552433732313a207472616e7366657220746f206e6f6e20455243373231526560008201527f63656976657220696d706c656d656e7465720000000000000000000000000000602082015250565b60006130d460328361209b565b91506130df82613078565b604082019050919050565b60006020820190508181036000830152613103816130c7565b9050919050565b7f45524337323155524953746f726167653a2055524920717565727920666f722060008201527f6e6f6e6578697374656e7420746f6b656e000000000000000000000000000000602082015250565b600061316660318361209b565b91506131718261310a565b604082019050919050565b6000602082019050818103600083015261319581613159565b9050919050565b600081905092915050565b60006131b282612090565b6131bc818561319c565b93506131cc8185602086016120ac565b80840191505092915050565b60006131e482856131a7565b91506131f082846131a7565b91508190509392505050565b600081519050919050565b600082825260208201905092915050565b6000613223826131fc565b61322d8185613207565b935061323d8185602086016120ac565b613246816120df565b840191505092915050565b600060808201905061326660008301876121e0565b61327360208301866121e0565b61328060408301856122c9565b81810360608301526132928184613218565b905095945050505050565b6000815190506132ac81612001565b92915050565b6000602082840312156132c8576132c7611fcb565b5b60006132d68482850161329d565b91505092915050565b7f4552433732314d657461646174613a2055524920717565727920666f72206e6f60008201527f6e6578697374656e7420746f6b656e0000000000000000000000000000000000602082015250565b600061333b602f8361209b565b9150613346826132df565b604082019050919050565b6000602082019050818103600083015261336a8161332e565b9050919050565b600061337c8261214b565b91507fffffffffffffffffffffffffffffffffffffffffffffffffffffffffffffffff8214156133af576133ae612de9565b5b600182019050919050565b7f4e487b7100000000000000000000000000000000000000000000000000000000600052601260045260246000fd5b60006133f48261214b565b91506133ff8361214b565b92508261340f5761340e6133ba565b5b828204905092915050565b60006134258261214b565b91506134308361214b565b9250826134405761343f6133ba565b5b828206905092915050565b7f4e487b7100000000000000000000000000000000000000000000000000000000600052603160045260246000fdfea26469706673582212209e25a64b5586692fddf1b4f4393162018c3ffa79e5db36c750fe58832248edd264736f6c634300080c0033a26469706673582212203f4b6b0e52ec745ecbf09e20870bb5c1577f602386f05bba4e305a666511ede964736f6c634300080c003360806040523480156200001157600080fd5b5060405162000b6738038062000b67833981810160405281019062000037919062000241565b5050620002a7565b6000604051905090565b600080fd5b600080fd5b600080fd5b600080fd5b6000601f19601f8301169050919050565b7f4e487b7100000000000000000000000000000000000000000000000000000000600052604160045260246000fd5b620000a8826200005d565b810181811067ffffffffffffffff82111715620000ca57620000c96200006e565b5b80604052505050565b6000620000df6200003f565b9050620000ed82826200009d565b919050565b600067ffffffffffffffff82111562000110576200010f6200006e565b5b6200011b826200005d565b9050602081019050919050565b60005b83811015620001485780820151818401526020810190506200012b565b8381111562000158576000848401525b50505050565b6000620001756200016f84620000f2565b620000d3565b90508281526020810184848401111562000194576200019362000058565b5b620001a184828562000128565b509392505050565b600082601f830112620001c157620001c062000053565b5b8151620001d38482602086016200015e565b91505092915050565b600073ffffffffffffffffffffffffffffffffffffffff82169050919050565b60006200020982620001dc565b9050919050565b6200021b81620001fc565b81146200022757600080fd5b50565b6000815190506200023b8162000210565b92915050565b600080604083850312156200025b576200025a62000049565b5b600083015167ffffffffffffffff8111156200027c576200027b6200004e565b5b6200028a85828601620001a9565b92505060206200029d858286016200022a565b9150509250929050565b6108b080620002b76000396000f3fe608060405234801561001057600080fd5b506004361061007d5760003560e01c8063663b3e221161005b578063663b3e22146100ee5780636ad5b3ea1461011f578063820e93f51461013d578063d422f0221461015b5761007d565b80631f5ddb4f146100825780634bdbd39a146100a0578063573668db146100be575b600080fd5b61008a610177565b60405161009791906105b9565b60405180910390f35b6100a8610236565b6040516100b591906105f6565b60405180910390f35b6100d860048036038101906100d39190610642565b610249565b6040516100e59190610690565b60405180910390f35b61010860048036038101906101039190610642565b610288565b6040516101169291906106c9565b60405180910390f35b6101276102dc565b6040516101349190610690565b60405180910390f35b610145610302565b604051610152919061078b565b60405180910390f35b610175600480360381019061017091906107d9565b610390565b005b60606002805480602002602001604051908101604052809291908181526020016000905b8282101561022d57838290600052602060002090600202016040518060400160405290816000820160009054906101000a900473ffffffffffffffffffffffffffffffffffffffff1673ffffffffffffffffffffffffffffffffffffffff1673ffffffffffffffffffffffffffffffffffffffff1681526020016001820154815250508152602001906001019061019b565b50505050905090565b600460009054906101000a900460ff1681565b6003818154811061025957600080fd5b906000526020600020016000915054906101000a900473ffffffffffffffffffffffffffffffffffffffff1681565b6002818154811061029857600080fd5b90600052602060002090600202016000915090508060000160009054906101000a900473ffffffffffffffffffffffffffffffffffffffff16908060010154905082565b600160009054906101000a900473ffffffffffffffffffffffffffffffffffffffff1681565b6000805461030f90610848565b80601f016020809104026020016040519081016040528092919081815260200182805461033b90610848565b80156103885780601f1061035d57610100808354040283529160200191610388565b820191906000526020600020905b81548152906001019060200180831161036b57829003601f168201915b505050505081565b600060405180604001604052808473ffffffffffffffffffffffffffffffffffffffff168152602001838152509050600281908060018154018082558091505060019003906000526020600020906002020160009091909190915060008201518160000160006101000a81548173ffffffffffffffffffffffffffffffffffffffff021916908373ffffffffffffffffffffffffffffffffffffffff160217905550602082015181600101555050505050565b600081519050919050565b600082825260208201905092915050565b6000819050602082019050919050565b600073ffffffffffffffffffffffffffffffffffffffff82169050919050565b6000819050919050565b60006104b46104af6104aa8461046f565b61048f565b61046f565b9050919050565b60006104c682610499565b9050919050565b60006104d8826104bb565b9050919050565b6104e8816104cd565b82525050565b6000819050919050565b610501816104ee565b82525050565b60408201600082015161051d60008501826104df565b50602082015161053060208501826104f8565b50505050565b60006105428383610507565b60408301905092915050565b6000602082019050919050565b600061056682610443565b610570818561044e565b935061057b8361045f565b8060005b838110156105ac5781516105938882610536565b975061059e8361054e565b92505060018101905061057f565b5085935050505092915050565b600060208201905081810360008301526105d3818461055b565b905092915050565b60008115159050919050565b6105f0816105db565b82525050565b600060208201905061060b60008301846105e7565b92915050565b600080fd5b61061f816104ee565b811461062a57600080fd5b50565b60008135905061063c81610616565b92915050565b60006020828403121561065857610657610611565b5b60006106668482850161062d565b91505092915050565b600061067a8261046f565b9050919050565b61068a8161066f565b82525050565b60006020820190506106a56000830184610681565b92915050565b6106b4816104cd565b82525050565b6106c3816104ee565b82525050565b60006040820190506106de60008301856106ab565b6106eb60208301846106ba565b9392505050565b600081519050919050565b600082825260208201905092915050565b60005b8381101561072c578082015181840152602081019050610711565b8381111561073b576000848401525b50505050565b6000601f19601f8301169050919050565b600061075d826106f2565b61076781856106fd565b935061077781856020860161070e565b61078081610741565b840191505092915050565b600060208201905081810360008301526107a58184610752565b905092915050565b6107b68161066f565b81146107c157600080fd5b50565b6000813590506107d3816107ad565b92915050565b600080604083850312156107f0576107ef610611565b5b60006107fe858286016107c4565b925050602061080f8582860161062d565b9150509250929050565b7f4e487b7100000000000000000000000000000000000000000000000000000000600052602260045260246000fd5b6000600282049050600182168061086057607f821691505b6020821081141561087457610873610819565b5b5091905056fea2646970667358221220e07e40d1b4b84cdc9e71c1d8350cca81a2915086a220411714ee833db44a46d864736f6c634300080c0033a264697066735822122053cf5283bb00a3546d77608cbc22c15915217b43b1f2eef56227a492525c17d764736f6c634300080c0033",
  "immutableReferences": {},
  "source": "// SPDX-License-Identifier: UNLICENSED\r\npragma solidity ^0.8.0;\r\n\r\nimport './Organisation.sol';\r\nimport './Awardee.sol';\r\n\r\ncontract System {\r\n    // uen => Organisation Obj\r\n    mapping (string => Organisation) public organisations;\r\n    // email => uen[] (list of organisations worked at)\r\n    mapping (string => string[]) public employeesOrganisations;\r\n    // email => Awardee Obj\r\n    mapping (string => Awardee) public awardees;\r\n\r\n\r\n    constructor() {\r\n    }\r\n\r\n    // register organisation\r\n    function registerOrganisation(\r\n        string memory name,\r\n        string memory uen,\r\n        address admin\r\n    ) public {\r\n        Organisation organisation = new Organisation(name, uen, admin);\r\n        organisations[uen] = organisation;\r\n    }\r\n\r\n    // register employee to organisation\r\n    function registerEmployee(\r\n        string memory uen,\r\n        // string memory name,\r\n        string memory email\r\n        // string memory position,\r\n        // uint256 startDate\r\n    ) public {\r\n        Organisation organisation = organisations[uen];\r\n        // organisation.addEmployee(email, name, position, startDate);\r\n        employeesOrganisations[email].push(uen);\r\n    }\r\n\r\n    // register awardee\r\n    // transfer all exisitng nfts to awardee\r\n    // register awardee to organisation\r\n    function registerAwardee(\r\n        string memory email,\r\n        address awardee\r\n    ) public {\r\n        // create new awardee obj\r\n        awardees[email] = new Awardee(email, awardee);\r\n        string[] memory employeeOrganisations = employeesOrganisations[email];\r\n        // find all organisations awardee belong to \r\n        uint256 numEmployeeOrganisations = employeesOrganisations[email].length;\r\n        for (uint256 i = 0; i < numEmployeeOrganisations; i++) {\r\n            string memory uen = employeeOrganisations[i];\r\n            Organisation organisation = organisations[uen];\r\n            // add awardees to organisation\r\n            organisation.addAwardee(email, awardee);\r\n            // transfer all certs\r\n            organisation.transferAllCertificates(email, awardee);\r\n        }\r\n        // return organisation.employeesCertificates();\r\n    }\r\n\r\n\r\n}\r\n",
  "sourcePath": "C:\\Users\\MHA\\desktop\\credibly-fe\\ethereum\\contracts\\System.sol",
  "compiler": {
    "name": "solc",
    "version": "0.8.12+commit.f00d7308.Emscripten.clang"
  },
  "schemaVersion": "3.4.6",
  "updatedAt": "2022-03-19T15:23:41.449Z",
  "devdoc": {
    "kind": "dev",
    "methods": {},
    "version": 1
  },
  "userdoc": {
    "kind": "user",
    "methods": {},
    "version": 1
  }
}