{
  "contractName": "System",
  "abi": [
    {
      "inputs": [],
      "stateMutability": "nonpayable",
      "type": "constructor"
    },
    {
      "inputs": [
        {
          "internalType": "string",
          "name": "",
          "type": "string"
        }
      ],
      "name": "awardees",
      "outputs": [
        {
          "internalType": "contract Awardee",
          "name": "",
          "type": "address"
        }
      ],
      "stateMutability": "view",
      "type": "function"
    },
    {
      "inputs": [
        {
          "internalType": "string",
          "name": "",
          "type": "string"
        },
        {
          "internalType": "uint256",
          "name": "",
          "type": "uint256"
        }
      ],
      "name": "employeesOrganisations",
      "outputs": [
        {
          "internalType": "string",
          "name": "",
          "type": "string"
        }
      ],
      "stateMutability": "view",
      "type": "function"
    },
    {
      "inputs": [
        {
          "internalType": "string",
          "name": "",
          "type": "string"
        }
      ],
      "name": "organisations",
      "outputs": [
        {
          "internalType": "contract Organisation",
          "name": "",
          "type": "address"
        }
      ],
      "stateMutability": "view",
      "type": "function"
    },
    {
      "inputs": [
        {
          "internalType": "string",
          "name": "name",
          "type": "string"
        },
        {
          "internalType": "string",
          "name": "uen",
          "type": "string"
        },
        {
          "internalType": "address",
          "name": "admin",
          "type": "address"
        }
      ],
      "name": "registerOrganisation",
      "outputs": [],
      "stateMutability": "nonpayable",
      "type": "function"
    },
    {
      "inputs": [
        {
          "internalType": "string",
          "name": "uen",
          "type": "string"
        },
        {
          "internalType": "string",
          "name": "email",
          "type": "string"
        }
      ],
      "name": "registerEmployee",
      "outputs": [],
      "stateMutability": "nonpayable",
      "type": "function"
    },
    {
      "inputs": [
        {
          "internalType": "string",
          "name": "email",
          "type": "string"
        },
        {
          "internalType": "address",
          "name": "awardee",
          "type": "address"
        }
      ],
      "name": "registerAwardee",
      "outputs": [],
      "stateMutability": "nonpayable",
      "type": "function"
    },
    {
      "inputs": [
        {
          "internalType": "string",
          "name": "uen",
          "type": "string"
        }
      ],
      "name": "getOrganisation",
      "outputs": [
        {
          "internalType": "contract Organisation",
          "name": "",
          "type": "address"
        }
      ],
      "stateMutability": "nonpayable",
      "type": "function"
    },
    {
      "inputs": [
        {
          "internalType": "string",
          "name": "email",
          "type": "string"
        }
      ],
      "name": "getAwardee",
      "outputs": [
        {
          "internalType": "contract Awardee",
          "name": "",
          "type": "address"
        }
      ],
      "stateMutability": "nonpayable",
      "type": "function"
    }
  ],
  "bytecode": "0x608060405234801561001057600080fd5b50614803806100206000396000f3fe60806040523480156200001157600080fd5b5060043610620000825760003560e01c806350a3874414620000875780636315369814620000bb57806363db7fb114620000e15780637cac6dce1462000118578063a477b024146200014f578063c2e2b40e1462000168578063e913682a146200017f578063edf09c8d1462000196575b600080fd5b6200009e620000983660046200080d565b620001ad565b6040516001600160a01b0390911681526020015b60405180910390f35b620000d2620000cc3660046200084d565b620001df565b604051620000b29190620008f2565b6200009e620000f23660046200080d565b80516020818301810180516000825292820191909301209152546001600160a01b031681565b6200009e620001293660046200080d565b80516020818301810180516002825292820191909301209152546001600160a01b031681565b62000166620001603660046200090e565b620002b0565b005b6200009e620001793660046200080d565b6200032b565b620001666200019036600462000995565b6200033f565b62000166620001a736600462000a11565b620003c8565b60008082604051620001c0919062000a64565b908152604051908190036020019020546001600160a01b031692915050565b815160208184018101805160018252928201918501919091209190528054829081106200020b57600080fd5b90600052602060002001600091509150508054620002299062000a82565b80601f0160208091040260200160405190810160405280929190818152602001828054620002579062000a82565b8015620002a85780601f106200027c57610100808354040283529160200191620002a8565b820191906000526020600020905b8154815290600101906020018083116200028a57829003601f168201915b505050505081565b60008083604051620002c3919062000a64565b908152604051908190036020018120546001600160a01b03169150600190620002ee90849062000a64565b90815260405160209181900382019020805460018101825560009182529082902085516200032593919092019190860190620006a1565b50505050565b6000600282604051620001c0919062000a64565b6000838383604051620003529062000730565b620003609392919062000abf565b604051809103906000f0801580156200037d573d6000803e3d6000fd5b5090508060008460405162000393919062000a64565b90815260405190819003602001902080546001600160a01b03929092166001600160a01b031990921691909117905550505050565b8181604051620003d8906200073e565b620003e592919062000b01565b604051809103906000f08015801562000402573d6000803e3d6000fd5b5060028360405162000415919062000a64565b908152602001604051809103902060006101000a8154816001600160a01b0302191690836001600160a01b0316021790555060006001836040516200045b919062000a64565b9081526020016040518091039020805480602002602001604051908101604052809291908181526020016000905b828210156200053f578382906000526020600020018054620004ab9062000a82565b80601f0160208091040260200160405190810160405280929190818152602001828054620004d99062000a82565b80156200052a5780601f10620004fe576101008083540402835291602001916200052a565b820191906000526020600020905b8154815290600101906020018083116200050c57829003601f168201915b50505050508152602001906001019062000489565b505050509050600060018460405162000559919062000a64565b90815260405190819003602001902054905060005b818110156200069a5760008382815181106200058e576200058e62000b2d565b6020026020010151905060008082604051620005ab919062000a64565b908152604051908190036020018120546316e5466960e21b82526001600160a01b031691508190635b9519a490620005ea908a908a9060040162000b01565b600060405180830381600087803b1580156200060557600080fd5b505af11580156200061a573d6000803e3d6000fd5b5050604051639a4046d960e01b81526001600160a01b0384169250639a4046d991506200064e908a908a9060040162000b01565b600060405180830381600087803b1580156200066957600080fd5b505af11580156200067e573d6000803e3d6000fd5b5050505050508080620006919062000b43565b9150506200056e565b5050505050565b828054620006af9062000a82565b90600052602060002090601f016020900481019282620006d357600085556200071e565b82601f10620006ee57805160ff19168380011785556200071e565b828001600101855582156200071e579182015b828111156200071e57825182559160200191906001019062000701565b506200072c9291506200074c565b5090565b61365e8062000b6e83390190565b61060280620041cc83390190565b5b808211156200072c57600081556001016200074d565b634e487b7160e01b600052604160045260246000fd5b600082601f8301126200078b57600080fd5b81356001600160401b0380821115620007a857620007a862000763565b604051601f8301601f19908116603f01168101908282118183101715620007d357620007d362000763565b81604052838152866020858801011115620007ed57600080fd5b836020870160208301376000602085830101528094505050505092915050565b6000602082840312156200082057600080fd5b81356001600160401b038111156200083757600080fd5b620008458482850162000779565b949350505050565b600080604083850312156200086157600080fd5b82356001600160401b038111156200087857600080fd5b620008868582860162000779565b95602094909401359450505050565b60005b83811015620008b257818101518382015260200162000898565b83811115620003255750506000910152565b60008151808452620008de81602086016020860162000895565b601f01601f19169290920160200192915050565b602081526000620009076020830184620008c4565b9392505050565b600080604083850312156200092257600080fd5b82356001600160401b03808211156200093a57600080fd5b620009488683870162000779565b935060208501359150808211156200095f57600080fd5b506200096e8582860162000779565b9150509250929050565b80356001600160a01b03811681146200099057600080fd5b919050565b600080600060608486031215620009ab57600080fd5b83356001600160401b0380821115620009c357600080fd5b620009d18783880162000779565b94506020860135915080821115620009e857600080fd5b50620009f78682870162000779565b92505062000a086040850162000978565b90509250925092565b6000806040838503121562000a2557600080fd5b82356001600160401b0381111562000a3c57600080fd5b62000a4a8582860162000779565b92505062000a5b6020840162000978565b90509250929050565b6000825162000a7881846020870162000895565b9190910192915050565b600181811c9082168062000a9757607f821691505b6020821081141562000ab957634e487b7160e01b600052602260045260246000fd5b50919050565b60608152600062000ad46060830186620008c4565b828103602084015262000ae88186620008c4565b91505060018060a01b0383166040830152949350505050565b60408152600062000b166040830185620008c4565b905060018060a01b03831660208301529392505050565b634e487b7160e01b600052603260045260246000fd5b600060001982141562000b6657634e487b7160e01b600052601160045260246000fd5b506001019056fe60806040523480156200001157600080fd5b506040516200365e3803806200365e8339810160408190526200003491620001fc565b82516200004990600090602086019062000089565b5081516200005f90600190602085019062000089565b50600280546001600160a01b0319166001600160a01b039290921691909117905550620002c69050565b828054620000979062000289565b90600052602060002090601f016020900481019282620000bb576000855562000106565b82601f10620000d657805160ff191683800117855562000106565b8280016001018555821562000106579182015b8281111562000106578251825591602001919060010190620000e9565b506200011492915062000118565b5090565b5b8082111562000114576000815560010162000119565b634e487b7160e01b600052604160045260246000fd5b600082601f8301126200015757600080fd5b81516001600160401b03808211156200017457620001746200012f565b604051601f8301601f19908116603f011681019082821181831017156200019f576200019f6200012f565b81604052838152602092508683858801011115620001bc57600080fd5b600091505b83821015620001e05785820183015181830184015290820190620001c1565b83821115620001f25760008385830101525b9695505050505050565b6000806000606084860312156200021257600080fd5b83516001600160401b03808211156200022a57600080fd5b620002388783880162000145565b945060208601519150808211156200024f57600080fd5b506200025e8682870162000145565b604086015190935090506001600160a01b03811681146200027e57600080fd5b809150509250925092565b600181811c908216806200029e57607f821691505b60208210811415620002c057634e487b7160e01b600052602260045260246000fd5b50919050565b61338880620002d66000396000f3fe60806040523480156200001157600080fd5b5060043610620000be5760003560e01c806306fdde0314620000c35780631457d25d14620000e5578063145b8eb3146200010c5780632d7cb52a146200015c5780635b9519a414620001665780637cac6dce146200017f57806392ad8eec14620001b65780639a4046d914620001cd5780639f560d8914620001e4578063ac9e576014620001fb578063d19ef32a1462000212578063f2a574ca146200023c578063f851a4401462000262575b600080fd5b620000cd62000276565b604051620000dc919062000d66565b60405180910390f35b620000fc620000f636600462000e2c565b6200030c565b604051620000dc92919062000e74565b620001436200011d36600462000e8d565b80516020818301810180516004825292820191909301209152546001600160a01b031681565b6040516001600160a01b039091168152602001620000dc565b620000cd62000362565b6200017d6200017736600462000ee6565b62000371565b005b620001436200019036600462000e8d565b80516020818301810180516006825292820191909301209152546001600160a01b031681565b6200017d620001c736600462000f3d565b620003b7565b6200017d620001de36600462000ee6565b62000499565b6200017d620001f536600462000fd6565b62000676565b6200017d6200020c36600462000fd6565b62000945565b620002296200022336600462000e8d565b620009d1565b604051620000dc95949392919062001067565b620002536200024d36600462000e8d565b62000bba565b604051620000dc9190620010bb565b60025462000143906001600160a01b031681565b60008054620002859062001115565b80601f0160208091040260200160405190810160405280929190818152602001828054620002b39062001115565b8015620003045780601f10620002d85761010080835404028352916020019162000304565b820191906000526020600020905b815481529060010190602001808311620002e657829003601f168201915b505050505081565b815160208184018101805160058252928201918501919091209190528054829081106200033857600080fd5b6000918252602090912060029091020180546001909101546001600160a01b039091169250905082565b60018054620002859062001115565b8060068360405162000384919062001152565b90815260405190819003602001902080546001600160a01b03929092166001600160a01b03199092169190911790555050565b620003ea6040518060a0016040528060608152602001606081526020016060815260200160008152602001600081525090565b848152602081018490526040808201849052606082018390525181906003906200041690889062001152565b908152602001604051809103902060008201518160000190805190602001906200044292919062000c51565b5060208281015180516200045d926001850192019062000c51565b50604082015180516200047b91600284019160209091019062000c51565b50606082015160038201556080909101516004909101555050505050565b6000600583604051620004ad919062001152565b9081526020016040518091039020805480602002602001604051908101604052809291908181526020016000905b8282101562000525576000848152602090819020604080518082019091526002850290910180546001600160a01b03168252600190810154828401529083529092019101620004db565b5050825192935060009150505b818110156200066f57600083828151811062000552576200055262001170565b60209081029190910181015180519181015160405163171c00fd60e01b8152919350906001600160a01b0383169063171c00fd906200059a9033908b90869060040162001186565b600060405180830381600087803b158015620005b557600080fd5b505af1158015620005ca573d6000803e3d6000fd5b505050506000600689604051620005e2919062001152565b90815260405190819003602001812054636a11781160e11b82526001600160a01b03169150819063d422f0229062000621908690869060040162000e74565b600060405180830381600087803b1580156200063c57600080fd5b505af115801562000651573d6000803e3d6000fd5b505050505050505080806200066690620011aa565b91505062000532565b5050505050565b60006004836040516200068a919062001152565b9081526040519081900360200181205463a15ab08d60e01b82526001600160a01b03169150600090829063a15ab08d90620006cc9033908790600401620011d4565b6020604051808303816000875af1158015620006ec573d6000803e3d6000fd5b505050506040513d601f19601f82011682018060405250810190620007129190620011fa565b905060006040518060400160405280846001600160a01b0316815260200183815250905060058660405162000748919062001152565b908152604051602091819003820181208054600180820183556000928352848320865160029093020180546001600160a01b0319166001600160a01b0390931692909217825593850151930192909255600690620007a890899062001152565b908152604051908190036020019020546001600160a01b0316146200093d57826001600160a01b031663171c00fd33600689604051620007e9919062001152565b90815260408051602092819003830181205463356ad9f560e11b825291516001600160a01b0390921692636ad5b3ea926004808401938290030181865afa15801562000839573d6000803e3d6000fd5b505050506040513d601f19601f820116820180604052508101906200085f919062001214565b856040518463ffffffff1660e01b8152600401620008809392919062001186565b600060405180830381600087803b1580156200089b57600080fd5b505af1158015620008b0573d6000803e3d6000fd5b505050506000600687604051620008c8919062001152565b90815260405190819003602001812054636a11781160e11b82526001600160a01b03169150819063d422f0229062000907908790879060040162000e74565b600060405180830381600087803b1580156200092257600080fd5b505af115801562000937573d6000803e3d6000fd5b50505050505b505050505050565b600083838360006040516200095a9062000ce0565b62000969949392919062001234565b604051809103906000f08015801562000986573d6000803e3d6000fd5b509050806004846040516200099c919062001152565b90815260405190819003602001902080546001600160a01b03929092166001600160a01b031990921691909117905550505050565b8051602081830181018051600382529282019190930120915280548190620009f99062001115565b80601f016020809104026020016040519081016040528092919081815260200182805462000a279062001115565b801562000a785780601f1062000a4c5761010080835404028352916020019162000a78565b820191906000526020600020905b81548152906001019060200180831162000a5a57829003601f168201915b50505050509080600101805462000a8f9062001115565b80601f016020809104026020016040519081016040528092919081815260200182805462000abd9062001115565b801562000b0e5780601f1062000ae25761010080835404028352916020019162000b0e565b820191906000526020600020905b81548152906001019060200180831162000af057829003601f168201915b50505050509080600201805462000b259062001115565b80601f016020809104026020016040519081016040528092919081815260200182805462000b539062001115565b801562000ba45780601f1062000b785761010080835404028352916020019162000ba4565b820191906000526020600020905b81548152906001019060200180831162000b8657829003601f168201915b5050505050908060030154908060040154905085565b606060058260405162000bce919062001152565b9081526020016040518091039020805480602002602001604051908101604052809291908181526020016000905b8282101562000c46576000848152602090819020604080518082019091526002850290910180546001600160a01b0316825260019081015482840152908352909201910162000bfc565b505050509050919050565b82805462000c5f9062001115565b90600052602060002090601f01602090048101928262000c83576000855562000cce565b82601f1062000c9e57805160ff191683800117855562000cce565b8280016001018555821562000cce579182015b8281111562000cce57825182559160200191906001019062000cb1565b5062000cdc92915062000cee565b5090565b612028806200132b83390190565b5b8082111562000cdc576000815560010162000cef565b60005b8381101562000d2257818101518382015260200162000d08565b8381111562000d32576000848401525b50505050565b6000815180845262000d5281602086016020860162000d05565b601f01601f19169290920160200192915050565b60208152600062000d7b602083018462000d38565b9392505050565b634e487b7160e01b600052604160045260246000fd5b600082601f83011262000daa57600080fd5b81356001600160401b038082111562000dc75762000dc762000d82565b604051601f8301601f19908116603f0116810190828211818310171562000df25762000df262000d82565b8160405283815286602085880101111562000e0c57600080fd5b836020870160208301376000602085830101528094505050505092915050565b6000806040838503121562000e4057600080fd5b82356001600160401b0381111562000e5757600080fd5b62000e658582860162000d98565b95602094909401359450505050565b6001600160a01b03929092168252602082015260400190565b60006020828403121562000ea057600080fd5b81356001600160401b0381111562000eb757600080fd5b62000ec58482850162000d98565b949350505050565b6001600160a01b038116811462000ee357600080fd5b50565b6000806040838503121562000efa57600080fd5b82356001600160401b0381111562000f1157600080fd5b62000f1f8582860162000d98565b925050602083013562000f328162000ecd565b809150509250929050565b6000806000806080858703121562000f5457600080fd5b84356001600160401b038082111562000f6c57600080fd5b62000f7a8883890162000d98565b9550602087013591508082111562000f9157600080fd5b62000f9f8883890162000d98565b9450604087013591508082111562000fb657600080fd5b5062000fc58782880162000d98565b949793965093946060013593505050565b60008060006060848603121562000fec57600080fd5b83356001600160401b03808211156200100457600080fd5b620010128783880162000d98565b945060208601359150808211156200102957600080fd5b620010378783880162000d98565b935060408601359150808211156200104e57600080fd5b506200105d8682870162000d98565b9150509250925092565b60a0815260006200107c60a083018862000d38565b828103602084015262001090818862000d38565b90508281036040840152620010a6818762000d38565b60608401959095525050608001529392505050565b602080825282518282018190526000919060409081850190868401855b828110156200110857815180516001600160a01b03168552860151868501529284019290850190600101620010d8565b5091979650505050505050565b600181811c908216806200112a57607f821691505b602082108114156200114c57634e487b7160e01b600052602260045260246000fd5b50919050565b600082516200116681846020870162000d05565b9190910192915050565b634e487b7160e01b600052603260045260246000fd5b6001600160a01b039384168152919092166020820152604081019190915260600190565b6000600019821415620011cd57634e487b7160e01b600052601160045260246000fd5b5060010190565b6001600160a01b038316815260406020820181905260009062000ec59083018462000d38565b6000602082840312156200120d57600080fd5b5051919050565b6000602082840312156200122757600080fd5b815162000d7b8162000ecd565b60808152600062001249608083018762000d38565b6020838203818501526200125e828862000d38565b9150838203604085015262001274828762000d38565b915083820360608501526000855481600182811c9150808316806200129a57607f831692505b858310811415620012b957634e487b7160e01b85526022600452602485fd5b828752602087019650808015620012d95760018114620012eb5762001318565b60ff1985168852868801955062001318565b60008b81526020902060005b85811015620013125781548a820152908401908801620012f7565b89019650505b50939c9b50505050505050505050505056fe60806040523480156200001157600080fd5b506040516200202838038062002028833981016040819052620000349162000246565b83604051806040016040528060088152602001674372656469626c7960c01b81525081600090805190602001906200006e929190620000d3565b50805162000084906001906020840190620000d3565b505083516200009c9150600c906020860190620000d3565b508151620000b290600d906020850190620000d3565b508051620000c890600e906020840190620000d3565b50505050506200033c565b828054620000e190620002ff565b90600052602060002090601f01602090048101928262000105576000855562000150565b82601f106200012057805160ff191683800117855562000150565b8280016001018555821562000150579182015b828111156200015057825182559160200191906001019062000133565b506200015e92915062000162565b5090565b5b808211156200015e576000815560010162000163565b634e487b7160e01b600052604160045260246000fd5b600082601f830112620001a157600080fd5b81516001600160401b0380821115620001be57620001be62000179565b604051601f8301601f19908116603f01168101908282118183101715620001e957620001e962000179565b816040528381526020925086838588010111156200020657600080fd5b600091505b838210156200022a57858201830151818301840152908201906200020b565b838211156200023c5760008385830101525b9695505050505050565b600080600080608085870312156200025d57600080fd5b84516001600160401b03808211156200027557600080fd5b62000283888389016200018f565b955060208701519150808211156200029a57600080fd5b620002a8888389016200018f565b94506040870151915080821115620002bf57600080fd5b620002cd888389016200018f565b93506060870151915080821115620002e457600080fd5b50620002f3878288016200018f565b91505092959194509250565b600181811c908216806200031457607f821691505b602082108114156200033657634e487b7160e01b600052602260045260246000fd5b50919050565b611cdc806200034c6000396000f3fe608060405234801561001057600080fd5b50600436106100f15760003560e01c80630178fe3f146100f657806301ffc9a71461012157806306fdde0314610144578063081812fc14610159578063095ea7b314610184578063171c00fd1461019957806318160ddd146101ac57806323b872dd146101be5780632f745c59146101d157806342842e0e146101e45780634f6ccce7146101f75780636352211e1461020a57806370a082311461021d57806395d89b4114610230578063a15ab08d14610238578063a22cb4651461024b578063b88d4fde1461025e578063c87b56dd14610271578063e985e9c514610284575b600080fd5b6101096101043660046116ef565b610297565b60405161011893929190611760565b60405180910390f35b61013461012f3660046117bc565b6103ce565b6040519015158152602001610118565b61014c6103df565b60405161011891906117d9565b61016c6101673660046116ef565b610471565b6040516001600160a01b039091168152602001610118565b610197610192366004611808565b6104fe565b005b6101976101a7366004611832565b61060f565b6009545b604051908152602001610118565b6101976101cc366004611832565b610680565b6101b06101df366004611808565b6106a6565b6101976101f2366004611832565b61073c565b6101b06102053660046116ef565b610757565b61016c6102183660046116ef565b6107ea565b6101b061022b36600461186e565b610861565b61014c6108e8565b6101b0610246366004611914565b6108f7565b610197610259366004611975565b61092e565b61019761026c3660046119b1565b61093d565b61014c61027f3660046116ef565b610975565b610134610292366004611a2c565b610980565b60608060606102a584610975565b600d600e8180546102b590611a5f565b80601f01602080910402602001604051908101604052809291908181526020018280546102e190611a5f565b801561032e5780601f106103035761010080835404028352916020019161032e565b820191906000526020600020905b81548152906001019060200180831161031157829003601f168201915b5050505050915080805461034190611a5f565b80601f016020809104026020016040519081016040528092919081815260200182805461036d90611a5f565b80156103ba5780601f1061038f576101008083540402835291602001916103ba565b820191906000526020600020905b81548152906001019060200180831161039d57829003601f168201915b505050505090509250925092509193909250565b60006103d9826109ae565b92915050565b6060600080546103ee90611a5f565b80601f016020809104026020016040519081016040528092919081815260200182805461041a90611a5f565b80156104675780601f1061043c57610100808354040283529160200191610467565b820191906000526020600020905b81548152906001019060200180831161044a57829003601f168201915b5050505050905090565b600061047c826109d3565b6104e25760405162461bcd60e51b815260206004820152602c60248201527f4552433732313a20617070726f76656420717565727920666f72206e6f6e657860448201526b34b9ba32b73a103a37b5b2b760a11b60648201526084015b60405180910390fd5b506000908152600460205260409020546001600160a01b031690565b6000610509826107ea565b9050806001600160a01b0316836001600160a01b031614156105775760405162461bcd60e51b815260206004820152602160248201527f4552433732313a20617070726f76616c20746f2063757272656e74206f776e656044820152603960f91b60648201526084016104d9565b336001600160a01b038216148061059357506105938133610980565b6106005760405162461bcd60e51b815260206004820152603860248201527f4552433732313a20617070726f76652063616c6c6572206973206e6f74206f776044820152771b995c881b9bdc88185c1c1c9bdd995908199bdc88185b1b60421b60648201526084016104d9565b61060a83836109f0565b505050565b6106198382610a5e565b6106755760405162461bcd60e51b815260206004820152602760248201527f43616c6c6572206973206e6f74206f776e6572206f66207468697320636572746044820152666966696361746560c81b60648201526084016104d9565b61060a838383610b28565b61068a3382610a5e565b6106755760405162461bcd60e51b81526004016104d990611a9a565b60006106b183610861565b82106107135760405162461bcd60e51b815260206004820152602b60248201527f455243373231456e756d657261626c653a206f776e657220696e646578206f7560448201526a74206f6620626f756e647360a81b60648201526084016104d9565b506001600160a01b03919091166000908152600760209081526040808320938352929052205490565b61060a8383836040518060200160405280600081525061093d565b600061076260095490565b82106107c55760405162461bcd60e51b815260206004820152602c60248201527f455243373231456e756d657261626c653a20676c6f62616c20696e646578206f60448201526b7574206f6620626f756e647360a01b60648201526084016104d9565b600982815481106107d8576107d8611aeb565b90600052602060002001549050919050565b6000818152600260205260408120546001600160a01b0316806103d95760405162461bcd60e51b815260206004820152602960248201527f4552433732313a206f776e657220717565727920666f72206e6f6e657869737460448201526832b73a103a37b5b2b760b91b60648201526084016104d9565b60006001600160a01b0382166108cc5760405162461bcd60e51b815260206004820152602a60248201527f4552433732313a2062616c616e636520717565727920666f7220746865207a65604482015269726f206164647265737360b01b60648201526084016104d9565b506001600160a01b031660009081526003602052604090205490565b6060600180546103ee90611a5f565b600080610903600b5490565b9050610913600b80546001019055565b61091d8482610cbd565b6109278184610de9565b9392505050565b610939338383610e74565b5050565b6109473383610a5e565b6109635760405162461bcd60e51b81526004016104d990611a9a565b61096f84848484610f3f565b50505050565b60606103d982610f72565b6001600160a01b03918216600090815260056020908152604080832093909416825291909152205460ff1690565b60006001600160e01b0319821663780e9d6360e01b14806103d957506103d9826110e1565b6000908152600260205260409020546001600160a01b0316151590565b600081815260046020526040902080546001600160a01b0319166001600160a01b0384169081179091558190610a25826107ea565b6001600160a01b03167f8c5be1e5ebec7d5bd14f71427d1e84f3dd0314c0f7b2291e5b200ac8c7c3b92560405160405180910390a45050565b6000610a69826109d3565b610aca5760405162461bcd60e51b815260206004820152602c60248201527f4552433732313a206f70657261746f7220717565727920666f72206e6f6e657860448201526b34b9ba32b73a103a37b5b2b760a11b60648201526084016104d9565b6000610ad5836107ea565b9050806001600160a01b0316846001600160a01b03161480610b105750836001600160a01b0316610b0584610471565b6001600160a01b0316145b80610b205750610b208185610980565b949350505050565b826001600160a01b0316610b3b826107ea565b6001600160a01b031614610b9f5760405162461bcd60e51b815260206004820152602560248201527f4552433732313a207472616e736665722066726f6d20696e636f72726563742060448201526437bbb732b960d91b60648201526084016104d9565b6001600160a01b038216610c015760405162461bcd60e51b8152602060048201526024808201527f4552433732313a207472616e7366657220746f20746865207a65726f206164646044820152637265737360e01b60648201526084016104d9565b610c0c838383611131565b610c176000826109f0565b6001600160a01b0383166000908152600360205260408120805460019290610c40908490611b17565b90915550506001600160a01b0382166000908152600360205260408120805460019290610c6e908490611b2e565b909155505060008181526002602052604080822080546001600160a01b0319166001600160a01b038681169182179092559151849391871691600080516020611c8783398151915291a4505050565b6001600160a01b038216610d135760405162461bcd60e51b815260206004820181905260248201527f4552433732313a206d696e7420746f20746865207a65726f206164647265737360448201526064016104d9565b610d1c816109d3565b15610d685760405162461bcd60e51b815260206004820152601c60248201527b115490cdcc8c4e881d1bdad95b88185b1c9958591e481b5a5b9d195960221b60448201526064016104d9565b610d7460008383611131565b6001600160a01b0382166000908152600360205260408120805460019290610d9d908490611b2e565b909155505060008181526002602052604080822080546001600160a01b0319166001600160a01b0386169081179091559051839290600080516020611c87833981519152908290a45050565b610df2826109d3565b610e555760405162461bcd60e51b815260206004820152602e60248201527f45524337323155524953746f726167653a2055524920736574206f66206e6f6e60448201526d32bc34b9ba32b73a103a37b5b2b760911b60648201526084016104d9565b6000828152600660209081526040909120825161060a92840190611656565b816001600160a01b0316836001600160a01b03161415610ed25760405162461bcd60e51b815260206004820152601960248201527822a9219b99189d1030b8383937bb32903a379031b0b63632b960391b60448201526064016104d9565b6001600160a01b03838116600081815260056020908152604080832094871680845294825291829020805460ff191686151590811790915591519182527f17307eab39ab6107e8899845ad3d59bd9653f200f220920489ca2b5937696c31910160405180910390a3505050565b610f4a848484610b28565b610f568484848461113c565b61096f5760405162461bcd60e51b81526004016104d990611b46565b6060610f7d826109d3565b610fe35760405162461bcd60e51b815260206004820152603160248201527f45524337323155524953746f726167653a2055524920717565727920666f72206044820152703737b732bc34b9ba32b73a103a37b5b2b760791b60648201526084016104d9565b60008281526006602052604081208054610ffc90611a5f565b80601f016020809104026020016040519081016040528092919081815260200182805461102890611a5f565b80156110755780601f1061104a57610100808354040283529160200191611075565b820191906000526020600020905b81548152906001019060200180831161105857829003601f168201915b50505050509050600061109360408051602081019091526000815290565b90508051600014156110a6575092915050565b8151156110d85780826040516020016110c0929190611b98565b60405160208183030381529060405292505050919050565b610b208461123a565b60006001600160e01b031982166380ac58cd60e01b148061111257506001600160e01b03198216635b5e139f60e01b145b806103d957506301ffc9a760e01b6001600160e01b03198316146103d9565b61060a838383611311565b60006001600160a01b0384163b1561122f57604051630a85bd0160e11b81526001600160a01b0385169063150b7a0290611180903390899088908890600401611bc7565b6020604051808303816000875af19250505080156111bb575060408051601f3d908101601f191682019092526111b891810190611bfa565b60015b611215573d8080156111e9576040519150601f19603f3d011682016040523d82523d6000602084013e6111ee565b606091505b50805161120d5760405162461bcd60e51b81526004016104d990611b46565b805181602001fd5b6001600160e01b031916630a85bd0160e11b149050610b20565b506001949350505050565b6060611245826109d3565b6112a95760405162461bcd60e51b815260206004820152602f60248201527f4552433732314d657461646174613a2055524920717565727920666f72206e6f60448201526e3732bc34b9ba32b73a103a37b5b2b760891b60648201526084016104d9565b60006112c060408051602081019091526000815290565b905060008151116112e05760405180602001604052806000815250610927565b806112ea846113c9565b6040516020016112fb929190611b98565b6040516020818303038152906040529392505050565b6001600160a01b03831661136c5761136781600980546000838152600a60205260408120829055600182018355919091527f6e1540171b6c0c960b71a7020d9f60077f6af931a8bbf590da0223dacf75c7af0155565b61138f565b816001600160a01b0316836001600160a01b03161461138f5761138f83826114c6565b6001600160a01b0382166113a65761060a81611563565b826001600160a01b0316826001600160a01b03161461060a5761060a8282611612565b6060816113ed5750506040805180820190915260018152600360fc1b602082015290565b8160005b8115611417578061140181611c17565b91506114109050600a83611c48565b91506113f1565b6000816001600160401b0381111561143157611431611889565b6040519080825280601f01601f19166020018201604052801561145b576020820181803683370190505b5090505b8415610b2057611470600183611b17565b915061147d600a86611c5c565b611488906030611b2e565b60f81b81838151811061149d5761149d611aeb565b60200101906001600160f81b031916908160001a9053506114bf600a86611c48565b945061145f565b600060016114d384610861565b6114dd9190611b17565b600083815260086020526040902054909150808214611530576001600160a01b03841660009081526007602090815260408083208584528252808320548484528184208190558352600890915290208190555b5060009182526008602090815260408084208490556001600160a01b039094168352600781528383209183525290812055565b60095460009061157590600190611b17565b6000838152600a60205260408120546009805493945090928490811061159d5761159d611aeb565b9060005260206000200154905080600983815481106115be576115be611aeb565b6000918252602080832090910192909255828152600a909152604080822084905585825281205560098054806115f6576115f6611c70565b6001900381819060005260206000200160009055905550505050565b600061161d83610861565b6001600160a01b039093166000908152600760209081526040808320868452825280832085905593825260089052919091209190915550565b82805461166290611a5f565b90600052602060002090601f01602090048101928261168457600085556116ca565b82601f1061169d57805160ff19168380011785556116ca565b828001600101855582156116ca579182015b828111156116ca5782518255916020019190600101906116af565b506116d69291506116da565b5090565b5b808211156116d657600081556001016116db565b60006020828403121561170157600080fd5b5035919050565b60005b8381101561172357818101518382015260200161170b565b8381111561096f5750506000910152565b6000815180845261174c816020860160208601611708565b601f01601f19169290920160200192915050565b6060815260006117736060830186611734565b82810360208401526117858186611734565b905082810360408401526117998185611734565b9695505050505050565b6001600160e01b0319811681146117b957600080fd5b50565b6000602082840312156117ce57600080fd5b8135610927816117a3565b6020815260006109276020830184611734565b80356001600160a01b038116811461180357600080fd5b919050565b6000806040838503121561181b57600080fd5b611824836117ec565b946020939093013593505050565b60008060006060848603121561184757600080fd5b611850846117ec565b925061185e602085016117ec565b9150604084013590509250925092565b60006020828403121561188057600080fd5b610927826117ec565b634e487b7160e01b600052604160045260246000fd5b60006001600160401b03808411156118b9576118b9611889565b604051601f8501601f19908116603f011681019082821181831017156118e1576118e1611889565b816040528093508581528686860111156118fa57600080fd5b858560208301376000602087830101525050509392505050565b6000806040838503121561192757600080fd5b611930836117ec565b915060208301356001600160401b0381111561194b57600080fd5b8301601f8101851361195c57600080fd5b61196b8582356020840161189f565b9150509250929050565b6000806040838503121561198857600080fd5b611991836117ec565b9150602083013580151581146119a657600080fd5b809150509250929050565b600080600080608085870312156119c757600080fd5b6119d0856117ec565b93506119de602086016117ec565b92506040850135915060608501356001600160401b03811115611a0057600080fd5b8501601f81018713611a1157600080fd5b611a208782356020840161189f565b91505092959194509250565b60008060408385031215611a3f57600080fd5b611a48836117ec565b9150611a56602084016117ec565b90509250929050565b600181811c90821680611a7357607f821691505b60208210811415611a9457634e487b7160e01b600052602260045260246000fd5b50919050565b60208082526031908201527f4552433732313a207472616e736665722063616c6c6572206973206e6f74206f6040820152701ddb995c881b9bdc88185c1c1c9bdd9959607a1b606082015260800190565b634e487b7160e01b600052603260045260246000fd5b634e487b7160e01b600052601160045260246000fd5b600082821015611b2957611b29611b01565b500390565b60008219821115611b4157611b41611b01565b500190565b60208082526032908201527f4552433732313a207472616e7366657220746f206e6f6e20455243373231526560408201527131b2b4bb32b91034b6b83632b6b2b73a32b960711b606082015260800190565b60008351611baa818460208801611708565b835190830190611bbe818360208801611708565b01949350505050565b6001600160a01b038581168252841660208201526040810183905260806060820181905260009061179990830184611734565b600060208284031215611c0c57600080fd5b8151610927816117a3565b6000600019821415611c2b57611c2b611b01565b5060010190565b634e487b7160e01b600052601260045260246000fd5b600082611c5757611c57611c32565b500490565b600082611c6b57611c6b611c32565b500690565b634e487b7160e01b600052603160045260246000fdfeddf252ad1be2c89b69c2b068fc378daa952ba7f163c4a11628f55a4df523b3efa26469706673582212208ce97b793d61731bf4ca81449140209da6043d0fcea42f37939e90c610cd60e164736f6c634300080c0033a2646970667358221220b6571a2548b1c9ba90848930469c09cbf1d211ff2a0cd3783f90c80c69d9042364736f6c634300080c0033608060405234801561001057600080fd5b5060405161060238038061060283398101604081905261002f91610068565b505061014a565b634e487b7160e01b600052604160045260246000fd5b80516001600160a01b038116811461006357600080fd5b919050565b6000806040838503121561007b57600080fd5b82516001600160401b038082111561009257600080fd5b818501915085601f8301126100a657600080fd5b8151818111156100b8576100b8610036565b604051601f8201601f19908116603f011681019083821181831017156100e0576100e0610036565b816040528281526020935088848487010111156100fc57600080fd5b600091505b8282101561011e5784820184015181830185015290830190610101565b8282111561012f5760008484830101525b955061013f91505085820161004c565b925050509250929050565b6104a9806101596000396000f3fe608060405234801561001057600080fd5b506004361061006d5760003560e01c80631f5ddb4f146100725780634bdbd39a14610090578063573668db146100ad578063663b3e22146100d85780636ad5b3ea1461010a578063820e93f51461011d578063d422f02214610132575b600080fd5b61007a6101d5565b604051610087919061033a565b60405180910390f35b60045461009d9060ff1681565b6040519015158152602001610087565b6100c06100bb366004610392565b61024a565b6040516001600160a01b039091168152602001610087565b6100eb6100e6366004610392565b610274565b604080516001600160a01b039093168352602083019190915201610087565b6001546100c0906001600160a01b031681565b6101256102ac565b60405161008791906103ab565b6101d3610140366004610400565b604080518082019091526001600160a01b0392831681526020810191825260028054600181018255600082905291517f405787fa12a823e0f2b7631cc41b3ba8828b3321ca811111fa75cd3aa3bb5ace9290910291820180546001600160a01b0319169190941617909255517f405787fa12a823e0f2b7631cc41b3ba8828b3321ca811111fa75cd3aa3bb5acf90910155565b005b60606002805480602002602001604051908101604052809291908181526020016000905b82821015610241576000848152602090819020604080518082019091526002850290910180546001600160a01b031682526001908101548284015290835290920191016101f9565b50505050905090565b6003818154811061025a57600080fd5b6000918252602090912001546001600160a01b0316905081565b6002818154811061028457600080fd5b6000918252602090912060029091020180546001909101546001600160a01b03909116915082565b600080546102b990610438565b80601f01602080910402602001604051908101604052809291908181526020018280546102e590610438565b80156103325780601f1061030757610100808354040283529160200191610332565b820191906000526020600020905b81548152906001019060200180831161031557829003601f168201915b505050505081565b602080825282518282018190526000919060409081850190868401855b8281101561038557815180516001600160a01b03168552860151868501529284019290850190600101610357565b5091979650505050505050565b6000602082840312156103a457600080fd5b5035919050565b600060208083528351808285015260005b818110156103d8578581018301518582016040015282016103bc565b818111156103ea576000604083870101525b50601f01601f1916929092016040019392505050565b6000806040838503121561041357600080fd5b82356001600160a01b038116811461042a57600080fd5b946020939093013593505050565b600181811c9082168061044c57607f821691505b6020821081141561046d57634e487b7160e01b600052602260045260246000fd5b5091905056fea2646970667358221220e2d286450b362d3228d139d5992559b279900e7dd5f2d3ac1736ce5708d6a37164736f6c634300080c0033a2646970667358221220b71e5768b2d3056c94060050a8e171b2dd45923ea54ff7338c7be8d235a6df3c64736f6c634300080c0033",
  "immutableReferences": {},
  "source": "// SPDX-License-Identifier: UNLICENSED\r\npragma solidity ^0.8.0;\r\n\r\nimport './Organisation.sol';\r\nimport './Awardee.sol';\r\n\r\ncontract System {\r\n    // uen => Organisation Obj\r\n    mapping (string => Organisation) public organisations;\r\n    // email => uen[] (list of organisations worked at)\r\n    mapping (string => string[]) public employeesOrganisations;\r\n    // email => Awardee Obj\r\n    mapping (string => Awardee) public awardees;\r\n\r\n\r\n    constructor() {\r\n    }\r\n\r\n    // register organisation\r\n    function registerOrganisation(\r\n        string memory name,\r\n        string memory uen,\r\n        address admin\r\n    ) public {\r\n        Organisation organisation = new Organisation(name, uen, admin);\r\n        organisations[uen] = organisation;\r\n    }\r\n\r\n    //\r\n\r\n    // register employee to organisation\r\n    function registerEmployee(\r\n        string memory uen,\r\n        // string memory name,\r\n        string memory email\r\n        // string memory position,\r\n        // uint256 startDate\r\n    ) public {\r\n        Organisation organisation = organisations[uen];\r\n        // organisation.addEmployee(email, name, position, startDate);\r\n        employeesOrganisations[email].push(uen);\r\n    }\r\n\r\n    // register awardee\r\n    // transfer all exisitng nfts to awardee\r\n    // register awardee to organisation\r\n    function registerAwardee(\r\n        string memory email,\r\n        address awardee\r\n    ) public {\r\n        // create new awardee obj\r\n        awardees[email] = new Awardee(email, awardee);\r\n        string[] memory employeeOrganisations = employeesOrganisations[email];\r\n        // find all organisations awardee belong to\r\n        uint256 numEmployeeOrganisations = employeesOrganisations[email].length;\r\n        for (uint256 i = 0; i < numEmployeeOrganisations; i++) {\r\n            string memory uen = employeeOrganisations[i];\r\n            Organisation organisation = organisations[uen];\r\n            // add awardees to organisation\r\n            organisation.addAwardee(email, awardee);\r\n            // transfer all certs\r\n            organisation.transferAllCertificates(email, awardee);\r\n        }\r\n        // return organisation.employeesCertificates();\r\n    }\r\n\r\n    // get all employee certs via email // useless function?\r\n\r\n    function getOrganisation(string memory uen) public returns (Organisation) {\r\n        return organisations[uen];\r\n    }\r\n\r\n    function getAwardee(string memory email) public returns (Awardee) {\r\n        return awardees[email];\r\n    }\r\n\r\n    // function newCertificate(\r\n    //     string memory uen,\r\n    //     string memory name,\r\n    //     string memory certificateID\r\n    // ) public {\r\n    //     Organisation organisation = organisations[uen];\r\n    //     organisation.addCertificate(name, certificateID);\r\n    // }\r\n\r\n    // function awardCertificate(\r\n    //     string memory uen,\r\n    //     string memory email,\r\n    //     string memory certificateID,\r\n    //     string memory url\r\n    // ) public {\r\n    //     Organisation organisation = organisations[uen];\r\n    //     organisation.awardCertificate(email, certificateID, url);\r\n    // }\r\n\r\n    // function getCertificate(\r\n    //     string memory email\r\n    // )\r\n\r\n    // test contract using system.sol only\r\n\r\n\r\n}\r\n",
  "sourcePath": "C:\\Users\\MHA\\desktop\\credibly-fe\\ethereum\\contracts\\System.sol",
  "compiler": {
    "name": "solc",
    "version": "0.8.12+commit.f00d7308.Emscripten.clang"
  },
  "schemaVersion": "3.4.6",
  "updatedAt": "2022-03-20T11:17:31.680Z",
  "devdoc": {
    "kind": "dev",
    "methods": {},
    "version": 1
  },
  "userdoc": {
    "kind": "user",
    "methods": {},
    "version": 1
  }
}