{
  "contractName": "System",
  "abi": [
    {
      "inputs": [],
      "stateMutability": "nonpayable",
      "type": "constructor"
    },
    {
      "inputs": [
        {
          "internalType": "string",
          "name": "",
          "type": "string"
        }
      ],
      "name": "awardees",
      "outputs": [
        {
          "internalType": "contract Awardee",
          "name": "",
          "type": "address"
        }
      ],
      "stateMutability": "view",
      "type": "function",
      "constant": true
    },
    {
      "inputs": [
        {
          "internalType": "string",
          "name": "",
          "type": "string"
        },
        {
          "internalType": "uint256",
          "name": "",
          "type": "uint256"
        }
      ],
      "name": "employeesOrganisations",
      "outputs": [
        {
          "internalType": "string",
          "name": "",
          "type": "string"
        }
      ],
      "stateMutability": "view",
      "type": "function",
      "constant": true
    },
    {
      "inputs": [
        {
          "internalType": "string",
          "name": "",
          "type": "string"
        }
      ],
      "name": "organisations",
      "outputs": [
        {
          "internalType": "contract Organisation",
          "name": "",
          "type": "address"
        }
      ],
      "stateMutability": "view",
      "type": "function",
      "constant": true
    },
    {
      "inputs": [
        {
          "internalType": "string",
          "name": "name",
          "type": "string"
        },
        {
          "internalType": "string",
          "name": "uen",
          "type": "string"
        },
        {
          "internalType": "address",
          "name": "admin",
          "type": "address"
        }
      ],
      "name": "registerOrganisation",
      "outputs": [],
      "stateMutability": "nonpayable",
      "type": "function"
    },
    {
      "inputs": [
        {
          "internalType": "string",
          "name": "uen",
          "type": "string"
        },
        {
          "internalType": "string",
          "name": "email",
          "type": "string"
        }
      ],
      "name": "registerEmployee",
      "outputs": [],
      "stateMutability": "nonpayable",
      "type": "function"
    },
    {
      "inputs": [
        {
          "internalType": "string",
          "name": "email",
          "type": "string"
        },
        {
          "internalType": "address",
          "name": "awardee",
          "type": "address"
        }
      ],
      "name": "registerAwardee",
      "outputs": [],
      "stateMutability": "nonpayable",
      "type": "function"
    },
    {
      "inputs": [
        {
          "internalType": "string",
          "name": "uen",
          "type": "string"
        }
      ],
      "name": "getOrganisation",
      "outputs": [
        {
          "internalType": "contract Organisation",
          "name": "",
          "type": "address"
        }
      ],
      "stateMutability": "nonpayable",
      "type": "function"
    },
    {
      "inputs": [
        {
          "internalType": "string",
          "name": "email",
          "type": "string"
        }
      ],
      "name": "getAwardee",
      "outputs": [
        {
          "internalType": "contract Awardee",
          "name": "",
          "type": "address"
        }
      ],
      "stateMutability": "nonpayable",
      "type": "function"
    }
  ],
  "bytecode": "0x608060405234801561001057600080fd5b506140f8806100206000396000f3fe60806040523480156200001157600080fd5b5060043610620000825760003560e01c806350a3874414620000875780636315369814620000bb57806363db7fb114620000e15780637cac6dce1462000118578063a477b024146200014f578063c2e2b40e1462000168578063e913682a146200017f578063edf09c8d1462000196575b600080fd5b6200009e620000983660046200080d565b620001ad565b6040516001600160a01b0390911681526020015b60405180910390f35b620000d2620000cc3660046200084d565b620001df565b604051620000b29190620008f2565b6200009e620000f23660046200080d565b80516020818301810180516000825292820191909301209152546001600160a01b031681565b6200009e620001293660046200080d565b80516020818301810180516002825292820191909301209152546001600160a01b031681565b62000166620001603660046200090e565b620002b0565b005b6200009e620001793660046200080d565b6200032b565b620001666200019036600462000995565b6200033f565b62000166620001a736600462000a11565b620003c8565b60008082604051620001c0919062000a64565b908152604051908190036020019020546001600160a01b031692915050565b815160208184018101805160018252928201918501919091209190528054829081106200020b57600080fd5b90600052602060002001600091509150508054620002299062000a82565b80601f0160208091040260200160405190810160405280929190818152602001828054620002579062000a82565b8015620002a85780601f106200027c57610100808354040283529160200191620002a8565b820191906000526020600020905b8154815290600101906020018083116200028a57829003601f168201915b505050505081565b60008083604051620002c3919062000a64565b908152604051908190036020018120546001600160a01b03169150600190620002ee90849062000a64565b90815260405160209181900382019020805460018101825560009182529082902085516200032593919092019190860190620006a1565b50505050565b6000600282604051620001c0919062000a64565b6000838383604051620003529062000730565b620003609392919062000abf565b604051809103906000f0801580156200037d573d6000803e3d6000fd5b5090508060008460405162000393919062000a64565b90815260405190819003602001902080546001600160a01b03929092166001600160a01b031990921691909117905550505050565b8181604051620003d8906200073e565b620003e592919062000b01565b604051809103906000f08015801562000402573d6000803e3d6000fd5b5060028360405162000415919062000a64565b908152602001604051809103902060006101000a8154816001600160a01b0302191690836001600160a01b0316021790555060006001836040516200045b919062000a64565b9081526020016040518091039020805480602002602001604051908101604052809291908181526020016000905b828210156200053f578382906000526020600020018054620004ab9062000a82565b80601f0160208091040260200160405190810160405280929190818152602001828054620004d99062000a82565b80156200052a5780601f10620004fe576101008083540402835291602001916200052a565b820191906000526020600020905b8154815290600101906020018083116200050c57829003601f168201915b50505050508152602001906001019062000489565b505050509050600060018460405162000559919062000a64565b90815260405190819003602001902054905060005b818110156200069a5760008382815181106200058e576200058e62000b2d565b6020026020010151905060008082604051620005ab919062000a64565b908152604051908190036020018120546316e5466960e21b82526001600160a01b031691508190635b9519a490620005ea908a908a9060040162000b01565b600060405180830381600087803b1580156200060557600080fd5b505af11580156200061a573d6000803e3d6000fd5b5050604051639a4046d960e01b81526001600160a01b0384169250639a4046d991506200064e908a908a9060040162000b01565b600060405180830381600087803b1580156200066957600080fd5b505af11580156200067e573d6000803e3d6000fd5b5050505050508080620006919062000b43565b9150506200056e565b5050505050565b828054620006af9062000a82565b90600052602060002090601f016020900481019282620006d357600085556200071e565b82601f10620006ee57805160ff19168380011785556200071e565b828001600101855582156200071e579182015b828111156200071e57825182559160200191906001019062000701565b506200072c9291506200074c565b5090565b612f538062000b6e83390190565b6106028062003ac183390190565b5b808211156200072c57600081556001016200074d565b634e487b7160e01b600052604160045260246000fd5b600082601f8301126200078b57600080fd5b81356001600160401b0380821115620007a857620007a862000763565b604051601f8301601f19908116603f01168101908282118183101715620007d357620007d362000763565b81604052838152866020858801011115620007ed57600080fd5b836020870160208301376000602085830101528094505050505092915050565b6000602082840312156200082057600080fd5b81356001600160401b038111156200083757600080fd5b620008458482850162000779565b949350505050565b600080604083850312156200086157600080fd5b82356001600160401b038111156200087857600080fd5b620008868582860162000779565b95602094909401359450505050565b60005b83811015620008b257818101518382015260200162000898565b83811115620003255750506000910152565b60008151808452620008de81602086016020860162000895565b601f01601f19169290920160200192915050565b602081526000620009076020830184620008c4565b9392505050565b600080604083850312156200092257600080fd5b82356001600160401b03808211156200093a57600080fd5b620009488683870162000779565b935060208501359150808211156200095f57600080fd5b506200096e8582860162000779565b9150509250929050565b80356001600160a01b03811681146200099057600080fd5b919050565b600080600060608486031215620009ab57600080fd5b83356001600160401b0380821115620009c357600080fd5b620009d18783880162000779565b94506020860135915080821115620009e857600080fd5b50620009f78682870162000779565b92505062000a086040850162000978565b90509250925092565b6000806040838503121562000a2557600080fd5b82356001600160401b0381111562000a3c57600080fd5b62000a4a8582860162000779565b92505062000a5b6020840162000978565b90509250929050565b6000825162000a7881846020870162000895565b9190910192915050565b600181811c9082168062000a9757607f821691505b6020821081141562000ab957634e487b7160e01b600052602260045260246000fd5b50919050565b60608152600062000ad46060830186620008c4565b828103602084015262000ae88186620008c4565b91505060018060a01b0383166040830152949350505050565b60408152600062000b166040830185620008c4565b905060018060a01b03831660208301529392505050565b634e487b7160e01b600052603260045260246000fd5b600060001982141562000b6657634e487b7160e01b600052601160045260246000fd5b506001019056fe60806040523480156200001157600080fd5b5060405162002f5338038062002f538339810160408190526200003491620001fc565b82516200004990600090602086019062000089565b5081516200005f90600190602085019062000089565b50600280546001600160a01b0319166001600160a01b039290921691909117905550620002c69050565b828054620000979062000289565b90600052602060002090601f016020900481019282620000bb576000855562000106565b82601f10620000d657805160ff191683800117855562000106565b8280016001018555821562000106579182015b8281111562000106578251825591602001919060010190620000e9565b506200011492915062000118565b5090565b5b8082111562000114576000815560010162000119565b634e487b7160e01b600052604160045260246000fd5b600082601f8301126200015757600080fd5b81516001600160401b03808211156200017457620001746200012f565b604051601f8301601f19908116603f011681019082821181831017156200019f576200019f6200012f565b81604052838152602092508683858801011115620001bc57600080fd5b600091505b83821015620001e05785820183015181830184015290820190620001c1565b83821115620001f25760008385830101525b9695505050505050565b6000806000606084860312156200021257600080fd5b83516001600160401b03808211156200022a57600080fd5b620002388783880162000145565b945060208601519150808211156200024f57600080fd5b506200025e8682870162000145565b604086015190935090506001600160a01b03811681146200027e57600080fd5b809150509250925092565b600181811c908216806200029e57607f821691505b60208210811415620002c057634e487b7160e01b600052602260045260246000fd5b50919050565b612c7d80620002d66000396000f3fe60806040523480156200001157600080fd5b5060043610620000a65760003560e01c806306fdde0314620000ab5780632d7cb52a14620000cd5780635b9519a414620000d75780637cac6dce14620000f05780638f2b91ea14620001405780639a4046d914620001775780639f560d89146200018e578063b5abaaa214620001a5578063e24f2ce714620001cc578063f2a574ca14620001e3578063f851a4401462000209575b600080fd5b620000b56200021d565b604051620000c4919062000996565b60405180910390f35b620000b5620002b3565b620000ee620000e836600462000a75565b620002c2565b005b620001276200010136600462000acc565b80516020818301810180516005825292820191909301209152546001600160a01b031681565b6040516001600160a01b039091168152602001620000c4565b620001276200015136600462000acc565b80516020818301810180516003825292820191909301209152546001600160a01b031681565b620000ee6200018836600462000a75565b62000308565b620000ee6200019f36600462000b0c565b620004e5565b620001bc620001b636600462000b9d565b620007b4565b604051620000c492919062000be5565b620000ee620001dd36600462000bfe565b6200080a565b620001fa620001f436600462000acc565b62000890565b604051620000c4919062000c68565b60025462000127906001600160a01b031681565b600080546200022c9062000cc2565b80601f01602080910402602001604051908101604052809291908181526020018280546200025a9062000cc2565b8015620002ab5780601f106200027f57610100808354040283529160200191620002ab565b820191906000526020600020905b8154815290600101906020018083116200028d57829003601f168201915b505050505081565b600180546200022c9062000cc2565b80600583604051620002d5919062000cff565b90815260405190819003602001902080546001600160a01b03929092166001600160a01b03199092169190911790555050565b60006004836040516200031c919062000cff565b9081526020016040518091039020805480602002602001604051908101604052809291908181526020016000905b8282101562000394576000848152602090819020604080518082019091526002850290910180546001600160a01b031682526001908101548284015290835290920191016200034a565b5050825192935060009150505b81811015620004de576000838281518110620003c157620003c162000d1d565b60209081029190910181015180519181015160405163171c00fd60e01b8152919350906001600160a01b0383169063171c00fd90620004099033908b90869060040162000d33565b600060405180830381600087803b1580156200042457600080fd5b505af115801562000439573d6000803e3d6000fd5b50505050600060058960405162000451919062000cff565b90815260405190819003602001812054636a11781160e11b82526001600160a01b03169150819063d422f0229062000490908690869060040162000be5565b600060405180830381600087803b158015620004ab57600080fd5b505af1158015620004c0573d6000803e3d6000fd5b50505050505050508080620004d59062000d57565b915050620003a1565b5050505050565b6000600383604051620004f9919062000cff565b9081526040519081900360200181205463a15ab08d60e01b82526001600160a01b03169150600090829063a15ab08d906200053b903390879060040162000d81565b6020604051808303816000875af11580156200055b573d6000803e3d6000fd5b505050506040513d601f19601f8201168201806040525081019062000581919062000da7565b905060006040518060400160405280846001600160a01b03168152602001838152509050600486604051620005b7919062000cff565b908152604051602091819003820181208054600180820183556000928352848320865160029093020180546001600160a01b0319166001600160a01b03909316929092178255938501519301929092556005906200061790899062000cff565b908152604051908190036020019020546001600160a01b031614620007ac57826001600160a01b031663171c00fd3360058960405162000658919062000cff565b90815260408051602092819003830181205463356ad9f560e11b825291516001600160a01b0390921692636ad5b3ea926004808401938290030181865afa158015620006a8573d6000803e3d6000fd5b505050506040513d601f19601f82011682018060405250810190620006ce919062000dc1565b856040518463ffffffff1660e01b8152600401620006ef9392919062000d33565b600060405180830381600087803b1580156200070a57600080fd5b505af11580156200071f573d6000803e3d6000fd5b50505050600060058760405162000737919062000cff565b90815260405190819003602001812054636a11781160e11b82526001600160a01b03169150819063d422f0229062000776908790879060040162000be5565b600060405180830381600087803b1580156200079157600080fd5b505af1158015620007a6573d6000803e3d6000fd5b50505050505b505050505050565b81516020818401810180516004825292820191850191909120919052805482908110620007e057600080fd5b6000918252602090912060029091020180546001909101546001600160a01b039091169250905082565b600082826040516200081c9062000927565b6200082992919062000de1565b604051809103906000f08015801562000846573d6000803e3d6000fd5b509050806003836040516200085c919062000cff565b90815260405190819003602001902080546001600160a01b03929092166001600160a01b0319909216919091179055505050565b6060600482604051620008a4919062000cff565b9081526020016040518091039020805480602002602001604051908101604052809291908181526020016000905b828210156200091c576000848152602090819020604080518082019091526002850290910180546001600160a01b03168252600190810154828401529083529092019101620008d2565b505050509050919050565b611e118062000e3783390190565b60005b838110156200095257818101518382015260200162000938565b8381111562000962576000848401525b50505050565b600081518084526200098281602086016020860162000935565b601f01601f19169290920160200192915050565b602081526000620009ab602083018462000968565b9392505050565b634e487b7160e01b600052604160045260246000fd5b600082601f830112620009da57600080fd5b81356001600160401b0380821115620009f757620009f7620009b2565b604051601f8301601f19908116603f0116810190828211818310171562000a225762000a22620009b2565b8160405283815286602085880101111562000a3c57600080fd5b836020870160208301376000602085830101528094505050505092915050565b6001600160a01b038116811462000a7257600080fd5b50565b6000806040838503121562000a8957600080fd5b82356001600160401b0381111562000aa057600080fd5b62000aae85828601620009c8565b925050602083013562000ac18162000a5c565b809150509250929050565b60006020828403121562000adf57600080fd5b81356001600160401b0381111562000af657600080fd5b62000b0484828501620009c8565b949350505050565b60008060006060848603121562000b2257600080fd5b83356001600160401b038082111562000b3a57600080fd5b62000b4887838801620009c8565b9450602086013591508082111562000b5f57600080fd5b62000b6d87838801620009c8565b9350604086013591508082111562000b8457600080fd5b5062000b9386828701620009c8565b9150509250925092565b6000806040838503121562000bb157600080fd5b82356001600160401b0381111562000bc857600080fd5b62000bd685828601620009c8565b95602094909401359450505050565b6001600160a01b03929092168252602082015260400190565b6000806040838503121562000c1257600080fd5b82356001600160401b038082111562000c2a57600080fd5b62000c3886838701620009c8565b9350602085013591508082111562000c4f57600080fd5b5062000c5e85828601620009c8565b9150509250929050565b602080825282518282018190526000919060409081850190868401855b8281101562000cb557815180516001600160a01b0316855286015186850152928401929085019060010162000c85565b5091979650505050505050565b600181811c9082168062000cd757607f821691505b6020821081141562000cf957634e487b7160e01b600052602260045260246000fd5b50919050565b6000825162000d1381846020870162000935565b9190910192915050565b634e487b7160e01b600052603260045260246000fd5b6001600160a01b039384168152919092166020820152604081019190915260600190565b600060001982141562000d7a57634e487b7160e01b600052601160045260246000fd5b5060010190565b6001600160a01b038316815260406020820181905260009062000b049083018462000968565b60006020828403121562000dba57600080fd5b5051919050565b60006020828403121562000dd457600080fd5b8151620009ab8162000a5c565b60608152600062000df6606083018562000968565b82810380602085015260088252674352454449424c5960c01b60208301526040810160408501525062000e2d604082018562000968565b9594505050505056fe60806040523480156200001157600080fd5b5060405162001e1138038062001e118339810160408190526200003491620001f8565b8251839083906200004d90600090602085019062000085565b5080516200006390600190602084019062000085565b505081516200007b9150600c90602084019062000085565b50505050620002c6565b828054620000939062000289565b90600052602060002090601f016020900481019282620000b7576000855562000102565b82601f10620000d257805160ff191683800117855562000102565b8280016001018555821562000102579182015b8281111562000102578251825591602001919060010190620000e5565b506200011092915062000114565b5090565b5b8082111562000110576000815560010162000115565b634e487b7160e01b600052604160045260246000fd5b600082601f8301126200015357600080fd5b81516001600160401b03808211156200017057620001706200012b565b604051601f8301601f19908116603f011681019082821181831017156200019b576200019b6200012b565b81604052838152602092508683858801011115620001b857600080fd5b600091505b83821015620001dc5785820183015181830184015290820190620001bd565b83821115620001ee5760008385830101525b9695505050505050565b6000806000606084860312156200020e57600080fd5b83516001600160401b03808211156200022657600080fd5b620002348783880162000141565b945060208601519150808211156200024b57600080fd5b620002598783880162000141565b935060408601519150808211156200027057600080fd5b506200027f8682870162000141565b9150509250925092565b600181811c908216806200029e57607f821691505b60208210811415620002c057634e487b7160e01b600052602260045260246000fd5b50919050565b611b3b80620002d66000396000f3fe608060405234801561001057600080fd5b50600436106100e65760003560e01c806301ffc9a7146100eb57806306fdde0314610113578063081812fc14610128578063095ea7b314610153578063171c00fd1461016857806318160ddd1461017b57806323b872dd1461018d5780632f745c59146101a057806342842e0e146101b35780634f6ccce7146101c65780636352211e146101d957806370a08231146101ec57806395d89b41146101ff578063a15ab08d14610207578063a22cb4651461021a578063b88d4fde1461022d578063c87b56dd14610240578063e985e9c514610253575b600080fd5b6100fe6100f93660046115a0565b610266565b60405190151581526020015b60405180910390f35b61011b610277565b60405161010a9190611615565b61013b610136366004611628565b610309565b6040516001600160a01b03909116815260200161010a565b61016661016136600461165d565b610396565b005b610166610176366004611687565b6104a7565b6009545b60405190815260200161010a565b61016661019b366004611687565b610518565b61017f6101ae36600461165d565b61053e565b6101666101c1366004611687565b6105d4565b61017f6101d4366004611628565b6105ef565b61013b6101e7366004611628565b610682565b61017f6101fa3660046116c3565b6106f9565b61011b610780565b61017f610215366004611769565b61078f565b6101666102283660046117ca565b6107c6565b61016661023b366004611806565b6107d5565b61011b61024e366004611628565b61080d565b6100fe610261366004611881565b610818565b600061027182610846565b92915050565b606060008054610286906118b4565b80601f01602080910402602001604051908101604052809291908181526020018280546102b2906118b4565b80156102ff5780601f106102d4576101008083540402835291602001916102ff565b820191906000526020600020905b8154815290600101906020018083116102e257829003601f168201915b5050505050905090565b60006103148261086b565b61037a5760405162461bcd60e51b815260206004820152602c60248201527f4552433732313a20617070726f76656420717565727920666f72206e6f6e657860448201526b34b9ba32b73a103a37b5b2b760a11b60648201526084015b60405180910390fd5b506000908152600460205260409020546001600160a01b031690565b60006103a182610682565b9050806001600160a01b0316836001600160a01b0316141561040f5760405162461bcd60e51b815260206004820152602160248201527f4552433732313a20617070726f76616c20746f2063757272656e74206f776e656044820152603960f91b6064820152608401610371565b336001600160a01b038216148061042b575061042b8133610818565b6104985760405162461bcd60e51b815260206004820152603860248201527f4552433732313a20617070726f76652063616c6c6572206973206e6f74206f776044820152771b995c881b9bdc88185c1c1c9bdd995908199bdc88185b1b60421b6064820152608401610371565b6104a28383610888565b505050565b6104b183826108f6565b61050d5760405162461bcd60e51b815260206004820152602760248201527f43616c6c6572206973206e6f74206f776e6572206f66207468697320636572746044820152666966696361746560c81b6064820152608401610371565b6104a28383836109c0565b61052233826108f6565b61050d5760405162461bcd60e51b8152600401610371906118ef565b6000610549836106f9565b82106105ab5760405162461bcd60e51b815260206004820152602b60248201527f455243373231456e756d657261626c653a206f776e657220696e646578206f7560448201526a74206f6620626f756e647360a81b6064820152608401610371565b506001600160a01b03919091166000908152600760209081526040808320938352929052205490565b6104a2838383604051806020016040528060008152506107d5565b60006105fa60095490565b821061065d5760405162461bcd60e51b815260206004820152602c60248201527f455243373231456e756d657261626c653a20676c6f62616c20696e646578206f60448201526b7574206f6620626f756e647360a01b6064820152608401610371565b6009828154811061067057610670611940565b90600052602060002001549050919050565b6000818152600260205260408120546001600160a01b0316806102715760405162461bcd60e51b815260206004820152602960248201527f4552433732313a206f776e657220717565727920666f72206e6f6e657869737460448201526832b73a103a37b5b2b760b91b6064820152608401610371565b60006001600160a01b0382166107645760405162461bcd60e51b815260206004820152602a60248201527f4552433732313a2062616c616e636520717565727920666f7220746865207a65604482015269726f206164647265737360b01b6064820152608401610371565b506001600160a01b031660009081526003602052604090205490565b606060018054610286906118b4565b60008061079b600b5490565b90506107ab600b80546001019055565b6107b58482610b55565b6107bf8184610c81565b9392505050565b6107d1338383610d0c565b5050565b6107df33836108f6565b6107fb5760405162461bcd60e51b8152600401610371906118ef565b61080784848484610dd7565b50505050565b606061027182610e0a565b6001600160a01b03918216600090815260056020908152604080832093909416825291909152205460ff1690565b60006001600160e01b0319821663780e9d6360e01b1480610271575061027182610f79565b6000908152600260205260409020546001600160a01b0316151590565b600081815260046020526040902080546001600160a01b0319166001600160a01b03841690811790915581906108bd82610682565b6001600160a01b03167f8c5be1e5ebec7d5bd14f71427d1e84f3dd0314c0f7b2291e5b200ac8c7c3b92560405160405180910390a45050565b60006109018261086b565b6109625760405162461bcd60e51b815260206004820152602c60248201527f4552433732313a206f70657261746f7220717565727920666f72206e6f6e657860448201526b34b9ba32b73a103a37b5b2b760a11b6064820152608401610371565b600061096d83610682565b9050806001600160a01b0316846001600160a01b031614806109a85750836001600160a01b031661099d84610309565b6001600160a01b0316145b806109b857506109b88185610818565b949350505050565b826001600160a01b03166109d382610682565b6001600160a01b031614610a375760405162461bcd60e51b815260206004820152602560248201527f4552433732313a207472616e736665722066726f6d20696e636f72726563742060448201526437bbb732b960d91b6064820152608401610371565b6001600160a01b038216610a995760405162461bcd60e51b8152602060048201526024808201527f4552433732313a207472616e7366657220746f20746865207a65726f206164646044820152637265737360e01b6064820152608401610371565b610aa4838383610fc9565b610aaf600082610888565b6001600160a01b0383166000908152600360205260408120805460019290610ad890849061196c565b90915550506001600160a01b0382166000908152600360205260408120805460019290610b06908490611983565b909155505060008181526002602052604080822080546001600160a01b0319166001600160a01b038681169182179092559151849391871691600080516020611ae683398151915291a4505050565b6001600160a01b038216610bab5760405162461bcd60e51b815260206004820181905260248201527f4552433732313a206d696e7420746f20746865207a65726f20616464726573736044820152606401610371565b610bb48161086b565b15610c005760405162461bcd60e51b815260206004820152601c60248201527b115490cdcc8c4e881d1bdad95b88185b1c9958591e481b5a5b9d195960221b6044820152606401610371565b610c0c60008383610fc9565b6001600160a01b0382166000908152600360205260408120805460019290610c35908490611983565b909155505060008181526002602052604080822080546001600160a01b0319166001600160a01b0386169081179091559051839290600080516020611ae6833981519152908290a45050565b610c8a8261086b565b610ced5760405162461bcd60e51b815260206004820152602e60248201527f45524337323155524953746f726167653a2055524920736574206f66206e6f6e60448201526d32bc34b9ba32b73a103a37b5b2b760911b6064820152608401610371565b600082815260066020908152604090912082516104a2928401906114ee565b816001600160a01b0316836001600160a01b03161415610d6a5760405162461bcd60e51b815260206004820152601960248201527822a9219b99189d1030b8383937bb32903a379031b0b63632b960391b6044820152606401610371565b6001600160a01b03838116600081815260056020908152604080832094871680845294825291829020805460ff191686151590811790915591519182527f17307eab39ab6107e8899845ad3d59bd9653f200f220920489ca2b5937696c31910160405180910390a3505050565b610de28484846109c0565b610dee84848484610fd4565b6108075760405162461bcd60e51b81526004016103719061199b565b6060610e158261086b565b610e7b5760405162461bcd60e51b815260206004820152603160248201527f45524337323155524953746f726167653a2055524920717565727920666f72206044820152703737b732bc34b9ba32b73a103a37b5b2b760791b6064820152608401610371565b60008281526006602052604081208054610e94906118b4565b80601f0160208091040260200160405190810160405280929190818152602001828054610ec0906118b4565b8015610f0d5780601f10610ee257610100808354040283529160200191610f0d565b820191906000526020600020905b815481529060010190602001808311610ef057829003601f168201915b505050505090506000610f2b60408051602081019091526000815290565b9050805160001415610f3e575092915050565b815115610f70578082604051602001610f589291906119ed565b60405160208183030381529060405292505050919050565b6109b8846110d2565b60006001600160e01b031982166380ac58cd60e01b1480610faa57506001600160e01b03198216635b5e139f60e01b145b8061027157506301ffc9a760e01b6001600160e01b0319831614610271565b6104a28383836111a9565b60006001600160a01b0384163b156110c757604051630a85bd0160e11b81526001600160a01b0385169063150b7a0290611018903390899088908890600401611a1c565b6020604051808303816000875af1925050508015611053575060408051601f3d908101601f1916820190925261105091810190611a59565b60015b6110ad573d808015611081576040519150601f19603f3d011682016040523d82523d6000602084013e611086565b606091505b5080516110a55760405162461bcd60e51b81526004016103719061199b565b805181602001fd5b6001600160e01b031916630a85bd0160e11b1490506109b8565b506001949350505050565b60606110dd8261086b565b6111415760405162461bcd60e51b815260206004820152602f60248201527f4552433732314d657461646174613a2055524920717565727920666f72206e6f60448201526e3732bc34b9ba32b73a103a37b5b2b760891b6064820152608401610371565b600061115860408051602081019091526000815290565b9050600081511161117857604051806020016040528060008152506107bf565b8061118284611261565b6040516020016111939291906119ed565b6040516020818303038152906040529392505050565b6001600160a01b038316611204576111ff81600980546000838152600a60205260408120829055600182018355919091527f6e1540171b6c0c960b71a7020d9f60077f6af931a8bbf590da0223dacf75c7af0155565b611227565b816001600160a01b0316836001600160a01b03161461122757611227838261135e565b6001600160a01b03821661123e576104a2816113fb565b826001600160a01b0316826001600160a01b0316146104a2576104a282826114aa565b6060816112855750506040805180820190915260018152600360fc1b602082015290565b8160005b81156112af578061129981611a76565b91506112a89050600a83611aa7565b9150611289565b6000816001600160401b038111156112c9576112c96116de565b6040519080825280601f01601f1916602001820160405280156112f3576020820181803683370190505b5090505b84156109b85761130860018361196c565b9150611315600a86611abb565b611320906030611983565b60f81b81838151811061133557611335611940565b60200101906001600160f81b031916908160001a905350611357600a86611aa7565b94506112f7565b6000600161136b846106f9565b611375919061196c565b6000838152600860205260409020549091508082146113c8576001600160a01b03841660009081526007602090815260408083208584528252808320548484528184208190558352600890915290208190555b5060009182526008602090815260408084208490556001600160a01b039094168352600781528383209183525290812055565b60095460009061140d9060019061196c565b6000838152600a60205260408120546009805493945090928490811061143557611435611940565b90600052602060002001549050806009838154811061145657611456611940565b6000918252602080832090910192909255828152600a9091526040808220849055858252812055600980548061148e5761148e611acf565b6001900381819060005260206000200160009055905550505050565b60006114b5836106f9565b6001600160a01b039093166000908152600760209081526040808320868452825280832085905593825260089052919091209190915550565b8280546114fa906118b4565b90600052602060002090601f01602090048101928261151c5760008555611562565b82601f1061153557805160ff1916838001178555611562565b82800160010185558215611562579182015b82811115611562578251825591602001919060010190611547565b5061156e929150611572565b5090565b5b8082111561156e5760008155600101611573565b6001600160e01b03198116811461159d57600080fd5b50565b6000602082840312156115b257600080fd5b81356107bf81611587565b60005b838110156115d85781810151838201526020016115c0565b838111156108075750506000910152565b600081518084526116018160208601602086016115bd565b601f01601f19169290920160200192915050565b6020815260006107bf60208301846115e9565b60006020828403121561163a57600080fd5b5035919050565b80356001600160a01b038116811461165857600080fd5b919050565b6000806040838503121561167057600080fd5b61167983611641565b946020939093013593505050565b60008060006060848603121561169c57600080fd5b6116a584611641565b92506116b360208501611641565b9150604084013590509250925092565b6000602082840312156116d557600080fd5b6107bf82611641565b634e487b7160e01b600052604160045260246000fd5b60006001600160401b038084111561170e5761170e6116de565b604051601f8501601f19908116603f01168101908282118183101715611736576117366116de565b8160405280935085815286868601111561174f57600080fd5b858560208301376000602087830101525050509392505050565b6000806040838503121561177c57600080fd5b61178583611641565b915060208301356001600160401b038111156117a057600080fd5b8301601f810185136117b157600080fd5b6117c0858235602084016116f4565b9150509250929050565b600080604083850312156117dd57600080fd5b6117e683611641565b9150602083013580151581146117fb57600080fd5b809150509250929050565b6000806000806080858703121561181c57600080fd5b61182585611641565b935061183360208601611641565b92506040850135915060608501356001600160401b0381111561185557600080fd5b8501601f8101871361186657600080fd5b611875878235602084016116f4565b91505092959194509250565b6000806040838503121561189457600080fd5b61189d83611641565b91506118ab60208401611641565b90509250929050565b600181811c908216806118c857607f821691505b602082108114156118e957634e487b7160e01b600052602260045260246000fd5b50919050565b60208082526031908201527f4552433732313a207472616e736665722063616c6c6572206973206e6f74206f6040820152701ddb995c881b9bdc88185c1c1c9bdd9959607a1b606082015260800190565b634e487b7160e01b600052603260045260246000fd5b634e487b7160e01b600052601160045260246000fd5b60008282101561197e5761197e611956565b500390565b6000821982111561199657611996611956565b500190565b60208082526032908201527f4552433732313a207472616e7366657220746f206e6f6e20455243373231526560408201527131b2b4bb32b91034b6b83632b6b2b73a32b960711b606082015260800190565b600083516119ff8184602088016115bd565b835190830190611a138183602088016115bd565b01949350505050565b6001600160a01b0385811682528416602082015260408101839052608060608201819052600090611a4f908301846115e9565b9695505050505050565b600060208284031215611a6b57600080fd5b81516107bf81611587565b6000600019821415611a8a57611a8a611956565b5060010190565b634e487b7160e01b600052601260045260246000fd5b600082611ab657611ab6611a91565b500490565b600082611aca57611aca611a91565b500690565b634e487b7160e01b600052603160045260246000fdfeddf252ad1be2c89b69c2b068fc378daa952ba7f163c4a11628f55a4df523b3efa2646970667358221220e81c1829af9b911f4ed15624dc11ae3eb800536e7adf596f7e6758faa04878e364736f6c634300080c0033a2646970667358221220e31ee1f6b4f1b308cd9f937ece54798be017227913a7dbc1cd49f81c0289172e64736f6c634300080c0033608060405234801561001057600080fd5b5060405161060238038061060283398101604081905261002f91610068565b505061014a565b634e487b7160e01b600052604160045260246000fd5b80516001600160a01b038116811461006357600080fd5b919050565b6000806040838503121561007b57600080fd5b82516001600160401b038082111561009257600080fd5b818501915085601f8301126100a657600080fd5b8151818111156100b8576100b8610036565b604051601f8201601f19908116603f011681019083821181831017156100e0576100e0610036565b816040528281526020935088848487010111156100fc57600080fd5b600091505b8282101561011e5784820184015181830185015290830190610101565b8282111561012f5760008484830101525b955061013f91505085820161004c565b925050509250929050565b6104a9806101596000396000f3fe608060405234801561001057600080fd5b506004361061006d5760003560e01c80631f5ddb4f146100725780634bdbd39a14610090578063573668db146100ad578063663b3e22146100d85780636ad5b3ea1461010a578063820e93f51461011d578063d422f02214610132575b600080fd5b61007a6101d5565b604051610087919061033a565b60405180910390f35b60045461009d9060ff1681565b6040519015158152602001610087565b6100c06100bb366004610392565b61024a565b6040516001600160a01b039091168152602001610087565b6100eb6100e6366004610392565b610274565b604080516001600160a01b039093168352602083019190915201610087565b6001546100c0906001600160a01b031681565b6101256102ac565b60405161008791906103ab565b6101d3610140366004610400565b604080518082019091526001600160a01b0392831681526020810191825260028054600181018255600082905291517f405787fa12a823e0f2b7631cc41b3ba8828b3321ca811111fa75cd3aa3bb5ace9290910291820180546001600160a01b0319169190941617909255517f405787fa12a823e0f2b7631cc41b3ba8828b3321ca811111fa75cd3aa3bb5acf90910155565b005b60606002805480602002602001604051908101604052809291908181526020016000905b82821015610241576000848152602090819020604080518082019091526002850290910180546001600160a01b031682526001908101548284015290835290920191016101f9565b50505050905090565b6003818154811061025a57600080fd5b6000918252602090912001546001600160a01b0316905081565b6002818154811061028457600080fd5b6000918252602090912060029091020180546001909101546001600160a01b03909116915082565b600080546102b990610438565b80601f01602080910402602001604051908101604052809291908181526020018280546102e590610438565b80156103325780601f1061030757610100808354040283529160200191610332565b820191906000526020600020905b81548152906001019060200180831161031557829003601f168201915b505050505081565b602080825282518282018190526000919060409081850190868401855b8281101561038557815180516001600160a01b03168552860151868501529284019290850190600101610357565b5091979650505050505050565b6000602082840312156103a457600080fd5b5035919050565b600060208083528351808285015260005b818110156103d8578581018301518582016040015282016103bc565b818111156103ea576000604083870101525b50601f01601f1916929092016040019392505050565b6000806040838503121561041357600080fd5b82356001600160a01b038116811461042a57600080fd5b946020939093013593505050565b600181811c9082168061044c57607f821691505b6020821081141561046d57634e487b7160e01b600052602260045260246000fd5b5091905056fea2646970667358221220175d32d7a4e21b1ff5a83792475ab7d92dc7ad0104441f0ac0abe9bca0e130a564736f6c634300080c0033a26469706673582212207758f56d6c5c1a203a931e395bf3a206214552f7af2912c9070253622c990ac964736f6c634300080c0033",
  "immutableReferences": {},
  "source": "// SPDX-License-Identifier: UNLICENSED\r\npragma solidity ^0.8.0;\r\n\r\nimport './Organisation.sol';\r\nimport './Awardee.sol';\r\n\r\ncontract System {\r\n    // uen => Organisation Obj\r\n    mapping (string => Organisation) public organisations;\r\n    // email => uen[] (list of organisations worked at)\r\n    mapping (string => string[]) public employeesOrganisations;\r\n    // email => Awardee Obj\r\n    mapping (string => Awardee) public awardees;\r\n\r\n\r\n    constructor() {\r\n    }\r\n\r\n    // register organisation\r\n    function registerOrganisation(\r\n        string memory name,\r\n        string memory uen,\r\n        address admin\r\n    ) public {\r\n        Organisation organisation = new Organisation(name, uen, admin);\r\n        organisations[uen] = organisation;\r\n    }\r\n\r\n    // register employee to organisation\r\n    function registerEmployee(\r\n        string memory uen,\r\n        // string memory name,\r\n        string memory email\r\n        // string memory position,\r\n        // uint256 startDate\r\n    ) public {\r\n        Organisation organisation = organisations[uen];\r\n        // organisation.addEmployee(email, name, position, startDate);\r\n        employeesOrganisations[email].push(uen);\r\n    }\r\n\r\n    // register awardee\r\n    // transfer all exisitng nfts to awardee\r\n    // register awardee to organisation\r\n    function registerAwardee(\r\n        string memory email,\r\n        address awardee\r\n    ) public {\r\n        // create new awardee obj\r\n        awardees[email] = new Awardee(email, awardee);\r\n        string[] memory employeeOrganisations = employeesOrganisations[email];\r\n        // find all organisations awardee belong to\r\n        uint256 numEmployeeOrganisations = employeesOrganisations[email].length;\r\n        for (uint256 i = 0; i < numEmployeeOrganisations; i++) {\r\n            string memory uen = employeeOrganisations[i];\r\n            Organisation organisation = organisations[uen];\r\n            // add awardees to organisation\r\n            organisation.addAwardee(email, awardee);\r\n            // transfer all certs\r\n            organisation.transferAllCertificates(email, awardee);\r\n        }\r\n        // return organisation.employeesCertificates();\r\n    }\r\n\r\n    // get all employee certs via email // useless function?\r\n\r\n    function getOrganisation(string memory uen) public returns (Organisation) {\r\n        return organisations[uen];\r\n    }\r\n\r\n    function getAwardee(string memory email) public returns (Awardee) {\r\n        return awardees[email];\r\n    }\r\n\r\n    // function newCertificate(\r\n    //     string memory uen,\r\n    //     string memory name,\r\n    //     string memory certificateID\r\n    // ) public {\r\n    //     Organisation organisation = organisations[uen];\r\n    //     organisation.addCertificate(name, name, certificateID);\r\n    // }\r\n\r\n    // function awardCertificate(\r\n    //     string memory uen,\r\n    //     string memory email,\r\n    //     string memory certificateID,\r\n    //     string memory url\r\n    // ) public {\r\n    //     Organisation organisation = organisations[uen];\r\n    //     organisation.awardCertificate(email, certificateID, url);\r\n    // }\r\n\r\n    // function getCertificate(\r\n    //     string memory email\r\n    // )\r\n\r\n    // test contract using system.sol only\r\n\r\n\r\n}\r\n",
  "sourcePath": "C:\\Users\\MHA\\desktop\\credibly-fe\\ethereum\\contracts\\System.sol",
  "compiler": {
    "name": "solc",
    "version": "0.8.12+commit.f00d7308.Emscripten.clang"
  },
  "schemaVersion": "3.4.6",
  "updatedAt": "2022-03-20T08:22:19.758Z",
  "networkType": "ethereum",
  "devdoc": {
    "kind": "dev",
    "methods": {},
    "version": 1
  },
  "userdoc": {
    "kind": "user",
    "methods": {},
    "version": 1
  }
}