{
  "contractName": "WorkExperience",
  "abi": [
    {
      "inputs": [
        {
          "internalType": "string",
          "name": "_organisation",
          "type": "string"
        },
        {
          "internalType": "string",
          "name": "_position",
          "type": "string"
        },
        {
          "internalType": "string",
          "name": "_description",
          "type": "string"
        },
        {
          "internalType": "uint256",
          "name": "_startDate",
          "type": "uint256"
        },
        {
          "internalType": "address",
          "name": "_admin",
          "type": "address"
        }
      ],
      "stateMutability": "nonpayable",
      "type": "constructor"
    },
    {
      "inputs": [],
      "name": "admin",
      "outputs": [
        {
          "internalType": "address",
          "name": "",
          "type": "address"
        }
      ],
      "stateMutability": "view",
      "type": "function"
    },
    {
      "inputs": [],
      "name": "details",
      "outputs": [
        {
          "internalType": "string",
          "name": "organisation",
          "type": "string"
        },
        {
          "internalType": "string",
          "name": "position",
          "type": "string"
        },
        {
          "internalType": "string",
          "name": "description",
          "type": "string"
        },
        {
          "internalType": "uint256",
          "name": "startDate",
          "type": "uint256"
        },
        {
          "internalType": "uint256",
          "name": "endDate",
          "type": "uint256"
        },
        {
          "internalType": "bool",
          "name": "end",
          "type": "bool"
        }
      ],
      "stateMutability": "view",
      "type": "function"
    },
    {
      "inputs": [
        {
          "internalType": "uint256",
          "name": "_endDate",
          "type": "uint256"
        }
      ],
      "name": "setEndDate",
      "outputs": [],
      "stateMutability": "nonpayable",
      "type": "function"
    }
  ],
  "bytecode": "0x608060405234801561001057600080fd5b506040516106e93803806106e983398101604081905261002f916101f4565b8451610042906001906020880190610099565b508351610056906002906020870190610099565b50825161006a906003906020860190610099565b50600491909155600080546001600160a01b0319166001600160a01b03909216919091179055506102e3915050565b8280546100a5906102a8565b90600052602060002090601f0160209004810192826100c7576000855561010d565b82601f106100e057805160ff191683800117855561010d565b8280016001018555821561010d579182015b8281111561010d5782518255916020019190600101906100f2565b5061011992915061011d565b5090565b5b80821115610119576000815560010161011e565b634e487b7160e01b600052604160045260246000fd5b600082601f83011261015957600080fd5b81516001600160401b038082111561017357610173610132565b604051601f8301601f19908116603f0116810190828211818310171561019b5761019b610132565b816040528381526020925086838588010111156101b757600080fd5b600091505b838210156101d957858201830151818301840152908201906101bc565b838211156101ea5760008385830101525b9695505050505050565b600080600080600060a0868803121561020c57600080fd5b85516001600160401b038082111561022357600080fd5b61022f89838a01610148565b9650602088015191508082111561024557600080fd5b61025189838a01610148565b9550604088015191508082111561026757600080fd5b5061027488828901610148565b60608801516080890151919550935090506001600160a01b038116811461029a57600080fd5b809150509295509295909350565b600181811c908216806102bc57607f821691505b602082108114156102dd57634e487b7160e01b600052602260045260246000fd5b50919050565b6103f7806102f26000396000f3fe608060405234801561001057600080fd5b50600436106100415760003560e01c80633784f00014610046578063565974d31461005b578063f851a4401461007e575b600080fd5b6100596100543660046102c6565b6100a9565b005b610063610101565b6040516100759695949392919061032c565b60405180910390f35b600054610091906001600160a01b031681565b6040516001600160a01b039091168152602001610075565b6000546001600160a01b031632146100fc5760405162461bcd60e51b81526020600482015260126024820152712ab730baba3437b934b9b2b2103ab9b2b91760711b604482015260640160405180910390fd5b600555565b60018054819061011090610386565b80601f016020809104026020016040519081016040528092919081815260200182805461013c90610386565b80156101895780601f1061015e57610100808354040283529160200191610189565b820191906000526020600020905b81548152906001019060200180831161016c57829003601f168201915b50505050509080600101805461019e90610386565b80601f01602080910402602001604051908101604052809291908181526020018280546101ca90610386565b80156102175780601f106101ec57610100808354040283529160200191610217565b820191906000526020600020905b8154815290600101906020018083116101fa57829003601f168201915b50505050509080600201805461022c90610386565b80601f016020809104026020016040519081016040528092919081815260200182805461025890610386565b80156102a55780601f1061027a576101008083540402835291602001916102a5565b820191906000526020600020905b81548152906001019060200180831161028857829003601f168201915b50505050600383015460048401546005909401549293909290915060ff1686565b6000602082840312156102d857600080fd5b5035919050565b6000815180845260005b81811015610305576020818501810151868301820152016102e9565b81811115610317576000602083870101525b50601f01601f19169290920160200192915050565b60c08152600061033f60c08301896102df565b828103602084015261035181896102df565b9050828103604084015261036581886102df565b606084019690965250506080810192909252151560a0909101529392505050565b600181811c9082168061039a57607f821691505b602082108114156103bb57634e487b7160e01b600052602260045260246000fd5b5091905056fea2646970667358221220d8d0623a5ec857d2e4793cef277638ee1e0f73ebc21e2d25355703507bc3fa4c64736f6c634300080c0033",
  "immutableReferences": {},
  "source": "// SPDX-License-Identifier: UNLICENSED\r\npragma solidity ^0.8.0;\r\n\r\ncontract WorkExperience {\r\n\r\n    struct Details {\r\n        string organisation;\r\n        string position;\r\n        string description;\r\n        uint256 startDate;\r\n        uint256 endDate;\r\n        bool end;\r\n    }\r\n\r\n    address public admin; // admin wallet address of the Organisation that created this Work Experience instance\r\n    Details public details;\r\n\r\n    constructor(\r\n        string memory _organisation,\r\n        string memory _position,\r\n        string memory _description,\r\n        uint256 _startDate,\r\n        address _admin\r\n    ) {\r\n        details.organisation = _organisation;\r\n        details.position = _position;\r\n        details.description = _description;\r\n        details.startDate = _startDate;\r\n        admin = _admin;\r\n    }\r\n\r\n    modifier onlyAdmin { // only the admin wallet address can execute the function\r\n        require(tx.origin == admin, \"Unauthorised user.\");\r\n        _;\r\n    }\r\n\r\n    // Update End Date of Work Experience\r\n    function setEndDate(uint256 _endDate) public onlyAdmin {\r\n        details.endDate = _endDate;\r\n    }\r\n\r\n}",
  "sourcePath": "D:\\modules\\credibly-fe\\ethereum\\contracts\\WorkExperience.sol",
  "compiler": {
    "name": "solc",
    "version": "0.8.12+commit.f00d7308.Emscripten.clang"
  },
  "schemaVersion": "3.4.4",
  "updatedAt": "2022-04-08T15:24:29.274Z",
  "devdoc": {
    "kind": "dev",
    "methods": {},
    "version": 1
  },
  "userdoc": {
    "kind": "user",
    "methods": {},
    "version": 1
  }
}