{
  "contractName": "WorkExperience",
  "abi": [
    {
      "inputs": [
        {
          "internalType": "string",
          "name": "_organisation",
          "type": "string"
        },
        {
          "internalType": "string",
          "name": "_position",
          "type": "string"
        },
        {
          "internalType": "string",
          "name": "_description",
          "type": "string"
        },
        {
          "internalType": "uint256",
          "name": "_startDate",
          "type": "uint256"
        }
      ],
      "stateMutability": "nonpayable",
      "type": "constructor"
    },
    {
      "inputs": [],
      "name": "getWorkExperience",
      "outputs": [
        {
          "internalType": "string",
          "name": "",
          "type": "string"
        },
        {
          "internalType": "string",
          "name": "",
          "type": "string"
        },
        {
          "internalType": "string",
          "name": "",
          "type": "string"
        },
        {
          "internalType": "uint256",
          "name": "",
          "type": "uint256"
        },
        {
          "internalType": "uint256",
          "name": "",
          "type": "uint256"
        },
        {
          "internalType": "bool",
          "name": "",
          "type": "bool"
        }
      ],
      "stateMutability": "view",
      "type": "function"
    },
    {
      "inputs": [],
      "name": "setEndStatus",
      "outputs": [],
      "stateMutability": "nonpayable",
      "type": "function"
    },
    {
      "inputs": [
        {
          "internalType": "uint256",
          "name": "_endDate",
          "type": "uint256"
        }
      ],
      "name": "setEndDate",
      "outputs": [],
      "stateMutability": "nonpayable",
      "type": "function"
    }
  ],
  "bytecode": "0x608060405234801561001057600080fd5b5060405161064938038061064983398101604081905261002f916101d2565b8351610042906000906020870190610077565b508251610056906001906020860190610077565b50815161006a906002906020850190610077565b506003555061029c915050565b82805461008390610261565b90600052602060002090601f0160209004810192826100a557600085556100eb565b82601f106100be57805160ff19168380011785556100eb565b828001600101855582156100eb579182015b828111156100eb5782518255916020019190600101906100d0565b506100f79291506100fb565b5090565b5b808211156100f757600081556001016100fc565b634e487b7160e01b600052604160045260246000fd5b600082601f83011261013757600080fd5b81516001600160401b038082111561015157610151610110565b604051601f8301601f19908116603f0116810190828211818310171561017957610179610110565b8160405283815260209250868385880101111561019557600080fd5b600091505b838210156101b7578582018301518183018401529082019061019a565b838211156101c85760008385830101525b9695505050505050565b600080600080608085870312156101e857600080fd5b84516001600160401b03808211156101ff57600080fd5b61020b88838901610126565b9550602087015191508082111561022157600080fd5b61022d88838901610126565b9450604087015191508082111561024357600080fd5b5061025087828801610126565b606096909601519497939650505050565b600181811c9082168061027557607f821691505b6020821081141561029657634e487b7160e01b600052602260045260246000fd5b50919050565b61039e806102ab6000396000f3fe608060405234801561001057600080fd5b50600436106100415760003560e01c80633784f0001461004657806392f622d11461005b578063b3629f401461006d575b600080fd5b61005961005436600461026d565b600455565b005b6100596005805460ff19166001179055565b610075610090565b604051610087969594939291906102d3565b60405180910390f35b606080606060008060008060016002600354600454600560009054906101000a900460ff168580546100c19061032d565b80601f01602080910402602001604051908101604052809291908181526020018280546100ed9061032d565b801561013a5780601f1061010f5761010080835404028352916020019161013a565b820191906000526020600020905b81548152906001019060200180831161011d57829003601f168201915b5050505050955084805461014d9061032d565b80601f01602080910402602001604051908101604052809291908181526020018280546101799061032d565b80156101c65780601f1061019b576101008083540402835291602001916101c6565b820191906000526020600020905b8154815290600101906020018083116101a957829003601f168201915b505050505094508380546101d99061032d565b80601f01602080910402602001604051908101604052809291908181526020018280546102059061032d565b80156102525780601f1061022757610100808354040283529160200191610252565b820191906000526020600020905b81548152906001019060200180831161023557829003601f168201915b50505050509350955095509550955095509550909192939495565b60006020828403121561027f57600080fd5b5035919050565b6000815180845260005b818110156102ac57602081850181015186830182015201610290565b818111156102be576000602083870101525b50601f01601f19169290920160200192915050565b60c0815260006102e660c0830189610286565b82810360208401526102f88189610286565b9050828103604084015261030c8188610286565b606084019690965250506080810192909252151560a0909101529392505050565b600181811c9082168061034157607f821691505b6020821081141561036257634e487b7160e01b600052602260045260246000fd5b5091905056fea26469706673582212203bd411085aeef675bd378821bf91d298f34bd10866b62588d859a90e63600b1a64736f6c634300080c0033",
  "immutableReferences": {},
  "source": "// SPDX-License-Identifier: UNLICENSED\r\npragma solidity ^0.8.0;\r\n\r\ncontract WorkExperience {\r\n\r\n    string organisation;\r\n    string position;\r\n    string description;\r\n    uint256 startDate;\r\n    uint256 endDate;\r\n    bool end;\r\n\r\n    constructor(\r\n        string memory _organisation,\r\n        string memory _position,\r\n        string memory _description,\r\n        uint256 _startDate\r\n    ) {\r\n        organisation = _organisation;\r\n        position = _position;\r\n        description = _description;\r\n        startDate = _startDate;\r\n    }\r\n\r\n    function getWorkExperience() view public returns (\r\n        string memory,\r\n        string memory,\r\n        string memory,\r\n        uint256,\r\n        uint256,\r\n        bool\r\n    ) {\r\n        return (organisation, position, description, startDate, endDate, end);\r\n    }\r\n\r\n    function setEndStatus() public {\r\n        end = true;\r\n    }\r\n\r\n    function setEndDate(uint256 _endDate) public {\r\n        endDate = _endDate;\r\n    }\r\n\r\n}",
  "sourcePath": "C:\\Users\\MHA\\desktop\\credibly-fe\\ethereum\\contracts\\WorkExperience.sol",
  "compiler": {
    "name": "solc",
    "version": "0.8.12+commit.f00d7308.Emscripten.clang"
  },
  "schemaVersion": "3.4.6",
  "updatedAt": "2022-03-24T15:42:18.137Z",
  "devdoc": {
    "kind": "dev",
    "methods": {},
    "version": 1
  },
  "userdoc": {
    "kind": "user",
    "methods": {},
    "version": 1
  }
}