{
  "contractName": "WorkExperience",
  "abi": [
    {
      "inputs": [
        {
          "internalType": "string",
          "name": "_organisation",
          "type": "string"
        },
        {
          "internalType": "string",
          "name": "_position",
          "type": "string"
        },
        {
          "internalType": "string",
          "name": "_description",
          "type": "string"
        },
        {
          "internalType": "uint256",
          "name": "_startDate",
          "type": "uint256"
        }
      ],
      "stateMutability": "nonpayable",
      "type": "constructor"
    },
    {
      "inputs": [],
      "name": "details",
      "outputs": [
        {
          "internalType": "string",
          "name": "organisation",
          "type": "string"
        },
        {
          "internalType": "string",
          "name": "position",
          "type": "string"
        },
        {
          "internalType": "string",
          "name": "description",
          "type": "string"
        },
        {
          "internalType": "uint256",
          "name": "startDate",
          "type": "uint256"
        },
        {
          "internalType": "uint256",
          "name": "endDate",
          "type": "uint256"
        },
        {
          "internalType": "bool",
          "name": "end",
          "type": "bool"
        }
      ],
      "stateMutability": "view",
      "type": "function"
    },
    {
      "inputs": [],
      "name": "setEndStatus",
      "outputs": [],
      "stateMutability": "nonpayable",
      "type": "function"
    },
    {
      "inputs": [
        {
          "internalType": "uint256",
          "name": "_endDate",
          "type": "uint256"
        }
      ],
      "name": "setEndDate",
      "outputs": [],
      "stateMutability": "nonpayable",
      "type": "function"
    }
  ],
  "bytecode": "0x608060405234801561001057600080fd5b5060405161063138038061063183398101604081905261002f916101d2565b8351610042906000906020870190610077565b508251610056906001906020860190610077565b50815161006a906002906020850190610077565b506003555061029c915050565b82805461008390610261565b90600052602060002090601f0160209004810192826100a557600085556100eb565b82601f106100be57805160ff19168380011785556100eb565b828001600101855582156100eb579182015b828111156100eb5782518255916020019190600101906100d0565b506100f79291506100fb565b5090565b5b808211156100f757600081556001016100fc565b634e487b7160e01b600052604160045260246000fd5b600082601f83011261013757600080fd5b81516001600160401b038082111561015157610151610110565b604051601f8301601f19908116603f0116810190828211818310171561017957610179610110565b8160405283815260209250868385880101111561019557600080fd5b600091505b838210156101b7578582018301518183018401529082019061019a565b838211156101c85760008385830101525b9695505050505050565b600080600080608085870312156101e857600080fd5b84516001600160401b03808211156101ff57600080fd5b61020b88838901610126565b9550602087015191508082111561022157600080fd5b61022d88838901610126565b9450604087015191508082111561024357600080fd5b5061025087828801610126565b606096909601519497939650505050565b600181811c9082168061027557607f821691505b6020821081141561029657634e487b7160e01b600052602260045260246000fd5b50919050565b610386806102ab6000396000f3fe608060405234801561001057600080fd5b50600436106100415760003560e01c80633784f00014610046578063565974d31461005b57806392f622d11461007e575b600080fd5b610059610054366004610255565b600455565b005b610063610090565b604051610075969594939291906102bb565b60405180910390f35b6100596005805460ff19166001179055565b60008054819061009f90610315565b80601f01602080910402602001604051908101604052809291908181526020018280546100cb90610315565b80156101185780601f106100ed57610100808354040283529160200191610118565b820191906000526020600020905b8154815290600101906020018083116100fb57829003601f168201915b50505050509080600101805461012d90610315565b80601f016020809104026020016040519081016040528092919081815260200182805461015990610315565b80156101a65780601f1061017b576101008083540402835291602001916101a6565b820191906000526020600020905b81548152906001019060200180831161018957829003601f168201915b5050505050908060020180546101bb90610315565b80601f01602080910402602001604051908101604052809291908181526020018280546101e790610315565b80156102345780601f1061020957610100808354040283529160200191610234565b820191906000526020600020905b81548152906001019060200180831161021757829003601f168201915b50505050600383015460048401546005909401549293909290915060ff1686565b60006020828403121561026757600080fd5b5035919050565b6000815180845260005b8181101561029457602081850181015186830182015201610278565b818111156102a6576000602083870101525b50601f01601f19169290920160200192915050565b60c0815260006102ce60c083018961026e565b82810360208401526102e0818961026e565b905082810360408401526102f4818861026e565b606084019690965250506080810192909252151560a0909101529392505050565b600181811c9082168061032957607f821691505b6020821081141561034a57634e487b7160e01b600052602260045260246000fd5b5091905056fea26469706673582212201793ec91c2d6060493d022154c92c878144bb63bc14cdc3ca39ac22cca04fc0f64736f6c634300080c0033",
  "immutableReferences": {},
  "source": "// SPDX-License-Identifier: UNLICENSED\r\npragma solidity ^0.8.0;\r\n\r\ncontract WorkExperience {\r\n\r\n    struct Details {\r\n        string organisation;\r\n        string position;\r\n        string description;\r\n        uint256 startDate;\r\n        uint256 endDate;\r\n        bool end;\r\n    }\r\n\r\n    Details public details;\r\n\r\n    constructor(\r\n        string memory _organisation,\r\n        string memory _position,\r\n        string memory _description,\r\n        uint256 _startDate\r\n    ) {\r\n        details.organisation = _organisation;\r\n        details.position = _position;\r\n        details.description = _description;\r\n        details.startDate = _startDate;\r\n    }\r\n\r\n    function setEndStatus() public {\r\n        details.end = true;\r\n    }\r\n\r\n    function setEndDate(uint256 _endDate) public {\r\n        details.endDate = _endDate;\r\n    }\r\n\r\n}",
  "sourcePath": "D:\\modules\\credibly-fe\\ethereum\\contracts\\WorkExperience.sol",
  "compiler": {
    "name": "solc",
    "version": "0.8.12+commit.f00d7308.Emscripten.clang"
  },
  "schemaVersion": "3.4.4",
  "updatedAt": "2022-03-28T15:39:08.754Z",
  "devdoc": {
    "kind": "dev",
    "methods": {},
    "version": 1
  },
  "userdoc": {
    "kind": "user",
    "methods": {},
    "version": 1
  }
}